{
	"contracts/Video.sol": {
		"VideoSharing": {
			"abi": [
				{
					"inputs": [
						{
							"internalType": "address",
							"name": "_tokenAddress",
							"type": "address"
						},
						{
							"internalType": "address",
							"name": "_platformAddress",
							"type": "address"
						}
					],
					"stateMutability": "nonpayable",
					"type": "constructor"
				},
				{
					"anonymous": false,
					"inputs": [
						{
							"indexed": false,
							"internalType": "address",
							"name": "uploader",
							"type": "address"
						},
						{
							"indexed": false,
							"internalType": "address",
							"name": "viewer",
							"type": "address"
						}
					],
					"name": "ChannelAccessGranted",
					"type": "event"
				},
				{
					"anonymous": false,
					"inputs": [
						{
							"indexed": false,
							"internalType": "uint256",
							"name": "videoId",
							"type": "uint256"
						},
						{
							"indexed": false,
							"internalType": "uint256",
							"name": "commentId",
							"type": "uint256"
						},
						{
							"indexed": false,
							"internalType": "address",
							"name": "commenter",
							"type": "address"
						}
					],
					"name": "CommentAdded",
					"type": "event"
				},
				{
					"anonymous": false,
					"inputs": [
						{
							"indexed": false,
							"internalType": "uint256",
							"name": "videoId",
							"type": "uint256"
						},
						{
							"indexed": false,
							"internalType": "uint256",
							"name": "commentId",
							"type": "uint256"
						},
						{
							"indexed": false,
							"internalType": "address",
							"name": "commenter",
							"type": "address"
						}
					],
					"name": "CommentDeleted",
					"type": "event"
				},
				{
					"anonymous": false,
					"inputs": [
						{
							"indexed": false,
							"internalType": "uint256",
							"name": "videoId",
							"type": "uint256"
						},
						{
							"indexed": false,
							"internalType": "uint256",
							"name": "commentId",
							"type": "uint256"
						},
						{
							"indexed": false,
							"internalType": "address",
							"name": "commenter",
							"type": "address"
						}
					],
					"name": "CommentEdited",
					"type": "event"
				},
				{
					"anonymous": false,
					"inputs": [
						{
							"indexed": false,
							"internalType": "address",
							"name": "uploader",
							"type": "address"
						},
						{
							"indexed": false,
							"internalType": "uint256",
							"name": "amount",
							"type": "uint256"
						}
					],
					"name": "FundsWithdrawn",
					"type": "event"
				},
				{
					"anonymous": false,
					"inputs": [
						{
							"indexed": false,
							"internalType": "uint256",
							"name": "videoId",
							"type": "uint256"
						},
						{
							"indexed": false,
							"internalType": "address",
							"name": "tipper",
							"type": "address"
						},
						{
							"indexed": false,
							"internalType": "uint256",
							"name": "amount",
							"type": "uint256"
						}
					],
					"name": "Tipped",
					"type": "event"
				},
				{
					"anonymous": false,
					"inputs": [
						{
							"indexed": false,
							"internalType": "uint256",
							"name": "videoId",
							"type": "uint256"
						},
						{
							"indexed": false,
							"internalType": "address",
							"name": "liker",
							"type": "address"
						}
					],
					"name": "VideoLiked",
					"type": "event"
				},
				{
					"anonymous": false,
					"inputs": [
						{
							"indexed": false,
							"internalType": "uint256",
							"name": "videoId",
							"type": "uint256"
						},
						{
							"indexed": false,
							"internalType": "address",
							"name": "unliker",
							"type": "address"
						}
					],
					"name": "VideoUnliked",
					"type": "event"
				},
				{
					"anonymous": false,
					"inputs": [
						{
							"indexed": false,
							"internalType": "uint256",
							"name": "id",
							"type": "uint256"
						},
						{
							"indexed": false,
							"internalType": "string",
							"name": "title",
							"type": "string"
						},
						{
							"indexed": false,
							"internalType": "string",
							"name": "description",
							"type": "string"
						},
						{
							"indexed": false,
							"internalType": "address",
							"name": "uploader",
							"type": "address"
						},
						{
							"indexed": false,
							"internalType": "uint256",
							"name": "uploadDate",
							"type": "uint256"
						},
						{
							"indexed": false,
							"internalType": "string",
							"name": "arweaveTxId",
							"type": "string"
						},
						{
							"indexed": false,
							"internalType": "string",
							"name": "thumbnailUrl",
							"type": "string"
						},
						{
							"indexed": false,
							"internalType": "uint256",
							"name": "duration",
							"type": "uint256"
						}
					],
					"name": "VideoUploaded",
					"type": "event"
				},
				{
					"inputs": [
						{
							"internalType": "uint256",
							"name": "_videoId",
							"type": "uint256"
						},
						{
							"internalType": "string",
							"name": "_text",
							"type": "string"
						}
					],
					"name": "addComment",
					"outputs": [],
					"stateMutability": "nonpayable",
					"type": "function"
				},
				{
					"inputs": [
						{
							"internalType": "address",
							"name": "",
							"type": "address"
						}
					],
					"name": "channelAccessFee",
					"outputs": [
						{
							"internalType": "uint256",
							"name": "",
							"type": "uint256"
						}
					],
					"stateMutability": "view",
					"type": "function"
				},
				{
					"inputs": [
						{
							"internalType": "uint256",
							"name": "_videoId",
							"type": "uint256"
						},
						{
							"internalType": "uint256",
							"name": "_commentId",
							"type": "uint256"
						}
					],
					"name": "deleteComment",
					"outputs": [],
					"stateMutability": "nonpayable",
					"type": "function"
				},
				{
					"inputs": [
						{
							"internalType": "uint256",
							"name": "_videoId",
							"type": "uint256"
						},
						{
							"internalType": "uint256",
							"name": "_commentId",
							"type": "uint256"
						},
						{
							"internalType": "string",
							"name": "_newContent",
							"type": "string"
						}
					],
					"name": "editComment",
					"outputs": [],
					"stateMutability": "nonpayable",
					"type": "function"
				},
				{
					"inputs": [
						{
							"internalType": "uint256",
							"name": "_videoId",
							"type": "uint256"
						}
					],
					"name": "getVideo",
					"outputs": [
						{
							"internalType": "string",
							"name": "",
							"type": "string"
						}
					],
					"stateMutability": "view",
					"type": "function"
				},
				{
					"inputs": [
						{
							"internalType": "address",
							"name": "",
							"type": "address"
						},
						{
							"internalType": "address",
							"name": "",
							"type": "address"
						}
					],
					"name": "hasAccess",
					"outputs": [
						{
							"internalType": "bool",
							"name": "",
							"type": "bool"
						}
					],
					"stateMutability": "view",
					"type": "function"
				},
				{
					"inputs": [
						{
							"internalType": "uint256",
							"name": "_videoId",
							"type": "uint256"
						}
					],
					"name": "likeVideo",
					"outputs": [],
					"stateMutability": "nonpayable",
					"type": "function"
				},
				{
					"inputs": [
						{
							"internalType": "address",
							"name": "_uploader",
							"type": "address"
						}
					],
					"name": "payForAccess",
					"outputs": [],
					"stateMutability": "nonpayable",
					"type": "function"
				},
				{
					"inputs": [],
					"name": "platformAddress",
					"outputs": [
						{
							"internalType": "address",
							"name": "",
							"type": "address"
						}
					],
					"stateMutability": "view",
					"type": "function"
				},
				{
					"inputs": [],
					"name": "platformFeePercentage",
					"outputs": [
						{
							"internalType": "uint256",
							"name": "",
							"type": "uint256"
						}
					],
					"stateMutability": "view",
					"type": "function"
				},
				{
					"inputs": [
						{
							"internalType": "uint256",
							"name": "_videoId",
							"type": "uint256"
						},
						{
							"internalType": "uint256",
							"name": "_amount",
							"type": "uint256"
						}
					],
					"name": "tipUploader",
					"outputs": [],
					"stateMutability": "nonpayable",
					"type": "function"
				},
				{
					"inputs": [],
					"name": "token",
					"outputs": [
						{
							"internalType": "contract IERC20",
							"name": "",
							"type": "address"
						}
					],
					"stateMutability": "view",
					"type": "function"
				},
				{
					"inputs": [
						{
							"internalType": "uint256",
							"name": "_videoId",
							"type": "uint256"
						}
					],
					"name": "unlikeVideo",
					"outputs": [],
					"stateMutability": "nonpayable",
					"type": "function"
				},
				{
					"inputs": [
						{
							"internalType": "string",
							"name": "_title",
							"type": "string"
						},
						{
							"internalType": "string",
							"name": "_description",
							"type": "string"
						},
						{
							"internalType": "bytes",
							"name": "_videoData",
							"type": "bytes"
						},
						{
							"internalType": "string[]",
							"name": "_categoryList",
							"type": "string[]"
						},
						{
							"internalType": "string",
							"name": "_thumbnailUrl",
							"type": "string"
						},
						{
							"internalType": "uint256",
							"name": "_videoLength",
							"type": "uint256"
						},
						{
							"internalType": "uint256",
							"name": "_accessFee",
							"type": "uint256"
						}
					],
					"name": "uploadVideo",
					"outputs": [],
					"stateMutability": "nonpayable",
					"type": "function"
				},
				{
					"inputs": [
						{
							"internalType": "uint256",
							"name": "",
							"type": "uint256"
						},
						{
							"internalType": "uint256",
							"name": "",
							"type": "uint256"
						}
					],
					"name": "videoComments",
					"outputs": [
						{
							"internalType": "uint256",
							"name": "id",
							"type": "uint256"
						},
						{
							"internalType": "address",
							"name": "commenter",
							"type": "address"
						},
						{
							"internalType": "string",
							"name": "content",
							"type": "string"
						},
						{
							"internalType": "uint256",
							"name": "timestamp",
							"type": "uint256"
						}
					],
					"stateMutability": "view",
					"type": "function"
				},
				{
					"inputs": [],
					"name": "videoCount",
					"outputs": [
						{
							"internalType": "uint256",
							"name": "",
							"type": "uint256"
						}
					],
					"stateMutability": "view",
					"type": "function"
				},
				{
					"inputs": [
						{
							"internalType": "uint256",
							"name": "",
							"type": "uint256"
						},
						{
							"internalType": "address",
							"name": "",
							"type": "address"
						}
					],
					"name": "videoLikes",
					"outputs": [
						{
							"internalType": "bool",
							"name": "",
							"type": "bool"
						}
					],
					"stateMutability": "view",
					"type": "function"
				},
				{
					"inputs": [
						{
							"internalType": "uint256",
							"name": "",
							"type": "uint256"
						},
						{
							"internalType": "address",
							"name": "",
							"type": "address"
						}
					],
					"name": "videoTips",
					"outputs": [
						{
							"internalType": "uint256",
							"name": "",
							"type": "uint256"
						}
					],
					"stateMutability": "view",
					"type": "function"
				},
				{
					"inputs": [
						{
							"internalType": "uint256",
							"name": "",
							"type": "uint256"
						}
					],
					"name": "videos",
					"outputs": [
						{
							"internalType": "uint256",
							"name": "id",
							"type": "uint256"
						},
						{
							"internalType": "string",
							"name": "title",
							"type": "string"
						},
						{
							"internalType": "string",
							"name": "description",
							"type": "string"
						},
						{
							"internalType": "address",
							"name": "uploader",
							"type": "address"
						},
						{
							"internalType": "uint256",
							"name": "uploadDate",
							"type": "uint256"
						},
						{
							"internalType": "string",
							"name": "arweaveTxId",
							"type": "string"
						},
						{
							"internalType": "string",
							"name": "thumbnailUrl",
							"type": "string"
						},
						{
							"internalType": "uint256",
							"name": "duration",
							"type": "uint256"
						},
						{
							"internalType": "uint256",
							"name": "likesCount",
							"type": "uint256"
						},
						{
							"internalType": "uint256",
							"name": "commentsCount",
							"type": "uint256"
						}
					],
					"stateMutability": "view",
					"type": "function"
				},
				{
					"inputs": [],
					"name": "withdrawTips",
					"outputs": [],
					"stateMutability": "nonpayable",
					"type": "function"
				}
			],
			"devdoc": {
				"kind": "dev",
				"methods": {},
				"version": 1
			},
			"evm": {
				"assembly": "    /* \"contracts/Video.sol\":192:12292  contract VideoSharing is ReentrancyGuard {... */\n  mstore(0x40, 0x80)\n    /* \"contracts/Video.sol\":3441:3660  constructor(address _tokenAddress, address _platformAddress){... */\n  callvalue\n  dup1\n  iszero\n  tag_1\n  jumpi\n  0x00\n  dup1\n  revert\ntag_1:\n  pop\n  mload(0x40)\n  sub(codesize, bytecodeSize)\n  dup1\n  bytecodeSize\n  dup4\n  codecopy\n  dup2\n  dup2\n  add\n  0x40\n  mstore\n  dup2\n  add\n  swap1\n  tag_2\n  swap2\n  swap1\n  tag_3\n  jump\t// in\ntag_2:\n    /* \"@openzeppelin/contracts/security/ReentrancyGuard.sol\":1716:1717  1 */\n  0x01\n    /* \"@openzeppelin/contracts/security/ReentrancyGuard.sol\":1821:1828  _status */\n  0x00\n    /* \"@openzeppelin/contracts/security/ReentrancyGuard.sol\":1821:1843  _status = _NOT_ENTERED */\n  dup2\n  swap1\n  sstore\n  pop\n    /* \"contracts/Video.sol\":3527:3540  _tokenAddress */\n  dup2\n    /* \"contracts/Video.sol\":3512:3517  token */\n  0x01\n  0x00\n    /* \"contracts/Video.sol\":3512:3541  token = IERC20(_tokenAddress) */\n  0x0100\n  exp\n  dup2\n  sload\n  dup2\n  0xffffffffffffffffffffffffffffffffffffffff\n  mul\n  not\n  and\n  swap1\n  dup4\n  0xffffffffffffffffffffffffffffffffffffffff\n  and\n  mul\n  or\n  swap1\n  sstore\n  pop\n    /* \"contracts/Video.sol\":3612:3628  _platformAddress */\n  dup1\n    /* \"contracts/Video.sol\":3594:3609  platformAddress */\n  0x02\n  0x00\n    /* \"contracts/Video.sol\":3594:3628  platformAddress = _platformAddress */\n  0x0100\n  exp\n  dup2\n  sload\n  dup2\n  0xffffffffffffffffffffffffffffffffffffffff\n  mul\n  not\n  and\n  swap1\n  dup4\n  0xffffffffffffffffffffffffffffffffffffffff\n  and\n  mul\n  or\n  swap1\n  sstore\n  pop\n    /* \"contracts/Video.sol\":3441:3660  constructor(address _tokenAddress, address _platformAddress){... */\n  pop\n  pop\n    /* \"contracts/Video.sol\":192:12292  contract VideoSharing is ReentrancyGuard {... */\n  jump(tag_8)\n    /* \"#utility.yul\":88:205   */\ntag_10:\n    /* \"#utility.yul\":197:198   */\n  0x00\n    /* \"#utility.yul\":194:195   */\n  dup1\n    /* \"#utility.yul\":187:199   */\n  revert\n    /* \"#utility.yul\":334:460   */\ntag_12:\n    /* \"#utility.yul\":371:378   */\n  0x00\n    /* \"#utility.yul\":411:453   */\n  0xffffffffffffffffffffffffffffffffffffffff\n    /* \"#utility.yul\":404:409   */\n  dup3\n    /* \"#utility.yul\":400:454   */\n  and\n    /* \"#utility.yul\":389:454   */\n  swap1\n  pop\n    /* \"#utility.yul\":334:460   */\n  swap2\n  swap1\n  pop\n  jump\t// out\n    /* \"#utility.yul\":466:562   */\ntag_13:\n    /* \"#utility.yul\":503:510   */\n  0x00\n    /* \"#utility.yul\":532:556   */\n  tag_22\n    /* \"#utility.yul\":550:555   */\n  dup3\n    /* \"#utility.yul\":532:556   */\n  tag_12\n  jump\t// in\ntag_22:\n    /* \"#utility.yul\":521:556   */\n  swap1\n  pop\n    /* \"#utility.yul\":466:562   */\n  swap2\n  swap1\n  pop\n  jump\t// out\n    /* \"#utility.yul\":568:690   */\ntag_14:\n    /* \"#utility.yul\":641:665   */\n  tag_24\n    /* \"#utility.yul\":659:664   */\n  dup2\n    /* \"#utility.yul\":641:665   */\n  tag_13\n  jump\t// in\ntag_24:\n    /* \"#utility.yul\":634:639   */\n  dup2\n    /* \"#utility.yul\":631:666   */\n  eq\n    /* \"#utility.yul\":621:684   */\n  tag_25\n  jumpi\n    /* \"#utility.yul\":680:681   */\n  0x00\n    /* \"#utility.yul\":677:678   */\n  dup1\n    /* \"#utility.yul\":670:682   */\n  revert\n    /* \"#utility.yul\":621:684   */\ntag_25:\n    /* \"#utility.yul\":568:690   */\n  pop\n  jump\t// out\n    /* \"#utility.yul\":696:839   */\ntag_15:\n    /* \"#utility.yul\":753:758   */\n  0x00\n    /* \"#utility.yul\":784:790   */\n  dup2\n    /* \"#utility.yul\":778:791   */\n  mload\n    /* \"#utility.yul\":769:791   */\n  swap1\n  pop\n    /* \"#utility.yul\":800:833   */\n  tag_27\n    /* \"#utility.yul\":827:832   */\n  dup2\n    /* \"#utility.yul\":800:833   */\n  tag_14\n  jump\t// in\ntag_27:\n    /* \"#utility.yul\":696:839   */\n  swap3\n  swap2\n  pop\n  pop\n  jump\t// out\n    /* \"#utility.yul\":845:1352   */\ntag_3:\n    /* \"#utility.yul\":924:930   */\n  0x00\n    /* \"#utility.yul\":932:938   */\n  dup1\n    /* \"#utility.yul\":981:983   */\n  0x40\n    /* \"#utility.yul\":969:978   */\n  dup4\n    /* \"#utility.yul\":960:967   */\n  dup6\n    /* \"#utility.yul\":956:979   */\n  sub\n    /* \"#utility.yul\":952:984   */\n  slt\n    /* \"#utility.yul\":949:1068   */\n  iszero\n  tag_29\n  jumpi\n    /* \"#utility.yul\":987:1066   */\n  tag_30\n  tag_10\n  jump\t// in\ntag_30:\n    /* \"#utility.yul\":949:1068   */\ntag_29:\n    /* \"#utility.yul\":1107:1108   */\n  0x00\n    /* \"#utility.yul\":1132:1196   */\n  tag_31\n    /* \"#utility.yul\":1188:1195   */\n  dup6\n    /* \"#utility.yul\":1179:1185   */\n  dup3\n    /* \"#utility.yul\":1168:1177   */\n  dup7\n    /* \"#utility.yul\":1164:1186   */\n  add\n    /* \"#utility.yul\":1132:1196   */\n  tag_15\n  jump\t// in\ntag_31:\n    /* \"#utility.yul\":1122:1196   */\n  swap3\n  pop\n    /* \"#utility.yul\":1078:1206   */\n  pop\n    /* \"#utility.yul\":1245:1247   */\n  0x20\n    /* \"#utility.yul\":1271:1335   */\n  tag_32\n    /* \"#utility.yul\":1327:1334   */\n  dup6\n    /* \"#utility.yul\":1318:1324   */\n  dup3\n    /* \"#utility.yul\":1307:1316   */\n  dup7\n    /* \"#utility.yul\":1303:1325   */\n  add\n    /* \"#utility.yul\":1271:1335   */\n  tag_15\n  jump\t// in\ntag_32:\n    /* \"#utility.yul\":1261:1335   */\n  swap2\n  pop\n    /* \"#utility.yul\":1216:1345   */\n  pop\n    /* \"#utility.yul\":845:1352   */\n  swap3\n  pop\n  swap3\n  swap1\n  pop\n  jump\t// out\n    /* \"contracts/Video.sol\":192:12292  contract VideoSharing is ReentrancyGuard {... */\ntag_8:\n  dataSize(sub_0)\n  dup1\n  dataOffset(sub_0)\n  0x00\n  codecopy\n  0x00\n  return\nstop\n\nsub_0: assembly {\n        /* \"contracts/Video.sol\":192:12292  contract VideoSharing is ReentrancyGuard {... */\n      mstore(0x40, 0x80)\n      callvalue\n      dup1\n      iszero\n      tag_1\n      jumpi\n      0x00\n      dup1\n      revert\n    tag_1:\n      pop\n      jumpi(tag_2, lt(calldatasize, 0x04))\n      shr(0xe0, calldataload(0x00))\n      dup1\n      0x8c33f3b0\n      gt\n      tag_23\n      jumpi\n      dup1\n      0xdbe55e56\n      gt\n      tag_24\n      jumpi\n      dup1\n      0xdbe55e56\n      eq\n      tag_18\n      jumpi\n      dup1\n      0xe6821bf5\n      eq\n      tag_19\n      jumpi\n      dup1\n      0xfa561152\n      eq\n      tag_20\n      jumpi\n      dup1\n      0xfc0c546a\n      eq\n      tag_21\n      jumpi\n      dup1\n      0xfd442dbd\n      eq\n      tag_22\n      jumpi\n      jump(tag_2)\n    tag_24:\n      dup1\n      0x8c33f3b0\n      eq\n      tag_13\n      jumpi\n      dup1\n      0xaa7e5683\n      eq\n      tag_14\n      jumpi\n      dup1\n      0xc61b5f4c\n      eq\n      tag_15\n      jumpi\n      dup1\n      0xcdd78cfc\n      eq\n      tag_16\n      jumpi\n      dup1\n      0xd4516ab5\n      eq\n      tag_17\n      jumpi\n      jump(tag_2)\n    tag_23:\n      dup1\n      0x31a4bcb5\n      gt\n      tag_25\n      jumpi\n      dup1\n      0x31a4bcb5\n      eq\n      tag_8\n      jumpi\n      dup1\n      0x3aaa74b2\n      eq\n      tag_9\n      jumpi\n      dup1\n      0x61746a5c\n      eq\n      tag_10\n      jumpi\n      dup1\n      0x63370ee7\n      eq\n      tag_11\n      jumpi\n      dup1\n      0x7ffd8a8c\n      eq\n      tag_12\n      jumpi\n      jump(tag_2)\n    tag_25:\n      dup1\n      0x11abd324\n      eq\n      tag_3\n      jumpi\n      dup1\n      0x147331e1\n      eq\n      tag_4\n      jumpi\n      dup1\n      0x1709ef07\n      eq\n      tag_5\n      jumpi\n      dup1\n      0x27260d5c\n      eq\n      tag_6\n      jumpi\n      dup1\n      0x2893eca2\n      eq\n      tag_7\n      jumpi\n    tag_2:\n      0x00\n      dup1\n      revert\n        /* \"contracts/Video.sol\":6782:7390  function unlikeVideo(uint _videoId) public {... */\n    tag_3:\n      tag_26\n      0x04\n      dup1\n      calldatasize\n      sub\n      dup2\n      add\n      swap1\n      tag_27\n      swap2\n      swap1\n      tag_28\n      jump\t// in\n    tag_27:\n      tag_29\n      jump\t// in\n    tag_26:\n      stop\n        /* \"contracts/Video.sol\":9385:10327  function tipUploader(uint _videoId, uint _amount) external nonReentrant {... */\n    tag_4:\n      tag_30\n      0x04\n      dup1\n      calldatasize\n      sub\n      dup2\n      add\n      swap1\n      tag_31\n      swap2\n      swap1\n      tag_32\n      jump\t// in\n    tag_31:\n      tag_33\n      jump\t// in\n    tag_30:\n      stop\n        /* \"contracts/Video.sol\":1906:1967  mapping(address => mapping(address => bool)) public hasAccess */\n    tag_5:\n      tag_34\n      0x04\n      dup1\n      calldatasize\n      sub\n      dup2\n      add\n      swap1\n      tag_35\n      swap2\n      swap1\n      tag_36\n      jump\t// in\n    tag_35:\n      tag_37\n      jump\t// in\n    tag_34:\n      mload(0x40)\n      tag_38\n      swap2\n      swap1\n      tag_39\n      jump\t// in\n    tag_38:\n      mload(0x40)\n      dup1\n      swap2\n      sub\n      swap1\n      return\n        /* \"contracts/Video.sol\":5406:6036  function likeVideo(uint _videoId) public {... */\n    tag_6:\n      tag_40\n      0x04\n      dup1\n      calldatasize\n      sub\n      dup2\n      add\n      swap1\n      tag_41\n      swap2\n      swap1\n      tag_28\n      jump\t// in\n    tag_41:\n      tag_42\n      jump\t// in\n    tag_40:\n      stop\n        /* \"contracts/Video.sol\":7400:8199  function getVideo(uint _videoId) public view returns (string memory) {... */\n    tag_7:\n      tag_43\n      0x04\n      dup1\n      calldatasize\n      sub\n      dup2\n      add\n      swap1\n      tag_44\n      swap2\n      swap1\n      tag_28\n      jump\t// in\n    tag_44:\n      tag_45\n      jump\t// in\n    tag_43:\n      mload(0x40)\n      tag_46\n      swap2\n      swap1\n      tag_47\n      jump\t// in\n    tag_46:\n      mload(0x40)\n      dup1\n      swap2\n      sub\n      swap1\n      return\n        /* \"contracts/Video.sol\":11699:12289  function deleteComment(uint _videoId, uint _commentId) public {... */\n    tag_8:\n      tag_48\n      0x04\n      dup1\n      calldatasize\n      sub\n      dup2\n      add\n      swap1\n      tag_49\n      swap2\n      swap1\n      tag_32\n      jump\t// in\n    tag_49:\n      tag_50\n      jump\t// in\n    tag_48:\n      stop\n        /* \"contracts/Video.sol\":10335:11158  function withdrawTips() external nonReentrant {... */\n    tag_9:\n      tag_51\n      tag_52\n      jump\t// in\n    tag_51:\n      stop\n        /* \"contracts/Video.sol\":1788:1847  mapping(uint => mapping(address => bool)) public videoLikes */\n    tag_10:\n      tag_53\n      0x04\n      dup1\n      calldatasize\n      sub\n      dup2\n      add\n      swap1\n      tag_54\n      swap2\n      swap1\n      tag_55\n      jump\t// in\n    tag_54:\n      tag_56\n      jump\t// in\n    tag_53:\n      mload(0x40)\n      tag_57\n      swap2\n      swap1\n      tag_39\n      jump\t// in\n    tag_57:\n      mload(0x40)\n      dup1\n      swap2\n      sub\n      swap1\n      return\n        /* \"contracts/Video.sol\":8210:9377  function payForAccess(address _uploader) external nonReentrant {... */\n    tag_11:\n      tag_58\n      0x04\n      dup1\n      calldatasize\n      sub\n      dup2\n      add\n      swap1\n      tag_59\n      swap2\n      swap1\n      tag_60\n      jump\t// in\n    tag_59:\n      tag_61\n      jump\t// in\n    tag_58:\n      stop\n        /* \"contracts/Video.sol\":2146:2194  mapping(address => uint) public channelAccessFee */\n    tag_12:\n      tag_62\n      0x04\n      dup1\n      calldatasize\n      sub\n      dup2\n      add\n      swap1\n      tag_63\n      swap2\n      swap1\n      tag_60\n      jump\t// in\n    tag_63:\n      tag_64\n      jump\t// in\n    tag_62:\n      mload(0x40)\n      tag_65\n      swap2\n      swap1\n      tag_66\n      jump\t// in\n    tag_65:\n      mload(0x40)\n      dup1\n      swap2\n      sub\n      swap1\n      return\n        /* \"contracts/Video.sol\":2019:2077  mapping(uint => mapping(address => uint)) public videoTips */\n    tag_13:\n      tag_67\n      0x04\n      dup1\n      calldatasize\n      sub\n      dup2\n      add\n      swap1\n      tag_68\n      swap2\n      swap1\n      tag_55\n      jump\t// in\n    tag_68:\n      tag_69\n      jump\t// in\n    tag_67:\n      mload(0x40)\n      tag_70\n      swap2\n      swap1\n      tag_66\n      jump\t// in\n    tag_70:\n      mload(0x40)\n      dup1\n      swap2\n      sub\n      swap1\n      return\n        /* \"contracts/Video.sol\":6044:6775  function addComment(uint _videoId, string memory _text) public {... */\n    tag_14:\n      tag_71\n      0x04\n      dup1\n      calldatasize\n      sub\n      dup2\n      add\n      swap1\n      tag_72\n      swap2\n      swap1\n      tag_73\n      jump\t// in\n    tag_72:\n      tag_74\n      jump\t// in\n    tag_71:\n      stop\n        /* \"contracts/Video.sol\":2260:2282  uint public videoCount */\n    tag_15:\n      tag_75\n      tag_76\n      jump\t// in\n    tag_75:\n      mload(0x40)\n      tag_77\n      swap2\n      swap1\n      tag_66\n      jump\t// in\n    tag_77:\n      mload(0x40)\n      dup1\n      swap2\n      sub\n      swap1\n      return\n        /* \"contracts/Video.sol\":2310:2358  uint public constant platformFeePercentage = 100 */\n    tag_16:\n      tag_78\n      tag_79\n      jump\t// in\n    tag_78:\n      mload(0x40)\n      tag_80\n      swap2\n      swap1\n      tag_66\n      jump\t// in\n    tag_80:\n      mload(0x40)\n      dup1\n      swap2\n      sub\n      swap1\n      return\n        /* \"contracts/Video.sol\":1665:1727  mapping(uint => mapping(uint => Comment)) public videoComments */\n    tag_17:\n      tag_81\n      0x04\n      dup1\n      calldatasize\n      sub\n      dup2\n      add\n      swap1\n      tag_82\n      swap2\n      swap1\n      tag_32\n      jump\t// in\n    tag_82:\n      tag_83\n      jump\t// in\n    tag_81:\n      mload(0x40)\n      tag_84\n      swap5\n      swap4\n      swap3\n      swap2\n      swap1\n      tag_85\n      jump\t// in\n    tag_84:\n      mload(0x40)\n      dup1\n      swap2\n      sub\n      swap1\n      return\n        /* \"contracts/Video.sol\":597:627  address public platformAddress */\n    tag_18:\n      tag_86\n      tag_87\n      jump\t// in\n    tag_86:\n      mload(0x40)\n      tag_88\n      swap2\n      swap1\n      tag_89\n      jump\t// in\n    tag_88:\n      mload(0x40)\n      dup1\n      swap2\n      sub\n      swap1\n      return\n        /* \"contracts/Video.sol\":1559:1595  mapping(uint => Video) public videos */\n    tag_19:\n      tag_90\n      0x04\n      dup1\n      calldatasize\n      sub\n      dup2\n      add\n      swap1\n      tag_91\n      swap2\n      swap1\n      tag_28\n      jump\t// in\n    tag_91:\n      tag_92\n      jump\t// in\n    tag_90:\n      mload(0x40)\n      tag_93\n      swap11\n      swap10\n      swap9\n      swap8\n      swap7\n      swap6\n      swap5\n      swap4\n      swap3\n      swap2\n      swap1\n      tag_94\n      jump\t// in\n    tag_93:\n      mload(0x40)\n      dup1\n      swap2\n      sub\n      swap1\n      return\n        /* \"contracts/Video.sol\":11166:11687  function editComment(uint _videoId, uint _commentId, string memory _newContent) public {... */\n    tag_20:\n      tag_95\n      0x04\n      dup1\n      calldatasize\n      sub\n      dup2\n      add\n      swap1\n      tag_96\n      swap2\n      swap1\n      tag_97\n      jump\t// in\n    tag_96:\n      tag_98\n      jump\t// in\n    tag_95:\n      stop\n        /* \"contracts/Video.sol\":504:523  IERC20 public token */\n    tag_21:\n      tag_99\n      tag_100\n      jump\t// in\n    tag_99:\n      mload(0x40)\n      tag_101\n      swap2\n      swap1\n      tag_102\n      jump\t// in\n    tag_101:\n      mload(0x40)\n      dup1\n      swap2\n      sub\n      swap1\n      return\n        /* \"contracts/Video.sol\":3742:5398  function uploadVideo(... */\n    tag_22:\n      tag_103\n      0x04\n      dup1\n      calldatasize\n      sub\n      dup2\n      add\n      swap1\n      tag_104\n      swap2\n      swap1\n      tag_105\n      jump\t// in\n    tag_104:\n      tag_106\n      jump\t// in\n    tag_103:\n      stop\n        /* \"contracts/Video.sol\":6782:7390  function unlikeVideo(uint _videoId) public {... */\n    tag_29:\n        /* \"contracts/Video.sol\":6844:6854  videoLikes */\n      0x05\n        /* \"contracts/Video.sol\":6844:6864  videoLikes[_videoId] */\n      0x00\n        /* \"contracts/Video.sol\":6855:6863  _videoId */\n      dup3\n        /* \"contracts/Video.sol\":6844:6864  videoLikes[_videoId] */\n      dup2\n      mstore\n      0x20\n      add\n      swap1\n      dup2\n      mstore\n      0x20\n      add\n      0x00\n      keccak256\n        /* \"contracts/Video.sol\":6844:6876  videoLikes[_videoId][msg.sender] */\n      0x00\n        /* \"contracts/Video.sol\":6865:6875  msg.sender */\n      caller\n        /* \"contracts/Video.sol\":6844:6876  videoLikes[_videoId][msg.sender] */\n      0xffffffffffffffffffffffffffffffffffffffff\n      and\n      0xffffffffffffffffffffffffffffffffffffffff\n      and\n      dup2\n      mstore\n      0x20\n      add\n      swap1\n      dup2\n      mstore\n      0x20\n      add\n      0x00\n      keccak256\n      0x00\n      swap1\n      sload\n      swap1\n      0x0100\n      exp\n      swap1\n      div\n      0xff\n      and\n        /* \"contracts/Video.sol\":6844:6911  videoLikes[_videoId][msg.sender] && videos[_videoId].likesCount > 0 */\n      dup1\n      iszero\n      tag_108\n      jumpi\n      pop\n        /* \"contracts/Video.sol\":6910:6911  0 */\n      0x00\n        /* \"contracts/Video.sol\":6880:6886  videos */\n      0x03\n        /* \"contracts/Video.sol\":6880:6896  videos[_videoId] */\n      0x00\n        /* \"contracts/Video.sol\":6887:6895  _videoId */\n      dup4\n        /* \"contracts/Video.sol\":6880:6896  videos[_videoId] */\n      dup2\n      mstore\n      0x20\n      add\n      swap1\n      dup2\n      mstore\n      0x20\n      add\n      0x00\n      keccak256\n        /* \"contracts/Video.sol\":6880:6907  videos[_videoId].likesCount */\n      0x09\n      add\n      sload\n        /* \"contracts/Video.sol\":6880:6911  videos[_videoId].likesCount > 0 */\n      gt\n        /* \"contracts/Video.sol\":6844:6911  videoLikes[_videoId][msg.sender] && videos[_videoId].likesCount > 0 */\n    tag_108:\n        /* \"contracts/Video.sol\":6836:6947  require(videoLikes[_videoId][msg.sender] && videos[_videoId].likesCount > 0, \"You haven't liked this video!!!\") */\n      tag_109\n      jumpi\n      mload(0x40)\n      0x08c379a000000000000000000000000000000000000000000000000000000000\n      dup2\n      mstore\n      0x04\n      add\n      tag_110\n      swap1\n      tag_111\n      jump\t// in\n    tag_110:\n      mload(0x40)\n      dup1\n      swap2\n      sub\n      swap1\n      revert\n    tag_109:\n        /* \"contracts/Video.sol\":7081:7086  false */\n      0x00\n        /* \"contracts/Video.sol\":7046:7056  videoLikes */\n      0x05\n        /* \"contracts/Video.sol\":7046:7066  videoLikes[_videoId] */\n      0x00\n        /* \"contracts/Video.sol\":7057:7065  _videoId */\n      dup4\n        /* \"contracts/Video.sol\":7046:7066  videoLikes[_videoId] */\n      dup2\n      mstore\n      0x20\n      add\n      swap1\n      dup2\n      mstore\n      0x20\n      add\n      0x00\n      keccak256\n        /* \"contracts/Video.sol\":7046:7078  videoLikes[_videoId][msg.sender] */\n      0x00\n        /* \"contracts/Video.sol\":7067:7077  msg.sender */\n      caller\n        /* \"contracts/Video.sol\":7046:7078  videoLikes[_videoId][msg.sender] */\n      0xffffffffffffffffffffffffffffffffffffffff\n      and\n      0xffffffffffffffffffffffffffffffffffffffff\n      and\n      dup2\n      mstore\n      0x20\n      add\n      swap1\n      dup2\n      mstore\n      0x20\n      add\n      0x00\n      keccak256\n      0x00\n        /* \"contracts/Video.sol\":7046:7086  videoLikes[_videoId][msg.sender] = false */\n      0x0100\n      exp\n      dup2\n      sload\n      dup2\n      0xff\n      mul\n      not\n      and\n      swap1\n      dup4\n      iszero\n      iszero\n      mul\n      or\n      swap1\n      sstore\n      pop\n        /* \"contracts/Video.sol\":7182:7188  videos */\n      0x03\n        /* \"contracts/Video.sol\":7182:7198  videos[_videoId] */\n      0x00\n        /* \"contracts/Video.sol\":7189:7197  _videoId */\n      dup3\n        /* \"contracts/Video.sol\":7182:7198  videos[_videoId] */\n      dup2\n      mstore\n      0x20\n      add\n      swap1\n      dup2\n      mstore\n      0x20\n      add\n      0x00\n      keccak256\n        /* \"contracts/Video.sol\":7182:7209  videos[_videoId].likesCount */\n      0x09\n      add\n      0x00\n        /* \"contracts/Video.sol\":7182:7211  videos[_videoId].likesCount-- */\n      dup2\n      sload\n      dup1\n      swap3\n      swap2\n      swap1\n      tag_112\n      swap1\n      tag_113\n      jump\t// in\n    tag_112:\n      swap2\n      swap1\n      pop\n      sstore\n      pop\n        /* \"contracts/Video.sol\":7274:7308  VideoUnliked(_videoId, msg.sender) */\n      0xe1ea13f5a6d14e33425b04b4cd2185c1919991c8b880eecaa279f4906475d6f9\n        /* \"contracts/Video.sol\":7287:7295  _videoId */\n      dup2\n        /* \"contracts/Video.sol\":7297:7307  msg.sender */\n      caller\n        /* \"contracts/Video.sol\":7274:7308  VideoUnliked(_videoId, msg.sender) */\n      mload(0x40)\n      tag_114\n      swap3\n      swap2\n      swap1\n      tag_115\n      jump\t// in\n    tag_114:\n      mload(0x40)\n      dup1\n      swap2\n      sub\n      swap1\n      log1\n        /* \"contracts/Video.sol\":6782:7390  function unlikeVideo(uint _videoId) public {... */\n      pop\n      jump\t// out\n        /* \"contracts/Video.sol\":9385:10327  function tipUploader(uint _videoId, uint _amount) external nonReentrant {... */\n    tag_33:\n        /* \"@openzeppelin/contracts/security/ReentrancyGuard.sol\":2261:2282  _nonReentrantBefore() */\n      tag_117\n        /* \"@openzeppelin/contracts/security/ReentrancyGuard.sol\":2261:2280  _nonReentrantBefore */\n      tag_118\n        /* \"@openzeppelin/contracts/security/ReentrancyGuard.sol\":2261:2282  _nonReentrantBefore() */\n      jump\t// in\n    tag_117:\n        /* \"contracts/Video.sol\":9486:9487  0 */\n      0x00\n        /* \"contracts/Video.sol\":9476:9483  _amount */\n      dup2\n        /* \"contracts/Video.sol\":9476:9487  _amount > 0 */\n      gt\n        /* \"contracts/Video.sol\":9468:9530  require(_amount > 0, \"Tip Amount has to be greater than zero\") */\n      tag_120\n      jumpi\n      mload(0x40)\n      0x08c379a000000000000000000000000000000000000000000000000000000000\n      dup2\n      mstore\n      0x04\n      add\n      tag_121\n      swap1\n      tag_122\n      jump\t// in\n    tag_121:\n      mload(0x40)\n      dup1\n      swap2\n      sub\n      swap1\n      revert\n    tag_120:\n        /* \"contracts/Video.sol\":9592:9608  uint platformFee */\n      0x00\n        /* \"contracts/Video.sol\":9625:9628  100 */\n      0x64\n        /* \"contracts/Video.sol\":9622:9623  1 */\n      0x01\n        /* \"contracts/Video.sol\":9612:9619  _amount */\n      dup4\n        /* \"contracts/Video.sol\":9612:9623  _amount * 1 */\n      tag_123\n      swap2\n      swap1\n      tag_124\n      jump\t// in\n    tag_123:\n        /* \"contracts/Video.sol\":9611:9628  (_amount * 1)/100 */\n      tag_125\n      swap2\n      swap1\n      tag_126\n      jump\t// in\n    tag_125:\n        /* \"contracts/Video.sol\":9592:9628  uint platformFee = (_amount * 1)/100 */\n      swap1\n      pop\n        /* \"contracts/Video.sol\":9686:9705  uint uploaderAmount */\n      0x00\n        /* \"contracts/Video.sol\":9718:9729  platformFee */\n      dup2\n        /* \"contracts/Video.sol\":9708:9715  _amount */\n      dup4\n        /* \"contracts/Video.sol\":9708:9729  _amount - platformFee */\n      tag_127\n      swap2\n      swap1\n      tag_128\n      jump\t// in\n    tag_127:\n        /* \"contracts/Video.sol\":9686:9729  uint uploaderAmount = _amount - platformFee */\n      swap1\n      pop\n        /* \"contracts/Video.sol\":9792:9797  token */\n      0x01\n      0x00\n      swap1\n      sload\n      swap1\n      0x0100\n      exp\n      swap1\n      div\n      0xffffffffffffffffffffffffffffffffffffffff\n      and\n        /* \"contracts/Video.sol\":9792:9810  token.transferFrom */\n      0xffffffffffffffffffffffffffffffffffffffff\n      and\n      0x23b872dd\n        /* \"contracts/Video.sol\":9811:9821  msg.sender */\n      caller\n        /* \"contracts/Video.sol\":9823:9829  videos */\n      0x03\n        /* \"contracts/Video.sol\":9823:9839  videos[_videoId] */\n      0x00\n        /* \"contracts/Video.sol\":9830:9838  _videoId */\n      dup9\n        /* \"contracts/Video.sol\":9823:9839  videos[_videoId] */\n      dup2\n      mstore\n      0x20\n      add\n      swap1\n      dup2\n      mstore\n      0x20\n      add\n      0x00\n      keccak256\n        /* \"contracts/Video.sol\":9823:9848  videos[_videoId].uploader */\n      0x03\n      add\n      0x00\n      swap1\n      sload\n      swap1\n      0x0100\n      exp\n      swap1\n      div\n      0xffffffffffffffffffffffffffffffffffffffff\n      and\n        /* \"contracts/Video.sol\":9850:9864  uploaderAmount */\n      dup5\n        /* \"contracts/Video.sol\":9792:9865  token.transferFrom(msg.sender, videos[_videoId].uploader, uploaderAmount) */\n      mload(0x40)\n      dup5\n      0xffffffff\n      and\n      0xe0\n      shl\n      dup2\n      mstore\n      0x04\n      add\n      tag_129\n      swap4\n      swap3\n      swap2\n      swap1\n      tag_130\n      jump\t// in\n    tag_129:\n      0x20\n      mload(0x40)\n      dup1\n      dup4\n      sub\n      dup2\n      0x00\n      dup8\n      gas\n      call\n      iszero\n      dup1\n      iszero\n      tag_132\n      jumpi\n      returndatasize\n      0x00\n      dup1\n      returndatacopy\n      revert(0x00, returndatasize)\n    tag_132:\n      pop\n      pop\n      pop\n      pop\n      mload(0x40)\n      returndatasize\n      not(0x1f)\n      0x1f\n      dup3\n      add\n      and\n      dup3\n      add\n      dup1\n      0x40\n      mstore\n      pop\n      dup2\n      add\n      swap1\n      tag_133\n      swap2\n      swap1\n      tag_134\n      jump\t// in\n    tag_133:\n        /* \"contracts/Video.sol\":9784:9881  require(token.transferFrom(msg.sender, videos[_videoId].uploader, uploaderAmount), \"Tip failed!\") */\n      tag_135\n      jumpi\n      mload(0x40)\n      0x08c379a000000000000000000000000000000000000000000000000000000000\n      dup2\n      mstore\n      0x04\n      add\n      tag_136\n      swap1\n      tag_137\n      jump\t// in\n    tag_136:\n      mload(0x40)\n      dup1\n      swap2\n      sub\n      swap1\n      revert\n    tag_135:\n        /* \"contracts/Video.sol\":9952:9957  token */\n      0x01\n      0x00\n      swap1\n      sload\n      swap1\n      0x0100\n      exp\n      swap1\n      div\n      0xffffffffffffffffffffffffffffffffffffffff\n      and\n        /* \"contracts/Video.sol\":9952:9970  token.transferFrom */\n      0xffffffffffffffffffffffffffffffffffffffff\n      and\n      0x23b872dd\n        /* \"contracts/Video.sol\":9971:9981  msg.sender */\n      caller\n        /* \"contracts/Video.sol\":9983:9998  platformAddress */\n      0x02\n      0x00\n      swap1\n      sload\n      swap1\n      0x0100\n      exp\n      swap1\n      div\n      0xffffffffffffffffffffffffffffffffffffffff\n      and\n        /* \"contracts/Video.sol\":10000:10011  platformFee */\n      dup6\n        /* \"contracts/Video.sol\":9952:10012  token.transferFrom(msg.sender, platformAddress, platformFee) */\n      mload(0x40)\n      dup5\n      0xffffffff\n      and\n      0xe0\n      shl\n      dup2\n      mstore\n      0x04\n      add\n      tag_138\n      swap4\n      swap3\n      swap2\n      swap1\n      tag_130\n      jump\t// in\n    tag_138:\n      0x20\n      mload(0x40)\n      dup1\n      dup4\n      sub\n      dup2\n      0x00\n      dup8\n      gas\n      call\n      iszero\n      dup1\n      iszero\n      tag_140\n      jumpi\n      returndatasize\n      0x00\n      dup1\n      returndatacopy\n      revert(0x00, returndatasize)\n    tag_140:\n      pop\n      pop\n      pop\n      pop\n      mload(0x40)\n      returndatasize\n      not(0x1f)\n      0x1f\n      dup3\n      add\n      and\n      dup3\n      add\n      dup1\n      0x40\n      mstore\n      pop\n      dup2\n      add\n      swap1\n      tag_141\n      swap2\n      swap1\n      tag_134\n      jump\t// in\n    tag_141:\n        /* \"contracts/Video.sol\":9944:10037  require(token.transferFrom(msg.sender, platformAddress, platformFee), \"Platform fee failed!\") */\n      tag_142\n      jumpi\n      mload(0x40)\n      0x08c379a000000000000000000000000000000000000000000000000000000000\n      dup2\n      mstore\n      0x04\n      add\n      tag_143\n      swap1\n      tag_144\n      jump\t// in\n    tag_143:\n      mload(0x40)\n      dup1\n      swap2\n      sub\n      swap1\n      revert\n    tag_142:\n        /* \"contracts/Video.sol\":10136:10143  _amount */\n      dup3\n        /* \"contracts/Video.sol\":10101:10110  videoTips */\n      0x07\n        /* \"contracts/Video.sol\":10101:10120  videoTips[_videoId] */\n      0x00\n        /* \"contracts/Video.sol\":10111:10119  _videoId */\n      dup7\n        /* \"contracts/Video.sol\":10101:10120  videoTips[_videoId] */\n      dup2\n      mstore\n      0x20\n      add\n      swap1\n      dup2\n      mstore\n      0x20\n      add\n      0x00\n      keccak256\n        /* \"contracts/Video.sol\":10101:10132  videoTips[_videoId][msg.sender] */\n      0x00\n        /* \"contracts/Video.sol\":10121:10131  msg.sender */\n      caller\n        /* \"contracts/Video.sol\":10101:10132  videoTips[_videoId][msg.sender] */\n      0xffffffffffffffffffffffffffffffffffffffff\n      and\n      0xffffffffffffffffffffffffffffffffffffffff\n      and\n      dup2\n      mstore\n      0x20\n      add\n      swap1\n      dup2\n      mstore\n      0x20\n      add\n      0x00\n      keccak256\n      0x00\n        /* \"contracts/Video.sol\":10101:10143  videoTips[_videoId][msg.sender] += _amount */\n      dup3\n      dup3\n      sload\n      tag_145\n      swap2\n      swap1\n      tag_146\n      jump\t// in\n    tag_145:\n      swap3\n      pop\n      pop\n      dup2\n      swap1\n      sstore\n      pop\n        /* \"contracts/Video.sol\":10206:10243  Tipped(_videoId, msg.sender, _amount) */\n      0x9bb057a11c3457c55cb17f11a38392348805c6ccb84a9b7e8d9c42c694a7882b\n        /* \"contracts/Video.sol\":10213:10221  _videoId */\n      dup5\n        /* \"contracts/Video.sol\":10223:10233  msg.sender */\n      caller\n        /* \"contracts/Video.sol\":10235:10242  _amount */\n      dup6\n        /* \"contracts/Video.sol\":10206:10243  Tipped(_videoId, msg.sender, _amount) */\n      mload(0x40)\n      tag_147\n      swap4\n      swap3\n      swap2\n      swap1\n      tag_148\n      jump\t// in\n    tag_147:\n      mload(0x40)\n      dup1\n      swap2\n      sub\n      swap1\n      log1\n        /* \"contracts/Video.sol\":9457:10327  {... */\n      pop\n      pop\n        /* \"@openzeppelin/contracts/security/ReentrancyGuard.sol\":2303:2323  _nonReentrantAfter() */\n      tag_149\n        /* \"@openzeppelin/contracts/security/ReentrancyGuard.sol\":2303:2321  _nonReentrantAfter */\n      tag_150\n        /* \"@openzeppelin/contracts/security/ReentrancyGuard.sol\":2303:2323  _nonReentrantAfter() */\n      jump\t// in\n    tag_149:\n        /* \"contracts/Video.sol\":9385:10327  function tipUploader(uint _videoId, uint _amount) external nonReentrant {... */\n      pop\n      pop\n      jump\t// out\n        /* \"contracts/Video.sol\":1906:1967  mapping(address => mapping(address => bool)) public hasAccess */\n    tag_37:\n      mstore(0x20, 0x06)\n      dup2\n      0x00\n      mstore\n      mstore(0x20, keccak256(0x00, 0x40))\n      dup1\n      0x00\n      mstore\n      keccak256(0x00, 0x40)\n      0x00\n      swap2\n      pop\n      swap2\n      pop\n      swap1\n      sload\n      swap1\n      0x0100\n      exp\n      swap1\n      div\n      0xff\n      and\n      dup2\n      jump\t// out\n        /* \"contracts/Video.sol\":5406:6036  function likeVideo(uint _videoId) public {... */\n    tag_42:\n        /* \"contracts/Video.sol\":5466:5475  hasAccess */\n      0x06\n        /* \"contracts/Video.sol\":5466:5502  hasAccess[videos[_videoId].uploader] */\n      0x00\n        /* \"contracts/Video.sol\":5476:5482  videos */\n      0x03\n        /* \"contracts/Video.sol\":5476:5492  videos[_videoId] */\n      0x00\n        /* \"contracts/Video.sol\":5483:5491  _videoId */\n      dup5\n        /* \"contracts/Video.sol\":5476:5492  videos[_videoId] */\n      dup2\n      mstore\n      0x20\n      add\n      swap1\n      dup2\n      mstore\n      0x20\n      add\n      0x00\n      keccak256\n        /* \"contracts/Video.sol\":5476:5501  videos[_videoId].uploader */\n      0x03\n      add\n      0x00\n      swap1\n      sload\n      swap1\n      0x0100\n      exp\n      swap1\n      div\n      0xffffffffffffffffffffffffffffffffffffffff\n      and\n        /* \"contracts/Video.sol\":5466:5502  hasAccess[videos[_videoId].uploader] */\n      0xffffffffffffffffffffffffffffffffffffffff\n      and\n      0xffffffffffffffffffffffffffffffffffffffff\n      and\n      dup2\n      mstore\n      0x20\n      add\n      swap1\n      dup2\n      mstore\n      0x20\n      add\n      0x00\n      keccak256\n        /* \"contracts/Video.sol\":5466:5514  hasAccess[videos[_videoId].uploader][msg.sender] */\n      0x00\n        /* \"contracts/Video.sol\":5503:5513  msg.sender */\n      caller\n        /* \"contracts/Video.sol\":5466:5514  hasAccess[videos[_videoId].uploader][msg.sender] */\n      0xffffffffffffffffffffffffffffffffffffffff\n      and\n      0xffffffffffffffffffffffffffffffffffffffff\n      and\n      dup2\n      mstore\n      0x20\n      add\n      swap1\n      dup2\n      mstore\n      0x20\n      add\n      0x00\n      keccak256\n      0x00\n      swap1\n      sload\n      swap1\n      0x0100\n      exp\n      swap1\n      div\n      0xff\n      and\n        /* \"contracts/Video.sol\":5466:5557  hasAccess[videos[_videoId].uploader][msg.sender] || msg.sender == videos[_videoId].uploader */\n      dup1\n      tag_152\n      jumpi\n      pop\n        /* \"contracts/Video.sol\":5532:5538  videos */\n      0x03\n        /* \"contracts/Video.sol\":5532:5548  videos[_videoId] */\n      0x00\n        /* \"contracts/Video.sol\":5539:5547  _videoId */\n      dup3\n        /* \"contracts/Video.sol\":5532:5548  videos[_videoId] */\n      dup2\n      mstore\n      0x20\n      add\n      swap1\n      dup2\n      mstore\n      0x20\n      add\n      0x00\n      keccak256\n        /* \"contracts/Video.sol\":5532:5557  videos[_videoId].uploader */\n      0x03\n      add\n      0x00\n      swap1\n      sload\n      swap1\n      0x0100\n      exp\n      swap1\n      div\n      0xffffffffffffffffffffffffffffffffffffffff\n      and\n        /* \"contracts/Video.sol\":5518:5557  msg.sender == videos[_videoId].uploader */\n      0xffffffffffffffffffffffffffffffffffffffff\n      and\n        /* \"contracts/Video.sol\":5518:5528  msg.sender */\n      caller\n        /* \"contracts/Video.sol\":5518:5557  msg.sender == videos[_videoId].uploader */\n      0xffffffffffffffffffffffffffffffffffffffff\n      and\n      eq\n        /* \"contracts/Video.sol\":5466:5557  hasAccess[videos[_videoId].uploader][msg.sender] || msg.sender == videos[_videoId].uploader */\n    tag_152:\n        /* \"contracts/Video.sol\":5458:5575  require(hasAccess[videos[_videoId].uploader][msg.sender] || msg.sender == videos[_videoId].uploader, \"Access denied\") */\n      tag_153\n      jumpi\n      mload(0x40)\n      0x08c379a000000000000000000000000000000000000000000000000000000000\n      dup2\n      mstore\n      0x04\n      add\n      tag_154\n      swap1\n      tag_155\n      jump\t// in\n    tag_154:\n      mload(0x40)\n      dup1\n      swap2\n      sub\n      swap1\n      revert\n    tag_153:\n        /* \"contracts/Video.sol\":5595:5605  videoLikes */\n      0x05\n        /* \"contracts/Video.sol\":5595:5615  videoLikes[_videoId] */\n      0x00\n        /* \"contracts/Video.sol\":5606:5614  _videoId */\n      dup3\n        /* \"contracts/Video.sol\":5595:5615  videoLikes[_videoId] */\n      dup2\n      mstore\n      0x20\n      add\n      swap1\n      dup2\n      mstore\n      0x20\n      add\n      0x00\n      keccak256\n        /* \"contracts/Video.sol\":5595:5627  videoLikes[_videoId][msg.sender] */\n      0x00\n        /* \"contracts/Video.sol\":5616:5626  msg.sender */\n      caller\n        /* \"contracts/Video.sol\":5595:5627  videoLikes[_videoId][msg.sender] */\n      0xffffffffffffffffffffffffffffffffffffffff\n      and\n      0xffffffffffffffffffffffffffffffffffffffff\n      and\n      dup2\n      mstore\n      0x20\n      add\n      swap1\n      dup2\n      mstore\n      0x20\n      add\n      0x00\n      keccak256\n      0x00\n      swap1\n      sload\n      swap1\n      0x0100\n      exp\n      swap1\n      div\n      0xff\n      and\n        /* \"contracts/Video.sol\":5594:5627  !videoLikes[_videoId][msg.sender] */\n      iszero\n        /* \"contracts/Video.sol\":5586:5668  require(!videoLikes[_videoId][msg.sender], \"You have already liked this video!!!\") */\n      tag_156\n      jumpi\n      mload(0x40)\n      0x08c379a000000000000000000000000000000000000000000000000000000000\n      dup2\n      mstore\n      0x04\n      add\n      tag_157\n      swap1\n      tag_158\n      jump\t// in\n    tag_157:\n      mload(0x40)\n      dup1\n      swap2\n      sub\n      swap1\n      revert\n    tag_156:\n        /* \"contracts/Video.sol\":5795:5799  true */\n      0x01\n        /* \"contracts/Video.sol\":5760:5770  videoLikes */\n      0x05\n        /* \"contracts/Video.sol\":5760:5780  videoLikes[_videoId] */\n      0x00\n        /* \"contracts/Video.sol\":5771:5779  _videoId */\n      dup4\n        /* \"contracts/Video.sol\":5760:5780  videoLikes[_videoId] */\n      dup2\n      mstore\n      0x20\n      add\n      swap1\n      dup2\n      mstore\n      0x20\n      add\n      0x00\n      keccak256\n        /* \"contracts/Video.sol\":5760:5792  videoLikes[_videoId][msg.sender] */\n      0x00\n        /* \"contracts/Video.sol\":5781:5791  msg.sender */\n      caller\n        /* \"contracts/Video.sol\":5760:5792  videoLikes[_videoId][msg.sender] */\n      0xffffffffffffffffffffffffffffffffffffffff\n      and\n      0xffffffffffffffffffffffffffffffffffffffff\n      and\n      dup2\n      mstore\n      0x20\n      add\n      swap1\n      dup2\n      mstore\n      0x20\n      add\n      0x00\n      keccak256\n      0x00\n        /* \"contracts/Video.sol\":5760:5799  videoLikes[_videoId][msg.sender] = true */\n      0x0100\n      exp\n      dup2\n      sload\n      dup2\n      0xff\n      mul\n      not\n      and\n      swap1\n      dup4\n      iszero\n      iszero\n      mul\n      or\n      swap1\n      sstore\n      pop\n        /* \"contracts/Video.sol\":5840:5846  videos */\n      0x03\n        /* \"contracts/Video.sol\":5840:5856  videos[_videoId] */\n      0x00\n        /* \"contracts/Video.sol\":5847:5855  _videoId */\n      dup3\n        /* \"contracts/Video.sol\":5840:5856  videos[_videoId] */\n      dup2\n      mstore\n      0x20\n      add\n      swap1\n      dup2\n      mstore\n      0x20\n      add\n      0x00\n      keccak256\n        /* \"contracts/Video.sol\":5840:5867  videos[_videoId].likesCount */\n      0x09\n      add\n      0x00\n        /* \"contracts/Video.sol\":5840:5869  videos[_videoId].likesCount++ */\n      dup2\n      sload\n      dup1\n      swap3\n      swap2\n      swap1\n      tag_159\n      swap1\n      tag_160\n      jump\t// in\n    tag_159:\n      swap2\n      swap1\n      pop\n      sstore\n      pop\n        /* \"contracts/Video.sol\":5926:5958  VideoLiked(_videoId, msg.sender) */\n      0x252555045b2bb75bbf4e656932c7fc2d63e8e7d9acc300a6b55d6575a2c8d428\n        /* \"contracts/Video.sol\":5937:5945  _videoId */\n      dup2\n        /* \"contracts/Video.sol\":5947:5957  msg.sender */\n      caller\n        /* \"contracts/Video.sol\":5926:5958  VideoLiked(_videoId, msg.sender) */\n      mload(0x40)\n      tag_161\n      swap3\n      swap2\n      swap1\n      tag_115\n      jump\t// in\n    tag_161:\n      mload(0x40)\n      dup1\n      swap2\n      sub\n      swap1\n      log1\n        /* \"contracts/Video.sol\":5406:6036  function likeVideo(uint _videoId) public {... */\n      pop\n      jump\t// out\n        /* \"contracts/Video.sol\":7400:8199  function getVideo(uint _videoId) public view returns (string memory) {... */\n    tag_45:\n        /* \"contracts/Video.sol\":7454:7467  string memory */\n      0x60\n        /* \"contracts/Video.sol\":7488:7497  hasAccess */\n      0x06\n        /* \"contracts/Video.sol\":7488:7524  hasAccess[videos[_videoId].uploader] */\n      0x00\n        /* \"contracts/Video.sol\":7498:7504  videos */\n      0x03\n        /* \"contracts/Video.sol\":7498:7514  videos[_videoId] */\n      0x00\n        /* \"contracts/Video.sol\":7505:7513  _videoId */\n      dup6\n        /* \"contracts/Video.sol\":7498:7514  videos[_videoId] */\n      dup2\n      mstore\n      0x20\n      add\n      swap1\n      dup2\n      mstore\n      0x20\n      add\n      0x00\n      keccak256\n        /* \"contracts/Video.sol\":7498:7523  videos[_videoId].uploader */\n      0x03\n      add\n      0x00\n      swap1\n      sload\n      swap1\n      0x0100\n      exp\n      swap1\n      div\n      0xffffffffffffffffffffffffffffffffffffffff\n      and\n        /* \"contracts/Video.sol\":7488:7524  hasAccess[videos[_videoId].uploader] */\n      0xffffffffffffffffffffffffffffffffffffffff\n      and\n      0xffffffffffffffffffffffffffffffffffffffff\n      and\n      dup2\n      mstore\n      0x20\n      add\n      swap1\n      dup2\n      mstore\n      0x20\n      add\n      0x00\n      keccak256\n        /* \"contracts/Video.sol\":7488:7536  hasAccess[videos[_videoId].uploader][msg.sender] */\n      0x00\n        /* \"contracts/Video.sol\":7525:7535  msg.sender */\n      caller\n        /* \"contracts/Video.sol\":7488:7536  hasAccess[videos[_videoId].uploader][msg.sender] */\n      0xffffffffffffffffffffffffffffffffffffffff\n      and\n      0xffffffffffffffffffffffffffffffffffffffff\n      and\n      dup2\n      mstore\n      0x20\n      add\n      swap1\n      dup2\n      mstore\n      0x20\n      add\n      0x00\n      keccak256\n      0x00\n      swap1\n      sload\n      swap1\n      0x0100\n      exp\n      swap1\n      div\n      0xff\n      and\n        /* \"contracts/Video.sol\":7488:7579  hasAccess[videos[_videoId].uploader][msg.sender] || msg.sender == videos[_videoId].uploader */\n      dup1\n      tag_163\n      jumpi\n      pop\n        /* \"contracts/Video.sol\":7554:7560  videos */\n      0x03\n        /* \"contracts/Video.sol\":7554:7570  videos[_videoId] */\n      0x00\n        /* \"contracts/Video.sol\":7561:7569  _videoId */\n      dup4\n        /* \"contracts/Video.sol\":7554:7570  videos[_videoId] */\n      dup2\n      mstore\n      0x20\n      add\n      swap1\n      dup2\n      mstore\n      0x20\n      add\n      0x00\n      keccak256\n        /* \"contracts/Video.sol\":7554:7579  videos[_videoId].uploader */\n      0x03\n      add\n      0x00\n      swap1\n      sload\n      swap1\n      0x0100\n      exp\n      swap1\n      div\n      0xffffffffffffffffffffffffffffffffffffffff\n      and\n        /* \"contracts/Video.sol\":7540:7579  msg.sender == videos[_videoId].uploader */\n      0xffffffffffffffffffffffffffffffffffffffff\n      and\n        /* \"contracts/Video.sol\":7540:7550  msg.sender */\n      caller\n        /* \"contracts/Video.sol\":7540:7579  msg.sender == videos[_videoId].uploader */\n      0xffffffffffffffffffffffffffffffffffffffff\n      and\n      eq\n        /* \"contracts/Video.sol\":7488:7579  hasAccess[videos[_videoId].uploader][msg.sender] || msg.sender == videos[_videoId].uploader */\n    tag_163:\n        /* \"contracts/Video.sol\":7480:7597  require(hasAccess[videos[_videoId].uploader][msg.sender] || msg.sender == videos[_videoId].uploader, \"Access denied\") */\n      tag_164\n      jumpi\n      mload(0x40)\n      0x08c379a000000000000000000000000000000000000000000000000000000000\n      dup2\n      mstore\n      0x04\n      add\n      tag_165\n      swap1\n      tag_155\n      jump\t// in\n    tag_165:\n      mload(0x40)\n      dup1\n      swap2\n      sub\n      swap1\n      revert\n    tag_164:\n        /* \"contracts/Video.sol\":7684:7709  string memory arweaveTxId */\n      0x00\n        /* \"contracts/Video.sol\":7712:7718  videos */\n      0x03\n        /* \"contracts/Video.sol\":7712:7728  videos[_videoId] */\n      0x00\n        /* \"contracts/Video.sol\":7719:7727  _videoId */\n      dup5\n        /* \"contracts/Video.sol\":7712:7728  videos[_videoId] */\n      dup2\n      mstore\n      0x20\n      add\n      swap1\n      dup2\n      mstore\n      0x20\n      add\n      0x00\n      keccak256\n        /* \"contracts/Video.sol\":7712:7740  videos[_videoId].arweaveTxId */\n      0x05\n      add\n        /* \"contracts/Video.sol\":7684:7740  string memory arweaveTxId = videos[_videoId].arweaveTxId */\n      dup1\n      sload\n      tag_166\n      swap1\n      tag_167\n      jump\t// in\n    tag_166:\n      dup1\n      0x1f\n      add\n      0x20\n      dup1\n      swap2\n      div\n      mul\n      0x20\n      add\n      mload(0x40)\n      swap1\n      dup2\n      add\n      0x40\n      mstore\n      dup1\n      swap3\n      swap2\n      swap1\n      dup2\n      dup2\n      mstore\n      0x20\n      add\n      dup3\n      dup1\n      sload\n      tag_168\n      swap1\n      tag_167\n      jump\t// in\n    tag_168:\n      dup1\n      iszero\n      tag_169\n      jumpi\n      dup1\n      0x1f\n      lt\n      tag_170\n      jumpi\n      0x0100\n      dup1\n      dup4\n      sload\n      div\n      mul\n      dup4\n      mstore\n      swap2\n      0x20\n      add\n      swap2\n      jump(tag_169)\n    tag_170:\n      dup3\n      add\n      swap2\n      swap1\n      0x00\n      mstore\n      keccak256(0x00, 0x20)\n      swap1\n    tag_171:\n      dup2\n      sload\n      dup2\n      mstore\n      swap1\n      0x01\n      add\n      swap1\n      0x20\n      add\n      dup1\n      dup4\n      gt\n      tag_171\n      jumpi\n      dup3\n      swap1\n      sub\n      0x1f\n      and\n      dup3\n      add\n      swap2\n    tag_169:\n      pop\n      pop\n      pop\n      pop\n      pop\n      swap1\n      pop\n        /* \"contracts/Video.sol\":7806:7818  bool success */\n      0x00\n        /* \"contracts/Video.sol\":7820:7837  bytes memory data */\n      dup1\n        /* \"contracts/Video.sol\":423:427  0x18 */\n      0x18\n        /* \"contracts/Video.sol\":7841:7873  WeaveVmReadPrecompile.staticcall */\n      0xffffffffffffffffffffffffffffffffffffffff\n      and\n        /* \"contracts/Video.sol\":7933:7944  arweaveTxId */\n      dup4\n        /* \"contracts/Video.sol\":7888:7945  abi.encodeWithSignature(\"fetchData(string)\", arweaveTxId) */\n      add(0x24, mload(0x40))\n      tag_172\n      swap2\n      swap1\n      tag_47\n      jump\t// in\n    tag_172:\n      mload(0x40)\n      0x20\n      dup2\n      dup4\n      sub\n      sub\n      dup2\n      mstore\n      swap1\n      0x40\n      mstore\n      and(not(0xffffffffffffffffffffffffffffffffffffffffffffffffffffffff), 0x42aa3bb600000000000000000000000000000000000000000000000000000000)\n      0x20\n      dup3\n      add\n      dup1\n      mload\n      0xffffffffffffffffffffffffffffffffffffffffffffffffffffffff\n      dup4\n      dup2\n      dup4\n      and\n      or\n      dup4\n      mstore\n      pop\n      pop\n      pop\n      pop\n        /* \"contracts/Video.sol\":7841:7956  WeaveVmReadPrecompile.staticcall(... */\n      mload(0x40)\n      tag_173\n      swap2\n      swap1\n      tag_174\n      jump\t// in\n    tag_173:\n      0x00\n      mload(0x40)\n      dup1\n      dup4\n      sub\n      dup2\n      dup6\n      gas\n      staticcall\n      swap2\n      pop\n      pop\n      returndatasize\n      dup1\n      0x00\n      dup2\n      eq\n      tag_177\n      jumpi\n      mload(0x40)\n      swap2\n      pop\n      and(add(returndatasize, 0x3f), not(0x1f))\n      dup3\n      add\n      0x40\n      mstore\n      returndatasize\n      dup3\n      mstore\n      returndatasize\n      0x00\n      0x20\n      dup5\n      add\n      returndatacopy\n      jump(tag_176)\n    tag_177:\n      0x60\n      swap2\n      pop\n    tag_176:\n      pop\n        /* \"contracts/Video.sol\":7805:7956  (bool success, bytes memory data) = WeaveVmReadPrecompile.staticcall(... */\n      swap2\n      pop\n      swap2\n      pop\n        /* \"contracts/Video.sol\":8038:8045  success */\n      dup2\n        /* \"contracts/Video.sol\":8030:8069  require(success, \"Error fetching data\") */\n      tag_178\n      jumpi\n      mload(0x40)\n      0x08c379a000000000000000000000000000000000000000000000000000000000\n      dup2\n      mstore\n      0x04\n      add\n      tag_179\n      swap1\n      tag_180\n      jump\t// in\n    tag_179:\n      mload(0x40)\n      dup1\n      swap2\n      sub\n      swap1\n      revert\n    tag_178:\n        /* \"contracts/Video.sol\":8153:8157  data */\n      dup1\n        /* \"contracts/Video.sol\":8139:8158  return string(data) */\n      swap4\n      pop\n      pop\n      pop\n      pop\n        /* \"contracts/Video.sol\":7400:8199  function getVideo(uint _videoId) public view returns (string memory) {... */\n      swap2\n      swap1\n      pop\n      jump\t// out\n        /* \"contracts/Video.sol\":11699:12289  function deleteComment(uint _videoId, uint _commentId) public {... */\n    tag_50:\n        /* \"contracts/Video.sol\":11829:11839  msg.sender */\n      caller\n        /* \"contracts/Video.sol\":11780:11839  videoComments[_videoId][_commentId].commenter == msg.sender */\n      0xffffffffffffffffffffffffffffffffffffffff\n      and\n        /* \"contracts/Video.sol\":11780:11793  videoComments */\n      0x04\n        /* \"contracts/Video.sol\":11780:11803  videoComments[_videoId] */\n      0x00\n        /* \"contracts/Video.sol\":11794:11802  _videoId */\n      dup5\n        /* \"contracts/Video.sol\":11780:11803  videoComments[_videoId] */\n      dup2\n      mstore\n      0x20\n      add\n      swap1\n      dup2\n      mstore\n      0x20\n      add\n      0x00\n      keccak256\n        /* \"contracts/Video.sol\":11780:11815  videoComments[_videoId][_commentId] */\n      0x00\n        /* \"contracts/Video.sol\":11804:11814  _commentId */\n      dup4\n        /* \"contracts/Video.sol\":11780:11815  videoComments[_videoId][_commentId] */\n      dup2\n      mstore\n      0x20\n      add\n      swap1\n      dup2\n      mstore\n      0x20\n      add\n      0x00\n      keccak256\n        /* \"contracts/Video.sol\":11780:11825  videoComments[_videoId][_commentId].commenter */\n      0x01\n      add\n      0x00\n      swap1\n      sload\n      swap1\n      0x0100\n      exp\n      swap1\n      div\n      0xffffffffffffffffffffffffffffffffffffffff\n      and\n        /* \"contracts/Video.sol\":11780:11839  videoComments[_videoId][_commentId].commenter == msg.sender */\n      0xffffffffffffffffffffffffffffffffffffffff\n      and\n      eq\n        /* \"contracts/Video.sol\":11772:11883  require(videoComments[_videoId][_commentId].commenter == msg.sender, \"You are not the author of this comment!\") */\n      tag_182\n      jumpi\n      mload(0x40)\n      0x08c379a000000000000000000000000000000000000000000000000000000000\n      dup2\n      mstore\n      0x04\n      add\n      tag_183\n      swap1\n      tag_184\n      jump\t// in\n    tag_183:\n      mload(0x40)\n      dup1\n      swap2\n      sub\n      swap1\n      revert\n    tag_182:\n        /* \"contracts/Video.sol\":11958:11971  videoComments */\n      0x04\n        /* \"contracts/Video.sol\":11958:11981  videoComments[_videoId] */\n      0x00\n        /* \"contracts/Video.sol\":11972:11980  _videoId */\n      dup4\n        /* \"contracts/Video.sol\":11958:11981  videoComments[_videoId] */\n      dup2\n      mstore\n      0x20\n      add\n      swap1\n      dup2\n      mstore\n      0x20\n      add\n      0x00\n      keccak256\n        /* \"contracts/Video.sol\":11958:11993  videoComments[_videoId][_commentId] */\n      0x00\n        /* \"contracts/Video.sol\":11982:11992  _commentId */\n      dup3\n        /* \"contracts/Video.sol\":11958:11993  videoComments[_videoId][_commentId] */\n      dup2\n      mstore\n      0x20\n      add\n      swap1\n      dup2\n      mstore\n      0x20\n      add\n      0x00\n      keccak256\n      0x00\n        /* \"contracts/Video.sol\":11951:11993  delete videoComments[_videoId][_commentId] */\n      dup1\n      dup3\n      add\n      0x00\n      swap1\n      sstore\n      0x01\n      dup3\n      add\n      exp(0x0100, 0x00)\n      dup2\n      sload\n      swap1\n      0xffffffffffffffffffffffffffffffffffffffff\n      mul\n      not\n      and\n      swap1\n      sstore\n      0x02\n      dup3\n      add\n      0x00\n      tag_185\n      swap2\n      swap1\n      tag_186\n      jump\t// in\n    tag_185:\n      0x03\n      dup3\n      add\n      0x00\n      swap1\n      sstore\n      pop\n      pop\n        /* \"contracts/Video.sol\":12066:12072  videos */\n      0x03\n        /* \"contracts/Video.sol\":12066:12082  videos[_videoId] */\n      0x00\n        /* \"contracts/Video.sol\":12073:12081  _videoId */\n      dup4\n        /* \"contracts/Video.sol\":12066:12082  videos[_videoId] */\n      dup2\n      mstore\n      0x20\n      add\n      swap1\n      dup2\n      mstore\n      0x20\n      add\n      0x00\n      keccak256\n        /* \"contracts/Video.sol\":12066:12096  videos[_videoId].commentsCount */\n      0x0a\n      add\n      0x00\n        /* \"contracts/Video.sol\":12066:12098  videos[_videoId].commentsCount-- */\n      dup2\n      sload\n      dup1\n      swap3\n      swap2\n      swap1\n      tag_187\n      swap1\n      tag_113\n      jump\t// in\n    tag_187:\n      swap2\n      swap1\n      pop\n      sstore\n      pop\n        /* \"contracts/Video.sol\":12157:12205  CommentDeleted(_videoId, _commentId, msg.sender) */\n      0x6ee692db105027f6f2626ec7348b1fee62bdd8b6aa9c2999ceed2aebd4dc3ee9\n        /* \"contracts/Video.sol\":12172:12180  _videoId */\n      dup3\n        /* \"contracts/Video.sol\":12182:12192  _commentId */\n      dup3\n        /* \"contracts/Video.sol\":12194:12204  msg.sender */\n      caller\n        /* \"contracts/Video.sol\":12157:12205  CommentDeleted(_videoId, _commentId, msg.sender) */\n      mload(0x40)\n      tag_188\n      swap4\n      swap3\n      swap2\n      swap1\n      tag_189\n      jump\t// in\n    tag_188:\n      mload(0x40)\n      dup1\n      swap2\n      sub\n      swap1\n      log1\n        /* \"contracts/Video.sol\":11699:12289  function deleteComment(uint _videoId, uint _commentId) public {... */\n      pop\n      pop\n      jump\t// out\n        /* \"contracts/Video.sol\":10335:11158  function withdrawTips() external nonReentrant {... */\n    tag_52:\n        /* \"@openzeppelin/contracts/security/ReentrancyGuard.sol\":2261:2282  _nonReentrantBefore() */\n      tag_191\n        /* \"@openzeppelin/contracts/security/ReentrancyGuard.sol\":2261:2280  _nonReentrantBefore */\n      tag_118\n        /* \"@openzeppelin/contracts/security/ReentrancyGuard.sol\":2261:2282  _nonReentrantBefore() */\n      jump\t// in\n    tag_191:\n        /* \"contracts/Video.sol\":10392:10406  uint totalTips */\n      0x00\n        /* \"contracts/Video.sol\":10486:10492  uint i */\n      dup1\n        /* \"contracts/Video.sol\":10493:10494  1 */\n      0x01\n        /* \"contracts/Video.sol\":10486:10494  uint i=1 */\n      swap1\n      pop\n        /* \"contracts/Video.sol\":10482:10697  for(uint i=1; i<=videoCount; i++){... */\n    tag_193:\n        /* \"contracts/Video.sol\":10499:10509  videoCount */\n      sload(0x09)\n        /* \"contracts/Video.sol\":10496:10497  i */\n      dup2\n        /* \"contracts/Video.sol\":10496:10509  i<=videoCount */\n      gt\n        /* \"contracts/Video.sol\":10482:10697  for(uint i=1; i<=videoCount; i++){... */\n      tag_194\n      jumpi\n        /* \"contracts/Video.sol\":10555:10565  msg.sender */\n      caller\n        /* \"contracts/Video.sol\":10533:10565  videos[i].uploader == msg.sender */\n      0xffffffffffffffffffffffffffffffffffffffff\n      and\n        /* \"contracts/Video.sol\":10533:10539  videos */\n      0x03\n        /* \"contracts/Video.sol\":10533:10542  videos[i] */\n      0x00\n        /* \"contracts/Video.sol\":10540:10541  i */\n      dup4\n        /* \"contracts/Video.sol\":10533:10542  videos[i] */\n      dup2\n      mstore\n      0x20\n      add\n      swap1\n      dup2\n      mstore\n      0x20\n      add\n      0x00\n      keccak256\n        /* \"contracts/Video.sol\":10533:10551  videos[i].uploader */\n      0x03\n      add\n      0x00\n      swap1\n      sload\n      swap1\n      0x0100\n      exp\n      swap1\n      div\n      0xffffffffffffffffffffffffffffffffffffffff\n      and\n        /* \"contracts/Video.sol\":10533:10565  videos[i].uploader == msg.sender */\n      0xffffffffffffffffffffffffffffffffffffffff\n      and\n      sub\n        /* \"contracts/Video.sol\":10530:10686  if(videos[i].uploader == msg.sender){... */\n      tag_196\n      jumpi\n        /* \"contracts/Video.sol\":10598:10607  videoTips */\n      0x07\n        /* \"contracts/Video.sol\":10598:10610  videoTips[i] */\n      0x00\n        /* \"contracts/Video.sol\":10608:10609  i */\n      dup3\n        /* \"contracts/Video.sol\":10598:10610  videoTips[i] */\n      dup2\n      mstore\n      0x20\n      add\n      swap1\n      dup2\n      mstore\n      0x20\n      add\n      0x00\n      keccak256\n        /* \"contracts/Video.sol\":10598:10622  videoTips[i][msg.sender] */\n      0x00\n        /* \"contracts/Video.sol\":10611:10621  msg.sender */\n      caller\n        /* \"contracts/Video.sol\":10598:10622  videoTips[i][msg.sender] */\n      0xffffffffffffffffffffffffffffffffffffffff\n      and\n      0xffffffffffffffffffffffffffffffffffffffff\n      and\n      dup2\n      mstore\n      0x20\n      add\n      swap1\n      dup2\n      mstore\n      0x20\n      add\n      0x00\n      keccak256\n      sload\n        /* \"contracts/Video.sol\":10585:10622  totalTips += videoTips[i][msg.sender] */\n      dup3\n      tag_197\n      swap2\n      swap1\n      tag_146\n      jump\t// in\n    tag_197:\n      swap2\n      pop\n        /* \"contracts/Video.sol\":10669:10670  0 */\n      0x00\n        /* \"contracts/Video.sol\":10642:10651  videoTips */\n      0x07\n        /* \"contracts/Video.sol\":10642:10654  videoTips[i] */\n      0x00\n        /* \"contracts/Video.sol\":10652:10653  i */\n      dup4\n        /* \"contracts/Video.sol\":10642:10654  videoTips[i] */\n      dup2\n      mstore\n      0x20\n      add\n      swap1\n      dup2\n      mstore\n      0x20\n      add\n      0x00\n      keccak256\n        /* \"contracts/Video.sol\":10642:10666  videoTips[i][msg.sender] */\n      0x00\n        /* \"contracts/Video.sol\":10655:10665  msg.sender */\n      caller\n        /* \"contracts/Video.sol\":10642:10666  videoTips[i][msg.sender] */\n      0xffffffffffffffffffffffffffffffffffffffff\n      and\n      0xffffffffffffffffffffffffffffffffffffffff\n      and\n      dup2\n      mstore\n      0x20\n      add\n      swap1\n      dup2\n      mstore\n      0x20\n      add\n      0x00\n      keccak256\n        /* \"contracts/Video.sol\":10642:10670  videoTips[i][msg.sender] = 0 */\n      dup2\n      swap1\n      sstore\n      pop\n        /* \"contracts/Video.sol\":10530:10686  if(videos[i].uploader == msg.sender){... */\n    tag_196:\n        /* \"contracts/Video.sol\":10511:10514  i++ */\n      dup1\n      dup1\n      tag_198\n      swap1\n      tag_160\n      jump\t// in\n    tag_198:\n      swap2\n      pop\n      pop\n        /* \"contracts/Video.sol\":10482:10697  for(uint i=1; i<=videoCount; i++){... */\n      jump(tag_193)\n    tag_194:\n      pop\n        /* \"contracts/Video.sol\":10805:10806  0 */\n      0x00\n        /* \"contracts/Video.sol\":10793:10802  totalTips */\n      dup2\n        /* \"contracts/Video.sol\":10793:10806  totalTips > 0 */\n      gt\n        /* \"contracts/Video.sol\":10785:10844  require(totalTips > 0, \"No tips available for withdrawal!\") */\n      tag_199\n      jumpi\n      mload(0x40)\n      0x08c379a000000000000000000000000000000000000000000000000000000000\n      dup2\n      mstore\n      0x04\n      add\n      tag_200\n      swap1\n      tag_201\n      jump\t// in\n    tag_200:\n      mload(0x40)\n      dup1\n      swap2\n      sub\n      swap1\n      revert\n    tag_199:\n        /* \"contracts/Video.sol\":10921:10926  token */\n      0x01\n      0x00\n      swap1\n      sload\n      swap1\n      0x0100\n      exp\n      swap1\n      div\n      0xffffffffffffffffffffffffffffffffffffffff\n      and\n        /* \"contracts/Video.sol\":10921:10935  token.transfer */\n      0xffffffffffffffffffffffffffffffffffffffff\n      and\n      0xa9059cbb\n        /* \"contracts/Video.sol\":10936:10946  msg.sender */\n      caller\n        /* \"contracts/Video.sol\":10948:10957  totalTips */\n      dup4\n        /* \"contracts/Video.sol\":10921:10958  token.transfer(msg.sender, totalTips) */\n      mload(0x40)\n      dup4\n      0xffffffff\n      and\n      0xe0\n      shl\n      dup2\n      mstore\n      0x04\n      add\n      tag_202\n      swap3\n      swap2\n      swap1\n      tag_203\n      jump\t// in\n    tag_202:\n      0x20\n      mload(0x40)\n      dup1\n      dup4\n      sub\n      dup2\n      0x00\n      dup8\n      gas\n      call\n      iszero\n      dup1\n      iszero\n      tag_205\n      jumpi\n      returndatasize\n      0x00\n      dup1\n      returndatacopy\n      revert(0x00, returndatasize)\n    tag_205:\n      pop\n      pop\n      pop\n      pop\n      mload(0x40)\n      returndatasize\n      not(0x1f)\n      0x1f\n      dup3\n      add\n      and\n      dup3\n      add\n      dup1\n      0x40\n      mstore\n      pop\n      dup2\n      add\n      swap1\n      tag_206\n      swap2\n      swap1\n      tag_134\n      jump\t// in\n    tag_206:\n        /* \"contracts/Video.sol\":10913:10981  require(token.transfer(msg.sender, totalTips), \"Withdrawal failed!\") */\n      tag_207\n      jumpi\n      mload(0x40)\n      0x08c379a000000000000000000000000000000000000000000000000000000000\n      dup2\n      mstore\n      0x04\n      add\n      tag_208\n      swap1\n      tag_209\n      jump\t// in\n    tag_208:\n      mload(0x40)\n      dup1\n      swap2\n      sub\n      swap1\n      revert\n    tag_207:\n        /* \"contracts/Video.sol\":11037:11074  FundsWithdrawn(msg.sender, totalTips) */\n      0xeaff4b37086828766ad3268786972c0cd24259d4c87a80f9d3963a3c3d999b0d\n        /* \"contracts/Video.sol\":11052:11062  msg.sender */\n      caller\n        /* \"contracts/Video.sol\":11064:11073  totalTips */\n      dup3\n        /* \"contracts/Video.sol\":11037:11074  FundsWithdrawn(msg.sender, totalTips) */\n      mload(0x40)\n      tag_210\n      swap3\n      swap2\n      swap1\n      tag_203\n      jump\t// in\n    tag_210:\n      mload(0x40)\n      dup1\n      swap2\n      sub\n      swap1\n      log1\n        /* \"contracts/Video.sol\":10381:11158  {... */\n      pop\n        /* \"@openzeppelin/contracts/security/ReentrancyGuard.sol\":2303:2323  _nonReentrantAfter() */\n      tag_211\n        /* \"@openzeppelin/contracts/security/ReentrancyGuard.sol\":2303:2321  _nonReentrantAfter */\n      tag_150\n        /* \"@openzeppelin/contracts/security/ReentrancyGuard.sol\":2303:2323  _nonReentrantAfter() */\n      jump\t// in\n    tag_211:\n        /* \"contracts/Video.sol\":10335:11158  function withdrawTips() external nonReentrant {... */\n      jump\t// out\n        /* \"contracts/Video.sol\":1788:1847  mapping(uint => mapping(address => bool)) public videoLikes */\n    tag_56:\n      mstore(0x20, 0x05)\n      dup2\n      0x00\n      mstore\n      mstore(0x20, keccak256(0x00, 0x40))\n      dup1\n      0x00\n      mstore\n      keccak256(0x00, 0x40)\n      0x00\n      swap2\n      pop\n      swap2\n      pop\n      swap1\n      sload\n      swap1\n      0x0100\n      exp\n      swap1\n      div\n      0xff\n      and\n      dup2\n      jump\t// out\n        /* \"contracts/Video.sol\":8210:9377  function payForAccess(address _uploader) external nonReentrant {... */\n    tag_61:\n        /* \"@openzeppelin/contracts/security/ReentrancyGuard.sol\":2261:2282  _nonReentrantBefore() */\n      tag_213\n        /* \"@openzeppelin/contracts/security/ReentrancyGuard.sol\":2261:2280  _nonReentrantBefore */\n      tag_118\n        /* \"@openzeppelin/contracts/security/ReentrancyGuard.sol\":2261:2282  _nonReentrantBefore() */\n      jump\t// in\n    tag_213:\n        /* \"contracts/Video.sol\":8322:8323  0 */\n      0x00\n        /* \"contracts/Video.sol\":8292:8308  channelAccessFee */\n      0x08\n        /* \"contracts/Video.sol\":8292:8319  channelAccessFee[_uploader] */\n      0x00\n        /* \"contracts/Video.sol\":8309:8318  _uploader */\n      dup4\n        /* \"contracts/Video.sol\":8292:8319  channelAccessFee[_uploader] */\n      0xffffffffffffffffffffffffffffffffffffffff\n      and\n      0xffffffffffffffffffffffffffffffffffffffff\n      and\n      dup2\n      mstore\n      0x20\n      add\n      swap1\n      dup2\n      mstore\n      0x20\n      add\n      0x00\n      keccak256\n      sload\n        /* \"contracts/Video.sol\":8292:8323  channelAccessFee[_uploader] > 0 */\n      gt\n        /* \"contracts/Video.sol\":8284:8358  require(channelAccessFee[_uploader] > 0, \"Uploader has no access fee set\") */\n      tag_215\n      jumpi\n      mload(0x40)\n      0x08c379a000000000000000000000000000000000000000000000000000000000\n      dup2\n      mstore\n      0x04\n      add\n      tag_216\n      swap1\n      tag_217\n      jump\t// in\n    tag_216:\n      mload(0x40)\n      dup1\n      swap2\n      sub\n      swap1\n      revert\n    tag_215:\n        /* \"contracts/Video.sol\":8413:8422  hasAccess */\n      0x06\n        /* \"contracts/Video.sol\":8413:8433  hasAccess[_uploader] */\n      0x00\n        /* \"contracts/Video.sol\":8423:8432  _uploader */\n      dup3\n        /* \"contracts/Video.sol\":8413:8433  hasAccess[_uploader] */\n      0xffffffffffffffffffffffffffffffffffffffff\n      and\n      0xffffffffffffffffffffffffffffffffffffffff\n      and\n      dup2\n      mstore\n      0x20\n      add\n      swap1\n      dup2\n      mstore\n      0x20\n      add\n      0x00\n      keccak256\n        /* \"contracts/Video.sol\":8413:8445  hasAccess[_uploader][msg.sender] */\n      0x00\n        /* \"contracts/Video.sol\":8434:8444  msg.sender */\n      caller\n        /* \"contracts/Video.sol\":8413:8445  hasAccess[_uploader][msg.sender] */\n      0xffffffffffffffffffffffffffffffffffffffff\n      and\n      0xffffffffffffffffffffffffffffffffffffffff\n      and\n      dup2\n      mstore\n      0x20\n      add\n      swap1\n      dup2\n      mstore\n      0x20\n      add\n      0x00\n      keccak256\n      0x00\n      swap1\n      sload\n      swap1\n      0x0100\n      exp\n      swap1\n      div\n      0xff\n      and\n        /* \"contracts/Video.sol\":8412:8445  !hasAccess[_uploader][msg.sender] */\n      iszero\n        /* \"contracts/Video.sol\":8404:8472  require(!hasAccess[_uploader][msg.sender], \"Access already granted\") */\n      tag_218\n      jumpi\n      mload(0x40)\n      0x08c379a000000000000000000000000000000000000000000000000000000000\n      dup2\n      mstore\n      0x04\n      add\n      tag_219\n      swap1\n      tag_220\n      jump\t// in\n    tag_219:\n      mload(0x40)\n      dup1\n      swap2\n      sub\n      swap1\n      revert\n    tag_218:\n        /* \"contracts/Video.sol\":8550:8558  uint fee */\n      0x00\n        /* \"contracts/Video.sol\":8561:8577  channelAccessFee */\n      0x08\n        /* \"contracts/Video.sol\":8561:8588  channelAccessFee[_uploader] */\n      0x00\n        /* \"contracts/Video.sol\":8578:8587  _uploader */\n      dup4\n        /* \"contracts/Video.sol\":8561:8588  channelAccessFee[_uploader] */\n      0xffffffffffffffffffffffffffffffffffffffff\n      and\n      0xffffffffffffffffffffffffffffffffffffffff\n      and\n      dup2\n      mstore\n      0x20\n      add\n      swap1\n      dup2\n      mstore\n      0x20\n      add\n      0x00\n      keccak256\n      sload\n        /* \"contracts/Video.sol\":8550:8588  uint fee = channelAccessFee[_uploader] */\n      swap1\n      pop\n        /* \"contracts/Video.sol\":8632:8648  uint platformFee */\n      0x00\n        /* \"contracts/Video.sol\":8681:8686  10000 */\n      0x2710\n        /* \"contracts/Video.sol\":2355:2358  100 */\n      0x64\n        /* \"contracts/Video.sol\":8652:8655  fee */\n      dup4\n        /* \"contracts/Video.sol\":8652:8679  fee * platformFeePercentage */\n      tag_221\n      swap2\n      swap1\n      tag_124\n      jump\t// in\n    tag_221:\n        /* \"contracts/Video.sol\":8651:8686  (fee * platformFeePercentage)/10000 */\n      tag_222\n      swap2\n      swap1\n      tag_126\n      jump\t// in\n    tag_222:\n        /* \"contracts/Video.sol\":8632:8686  uint platformFee = (fee * platformFeePercentage)/10000 */\n      swap1\n      pop\n        /* \"contracts/Video.sol\":8697:8718  uint uploaderEarnings */\n      0x00\n        /* \"contracts/Video.sol\":8727:8738  platformFee */\n      dup2\n        /* \"contracts/Video.sol\":8721:8724  fee */\n      dup4\n        /* \"contracts/Video.sol\":8721:8738  fee - platformFee */\n      tag_223\n      swap2\n      swap1\n      tag_128\n      jump\t// in\n    tag_223:\n        /* \"contracts/Video.sol\":8697:8738  uint uploaderEarnings = fee - platformFee */\n      swap1\n      pop\n        /* \"contracts/Video.sol\":8757:8762  token */\n      0x01\n      0x00\n      swap1\n      sload\n      swap1\n      0x0100\n      exp\n      swap1\n      div\n      0xffffffffffffffffffffffffffffffffffffffff\n      and\n        /* \"contracts/Video.sol\":8757:8775  token.transferFrom */\n      0xffffffffffffffffffffffffffffffffffffffff\n      and\n      0x23b872dd\n        /* \"contracts/Video.sol\":8776:8786  msg.sender */\n      caller\n        /* \"contracts/Video.sol\":8788:8797  _uploader */\n      dup7\n        /* \"contracts/Video.sol\":8799:8815  uploaderEarnings */\n      dup5\n        /* \"contracts/Video.sol\":8757:8816  token.transferFrom(msg.sender, _uploader, uploaderEarnings) */\n      mload(0x40)\n      dup5\n      0xffffffff\n      and\n      0xe0\n      shl\n      dup2\n      mstore\n      0x04\n      add\n      tag_224\n      swap4\n      swap3\n      swap2\n      swap1\n      tag_130\n      jump\t// in\n    tag_224:\n      0x20\n      mload(0x40)\n      dup1\n      dup4\n      sub\n      dup2\n      0x00\n      dup8\n      gas\n      call\n      iszero\n      dup1\n      iszero\n      tag_226\n      jumpi\n      returndatasize\n      0x00\n      dup1\n      returndatacopy\n      revert(0x00, returndatasize)\n    tag_226:\n      pop\n      pop\n      pop\n      pop\n      mload(0x40)\n      returndatasize\n      not(0x1f)\n      0x1f\n      dup3\n      add\n      and\n      dup3\n      add\n      dup1\n      0x40\n      mstore\n      pop\n      dup2\n      add\n      swap1\n      tag_227\n      swap2\n      swap1\n      tag_134\n      jump\t// in\n    tag_227:\n        /* \"contracts/Video.sol\":8749:8843  require(token.transferFrom(msg.sender, _uploader, uploaderEarnings), \"Access payment failed!\") */\n      tag_228\n      jumpi\n      mload(0x40)\n      0x08c379a000000000000000000000000000000000000000000000000000000000\n      dup2\n      mstore\n      0x04\n      add\n      tag_229\n      swap1\n      tag_230\n      jump\t// in\n    tag_229:\n      mload(0x40)\n      dup1\n      swap2\n      sub\n      swap1\n      revert\n    tag_228:\n        /* \"contracts/Video.sol\":8933:8938  token */\n      0x01\n      0x00\n      swap1\n      sload\n      swap1\n      0x0100\n      exp\n      swap1\n      div\n      0xffffffffffffffffffffffffffffffffffffffff\n      and\n        /* \"contracts/Video.sol\":8933:8951  token.transferFrom */\n      0xffffffffffffffffffffffffffffffffffffffff\n      and\n      0x23b872dd\n        /* \"contracts/Video.sol\":8952:8962  msg.sender */\n      caller\n        /* \"contracts/Video.sol\":8964:8979  platformAddress */\n      0x02\n      0x00\n      swap1\n      sload\n      swap1\n      0x0100\n      exp\n      swap1\n      div\n      0xffffffffffffffffffffffffffffffffffffffff\n      and\n        /* \"contracts/Video.sol\":8981:8992  platformFee */\n      dup6\n        /* \"contracts/Video.sol\":8933:8993  token.transferFrom(msg.sender, platformAddress, platformFee) */\n      mload(0x40)\n      dup5\n      0xffffffff\n      and\n      0xe0\n      shl\n      dup2\n      mstore\n      0x04\n      add\n      tag_231\n      swap4\n      swap3\n      swap2\n      swap1\n      tag_130\n      jump\t// in\n    tag_231:\n      0x20\n      mload(0x40)\n      dup1\n      dup4\n      sub\n      dup2\n      0x00\n      dup8\n      gas\n      call\n      iszero\n      dup1\n      iszero\n      tag_233\n      jumpi\n      returndatasize\n      0x00\n      dup1\n      returndatacopy\n      revert(0x00, returndatasize)\n    tag_233:\n      pop\n      pop\n      pop\n      pop\n      mload(0x40)\n      returndatasize\n      not(0x1f)\n      0x1f\n      dup3\n      add\n      and\n      dup3\n      add\n      dup1\n      0x40\n      mstore\n      pop\n      dup2\n      add\n      swap1\n      tag_234\n      swap2\n      swap1\n      tag_134\n      jump\t// in\n    tag_234:\n        /* \"contracts/Video.sol\":8925:9027  require(token.transferFrom(msg.sender, platformAddress, platformFee), \"Platform fee transfer failed!\") */\n      tag_235\n      jumpi\n      mload(0x40)\n      0x08c379a000000000000000000000000000000000000000000000000000000000\n      dup2\n      mstore\n      0x04\n      add\n      tag_236\n      swap1\n      tag_237\n      jump\t// in\n    tag_236:\n      mload(0x40)\n      dup1\n      swap2\n      sub\n      swap1\n      revert\n    tag_235:\n        /* \"contracts/Video.sol\":9145:9149  true */\n      0x01\n        /* \"contracts/Video.sol\":9110:9119  hasAccess */\n      0x06\n        /* \"contracts/Video.sol\":9110:9130  hasAccess[_uploader] */\n      0x00\n        /* \"contracts/Video.sol\":9120:9129  _uploader */\n      dup7\n        /* \"contracts/Video.sol\":9110:9130  hasAccess[_uploader] */\n      0xffffffffffffffffffffffffffffffffffffffff\n      and\n      0xffffffffffffffffffffffffffffffffffffffff\n      and\n      dup2\n      mstore\n      0x20\n      add\n      swap1\n      dup2\n      mstore\n      0x20\n      add\n      0x00\n      keccak256\n        /* \"contracts/Video.sol\":9110:9142  hasAccess[_uploader][msg.sender] */\n      0x00\n        /* \"contracts/Video.sol\":9131:9141  msg.sender */\n      caller\n        /* \"contracts/Video.sol\":9110:9142  hasAccess[_uploader][msg.sender] */\n      0xffffffffffffffffffffffffffffffffffffffff\n      and\n      0xffffffffffffffffffffffffffffffffffffffff\n      and\n      dup2\n      mstore\n      0x20\n      add\n      swap1\n      dup2\n      mstore\n      0x20\n      add\n      0x00\n      keccak256\n      0x00\n        /* \"contracts/Video.sol\":9110:9149  hasAccess[_uploader][msg.sender] = true */\n      0x0100\n      exp\n      dup2\n      sload\n      dup2\n      0xff\n      mul\n      not\n      and\n      swap1\n      dup4\n      iszero\n      iszero\n      mul\n      or\n      swap1\n      sstore\n      pop\n        /* \"contracts/Video.sol\":9224:9267  ChannelAccessGranted(_uploader, msg.sender) */\n      0x52bb96d2adcc8610a1694c331ba9f604c8a82db341584be8e78b2ae099fc3d4b\n        /* \"contracts/Video.sol\":9245:9254  _uploader */\n      dup5\n        /* \"contracts/Video.sol\":9256:9266  msg.sender */\n      caller\n        /* \"contracts/Video.sol\":9224:9267  ChannelAccessGranted(_uploader, msg.sender) */\n      mload(0x40)\n      tag_238\n      swap3\n      swap2\n      swap1\n      tag_239\n      jump\t// in\n    tag_238:\n      mload(0x40)\n      dup1\n      swap2\n      sub\n      swap1\n      log1\n        /* \"contracts/Video.sol\":8273:9377  {... */\n      pop\n      pop\n      pop\n        /* \"@openzeppelin/contracts/security/ReentrancyGuard.sol\":2303:2323  _nonReentrantAfter() */\n      tag_240\n        /* \"@openzeppelin/contracts/security/ReentrancyGuard.sol\":2303:2321  _nonReentrantAfter */\n      tag_150\n        /* \"@openzeppelin/contracts/security/ReentrancyGuard.sol\":2303:2323  _nonReentrantAfter() */\n      jump\t// in\n    tag_240:\n        /* \"contracts/Video.sol\":8210:9377  function payForAccess(address _uploader) external nonReentrant {... */\n      pop\n      jump\t// out\n        /* \"contracts/Video.sol\":2146:2194  mapping(address => uint) public channelAccessFee */\n    tag_64:\n      mstore(0x20, 0x08)\n      dup1\n      0x00\n      mstore\n      keccak256(0x00, 0x40)\n      0x00\n      swap2\n      pop\n      swap1\n      pop\n      sload\n      dup2\n      jump\t// out\n        /* \"contracts/Video.sol\":2019:2077  mapping(uint => mapping(address => uint)) public videoTips */\n    tag_69:\n      mstore(0x20, 0x07)\n      dup2\n      0x00\n      mstore\n      mstore(0x20, keccak256(0x00, 0x40))\n      dup1\n      0x00\n      mstore\n      keccak256(0x00, 0x40)\n      0x00\n      swap2\n      pop\n      swap2\n      pop\n      pop\n      sload\n      dup2\n      jump\t// out\n        /* \"contracts/Video.sol\":6044:6775  function addComment(uint _videoId, string memory _text) public {... */\n    tag_74:\n        /* \"contracts/Video.sol\":6126:6135  hasAccess */\n      0x06\n        /* \"contracts/Video.sol\":6126:6162  hasAccess[videos[_videoId].uploader] */\n      0x00\n        /* \"contracts/Video.sol\":6136:6142  videos */\n      0x03\n        /* \"contracts/Video.sol\":6136:6152  videos[_videoId] */\n      0x00\n        /* \"contracts/Video.sol\":6143:6151  _videoId */\n      dup6\n        /* \"contracts/Video.sol\":6136:6152  videos[_videoId] */\n      dup2\n      mstore\n      0x20\n      add\n      swap1\n      dup2\n      mstore\n      0x20\n      add\n      0x00\n      keccak256\n        /* \"contracts/Video.sol\":6136:6161  videos[_videoId].uploader */\n      0x03\n      add\n      0x00\n      swap1\n      sload\n      swap1\n      0x0100\n      exp\n      swap1\n      div\n      0xffffffffffffffffffffffffffffffffffffffff\n      and\n        /* \"contracts/Video.sol\":6126:6162  hasAccess[videos[_videoId].uploader] */\n      0xffffffffffffffffffffffffffffffffffffffff\n      and\n      0xffffffffffffffffffffffffffffffffffffffff\n      and\n      dup2\n      mstore\n      0x20\n      add\n      swap1\n      dup2\n      mstore\n      0x20\n      add\n      0x00\n      keccak256\n        /* \"contracts/Video.sol\":6126:6174  hasAccess[videos[_videoId].uploader][msg.sender] */\n      0x00\n        /* \"contracts/Video.sol\":6163:6173  msg.sender */\n      caller\n        /* \"contracts/Video.sol\":6126:6174  hasAccess[videos[_videoId].uploader][msg.sender] */\n      0xffffffffffffffffffffffffffffffffffffffff\n      and\n      0xffffffffffffffffffffffffffffffffffffffff\n      and\n      dup2\n      mstore\n      0x20\n      add\n      swap1\n      dup2\n      mstore\n      0x20\n      add\n      0x00\n      keccak256\n      0x00\n      swap1\n      sload\n      swap1\n      0x0100\n      exp\n      swap1\n      div\n      0xff\n      and\n        /* \"contracts/Video.sol\":6126:6217  hasAccess[videos[_videoId].uploader][msg.sender] || msg.sender == videos[_videoId].uploader */\n      dup1\n      tag_242\n      jumpi\n      pop\n        /* \"contracts/Video.sol\":6192:6198  videos */\n      0x03\n        /* \"contracts/Video.sol\":6192:6208  videos[_videoId] */\n      0x00\n        /* \"contracts/Video.sol\":6199:6207  _videoId */\n      dup4\n        /* \"contracts/Video.sol\":6192:6208  videos[_videoId] */\n      dup2\n      mstore\n      0x20\n      add\n      swap1\n      dup2\n      mstore\n      0x20\n      add\n      0x00\n      keccak256\n        /* \"contracts/Video.sol\":6192:6217  videos[_videoId].uploader */\n      0x03\n      add\n      0x00\n      swap1\n      sload\n      swap1\n      0x0100\n      exp\n      swap1\n      div\n      0xffffffffffffffffffffffffffffffffffffffff\n      and\n        /* \"contracts/Video.sol\":6178:6217  msg.sender == videos[_videoId].uploader */\n      0xffffffffffffffffffffffffffffffffffffffff\n      and\n        /* \"contracts/Video.sol\":6178:6188  msg.sender */\n      caller\n        /* \"contracts/Video.sol\":6178:6217  msg.sender == videos[_videoId].uploader */\n      0xffffffffffffffffffffffffffffffffffffffff\n      and\n      eq\n        /* \"contracts/Video.sol\":6126:6217  hasAccess[videos[_videoId].uploader][msg.sender] || msg.sender == videos[_videoId].uploader */\n    tag_242:\n        /* \"contracts/Video.sol\":6118:6235  require(hasAccess[videos[_videoId].uploader][msg.sender] || msg.sender == videos[_videoId].uploader, \"Access denied\") */\n      tag_243\n      jumpi\n      mload(0x40)\n      0x08c379a000000000000000000000000000000000000000000000000000000000\n      dup2\n      mstore\n      0x04\n      add\n      tag_244\n      swap1\n      tag_155\n      jump\t// in\n    tag_244:\n      mload(0x40)\n      dup1\n      swap2\n      sub\n      swap1\n      revert\n    tag_243:\n        /* \"contracts/Video.sol\":6246:6252  videos */\n      0x03\n        /* \"contracts/Video.sol\":6246:6262  videos[_videoId] */\n      0x00\n        /* \"contracts/Video.sol\":6253:6261  _videoId */\n      dup4\n        /* \"contracts/Video.sol\":6246:6262  videos[_videoId] */\n      dup2\n      mstore\n      0x20\n      add\n      swap1\n      dup2\n      mstore\n      0x20\n      add\n      0x00\n      keccak256\n        /* \"contracts/Video.sol\":6246:6276  videos[_videoId].commentsCount */\n      0x0a\n      add\n      0x00\n        /* \"contracts/Video.sol\":6246:6278  videos[_videoId].commentsCount++ */\n      dup2\n      sload\n      dup1\n      swap3\n      swap2\n      swap1\n      tag_245\n      swap1\n      tag_160\n      jump\t// in\n    tag_245:\n      swap2\n      swap1\n      pop\n      sstore\n      pop\n        /* \"contracts/Video.sol\":6341:6355  uint commentId */\n      0x00\n        /* \"contracts/Video.sol\":6358:6364  videos */\n      0x03\n        /* \"contracts/Video.sol\":6358:6374  videos[_videoId] */\n      0x00\n        /* \"contracts/Video.sol\":6365:6373  _videoId */\n      dup5\n        /* \"contracts/Video.sol\":6358:6374  videos[_videoId] */\n      dup2\n      mstore\n      0x20\n      add\n      swap1\n      dup2\n      mstore\n      0x20\n      add\n      0x00\n      keccak256\n        /* \"contracts/Video.sol\":6358:6388  videos[_videoId].commentsCount */\n      0x0a\n      add\n      sload\n        /* \"contracts/Video.sol\":6341:6388  uint commentId = videos[_videoId].commentsCount */\n      swap1\n      pop\n        /* \"contracts/Video.sol\":6476:6630  Comment({... */\n      mload(0x40)\n      dup1\n      0x80\n      add\n      0x40\n      mstore\n      dup1\n        /* \"contracts/Video.sol\":6503:6512  commentId */\n      dup3\n        /* \"contracts/Video.sol\":6476:6630  Comment({... */\n      dup2\n      mstore\n      0x20\n      add\n        /* \"contracts/Video.sol\":6538:6548  msg.sender */\n      caller\n        /* \"contracts/Video.sol\":6476:6630  Comment({... */\n      0xffffffffffffffffffffffffffffffffffffffff\n      and\n      dup2\n      mstore\n      0x20\n      add\n        /* \"contracts/Video.sol\":6572:6577  _text */\n      dup4\n        /* \"contracts/Video.sol\":6476:6630  Comment({... */\n      dup2\n      mstore\n      0x20\n      add\n        /* \"contracts/Video.sol\":6603:6618  block.timestamp */\n      timestamp\n        /* \"contracts/Video.sol\":6476:6630  Comment({... */\n      dup2\n      mstore\n      pop\n        /* \"contracts/Video.sol\":6439:6452  videoComments */\n      0x04\n        /* \"contracts/Video.sol\":6439:6462  videoComments[_videoId] */\n      0x00\n        /* \"contracts/Video.sol\":6453:6461  _videoId */\n      dup6\n        /* \"contracts/Video.sol\":6439:6462  videoComments[_videoId] */\n      dup2\n      mstore\n      0x20\n      add\n      swap1\n      dup2\n      mstore\n      0x20\n      add\n      0x00\n      keccak256\n        /* \"contracts/Video.sol\":6439:6473  videoComments[_videoId][commentId] */\n      0x00\n        /* \"contracts/Video.sol\":6463:6472  commentId */\n      dup4\n        /* \"contracts/Video.sol\":6439:6473  videoComments[_videoId][commentId] */\n      dup2\n      mstore\n      0x20\n      add\n      swap1\n      dup2\n      mstore\n      0x20\n      add\n      0x00\n      keccak256\n        /* \"contracts/Video.sol\":6439:6630  videoComments[_videoId][commentId] = Comment({... */\n      0x00\n      dup3\n      add\n      mload\n      dup2\n      0x00\n      add\n      sstore\n      0x20\n      dup3\n      add\n      mload\n      dup2\n      0x01\n      add\n      exp(0x0100, 0x00)\n      dup2\n      sload\n      dup2\n      0xffffffffffffffffffffffffffffffffffffffff\n      mul\n      not\n      and\n      swap1\n      dup4\n      0xffffffffffffffffffffffffffffffffffffffff\n      and\n      mul\n      or\n      swap1\n      sstore\n      pop\n      0x40\n      dup3\n      add\n      mload\n      dup2\n      0x02\n      add\n      swap1\n      dup2\n      tag_246\n      swap2\n      swap1\n      tag_247\n      jump\t// in\n    tag_246:\n      pop\n      0x60\n      dup3\n      add\n      mload\n      dup2\n      0x03\n      add\n      sstore\n      swap1\n      pop\n      pop\n        /* \"contracts/Video.sol\":6648:6693  CommentAdded(_videoId, commentId, msg.sender) */\n      0xdb54cde47150062529bc4f2e10c2493c8ae39bc079c9c24f9e365c135098d4bb\n        /* \"contracts/Video.sol\":6661:6669  _videoId */\n      dup4\n        /* \"contracts/Video.sol\":6671:6680  commentId */\n      dup3\n        /* \"contracts/Video.sol\":6682:6692  msg.sender */\n      caller\n        /* \"contracts/Video.sol\":6648:6693  CommentAdded(_videoId, commentId, msg.sender) */\n      mload(0x40)\n      tag_248\n      swap4\n      swap3\n      swap2\n      swap1\n      tag_189\n      jump\t// in\n    tag_248:\n      mload(0x40)\n      dup1\n      swap2\n      sub\n      swap1\n      log1\n        /* \"contracts/Video.sol\":6107:6775  {... */\n      pop\n        /* \"contracts/Video.sol\":6044:6775  function addComment(uint _videoId, string memory _text) public {... */\n      pop\n      pop\n      jump\t// out\n        /* \"contracts/Video.sol\":2260:2282  uint public videoCount */\n    tag_76:\n      sload(0x09)\n      dup2\n      jump\t// out\n        /* \"contracts/Video.sol\":2310:2358  uint public constant platformFeePercentage = 100 */\n    tag_79:\n        /* \"contracts/Video.sol\":2355:2358  100 */\n      0x64\n        /* \"contracts/Video.sol\":2310:2358  uint public constant platformFeePercentage = 100 */\n      dup2\n      jump\t// out\n        /* \"contracts/Video.sol\":1665:1727  mapping(uint => mapping(uint => Comment)) public videoComments */\n    tag_83:\n      mstore(0x20, 0x04)\n      dup2\n      0x00\n      mstore\n      mstore(0x20, keccak256(0x00, 0x40))\n      dup1\n      0x00\n      mstore\n      keccak256(0x00, 0x40)\n      0x00\n      swap2\n      pop\n      swap2\n      pop\n      pop\n      dup1\n      0x00\n      add\n      sload\n      swap1\n      dup1\n      0x01\n      add\n      0x00\n      swap1\n      sload\n      swap1\n      0x0100\n      exp\n      swap1\n      div\n      0xffffffffffffffffffffffffffffffffffffffff\n      and\n      swap1\n      dup1\n      0x02\n      add\n      dup1\n      sload\n      tag_249\n      swap1\n      tag_167\n      jump\t// in\n    tag_249:\n      dup1\n      0x1f\n      add\n      0x20\n      dup1\n      swap2\n      div\n      mul\n      0x20\n      add\n      mload(0x40)\n      swap1\n      dup2\n      add\n      0x40\n      mstore\n      dup1\n      swap3\n      swap2\n      swap1\n      dup2\n      dup2\n      mstore\n      0x20\n      add\n      dup3\n      dup1\n      sload\n      tag_250\n      swap1\n      tag_167\n      jump\t// in\n    tag_250:\n      dup1\n      iszero\n      tag_251\n      jumpi\n      dup1\n      0x1f\n      lt\n      tag_252\n      jumpi\n      0x0100\n      dup1\n      dup4\n      sload\n      div\n      mul\n      dup4\n      mstore\n      swap2\n      0x20\n      add\n      swap2\n      jump(tag_251)\n    tag_252:\n      dup3\n      add\n      swap2\n      swap1\n      0x00\n      mstore\n      keccak256(0x00, 0x20)\n      swap1\n    tag_253:\n      dup2\n      sload\n      dup2\n      mstore\n      swap1\n      0x01\n      add\n      swap1\n      0x20\n      add\n      dup1\n      dup4\n      gt\n      tag_253\n      jumpi\n      dup3\n      swap1\n      sub\n      0x1f\n      and\n      dup3\n      add\n      swap2\n    tag_251:\n      pop\n      pop\n      pop\n      pop\n      pop\n      swap1\n      dup1\n      0x03\n      add\n      sload\n      swap1\n      pop\n      dup5\n      jump\t// out\n        /* \"contracts/Video.sol\":597:627  address public platformAddress */\n    tag_87:\n      0x02\n      0x00\n      swap1\n      sload\n      swap1\n      0x0100\n      exp\n      swap1\n      div\n      0xffffffffffffffffffffffffffffffffffffffff\n      and\n      dup2\n      jump\t// out\n        /* \"contracts/Video.sol\":1559:1595  mapping(uint => Video) public videos */\n    tag_92:\n      mstore(0x20, 0x03)\n      dup1\n      0x00\n      mstore\n      keccak256(0x00, 0x40)\n      0x00\n      swap2\n      pop\n      swap1\n      pop\n      dup1\n      0x00\n      add\n      sload\n      swap1\n      dup1\n      0x01\n      add\n      dup1\n      sload\n      tag_254\n      swap1\n      tag_167\n      jump\t// in\n    tag_254:\n      dup1\n      0x1f\n      add\n      0x20\n      dup1\n      swap2\n      div\n      mul\n      0x20\n      add\n      mload(0x40)\n      swap1\n      dup2\n      add\n      0x40\n      mstore\n      dup1\n      swap3\n      swap2\n      swap1\n      dup2\n      dup2\n      mstore\n      0x20\n      add\n      dup3\n      dup1\n      sload\n      tag_255\n      swap1\n      tag_167\n      jump\t// in\n    tag_255:\n      dup1\n      iszero\n      tag_256\n      jumpi\n      dup1\n      0x1f\n      lt\n      tag_257\n      jumpi\n      0x0100\n      dup1\n      dup4\n      sload\n      div\n      mul\n      dup4\n      mstore\n      swap2\n      0x20\n      add\n      swap2\n      jump(tag_256)\n    tag_257:\n      dup3\n      add\n      swap2\n      swap1\n      0x00\n      mstore\n      keccak256(0x00, 0x20)\n      swap1\n    tag_258:\n      dup2\n      sload\n      dup2\n      mstore\n      swap1\n      0x01\n      add\n      swap1\n      0x20\n      add\n      dup1\n      dup4\n      gt\n      tag_258\n      jumpi\n      dup3\n      swap1\n      sub\n      0x1f\n      and\n      dup3\n      add\n      swap2\n    tag_256:\n      pop\n      pop\n      pop\n      pop\n      pop\n      swap1\n      dup1\n      0x02\n      add\n      dup1\n      sload\n      tag_259\n      swap1\n      tag_167\n      jump\t// in\n    tag_259:\n      dup1\n      0x1f\n      add\n      0x20\n      dup1\n      swap2\n      div\n      mul\n      0x20\n      add\n      mload(0x40)\n      swap1\n      dup2\n      add\n      0x40\n      mstore\n      dup1\n      swap3\n      swap2\n      swap1\n      dup2\n      dup2\n      mstore\n      0x20\n      add\n      dup3\n      dup1\n      sload\n      tag_260\n      swap1\n      tag_167\n      jump\t// in\n    tag_260:\n      dup1\n      iszero\n      tag_261\n      jumpi\n      dup1\n      0x1f\n      lt\n      tag_262\n      jumpi\n      0x0100\n      dup1\n      dup4\n      sload\n      div\n      mul\n      dup4\n      mstore\n      swap2\n      0x20\n      add\n      swap2\n      jump(tag_261)\n    tag_262:\n      dup3\n      add\n      swap2\n      swap1\n      0x00\n      mstore\n      keccak256(0x00, 0x20)\n      swap1\n    tag_263:\n      dup2\n      sload\n      dup2\n      mstore\n      swap1\n      0x01\n      add\n      swap1\n      0x20\n      add\n      dup1\n      dup4\n      gt\n      tag_263\n      jumpi\n      dup3\n      swap1\n      sub\n      0x1f\n      and\n      dup3\n      add\n      swap2\n    tag_261:\n      pop\n      pop\n      pop\n      pop\n      pop\n      swap1\n      dup1\n      0x03\n      add\n      0x00\n      swap1\n      sload\n      swap1\n      0x0100\n      exp\n      swap1\n      div\n      0xffffffffffffffffffffffffffffffffffffffff\n      and\n      swap1\n      dup1\n      0x04\n      add\n      sload\n      swap1\n      dup1\n      0x05\n      add\n      dup1\n      sload\n      tag_264\n      swap1\n      tag_167\n      jump\t// in\n    tag_264:\n      dup1\n      0x1f\n      add\n      0x20\n      dup1\n      swap2\n      div\n      mul\n      0x20\n      add\n      mload(0x40)\n      swap1\n      dup2\n      add\n      0x40\n      mstore\n      dup1\n      swap3\n      swap2\n      swap1\n      dup2\n      dup2\n      mstore\n      0x20\n      add\n      dup3\n      dup1\n      sload\n      tag_265\n      swap1\n      tag_167\n      jump\t// in\n    tag_265:\n      dup1\n      iszero\n      tag_266\n      jumpi\n      dup1\n      0x1f\n      lt\n      tag_267\n      jumpi\n      0x0100\n      dup1\n      dup4\n      sload\n      div\n      mul\n      dup4\n      mstore\n      swap2\n      0x20\n      add\n      swap2\n      jump(tag_266)\n    tag_267:\n      dup3\n      add\n      swap2\n      swap1\n      0x00\n      mstore\n      keccak256(0x00, 0x20)\n      swap1\n    tag_268:\n      dup2\n      sload\n      dup2\n      mstore\n      swap1\n      0x01\n      add\n      swap1\n      0x20\n      add\n      dup1\n      dup4\n      gt\n      tag_268\n      jumpi\n      dup3\n      swap1\n      sub\n      0x1f\n      and\n      dup3\n      add\n      swap2\n    tag_266:\n      pop\n      pop\n      pop\n      pop\n      pop\n      swap1\n      dup1\n      0x06\n      add\n      dup1\n      sload\n      tag_269\n      swap1\n      tag_167\n      jump\t// in\n    tag_269:\n      dup1\n      0x1f\n      add\n      0x20\n      dup1\n      swap2\n      div\n      mul\n      0x20\n      add\n      mload(0x40)\n      swap1\n      dup2\n      add\n      0x40\n      mstore\n      dup1\n      swap3\n      swap2\n      swap1\n      dup2\n      dup2\n      mstore\n      0x20\n      add\n      dup3\n      dup1\n      sload\n      tag_270\n      swap1\n      tag_167\n      jump\t// in\n    tag_270:\n      dup1\n      iszero\n      tag_271\n      jumpi\n      dup1\n      0x1f\n      lt\n      tag_272\n      jumpi\n      0x0100\n      dup1\n      dup4\n      sload\n      div\n      mul\n      dup4\n      mstore\n      swap2\n      0x20\n      add\n      swap2\n      jump(tag_271)\n    tag_272:\n      dup3\n      add\n      swap2\n      swap1\n      0x00\n      mstore\n      keccak256(0x00, 0x20)\n      swap1\n    tag_273:\n      dup2\n      sload\n      dup2\n      mstore\n      swap1\n      0x01\n      add\n      swap1\n      0x20\n      add\n      dup1\n      dup4\n      gt\n      tag_273\n      jumpi\n      dup3\n      swap1\n      sub\n      0x1f\n      and\n      dup3\n      add\n      swap2\n    tag_271:\n      pop\n      pop\n      pop\n      pop\n      pop\n      swap1\n      dup1\n      0x07\n      add\n      sload\n      swap1\n      dup1\n      0x09\n      add\n      sload\n      swap1\n      dup1\n      0x0a\n      add\n      sload\n      swap1\n      pop\n      dup11\n      jump\t// out\n        /* \"contracts/Video.sol\":11166:11687  function editComment(uint _videoId, uint _commentId, string memory _newContent) public {... */\n    tag_98:\n        /* \"contracts/Video.sol\":11321:11331  msg.sender */\n      caller\n        /* \"contracts/Video.sol\":11272:11331  videoComments[_videoId][_commentId].commenter == msg.sender */\n      0xffffffffffffffffffffffffffffffffffffffff\n      and\n        /* \"contracts/Video.sol\":11272:11285  videoComments */\n      0x04\n        /* \"contracts/Video.sol\":11272:11295  videoComments[_videoId] */\n      0x00\n        /* \"contracts/Video.sol\":11286:11294  _videoId */\n      dup6\n        /* \"contracts/Video.sol\":11272:11295  videoComments[_videoId] */\n      dup2\n      mstore\n      0x20\n      add\n      swap1\n      dup2\n      mstore\n      0x20\n      add\n      0x00\n      keccak256\n        /* \"contracts/Video.sol\":11272:11307  videoComments[_videoId][_commentId] */\n      0x00\n        /* \"contracts/Video.sol\":11296:11306  _commentId */\n      dup5\n        /* \"contracts/Video.sol\":11272:11307  videoComments[_videoId][_commentId] */\n      dup2\n      mstore\n      0x20\n      add\n      swap1\n      dup2\n      mstore\n      0x20\n      add\n      0x00\n      keccak256\n        /* \"contracts/Video.sol\":11272:11317  videoComments[_videoId][_commentId].commenter */\n      0x01\n      add\n      0x00\n      swap1\n      sload\n      swap1\n      0x0100\n      exp\n      swap1\n      div\n      0xffffffffffffffffffffffffffffffffffffffff\n      and\n        /* \"contracts/Video.sol\":11272:11331  videoComments[_videoId][_commentId].commenter == msg.sender */\n      0xffffffffffffffffffffffffffffffffffffffff\n      and\n      eq\n        /* \"contracts/Video.sol\":11264:11375  require(videoComments[_videoId][_commentId].commenter == msg.sender, \"You are not the author of this comment!\") */\n      tag_275\n      jumpi\n      mload(0x40)\n      0x08c379a000000000000000000000000000000000000000000000000000000000\n      dup2\n      mstore\n      0x04\n      add\n      tag_276\n      swap1\n      tag_184\n      jump\t// in\n    tag_276:\n      mload(0x40)\n      dup1\n      swap2\n      sub\n      swap1\n      revert\n    tag_275:\n        /* \"contracts/Video.sol\":11489:11500  _newContent */\n      dup1\n        /* \"contracts/Video.sol\":11443:11456  videoComments */\n      0x04\n        /* \"contracts/Video.sol\":11443:11466  videoComments[_videoId] */\n      0x00\n        /* \"contracts/Video.sol\":11457:11465  _videoId */\n      dup6\n        /* \"contracts/Video.sol\":11443:11466  videoComments[_videoId] */\n      dup2\n      mstore\n      0x20\n      add\n      swap1\n      dup2\n      mstore\n      0x20\n      add\n      0x00\n      keccak256\n        /* \"contracts/Video.sol\":11443:11478  videoComments[_videoId][_commentId] */\n      0x00\n        /* \"contracts/Video.sol\":11467:11477  _commentId */\n      dup5\n        /* \"contracts/Video.sol\":11443:11478  videoComments[_videoId][_commentId] */\n      dup2\n      mstore\n      0x20\n      add\n      swap1\n      dup2\n      mstore\n      0x20\n      add\n      0x00\n      keccak256\n        /* \"contracts/Video.sol\":11443:11486  videoComments[_videoId][_commentId].content */\n      0x02\n      add\n        /* \"contracts/Video.sol\":11443:11500  videoComments[_videoId][_commentId].content = _newContent */\n      swap1\n      dup2\n      tag_277\n      swap2\n      swap1\n      tag_247\n      jump\t// in\n    tag_277:\n      pop\n        /* \"contracts/Video.sol\":11557:11604  CommentEdited(_videoId, _commentId, msg.sender) */\n      0x8658b2b2c8cee37393cd41aa4afeae2f01e93df91e03364820e71e4efae12627\n        /* \"contracts/Video.sol\":11571:11579  _videoId */\n      dup4\n        /* \"contracts/Video.sol\":11581:11591  _commentId */\n      dup4\n        /* \"contracts/Video.sol\":11593:11603  msg.sender */\n      caller\n        /* \"contracts/Video.sol\":11557:11604  CommentEdited(_videoId, _commentId, msg.sender) */\n      mload(0x40)\n      tag_278\n      swap4\n      swap3\n      swap2\n      swap1\n      tag_189\n      jump\t// in\n    tag_278:\n      mload(0x40)\n      dup1\n      swap2\n      sub\n      swap1\n      log1\n        /* \"contracts/Video.sol\":11166:11687  function editComment(uint _videoId, uint _commentId, string memory _newContent) public {... */\n      pop\n      pop\n      pop\n      jump\t// out\n        /* \"contracts/Video.sol\":504:523  IERC20 public token */\n    tag_100:\n      0x01\n      0x00\n      swap1\n      sload\n      swap1\n      0x0100\n      exp\n      swap1\n      div\n      0xffffffffffffffffffffffffffffffffffffffff\n      and\n      dup2\n      jump\t// out\n        /* \"contracts/Video.sol\":3742:5398  function uploadVideo(... */\n    tag_106:\n        /* \"contracts/Video.sol\":4175:4187  bool success */\n      0x00\n        /* \"contracts/Video.sol\":4189:4214  bytes memory responseData */\n      dup1\n        /* \"contracts/Video.sol\":291:295  0x17 */\n      0x17\n        /* \"contracts/Video.sol\":4218:4246  WeaveVmUploadPrecompile.call */\n      0xffffffffffffffffffffffffffffffffffffffff\n      and\n        /* \"contracts/Video.sol\":4305:4315  _videoData */\n      dup8\n        /* \"contracts/Video.sol\":4261:4316  abi.encodeWithSignature(\"storeData(bytes)\", _videoData) */\n      add(0x24, mload(0x40))\n      tag_280\n      swap2\n      swap1\n      tag_281\n      jump\t// in\n    tag_280:\n      mload(0x40)\n      0x20\n      dup2\n      dup4\n      sub\n      sub\n      dup2\n      mstore\n      swap1\n      0x40\n      mstore\n      and(not(0xffffffffffffffffffffffffffffffffffffffffffffffffffffffff), 0xac5c853500000000000000000000000000000000000000000000000000000000)\n      0x20\n      dup3\n      add\n      dup1\n      mload\n      0xffffffffffffffffffffffffffffffffffffffffffffffffffffffff\n      dup4\n      dup2\n      dup4\n      and\n      or\n      dup4\n      mstore\n      pop\n      pop\n      pop\n      pop\n        /* \"contracts/Video.sol\":4218:4327  WeaveVmUploadPrecompile.call(... */\n      mload(0x40)\n      tag_282\n      swap2\n      swap1\n      tag_174\n      jump\t// in\n    tag_282:\n      0x00\n      mload(0x40)\n      dup1\n      dup4\n      sub\n      dup2\n      0x00\n      dup7\n      gas\n      call\n      swap2\n      pop\n      pop\n      returndatasize\n      dup1\n      0x00\n      dup2\n      eq\n      tag_285\n      jumpi\n      mload(0x40)\n      swap2\n      pop\n      and(add(returndatasize, 0x3f), not(0x1f))\n      dup3\n      add\n      0x40\n      mstore\n      returndatasize\n      dup3\n      mstore\n      returndatasize\n      0x00\n      0x20\n      dup5\n      add\n      returndatacopy\n      jump(tag_284)\n    tag_285:\n      0x60\n      swap2\n      pop\n    tag_284:\n      pop\n        /* \"contracts/Video.sol\":4174:4327  (bool success, bytes memory responseData) = WeaveVmUploadPrecompile.call(... */\n      swap2\n      pop\n      swap2\n      pop\n        /* \"contracts/Video.sol\":4402:4409  success */\n      dup2\n        /* \"contracts/Video.sol\":4394:4435  require(success, \"Arweave Upload Failed\") */\n      tag_286\n      jumpi\n      mload(0x40)\n      0x08c379a000000000000000000000000000000000000000000000000000000000\n      dup2\n      mstore\n      0x04\n      add\n      tag_287\n      swap1\n      tag_288\n      jump\t// in\n    tag_287:\n      mload(0x40)\n      dup1\n      swap2\n      sub\n      swap1\n      revert\n    tag_286:\n        /* \"contracts/Video.sol\":4487:4512  string memory arweaveTxId */\n      0x00\n        /* \"contracts/Video.sol\":4526:4538  responseData */\n      dup2\n        /* \"contracts/Video.sol\":4515:4549  abi.decode(responseData, (string)) */\n      dup1\n      0x20\n      add\n      swap1\n      mload\n      dup2\n      add\n      swap1\n      tag_289\n      swap2\n      swap1\n      tag_290\n      jump\t// in\n    tag_289:\n        /* \"contracts/Video.sol\":4487:4549  string memory arweaveTxId = abi.decode(responseData, (string)) */\n      swap1\n      pop\n        /* \"contracts/Video.sol\":4603:4613  videoCount */\n      0x09\n      0x00\n        /* \"contracts/Video.sol\":4603:4615  videoCount++ */\n      dup2\n      sload\n      dup1\n      swap3\n      swap2\n      swap1\n      tag_291\n      swap1\n      tag_160\n      jump\t// in\n    tag_291:\n      swap2\n      swap1\n      pop\n      sstore\n      pop\n        /* \"contracts/Video.sol\":4674:5086  Video({... */\n      mload(0x40)\n      dup1\n      0x0160\n      add\n      0x40\n      mstore\n      dup1\n        /* \"contracts/Video.sol\":4699:4709  videoCount */\n      sload(0x09)\n        /* \"contracts/Video.sol\":4674:5086  Video({... */\n      dup2\n      mstore\n      0x20\n      add\n        /* \"contracts/Video.sol\":4731:4737  _title */\n      dup12\n        /* \"contracts/Video.sol\":4674:5086  Video({... */\n      dup2\n      mstore\n      0x20\n      add\n        /* \"contracts/Video.sol\":4765:4777  _description */\n      dup11\n        /* \"contracts/Video.sol\":4674:5086  Video({... */\n      dup2\n      mstore\n      0x20\n      add\n        /* \"contracts/Video.sol\":4802:4812  msg.sender */\n      caller\n        /* \"contracts/Video.sol\":4674:5086  Video({... */\n      0xffffffffffffffffffffffffffffffffffffffff\n      and\n      dup2\n      mstore\n      0x20\n      add\n        /* \"contracts/Video.sol\":4839:4854  block.timestamp */\n      timestamp\n        /* \"contracts/Video.sol\":4674:5086  Video({... */\n      dup2\n      mstore\n      0x20\n      add\n        /* \"contracts/Video.sol\":4882:4893  arweaveTxId */\n      dup3\n        /* \"contracts/Video.sol\":4674:5086  Video({... */\n      dup2\n      mstore\n      0x20\n      add\n        /* \"contracts/Video.sol\":5024:5037  _thumbnailUrl */\n      dup8\n        /* \"contracts/Video.sol\":4674:5086  Video({... */\n      dup2\n      mstore\n      0x20\n      add\n        /* \"contracts/Video.sol\":5062:5074  _videoLength */\n      dup7\n        /* \"contracts/Video.sol\":4674:5086  Video({... */\n      dup2\n      mstore\n      0x20\n      add\n        /* \"contracts/Video.sol\":4982:4995  _categoryList */\n      dup9\n        /* \"contracts/Video.sol\":4674:5086  Video({... */\n      dup2\n      mstore\n      0x20\n      add\n        /* \"contracts/Video.sol\":4920:4921  0 */\n      0x00\n        /* \"contracts/Video.sol\":4674:5086  Video({... */\n      dup2\n      mstore\n      0x20\n      add\n        /* \"contracts/Video.sol\":4951:4952  0 */\n      0x00\n        /* \"contracts/Video.sol\":4674:5086  Video({... */\n      dup2\n      mstore\n      pop\n        /* \"contracts/Video.sol\":4653:4659  videos */\n      0x03\n        /* \"contracts/Video.sol\":4653:4671  videos[videoCount] */\n      0x00\n        /* \"contracts/Video.sol\":4660:4670  videoCount */\n      sload(0x09)\n        /* \"contracts/Video.sol\":4653:4671  videos[videoCount] */\n      dup2\n      mstore\n      0x20\n      add\n      swap1\n      dup2\n      mstore\n      0x20\n      add\n      0x00\n      keccak256\n        /* \"contracts/Video.sol\":4653:5086  videos[videoCount] = Video({... */\n      0x00\n      dup3\n      add\n      mload\n      dup2\n      0x00\n      add\n      sstore\n      0x20\n      dup3\n      add\n      mload\n      dup2\n      0x01\n      add\n      swap1\n      dup2\n      tag_292\n      swap2\n      swap1\n      tag_247\n      jump\t// in\n    tag_292:\n      pop\n      0x40\n      dup3\n      add\n      mload\n      dup2\n      0x02\n      add\n      swap1\n      dup2\n      tag_293\n      swap2\n      swap1\n      tag_247\n      jump\t// in\n    tag_293:\n      pop\n      0x60\n      dup3\n      add\n      mload\n      dup2\n      0x03\n      add\n      exp(0x0100, 0x00)\n      dup2\n      sload\n      dup2\n      0xffffffffffffffffffffffffffffffffffffffff\n      mul\n      not\n      and\n      swap1\n      dup4\n      0xffffffffffffffffffffffffffffffffffffffff\n      and\n      mul\n      or\n      swap1\n      sstore\n      pop\n      0x80\n      dup3\n      add\n      mload\n      dup2\n      0x04\n      add\n      sstore\n      0xa0\n      dup3\n      add\n      mload\n      dup2\n      0x05\n      add\n      swap1\n      dup2\n      tag_294\n      swap2\n      swap1\n      tag_247\n      jump\t// in\n    tag_294:\n      pop\n      0xc0\n      dup3\n      add\n      mload\n      dup2\n      0x06\n      add\n      swap1\n      dup2\n      tag_295\n      swap2\n      swap1\n      tag_247\n      jump\t// in\n    tag_295:\n      pop\n      0xe0\n      dup3\n      add\n      mload\n      dup2\n      0x07\n      add\n      sstore\n      0x0100\n      dup3\n      add\n      mload\n      dup2\n      0x08\n      add\n      swap1\n      dup1\n      mload\n      swap1\n      0x20\n      add\n      swap1\n      tag_296\n      swap3\n      swap2\n      swap1\n      tag_297\n      jump\t// in\n    tag_296:\n      pop\n      0x0120\n      dup3\n      add\n      mload\n      dup2\n      0x09\n      add\n      sstore\n      0x0140\n      dup3\n      add\n      mload\n      dup2\n      0x0a\n      add\n      sstore\n      swap1\n      pop\n      pop\n        /* \"contracts/Video.sol\":5129:5139  _accessFee */\n      dup4\n        /* \"contracts/Video.sol\":5098:5114  channelAccessFee */\n      0x08\n        /* \"contracts/Video.sol\":5098:5126  channelAccessFee[msg.sender] */\n      0x00\n        /* \"contracts/Video.sol\":5115:5125  msg.sender */\n      caller\n        /* \"contracts/Video.sol\":5098:5126  channelAccessFee[msg.sender] */\n      0xffffffffffffffffffffffffffffffffffffffff\n      and\n      0xffffffffffffffffffffffffffffffffffffffff\n      and\n      dup2\n      mstore\n      0x20\n      add\n      swap1\n      dup2\n      mstore\n      0x20\n      add\n      0x00\n      keccak256\n        /* \"contracts/Video.sol\":5098:5139  channelAccessFee[msg.sender] = _accessFee */\n      dup2\n      swap1\n      sstore\n      pop\n        /* \"contracts/Video.sol\":5199:5317  VideoUploaded(videoCount, _title, _description, msg.sender, block.timestamp, arweaveTxId, _thumbnailUrl, _videoLength) */\n      0xb09585dcfa67e6ae8b1880d8be4dedd6b176990f3317afb12d0432b72ffc32da\n        /* \"contracts/Video.sol\":5213:5223  videoCount */\n      sload(0x09)\n        /* \"contracts/Video.sol\":5225:5231  _title */\n      dup12\n        /* \"contracts/Video.sol\":5233:5245  _description */\n      dup12\n        /* \"contracts/Video.sol\":5247:5257  msg.sender */\n      caller\n        /* \"contracts/Video.sol\":5259:5274  block.timestamp */\n      timestamp\n        /* \"contracts/Video.sol\":5276:5287  arweaveTxId */\n      dup7\n        /* \"contracts/Video.sol\":5289:5302  _thumbnailUrl */\n      dup13\n        /* \"contracts/Video.sol\":5304:5316  _videoLength */\n      dup13\n        /* \"contracts/Video.sol\":5199:5317  VideoUploaded(videoCount, _title, _description, msg.sender, block.timestamp, arweaveTxId, _thumbnailUrl, _videoLength) */\n      mload(0x40)\n      tag_298\n      swap9\n      swap8\n      swap7\n      swap6\n      swap5\n      swap4\n      swap3\n      swap2\n      swap1\n      tag_299\n      jump\t// in\n    tag_298:\n      mload(0x40)\n      dup1\n      swap2\n      sub\n      swap1\n      log1\n        /* \"contracts/Video.sol\":4163:5398  {... */\n      pop\n      pop\n      pop\n        /* \"contracts/Video.sol\":3742:5398  function uploadVideo(... */\n      pop\n      pop\n      pop\n      pop\n      pop\n      pop\n      pop\n      jump\t// out\n        /* \"@openzeppelin/contracts/security/ReentrancyGuard.sol\":2336:2623  function _nonReentrantBefore() private {... */\n    tag_118:\n        /* \"@openzeppelin/contracts/security/ReentrancyGuard.sol\":1759:1760  2 */\n      0x02\n        /* \"@openzeppelin/contracts/security/ReentrancyGuard.sol\":2468:2475  _status */\n      sload(0x00)\n        /* \"@openzeppelin/contracts/security/ReentrancyGuard.sol\":2468:2487  _status != _ENTERED */\n      sub\n        /* \"@openzeppelin/contracts/security/ReentrancyGuard.sol\":2460:2523  require(_status != _ENTERED, \"ReentrancyGuard: reentrant call\") */\n      tag_301\n      jumpi\n      mload(0x40)\n      0x08c379a000000000000000000000000000000000000000000000000000000000\n      dup2\n      mstore\n      0x04\n      add\n      tag_302\n      swap1\n      tag_303\n      jump\t// in\n    tag_302:\n      mload(0x40)\n      dup1\n      swap2\n      sub\n      swap1\n      revert\n    tag_301:\n        /* \"@openzeppelin/contracts/security/ReentrancyGuard.sol\":1759:1760  2 */\n      0x02\n        /* \"@openzeppelin/contracts/security/ReentrancyGuard.sol\":2598:2605  _status */\n      0x00\n        /* \"@openzeppelin/contracts/security/ReentrancyGuard.sol\":2598:2616  _status = _ENTERED */\n      dup2\n      swap1\n      sstore\n      pop\n        /* \"@openzeppelin/contracts/security/ReentrancyGuard.sol\":2336:2623  function _nonReentrantBefore() private {... */\n      jump\t// out\n        /* \"@openzeppelin/contracts/security/ReentrancyGuard.sol\":2629:2838  function _nonReentrantAfter() private {... */\n    tag_150:\n        /* \"@openzeppelin/contracts/security/ReentrancyGuard.sol\":1716:1717  1 */\n      0x01\n        /* \"@openzeppelin/contracts/security/ReentrancyGuard.sol\":2809:2816  _status */\n      0x00\n        /* \"@openzeppelin/contracts/security/ReentrancyGuard.sol\":2809:2831  _status = _NOT_ENTERED */\n      dup2\n      swap1\n      sstore\n      pop\n        /* \"@openzeppelin/contracts/security/ReentrancyGuard.sol\":2629:2838  function _nonReentrantAfter() private {... */\n      jump\t// out\n    tag_186:\n      pop\n      dup1\n      sload\n      tag_305\n      swap1\n      tag_167\n      jump\t// in\n    tag_305:\n      0x00\n      dup3\n      sstore\n      dup1\n      0x1f\n      lt\n      tag_307\n      jumpi\n      pop\n      jump(tag_306)\n    tag_307:\n      0x1f\n      add\n      0x20\n      swap1\n      div\n      swap1\n      0x00\n      mstore\n      keccak256(0x00, 0x20)\n      swap1\n      dup2\n      add\n      swap1\n      tag_308\n      swap2\n      swap1\n      tag_309\n      jump\t// in\n    tag_308:\n    tag_306:\n      pop\n      jump\t// out\n    tag_297:\n      dup3\n      dup1\n      sload\n      dup3\n      dup3\n      sstore\n      swap1\n      0x00\n      mstore\n      keccak256(0x00, 0x20)\n      swap1\n      dup2\n      add\n      swap3\n      dup3\n      iszero\n      tag_310\n      jumpi\n      swap2\n      0x20\n      mul\n      dup3\n      add\n    tag_311:\n      dup3\n      dup2\n      gt\n      iszero\n      tag_312\n      jumpi\n      dup3\n      mload\n      dup3\n      swap1\n      dup2\n      tag_313\n      swap2\n      swap1\n      tag_247\n      jump\t// in\n    tag_313:\n      pop\n      swap2\n      0x20\n      add\n      swap2\n      swap1\n      0x01\n      add\n      swap1\n      jump(tag_311)\n    tag_312:\n    tag_310:\n      pop\n      swap1\n      pop\n      tag_314\n      swap2\n      swap1\n      tag_315\n      jump\t// in\n    tag_314:\n      pop\n      swap1\n      jump\t// out\n    tag_309:\n    tag_316:\n      dup1\n      dup3\n      gt\n      iszero\n      tag_317\n      jumpi\n      0x00\n      dup2\n      0x00\n      swap1\n      sstore\n      pop\n      0x01\n      add\n      jump(tag_316)\n    tag_317:\n      pop\n      swap1\n      jump\t// out\n    tag_315:\n    tag_318:\n      dup1\n      dup3\n      gt\n      iszero\n      tag_319\n      jumpi\n      0x00\n      dup2\n      dup2\n      tag_320\n      swap2\n      swap1\n      tag_186\n      jump\t// in\n    tag_320:\n      pop\n      0x01\n      add\n      jump(tag_318)\n    tag_319:\n      pop\n      swap1\n      jump\t// out\n        /* \"#utility.yul\":7:82   */\n    tag_321:\n        /* \"#utility.yul\":40:46   */\n      0x00\n        /* \"#utility.yul\":73:75   */\n      0x40\n        /* \"#utility.yul\":67:76   */\n      mload\n        /* \"#utility.yul\":57:76   */\n      swap1\n      pop\n        /* \"#utility.yul\":7:82   */\n      swap1\n      jump\t// out\n        /* \"#utility.yul\":88:205   */\n    tag_322:\n        /* \"#utility.yul\":197:198   */\n      0x00\n        /* \"#utility.yul\":194:195   */\n      dup1\n        /* \"#utility.yul\":187:199   */\n      revert\n        /* \"#utility.yul\":211:328   */\n    tag_323:\n        /* \"#utility.yul\":320:321   */\n      0x00\n        /* \"#utility.yul\":317:318   */\n      dup1\n        /* \"#utility.yul\":310:322   */\n      revert\n        /* \"#utility.yul\":334:411   */\n    tag_324:\n        /* \"#utility.yul\":371:378   */\n      0x00\n        /* \"#utility.yul\":400:405   */\n      dup2\n        /* \"#utility.yul\":389:405   */\n      swap1\n      pop\n        /* \"#utility.yul\":334:411   */\n      swap2\n      swap1\n      pop\n      jump\t// out\n        /* \"#utility.yul\":417:539   */\n    tag_325:\n        /* \"#utility.yul\":490:514   */\n      tag_425\n        /* \"#utility.yul\":508:513   */\n      dup2\n        /* \"#utility.yul\":490:514   */\n      tag_324\n      jump\t// in\n    tag_425:\n        /* \"#utility.yul\":483:488   */\n      dup2\n        /* \"#utility.yul\":480:515   */\n      eq\n        /* \"#utility.yul\":470:533   */\n      tag_426\n      jumpi\n        /* \"#utility.yul\":529:530   */\n      0x00\n        /* \"#utility.yul\":526:527   */\n      dup1\n        /* \"#utility.yul\":519:531   */\n      revert\n        /* \"#utility.yul\":470:533   */\n    tag_426:\n        /* \"#utility.yul\":417:539   */\n      pop\n      jump\t// out\n        /* \"#utility.yul\":545:684   */\n    tag_326:\n        /* \"#utility.yul\":591:596   */\n      0x00\n        /* \"#utility.yul\":629:635   */\n      dup2\n        /* \"#utility.yul\":616:636   */\n      calldataload\n        /* \"#utility.yul\":607:636   */\n      swap1\n      pop\n        /* \"#utility.yul\":645:678   */\n      tag_428\n        /* \"#utility.yul\":672:677   */\n      dup2\n        /* \"#utility.yul\":645:678   */\n      tag_325\n      jump\t// in\n    tag_428:\n        /* \"#utility.yul\":545:684   */\n      swap3\n      swap2\n      pop\n      pop\n      jump\t// out\n        /* \"#utility.yul\":690:1019   */\n    tag_28:\n        /* \"#utility.yul\":749:755   */\n      0x00\n        /* \"#utility.yul\":798:800   */\n      0x20\n        /* \"#utility.yul\":786:795   */\n      dup3\n        /* \"#utility.yul\":777:784   */\n      dup5\n        /* \"#utility.yul\":773:796   */\n      sub\n        /* \"#utility.yul\":769:801   */\n      slt\n        /* \"#utility.yul\":766:885   */\n      iszero\n      tag_430\n      jumpi\n        /* \"#utility.yul\":804:883   */\n      tag_431\n      tag_322\n      jump\t// in\n    tag_431:\n        /* \"#utility.yul\":766:885   */\n    tag_430:\n        /* \"#utility.yul\":924:925   */\n      0x00\n        /* \"#utility.yul\":949:1002   */\n      tag_432\n        /* \"#utility.yul\":994:1001   */\n      dup5\n        /* \"#utility.yul\":985:991   */\n      dup3\n        /* \"#utility.yul\":974:983   */\n      dup6\n        /* \"#utility.yul\":970:992   */\n      add\n        /* \"#utility.yul\":949:1002   */\n      tag_326\n      jump\t// in\n    tag_432:\n        /* \"#utility.yul\":939:1002   */\n      swap2\n      pop\n        /* \"#utility.yul\":895:1012   */\n      pop\n        /* \"#utility.yul\":690:1019   */\n      swap3\n      swap2\n      pop\n      pop\n      jump\t// out\n        /* \"#utility.yul\":1025:1499   */\n    tag_32:\n        /* \"#utility.yul\":1093:1099   */\n      0x00\n        /* \"#utility.yul\":1101:1107   */\n      dup1\n        /* \"#utility.yul\":1150:1152   */\n      0x40\n        /* \"#utility.yul\":1138:1147   */\n      dup4\n        /* \"#utility.yul\":1129:1136   */\n      dup6\n        /* \"#utility.yul\":1125:1148   */\n      sub\n        /* \"#utility.yul\":1121:1153   */\n      slt\n        /* \"#utility.yul\":1118:1237   */\n      iszero\n      tag_434\n      jumpi\n        /* \"#utility.yul\":1156:1235   */\n      tag_435\n      tag_322\n      jump\t// in\n    tag_435:\n        /* \"#utility.yul\":1118:1237   */\n    tag_434:\n        /* \"#utility.yul\":1276:1277   */\n      0x00\n        /* \"#utility.yul\":1301:1354   */\n      tag_436\n        /* \"#utility.yul\":1346:1353   */\n      dup6\n        /* \"#utility.yul\":1337:1343   */\n      dup3\n        /* \"#utility.yul\":1326:1335   */\n      dup7\n        /* \"#utility.yul\":1322:1344   */\n      add\n        /* \"#utility.yul\":1301:1354   */\n      tag_326\n      jump\t// in\n    tag_436:\n        /* \"#utility.yul\":1291:1354   */\n      swap3\n      pop\n        /* \"#utility.yul\":1247:1364   */\n      pop\n        /* \"#utility.yul\":1403:1405   */\n      0x20\n        /* \"#utility.yul\":1429:1482   */\n      tag_437\n        /* \"#utility.yul\":1474:1481   */\n      dup6\n        /* \"#utility.yul\":1465:1471   */\n      dup3\n        /* \"#utility.yul\":1454:1463   */\n      dup7\n        /* \"#utility.yul\":1450:1472   */\n      add\n        /* \"#utility.yul\":1429:1482   */\n      tag_326\n      jump\t// in\n    tag_437:\n        /* \"#utility.yul\":1419:1482   */\n      swap2\n      pop\n        /* \"#utility.yul\":1374:1492   */\n      pop\n        /* \"#utility.yul\":1025:1499   */\n      swap3\n      pop\n      swap3\n      swap1\n      pop\n      jump\t// out\n        /* \"#utility.yul\":1505:1631   */\n    tag_327:\n        /* \"#utility.yul\":1542:1549   */\n      0x00\n        /* \"#utility.yul\":1582:1624   */\n      0xffffffffffffffffffffffffffffffffffffffff\n        /* \"#utility.yul\":1575:1580   */\n      dup3\n        /* \"#utility.yul\":1571:1625   */\n      and\n        /* \"#utility.yul\":1560:1625   */\n      swap1\n      pop\n        /* \"#utility.yul\":1505:1631   */\n      swap2\n      swap1\n      pop\n      jump\t// out\n        /* \"#utility.yul\":1637:1733   */\n    tag_328:\n        /* \"#utility.yul\":1674:1681   */\n      0x00\n        /* \"#utility.yul\":1703:1727   */\n      tag_440\n        /* \"#utility.yul\":1721:1726   */\n      dup3\n        /* \"#utility.yul\":1703:1727   */\n      tag_327\n      jump\t// in\n    tag_440:\n        /* \"#utility.yul\":1692:1727   */\n      swap1\n      pop\n        /* \"#utility.yul\":1637:1733   */\n      swap2\n      swap1\n      pop\n      jump\t// out\n        /* \"#utility.yul\":1739:1861   */\n    tag_329:\n        /* \"#utility.yul\":1812:1836   */\n      tag_442\n        /* \"#utility.yul\":1830:1835   */\n      dup2\n        /* \"#utility.yul\":1812:1836   */\n      tag_328\n      jump\t// in\n    tag_442:\n        /* \"#utility.yul\":1805:1810   */\n      dup2\n        /* \"#utility.yul\":1802:1837   */\n      eq\n        /* \"#utility.yul\":1792:1855   */\n      tag_443\n      jumpi\n        /* \"#utility.yul\":1851:1852   */\n      0x00\n        /* \"#utility.yul\":1848:1849   */\n      dup1\n        /* \"#utility.yul\":1841:1853   */\n      revert\n        /* \"#utility.yul\":1792:1855   */\n    tag_443:\n        /* \"#utility.yul\":1739:1861   */\n      pop\n      jump\t// out\n        /* \"#utility.yul\":1867:2006   */\n    tag_330:\n        /* \"#utility.yul\":1913:1918   */\n      0x00\n        /* \"#utility.yul\":1951:1957   */\n      dup2\n        /* \"#utility.yul\":1938:1958   */\n      calldataload\n        /* \"#utility.yul\":1929:1958   */\n      swap1\n      pop\n        /* \"#utility.yul\":1967:2000   */\n      tag_445\n        /* \"#utility.yul\":1994:1999   */\n      dup2\n        /* \"#utility.yul\":1967:2000   */\n      tag_329\n      jump\t// in\n    tag_445:\n        /* \"#utility.yul\":1867:2006   */\n      swap3\n      swap2\n      pop\n      pop\n      jump\t// out\n        /* \"#utility.yul\":2012:2486   */\n    tag_36:\n        /* \"#utility.yul\":2080:2086   */\n      0x00\n        /* \"#utility.yul\":2088:2094   */\n      dup1\n        /* \"#utility.yul\":2137:2139   */\n      0x40\n        /* \"#utility.yul\":2125:2134   */\n      dup4\n        /* \"#utility.yul\":2116:2123   */\n      dup6\n        /* \"#utility.yul\":2112:2135   */\n      sub\n        /* \"#utility.yul\":2108:2140   */\n      slt\n        /* \"#utility.yul\":2105:2224   */\n      iszero\n      tag_447\n      jumpi\n        /* \"#utility.yul\":2143:2222   */\n      tag_448\n      tag_322\n      jump\t// in\n    tag_448:\n        /* \"#utility.yul\":2105:2224   */\n    tag_447:\n        /* \"#utility.yul\":2263:2264   */\n      0x00\n        /* \"#utility.yul\":2288:2341   */\n      tag_449\n        /* \"#utility.yul\":2333:2340   */\n      dup6\n        /* \"#utility.yul\":2324:2330   */\n      dup3\n        /* \"#utility.yul\":2313:2322   */\n      dup7\n        /* \"#utility.yul\":2309:2331   */\n      add\n        /* \"#utility.yul\":2288:2341   */\n      tag_330\n      jump\t// in\n    tag_449:\n        /* \"#utility.yul\":2278:2341   */\n      swap3\n      pop\n        /* \"#utility.yul\":2234:2351   */\n      pop\n        /* \"#utility.yul\":2390:2392   */\n      0x20\n        /* \"#utility.yul\":2416:2469   */\n      tag_450\n        /* \"#utility.yul\":2461:2468   */\n      dup6\n        /* \"#utility.yul\":2452:2458   */\n      dup3\n        /* \"#utility.yul\":2441:2450   */\n      dup7\n        /* \"#utility.yul\":2437:2459   */\n      add\n        /* \"#utility.yul\":2416:2469   */\n      tag_330\n      jump\t// in\n    tag_450:\n        /* \"#utility.yul\":2406:2469   */\n      swap2\n      pop\n        /* \"#utility.yul\":2361:2479   */\n      pop\n        /* \"#utility.yul\":2012:2486   */\n      swap3\n      pop\n      swap3\n      swap1\n      pop\n      jump\t// out\n        /* \"#utility.yul\":2492:2582   */\n    tag_331:\n        /* \"#utility.yul\":2526:2533   */\n      0x00\n        /* \"#utility.yul\":2569:2574   */\n      dup2\n        /* \"#utility.yul\":2562:2575   */\n      iszero\n        /* \"#utility.yul\":2555:2576   */\n      iszero\n        /* \"#utility.yul\":2544:2576   */\n      swap1\n      pop\n        /* \"#utility.yul\":2492:2582   */\n      swap2\n      swap1\n      pop\n      jump\t// out\n        /* \"#utility.yul\":2588:2697   */\n    tag_332:\n        /* \"#utility.yul\":2669:2690   */\n      tag_453\n        /* \"#utility.yul\":2684:2689   */\n      dup2\n        /* \"#utility.yul\":2669:2690   */\n      tag_331\n      jump\t// in\n    tag_453:\n        /* \"#utility.yul\":2664:2667   */\n      dup3\n        /* \"#utility.yul\":2657:2691   */\n      mstore\n        /* \"#utility.yul\":2588:2697   */\n      pop\n      pop\n      jump\t// out\n        /* \"#utility.yul\":2703:2913   */\n    tag_39:\n        /* \"#utility.yul\":2790:2794   */\n      0x00\n        /* \"#utility.yul\":2828:2830   */\n      0x20\n        /* \"#utility.yul\":2817:2826   */\n      dup3\n        /* \"#utility.yul\":2813:2831   */\n      add\n        /* \"#utility.yul\":2805:2831   */\n      swap1\n      pop\n        /* \"#utility.yul\":2841:2906   */\n      tag_455\n        /* \"#utility.yul\":2903:2904   */\n      0x00\n        /* \"#utility.yul\":2892:2901   */\n      dup4\n        /* \"#utility.yul\":2888:2905   */\n      add\n        /* \"#utility.yul\":2879:2885   */\n      dup5\n        /* \"#utility.yul\":2841:2906   */\n      tag_332\n      jump\t// in\n    tag_455:\n        /* \"#utility.yul\":2703:2913   */\n      swap3\n      swap2\n      pop\n      pop\n      jump\t// out\n        /* \"#utility.yul\":2919:3018   */\n    tag_333:\n        /* \"#utility.yul\":2971:2977   */\n      0x00\n        /* \"#utility.yul\":3005:3010   */\n      dup2\n        /* \"#utility.yul\":2999:3011   */\n      mload\n        /* \"#utility.yul\":2989:3011   */\n      swap1\n      pop\n        /* \"#utility.yul\":2919:3018   */\n      swap2\n      swap1\n      pop\n      jump\t// out\n        /* \"#utility.yul\":3024:3193   */\n    tag_334:\n        /* \"#utility.yul\":3108:3119   */\n      0x00\n        /* \"#utility.yul\":3142:3148   */\n      dup3\n        /* \"#utility.yul\":3137:3140   */\n      dup3\n        /* \"#utility.yul\":3130:3149   */\n      mstore\n        /* \"#utility.yul\":3182:3186   */\n      0x20\n        /* \"#utility.yul\":3177:3180   */\n      dup3\n        /* \"#utility.yul\":3173:3187   */\n      add\n        /* \"#utility.yul\":3158:3187   */\n      swap1\n      pop\n        /* \"#utility.yul\":3024:3193   */\n      swap3\n      swap2\n      pop\n      pop\n      jump\t// out\n        /* \"#utility.yul\":3199:3338   */\n    tag_335:\n        /* \"#utility.yul\":3288:3294   */\n      dup3\n        /* \"#utility.yul\":3283:3286   */\n      dup2\n        /* \"#utility.yul\":3278:3281   */\n      dup4\n        /* \"#utility.yul\":3272:3295   */\n      mcopy\n        /* \"#utility.yul\":3329:3330   */\n      0x00\n        /* \"#utility.yul\":3320:3326   */\n      dup4\n        /* \"#utility.yul\":3315:3318   */\n      dup4\n        /* \"#utility.yul\":3311:3327   */\n      add\n        /* \"#utility.yul\":3304:3331   */\n      mstore\n        /* \"#utility.yul\":3199:3338   */\n      pop\n      pop\n      pop\n      jump\t// out\n        /* \"#utility.yul\":3344:3446   */\n    tag_336:\n        /* \"#utility.yul\":3385:3391   */\n      0x00\n        /* \"#utility.yul\":3436:3438   */\n      0x1f\n        /* \"#utility.yul\":3432:3439   */\n      not\n        /* \"#utility.yul\":3427:3429   */\n      0x1f\n        /* \"#utility.yul\":3420:3425   */\n      dup4\n        /* \"#utility.yul\":3416:3430   */\n      add\n        /* \"#utility.yul\":3412:3440   */\n      and\n        /* \"#utility.yul\":3402:3440   */\n      swap1\n      pop\n        /* \"#utility.yul\":3344:3446   */\n      swap2\n      swap1\n      pop\n      jump\t// out\n        /* \"#utility.yul\":3452:3829   */\n    tag_337:\n        /* \"#utility.yul\":3540:3543   */\n      0x00\n        /* \"#utility.yul\":3568:3607   */\n      tag_461\n        /* \"#utility.yul\":3601:3606   */\n      dup3\n        /* \"#utility.yul\":3568:3607   */\n      tag_333\n      jump\t// in\n    tag_461:\n        /* \"#utility.yul\":3623:3694   */\n      tag_462\n        /* \"#utility.yul\":3687:3693   */\n      dup2\n        /* \"#utility.yul\":3682:3685   */\n      dup6\n        /* \"#utility.yul\":3623:3694   */\n      tag_334\n      jump\t// in\n    tag_462:\n        /* \"#utility.yul\":3616:3694   */\n      swap4\n      pop\n        /* \"#utility.yul\":3703:3768   */\n      tag_463\n        /* \"#utility.yul\":3761:3767   */\n      dup2\n        /* \"#utility.yul\":3756:3759   */\n      dup6\n        /* \"#utility.yul\":3749:3753   */\n      0x20\n        /* \"#utility.yul\":3742:3747   */\n      dup7\n        /* \"#utility.yul\":3738:3754   */\n      add\n        /* \"#utility.yul\":3703:3768   */\n      tag_335\n      jump\t// in\n    tag_463:\n        /* \"#utility.yul\":3793:3822   */\n      tag_464\n        /* \"#utility.yul\":3815:3821   */\n      dup2\n        /* \"#utility.yul\":3793:3822   */\n      tag_336\n      jump\t// in\n    tag_464:\n        /* \"#utility.yul\":3788:3791   */\n      dup5\n        /* \"#utility.yul\":3784:3823   */\n      add\n        /* \"#utility.yul\":3777:3823   */\n      swap2\n      pop\n        /* \"#utility.yul\":3544:3829   */\n      pop\n        /* \"#utility.yul\":3452:3829   */\n      swap3\n      swap2\n      pop\n      pop\n      jump\t// out\n        /* \"#utility.yul\":3835:4148   */\n    tag_47:\n        /* \"#utility.yul\":3948:3952   */\n      0x00\n        /* \"#utility.yul\":3986:3988   */\n      0x20\n        /* \"#utility.yul\":3975:3984   */\n      dup3\n        /* \"#utility.yul\":3971:3989   */\n      add\n        /* \"#utility.yul\":3963:3989   */\n      swap1\n      pop\n        /* \"#utility.yul\":4035:4044   */\n      dup2\n        /* \"#utility.yul\":4029:4033   */\n      dup2\n        /* \"#utility.yul\":4025:4045   */\n      sub\n        /* \"#utility.yul\":4021:4022   */\n      0x00\n        /* \"#utility.yul\":4010:4019   */\n      dup4\n        /* \"#utility.yul\":4006:4023   */\n      add\n        /* \"#utility.yul\":3999:4046   */\n      mstore\n        /* \"#utility.yul\":4063:4141   */\n      tag_466\n        /* \"#utility.yul\":4136:4140   */\n      dup2\n        /* \"#utility.yul\":4127:4133   */\n      dup5\n        /* \"#utility.yul\":4063:4141   */\n      tag_337\n      jump\t// in\n    tag_466:\n        /* \"#utility.yul\":4055:4141   */\n      swap1\n      pop\n        /* \"#utility.yul\":3835:4148   */\n      swap3\n      swap2\n      pop\n      pop\n      jump\t// out\n        /* \"#utility.yul\":4154:4628   */\n    tag_55:\n        /* \"#utility.yul\":4222:4228   */\n      0x00\n        /* \"#utility.yul\":4230:4236   */\n      dup1\n        /* \"#utility.yul\":4279:4281   */\n      0x40\n        /* \"#utility.yul\":4267:4276   */\n      dup4\n        /* \"#utility.yul\":4258:4265   */\n      dup6\n        /* \"#utility.yul\":4254:4277   */\n      sub\n        /* \"#utility.yul\":4250:4282   */\n      slt\n        /* \"#utility.yul\":4247:4366   */\n      iszero\n      tag_468\n      jumpi\n        /* \"#utility.yul\":4285:4364   */\n      tag_469\n      tag_322\n      jump\t// in\n    tag_469:\n        /* \"#utility.yul\":4247:4366   */\n    tag_468:\n        /* \"#utility.yul\":4405:4406   */\n      0x00\n        /* \"#utility.yul\":4430:4483   */\n      tag_470\n        /* \"#utility.yul\":4475:4482   */\n      dup6\n        /* \"#utility.yul\":4466:4472   */\n      dup3\n        /* \"#utility.yul\":4455:4464   */\n      dup7\n        /* \"#utility.yul\":4451:4473   */\n      add\n        /* \"#utility.yul\":4430:4483   */\n      tag_326\n      jump\t// in\n    tag_470:\n        /* \"#utility.yul\":4420:4483   */\n      swap3\n      pop\n        /* \"#utility.yul\":4376:4493   */\n      pop\n        /* \"#utility.yul\":4532:4534   */\n      0x20\n        /* \"#utility.yul\":4558:4611   */\n      tag_471\n        /* \"#utility.yul\":4603:4610   */\n      dup6\n        /* \"#utility.yul\":4594:4600   */\n      dup3\n        /* \"#utility.yul\":4583:4592   */\n      dup7\n        /* \"#utility.yul\":4579:4601   */\n      add\n        /* \"#utility.yul\":4558:4611   */\n      tag_330\n      jump\t// in\n    tag_471:\n        /* \"#utility.yul\":4548:4611   */\n      swap2\n      pop\n        /* \"#utility.yul\":4503:4621   */\n      pop\n        /* \"#utility.yul\":4154:4628   */\n      swap3\n      pop\n      swap3\n      swap1\n      pop\n      jump\t// out\n        /* \"#utility.yul\":4634:4963   */\n    tag_60:\n        /* \"#utility.yul\":4693:4699   */\n      0x00\n        /* \"#utility.yul\":4742:4744   */\n      0x20\n        /* \"#utility.yul\":4730:4739   */\n      dup3\n        /* \"#utility.yul\":4721:4728   */\n      dup5\n        /* \"#utility.yul\":4717:4740   */\n      sub\n        /* \"#utility.yul\":4713:4745   */\n      slt\n        /* \"#utility.yul\":4710:4829   */\n      iszero\n      tag_473\n      jumpi\n        /* \"#utility.yul\":4748:4827   */\n      tag_474\n      tag_322\n      jump\t// in\n    tag_474:\n        /* \"#utility.yul\":4710:4829   */\n    tag_473:\n        /* \"#utility.yul\":4868:4869   */\n      0x00\n        /* \"#utility.yul\":4893:4946   */\n      tag_475\n        /* \"#utility.yul\":4938:4945   */\n      dup5\n        /* \"#utility.yul\":4929:4935   */\n      dup3\n        /* \"#utility.yul\":4918:4927   */\n      dup6\n        /* \"#utility.yul\":4914:4936   */\n      add\n        /* \"#utility.yul\":4893:4946   */\n      tag_330\n      jump\t// in\n    tag_475:\n        /* \"#utility.yul\":4883:4946   */\n      swap2\n      pop\n        /* \"#utility.yul\":4839:4956   */\n      pop\n        /* \"#utility.yul\":4634:4963   */\n      swap3\n      swap2\n      pop\n      pop\n      jump\t// out\n        /* \"#utility.yul\":4969:5087   */\n    tag_338:\n        /* \"#utility.yul\":5056:5080   */\n      tag_477\n        /* \"#utility.yul\":5074:5079   */\n      dup2\n        /* \"#utility.yul\":5056:5080   */\n      tag_324\n      jump\t// in\n    tag_477:\n        /* \"#utility.yul\":5051:5054   */\n      dup3\n        /* \"#utility.yul\":5044:5081   */\n      mstore\n        /* \"#utility.yul\":4969:5087   */\n      pop\n      pop\n      jump\t// out\n        /* \"#utility.yul\":5093:5315   */\n    tag_66:\n        /* \"#utility.yul\":5186:5190   */\n      0x00\n        /* \"#utility.yul\":5224:5226   */\n      0x20\n        /* \"#utility.yul\":5213:5222   */\n      dup3\n        /* \"#utility.yul\":5209:5227   */\n      add\n        /* \"#utility.yul\":5201:5227   */\n      swap1\n      pop\n        /* \"#utility.yul\":5237:5308   */\n      tag_479\n        /* \"#utility.yul\":5305:5306   */\n      0x00\n        /* \"#utility.yul\":5294:5303   */\n      dup4\n        /* \"#utility.yul\":5290:5307   */\n      add\n        /* \"#utility.yul\":5281:5287   */\n      dup5\n        /* \"#utility.yul\":5237:5308   */\n      tag_338\n      jump\t// in\n    tag_479:\n        /* \"#utility.yul\":5093:5315   */\n      swap3\n      swap2\n      pop\n      pop\n      jump\t// out\n        /* \"#utility.yul\":5321:5438   */\n    tag_339:\n        /* \"#utility.yul\":5430:5431   */\n      0x00\n        /* \"#utility.yul\":5427:5428   */\n      dup1\n        /* \"#utility.yul\":5420:5432   */\n      revert\n        /* \"#utility.yul\":5444:5561   */\n    tag_340:\n        /* \"#utility.yul\":5553:5554   */\n      0x00\n        /* \"#utility.yul\":5550:5551   */\n      dup1\n        /* \"#utility.yul\":5543:5555   */\n      revert\n        /* \"#utility.yul\":5567:5747   */\n    tag_341:\n        /* \"#utility.yul\":5615:5692   */\n      0x4e487b7100000000000000000000000000000000000000000000000000000000\n        /* \"#utility.yul\":5612:5613   */\n      0x00\n        /* \"#utility.yul\":5605:5693   */\n      mstore\n        /* \"#utility.yul\":5712:5716   */\n      0x41\n        /* \"#utility.yul\":5709:5710   */\n      0x04\n        /* \"#utility.yul\":5702:5717   */\n      mstore\n        /* \"#utility.yul\":5736:5740   */\n      0x24\n        /* \"#utility.yul\":5733:5734   */\n      0x00\n        /* \"#utility.yul\":5726:5741   */\n      revert\n        /* \"#utility.yul\":5753:6034   */\n    tag_342:\n        /* \"#utility.yul\":5836:5863   */\n      tag_484\n        /* \"#utility.yul\":5858:5862   */\n      dup3\n        /* \"#utility.yul\":5836:5863   */\n      tag_336\n      jump\t// in\n    tag_484:\n        /* \"#utility.yul\":5828:5834   */\n      dup2\n        /* \"#utility.yul\":5824:5864   */\n      add\n        /* \"#utility.yul\":5966:5972   */\n      dup2\n        /* \"#utility.yul\":5954:5964   */\n      dup2\n        /* \"#utility.yul\":5951:5973   */\n      lt\n        /* \"#utility.yul\":5930:5948   */\n      0xffffffffffffffff\n        /* \"#utility.yul\":5918:5928   */\n      dup3\n        /* \"#utility.yul\":5915:5949   */\n      gt\n        /* \"#utility.yul\":5912:5974   */\n      or\n        /* \"#utility.yul\":5909:5997   */\n      iszero\n      tag_485\n      jumpi\n        /* \"#utility.yul\":5977:5995   */\n      tag_486\n      tag_341\n      jump\t// in\n    tag_486:\n        /* \"#utility.yul\":5909:5997   */\n    tag_485:\n        /* \"#utility.yul\":6017:6027   */\n      dup1\n        /* \"#utility.yul\":6013:6015   */\n      0x40\n        /* \"#utility.yul\":6006:6028   */\n      mstore\n        /* \"#utility.yul\":5796:6034   */\n      pop\n        /* \"#utility.yul\":5753:6034   */\n      pop\n      pop\n      jump\t// out\n        /* \"#utility.yul\":6040:6169   */\n    tag_343:\n        /* \"#utility.yul\":6074:6080   */\n      0x00\n        /* \"#utility.yul\":6101:6121   */\n      tag_488\n      tag_321\n      jump\t// in\n    tag_488:\n        /* \"#utility.yul\":6091:6121   */\n      swap1\n      pop\n        /* \"#utility.yul\":6130:6163   */\n      tag_489\n        /* \"#utility.yul\":6158:6162   */\n      dup3\n        /* \"#utility.yul\":6150:6156   */\n      dup3\n        /* \"#utility.yul\":6130:6163   */\n      tag_342\n      jump\t// in\n    tag_489:\n        /* \"#utility.yul\":6040:6169   */\n      swap2\n      swap1\n      pop\n      jump\t// out\n        /* \"#utility.yul\":6175:6483   */\n    tag_344:\n        /* \"#utility.yul\":6237:6241   */\n      0x00\n        /* \"#utility.yul\":6327:6345   */\n      0xffffffffffffffff\n        /* \"#utility.yul\":6319:6325   */\n      dup3\n        /* \"#utility.yul\":6316:6346   */\n      gt\n        /* \"#utility.yul\":6313:6369   */\n      iszero\n      tag_491\n      jumpi\n        /* \"#utility.yul\":6349:6367   */\n      tag_492\n      tag_341\n      jump\t// in\n    tag_492:\n        /* \"#utility.yul\":6313:6369   */\n    tag_491:\n        /* \"#utility.yul\":6387:6416   */\n      tag_493\n        /* \"#utility.yul\":6409:6415   */\n      dup3\n        /* \"#utility.yul\":6387:6416   */\n      tag_336\n      jump\t// in\n    tag_493:\n        /* \"#utility.yul\":6379:6416   */\n      swap1\n      pop\n        /* \"#utility.yul\":6471:6475   */\n      0x20\n        /* \"#utility.yul\":6465:6469   */\n      dup2\n        /* \"#utility.yul\":6461:6476   */\n      add\n        /* \"#utility.yul\":6453:6476   */\n      swap1\n      pop\n        /* \"#utility.yul\":6175:6483   */\n      swap2\n      swap1\n      pop\n      jump\t// out\n        /* \"#utility.yul\":6489:6637   */\n    tag_345:\n        /* \"#utility.yul\":6587:6593   */\n      dup3\n        /* \"#utility.yul\":6582:6585   */\n      dup2\n        /* \"#utility.yul\":6577:6580   */\n      dup4\n        /* \"#utility.yul\":6564:6594   */\n      calldatacopy\n        /* \"#utility.yul\":6628:6629   */\n      0x00\n        /* \"#utility.yul\":6619:6625   */\n      dup4\n        /* \"#utility.yul\":6614:6617   */\n      dup4\n        /* \"#utility.yul\":6610:6626   */\n      add\n        /* \"#utility.yul\":6603:6630   */\n      mstore\n        /* \"#utility.yul\":6489:6637   */\n      pop\n      pop\n      pop\n      jump\t// out\n        /* \"#utility.yul\":6643:7068   */\n    tag_346:\n        /* \"#utility.yul\":6721:6726   */\n      0x00\n        /* \"#utility.yul\":6746:6812   */\n      tag_496\n        /* \"#utility.yul\":6762:6811   */\n      tag_497\n        /* \"#utility.yul\":6804:6810   */\n      dup5\n        /* \"#utility.yul\":6762:6811   */\n      tag_344\n      jump\t// in\n    tag_497:\n        /* \"#utility.yul\":6746:6812   */\n      tag_343\n      jump\t// in\n    tag_496:\n        /* \"#utility.yul\":6737:6812   */\n      swap1\n      pop\n        /* \"#utility.yul\":6835:6841   */\n      dup3\n        /* \"#utility.yul\":6828:6833   */\n      dup2\n        /* \"#utility.yul\":6821:6842   */\n      mstore\n        /* \"#utility.yul\":6873:6877   */\n      0x20\n        /* \"#utility.yul\":6866:6871   */\n      dup2\n        /* \"#utility.yul\":6862:6878   */\n      add\n        /* \"#utility.yul\":6911:6914   */\n      dup5\n        /* \"#utility.yul\":6902:6908   */\n      dup5\n        /* \"#utility.yul\":6897:6900   */\n      dup5\n        /* \"#utility.yul\":6893:6909   */\n      add\n        /* \"#utility.yul\":6890:6915   */\n      gt\n        /* \"#utility.yul\":6887:6999   */\n      iszero\n      tag_498\n      jumpi\n        /* \"#utility.yul\":6918:6997   */\n      tag_499\n      tag_340\n      jump\t// in\n    tag_499:\n        /* \"#utility.yul\":6887:6999   */\n    tag_498:\n        /* \"#utility.yul\":7008:7062   */\n      tag_500\n        /* \"#utility.yul\":7055:7061   */\n      dup5\n        /* \"#utility.yul\":7050:7053   */\n      dup3\n        /* \"#utility.yul\":7045:7048   */\n      dup6\n        /* \"#utility.yul\":7008:7062   */\n      tag_345\n      jump\t// in\n    tag_500:\n        /* \"#utility.yul\":6727:7068   */\n      pop\n        /* \"#utility.yul\":6643:7068   */\n      swap4\n      swap3\n      pop\n      pop\n      pop\n      jump\t// out\n        /* \"#utility.yul\":7088:7428   */\n    tag_347:\n        /* \"#utility.yul\":7144:7149   */\n      0x00\n        /* \"#utility.yul\":7193:7196   */\n      dup3\n        /* \"#utility.yul\":7186:7190   */\n      0x1f\n        /* \"#utility.yul\":7178:7184   */\n      dup4\n        /* \"#utility.yul\":7174:7191   */\n      add\n        /* \"#utility.yul\":7170:7197   */\n      slt\n        /* \"#utility.yul\":7160:7282   */\n      tag_502\n      jumpi\n        /* \"#utility.yul\":7201:7280   */\n      tag_503\n      tag_339\n      jump\t// in\n    tag_503:\n        /* \"#utility.yul\":7160:7282   */\n    tag_502:\n        /* \"#utility.yul\":7318:7324   */\n      dup2\n        /* \"#utility.yul\":7305:7325   */\n      calldataload\n        /* \"#utility.yul\":7343:7422   */\n      tag_504\n        /* \"#utility.yul\":7418:7421   */\n      dup5\n        /* \"#utility.yul\":7410:7416   */\n      dup3\n        /* \"#utility.yul\":7403:7407   */\n      0x20\n        /* \"#utility.yul\":7395:7401   */\n      dup7\n        /* \"#utility.yul\":7391:7408   */\n      add\n        /* \"#utility.yul\":7343:7422   */\n      tag_346\n      jump\t// in\n    tag_504:\n        /* \"#utility.yul\":7334:7422   */\n      swap2\n      pop\n        /* \"#utility.yul\":7150:7428   */\n      pop\n        /* \"#utility.yul\":7088:7428   */\n      swap3\n      swap2\n      pop\n      pop\n      jump\t// out\n        /* \"#utility.yul\":7434:8088   */\n    tag_73:\n        /* \"#utility.yul\":7512:7518   */\n      0x00\n        /* \"#utility.yul\":7520:7526   */\n      dup1\n        /* \"#utility.yul\":7569:7571   */\n      0x40\n        /* \"#utility.yul\":7557:7566   */\n      dup4\n        /* \"#utility.yul\":7548:7555   */\n      dup6\n        /* \"#utility.yul\":7544:7567   */\n      sub\n        /* \"#utility.yul\":7540:7572   */\n      slt\n        /* \"#utility.yul\":7537:7656   */\n      iszero\n      tag_506\n      jumpi\n        /* \"#utility.yul\":7575:7654   */\n      tag_507\n      tag_322\n      jump\t// in\n    tag_507:\n        /* \"#utility.yul\":7537:7656   */\n    tag_506:\n        /* \"#utility.yul\":7695:7696   */\n      0x00\n        /* \"#utility.yul\":7720:7773   */\n      tag_508\n        /* \"#utility.yul\":7765:7772   */\n      dup6\n        /* \"#utility.yul\":7756:7762   */\n      dup3\n        /* \"#utility.yul\":7745:7754   */\n      dup7\n        /* \"#utility.yul\":7741:7763   */\n      add\n        /* \"#utility.yul\":7720:7773   */\n      tag_326\n      jump\t// in\n    tag_508:\n        /* \"#utility.yul\":7710:7773   */\n      swap3\n      pop\n        /* \"#utility.yul\":7666:7783   */\n      pop\n        /* \"#utility.yul\":7850:7852   */\n      0x20\n        /* \"#utility.yul\":7839:7848   */\n      dup4\n        /* \"#utility.yul\":7835:7853   */\n      add\n        /* \"#utility.yul\":7822:7854   */\n      calldataload\n        /* \"#utility.yul\":7881:7899   */\n      0xffffffffffffffff\n        /* \"#utility.yul\":7873:7879   */\n      dup2\n        /* \"#utility.yul\":7870:7900   */\n      gt\n        /* \"#utility.yul\":7867:7984   */\n      iszero\n      tag_509\n      jumpi\n        /* \"#utility.yul\":7903:7982   */\n      tag_510\n      tag_323\n      jump\t// in\n    tag_510:\n        /* \"#utility.yul\":7867:7984   */\n    tag_509:\n        /* \"#utility.yul\":8008:8071   */\n      tag_511\n        /* \"#utility.yul\":8063:8070   */\n      dup6\n        /* \"#utility.yul\":8054:8060   */\n      dup3\n        /* \"#utility.yul\":8043:8052   */\n      dup7\n        /* \"#utility.yul\":8039:8061   */\n      add\n        /* \"#utility.yul\":8008:8071   */\n      tag_347\n      jump\t// in\n    tag_511:\n        /* \"#utility.yul\":7998:8071   */\n      swap2\n      pop\n        /* \"#utility.yul\":7793:8081   */\n      pop\n        /* \"#utility.yul\":7434:8088   */\n      swap3\n      pop\n      swap3\n      swap1\n      pop\n      jump\t// out\n        /* \"#utility.yul\":8094:8212   */\n    tag_348:\n        /* \"#utility.yul\":8181:8205   */\n      tag_513\n        /* \"#utility.yul\":8199:8204   */\n      dup2\n        /* \"#utility.yul\":8181:8205   */\n      tag_328\n      jump\t// in\n    tag_513:\n        /* \"#utility.yul\":8176:8179   */\n      dup3\n        /* \"#utility.yul\":8169:8206   */\n      mstore\n        /* \"#utility.yul\":8094:8212   */\n      pop\n      pop\n      jump\t// out\n        /* \"#utility.yul\":8218:8862   */\n    tag_85:\n        /* \"#utility.yul\":8415:8419   */\n      0x00\n        /* \"#utility.yul\":8453:8456   */\n      0x80\n        /* \"#utility.yul\":8442:8451   */\n      dup3\n        /* \"#utility.yul\":8438:8457   */\n      add\n        /* \"#utility.yul\":8430:8457   */\n      swap1\n      pop\n        /* \"#utility.yul\":8467:8538   */\n      tag_515\n        /* \"#utility.yul\":8535:8536   */\n      0x00\n        /* \"#utility.yul\":8524:8533   */\n      dup4\n        /* \"#utility.yul\":8520:8537   */\n      add\n        /* \"#utility.yul\":8511:8517   */\n      dup8\n        /* \"#utility.yul\":8467:8538   */\n      tag_338\n      jump\t// in\n    tag_515:\n        /* \"#utility.yul\":8548:8620   */\n      tag_516\n        /* \"#utility.yul\":8616:8618   */\n      0x20\n        /* \"#utility.yul\":8605:8614   */\n      dup4\n        /* \"#utility.yul\":8601:8619   */\n      add\n        /* \"#utility.yul\":8592:8598   */\n      dup7\n        /* \"#utility.yul\":8548:8620   */\n      tag_348\n      jump\t// in\n    tag_516:\n        /* \"#utility.yul\":8667:8676   */\n      dup2\n        /* \"#utility.yul\":8661:8665   */\n      dup2\n        /* \"#utility.yul\":8657:8677   */\n      sub\n        /* \"#utility.yul\":8652:8654   */\n      0x40\n        /* \"#utility.yul\":8641:8650   */\n      dup4\n        /* \"#utility.yul\":8637:8655   */\n      add\n        /* \"#utility.yul\":8630:8678   */\n      mstore\n        /* \"#utility.yul\":8695:8773   */\n      tag_517\n        /* \"#utility.yul\":8768:8772   */\n      dup2\n        /* \"#utility.yul\":8759:8765   */\n      dup6\n        /* \"#utility.yul\":8695:8773   */\n      tag_337\n      jump\t// in\n    tag_517:\n        /* \"#utility.yul\":8687:8773   */\n      swap1\n      pop\n        /* \"#utility.yul\":8783:8855   */\n      tag_518\n        /* \"#utility.yul\":8851:8853   */\n      0x60\n        /* \"#utility.yul\":8840:8849   */\n      dup4\n        /* \"#utility.yul\":8836:8854   */\n      add\n        /* \"#utility.yul\":8827:8833   */\n      dup5\n        /* \"#utility.yul\":8783:8855   */\n      tag_338\n      jump\t// in\n    tag_518:\n        /* \"#utility.yul\":8218:8862   */\n      swap6\n      swap5\n      pop\n      pop\n      pop\n      pop\n      pop\n      jump\t// out\n        /* \"#utility.yul\":8868:9090   */\n    tag_89:\n        /* \"#utility.yul\":8961:8965   */\n      0x00\n        /* \"#utility.yul\":8999:9001   */\n      0x20\n        /* \"#utility.yul\":8988:8997   */\n      dup3\n        /* \"#utility.yul\":8984:9002   */\n      add\n        /* \"#utility.yul\":8976:9002   */\n      swap1\n      pop\n        /* \"#utility.yul\":9012:9083   */\n      tag_520\n        /* \"#utility.yul\":9080:9081   */\n      0x00\n        /* \"#utility.yul\":9069:9078   */\n      dup4\n        /* \"#utility.yul\":9065:9082   */\n      add\n        /* \"#utility.yul\":9056:9062   */\n      dup5\n        /* \"#utility.yul\":9012:9083   */\n      tag_348\n      jump\t// in\n    tag_520:\n        /* \"#utility.yul\":8868:9090   */\n      swap3\n      swap2\n      pop\n      pop\n      jump\t// out\n        /* \"#utility.yul\":9096:10679   */\n    tag_94:\n        /* \"#utility.yul\":9521:9525   */\n      0x00\n        /* \"#utility.yul\":9559:9562   */\n      0x0140\n        /* \"#utility.yul\":9548:9557   */\n      dup3\n        /* \"#utility.yul\":9544:9563   */\n      add\n        /* \"#utility.yul\":9536:9563   */\n      swap1\n      pop\n        /* \"#utility.yul\":9573:9644   */\n      tag_522\n        /* \"#utility.yul\":9641:9642   */\n      0x00\n        /* \"#utility.yul\":9630:9639   */\n      dup4\n        /* \"#utility.yul\":9626:9643   */\n      add\n        /* \"#utility.yul\":9617:9623   */\n      dup14\n        /* \"#utility.yul\":9573:9644   */\n      tag_338\n      jump\t// in\n    tag_522:\n        /* \"#utility.yul\":9691:9700   */\n      dup2\n        /* \"#utility.yul\":9685:9689   */\n      dup2\n        /* \"#utility.yul\":9681:9701   */\n      sub\n        /* \"#utility.yul\":9676:9678   */\n      0x20\n        /* \"#utility.yul\":9665:9674   */\n      dup4\n        /* \"#utility.yul\":9661:9679   */\n      add\n        /* \"#utility.yul\":9654:9702   */\n      mstore\n        /* \"#utility.yul\":9719:9797   */\n      tag_523\n        /* \"#utility.yul\":9792:9796   */\n      dup2\n        /* \"#utility.yul\":9783:9789   */\n      dup13\n        /* \"#utility.yul\":9719:9797   */\n      tag_337\n      jump\t// in\n    tag_523:\n        /* \"#utility.yul\":9711:9797   */\n      swap1\n      pop\n        /* \"#utility.yul\":9844:9853   */\n      dup2\n        /* \"#utility.yul\":9838:9842   */\n      dup2\n        /* \"#utility.yul\":9834:9854   */\n      sub\n        /* \"#utility.yul\":9829:9831   */\n      0x40\n        /* \"#utility.yul\":9818:9827   */\n      dup4\n        /* \"#utility.yul\":9814:9832   */\n      add\n        /* \"#utility.yul\":9807:9855   */\n      mstore\n        /* \"#utility.yul\":9872:9950   */\n      tag_524\n        /* \"#utility.yul\":9945:9949   */\n      dup2\n        /* \"#utility.yul\":9936:9942   */\n      dup12\n        /* \"#utility.yul\":9872:9950   */\n      tag_337\n      jump\t// in\n    tag_524:\n        /* \"#utility.yul\":9864:9950   */\n      swap1\n      pop\n        /* \"#utility.yul\":9960:10032   */\n      tag_525\n        /* \"#utility.yul\":10028:10030   */\n      0x60\n        /* \"#utility.yul\":10017:10026   */\n      dup4\n        /* \"#utility.yul\":10013:10031   */\n      add\n        /* \"#utility.yul\":10004:10010   */\n      dup11\n        /* \"#utility.yul\":9960:10032   */\n      tag_348\n      jump\t// in\n    tag_525:\n        /* \"#utility.yul\":10042:10115   */\n      tag_526\n        /* \"#utility.yul\":10110:10113   */\n      0x80\n        /* \"#utility.yul\":10099:10108   */\n      dup4\n        /* \"#utility.yul\":10095:10114   */\n      add\n        /* \"#utility.yul\":10086:10092   */\n      dup10\n        /* \"#utility.yul\":10042:10115   */\n      tag_338\n      jump\t// in\n    tag_526:\n        /* \"#utility.yul\":10163:10172   */\n      dup2\n        /* \"#utility.yul\":10157:10161   */\n      dup2\n        /* \"#utility.yul\":10153:10173   */\n      sub\n        /* \"#utility.yul\":10147:10150   */\n      0xa0\n        /* \"#utility.yul\":10136:10145   */\n      dup4\n        /* \"#utility.yul\":10132:10151   */\n      add\n        /* \"#utility.yul\":10125:10174   */\n      mstore\n        /* \"#utility.yul\":10191:10269   */\n      tag_527\n        /* \"#utility.yul\":10264:10268   */\n      dup2\n        /* \"#utility.yul\":10255:10261   */\n      dup9\n        /* \"#utility.yul\":10191:10269   */\n      tag_337\n      jump\t// in\n    tag_527:\n        /* \"#utility.yul\":10183:10269   */\n      swap1\n      pop\n        /* \"#utility.yul\":10317:10326   */\n      dup2\n        /* \"#utility.yul\":10311:10315   */\n      dup2\n        /* \"#utility.yul\":10307:10327   */\n      sub\n        /* \"#utility.yul\":10301:10304   */\n      0xc0\n        /* \"#utility.yul\":10290:10299   */\n      dup4\n        /* \"#utility.yul\":10286:10305   */\n      add\n        /* \"#utility.yul\":10279:10328   */\n      mstore\n        /* \"#utility.yul\":10345:10423   */\n      tag_528\n        /* \"#utility.yul\":10418:10422   */\n      dup2\n        /* \"#utility.yul\":10409:10415   */\n      dup8\n        /* \"#utility.yul\":10345:10423   */\n      tag_337\n      jump\t// in\n    tag_528:\n        /* \"#utility.yul\":10337:10423   */\n      swap1\n      pop\n        /* \"#utility.yul\":10433:10506   */\n      tag_529\n        /* \"#utility.yul\":10501:10504   */\n      0xe0\n        /* \"#utility.yul\":10490:10499   */\n      dup4\n        /* \"#utility.yul\":10486:10505   */\n      add\n        /* \"#utility.yul\":10477:10483   */\n      dup7\n        /* \"#utility.yul\":10433:10506   */\n      tag_338\n      jump\t// in\n    tag_529:\n        /* \"#utility.yul\":10516:10589   */\n      tag_530\n        /* \"#utility.yul\":10584:10587   */\n      0x0100\n        /* \"#utility.yul\":10573:10582   */\n      dup4\n        /* \"#utility.yul\":10569:10588   */\n      add\n        /* \"#utility.yul\":10560:10566   */\n      dup6\n        /* \"#utility.yul\":10516:10589   */\n      tag_338\n      jump\t// in\n    tag_530:\n        /* \"#utility.yul\":10599:10672   */\n      tag_531\n        /* \"#utility.yul\":10667:10670   */\n      0x0120\n        /* \"#utility.yul\":10656:10665   */\n      dup4\n        /* \"#utility.yul\":10652:10671   */\n      add\n        /* \"#utility.yul\":10643:10649   */\n      dup5\n        /* \"#utility.yul\":10599:10672   */\n      tag_338\n      jump\t// in\n    tag_531:\n        /* \"#utility.yul\":9096:10679   */\n      swap12\n      swap11\n      pop\n      pop\n      pop\n      pop\n      pop\n      pop\n      pop\n      pop\n      pop\n      pop\n      pop\n      jump\t// out\n        /* \"#utility.yul\":10685:11484   */\n    tag_97:\n        /* \"#utility.yul\":10772:10778   */\n      0x00\n        /* \"#utility.yul\":10780:10786   */\n      dup1\n        /* \"#utility.yul\":10788:10794   */\n      0x00\n        /* \"#utility.yul\":10837:10839   */\n      0x60\n        /* \"#utility.yul\":10825:10834   */\n      dup5\n        /* \"#utility.yul\":10816:10823   */\n      dup7\n        /* \"#utility.yul\":10812:10835   */\n      sub\n        /* \"#utility.yul\":10808:10840   */\n      slt\n        /* \"#utility.yul\":10805:10924   */\n      iszero\n      tag_533\n      jumpi\n        /* \"#utility.yul\":10843:10922   */\n      tag_534\n      tag_322\n      jump\t// in\n    tag_534:\n        /* \"#utility.yul\":10805:10924   */\n    tag_533:\n        /* \"#utility.yul\":10963:10964   */\n      0x00\n        /* \"#utility.yul\":10988:11041   */\n      tag_535\n        /* \"#utility.yul\":11033:11040   */\n      dup7\n        /* \"#utility.yul\":11024:11030   */\n      dup3\n        /* \"#utility.yul\":11013:11022   */\n      dup8\n        /* \"#utility.yul\":11009:11031   */\n      add\n        /* \"#utility.yul\":10988:11041   */\n      tag_326\n      jump\t// in\n    tag_535:\n        /* \"#utility.yul\":10978:11041   */\n      swap4\n      pop\n        /* \"#utility.yul\":10934:11051   */\n      pop\n        /* \"#utility.yul\":11090:11092   */\n      0x20\n        /* \"#utility.yul\":11116:11169   */\n      tag_536\n        /* \"#utility.yul\":11161:11168   */\n      dup7\n        /* \"#utility.yul\":11152:11158   */\n      dup3\n        /* \"#utility.yul\":11141:11150   */\n      dup8\n        /* \"#utility.yul\":11137:11159   */\n      add\n        /* \"#utility.yul\":11116:11169   */\n      tag_326\n      jump\t// in\n    tag_536:\n        /* \"#utility.yul\":11106:11169   */\n      swap3\n      pop\n        /* \"#utility.yul\":11061:11179   */\n      pop\n        /* \"#utility.yul\":11246:11248   */\n      0x40\n        /* \"#utility.yul\":11235:11244   */\n      dup5\n        /* \"#utility.yul\":11231:11249   */\n      add\n        /* \"#utility.yul\":11218:11250   */\n      calldataload\n        /* \"#utility.yul\":11277:11295   */\n      0xffffffffffffffff\n        /* \"#utility.yul\":11269:11275   */\n      dup2\n        /* \"#utility.yul\":11266:11296   */\n      gt\n        /* \"#utility.yul\":11263:11380   */\n      iszero\n      tag_537\n      jumpi\n        /* \"#utility.yul\":11299:11378   */\n      tag_538\n      tag_323\n      jump\t// in\n    tag_538:\n        /* \"#utility.yul\":11263:11380   */\n    tag_537:\n        /* \"#utility.yul\":11404:11467   */\n      tag_539\n        /* \"#utility.yul\":11459:11466   */\n      dup7\n        /* \"#utility.yul\":11450:11456   */\n      dup3\n        /* \"#utility.yul\":11439:11448   */\n      dup8\n        /* \"#utility.yul\":11435:11457   */\n      add\n        /* \"#utility.yul\":11404:11467   */\n      tag_347\n      jump\t// in\n    tag_539:\n        /* \"#utility.yul\":11394:11467   */\n      swap2\n      pop\n        /* \"#utility.yul\":11189:11477   */\n      pop\n        /* \"#utility.yul\":10685:11484   */\n      swap3\n      pop\n      swap3\n      pop\n      swap3\n      jump\t// out\n        /* \"#utility.yul\":11490:11550   */\n    tag_349:\n        /* \"#utility.yul\":11518:11521   */\n      0x00\n        /* \"#utility.yul\":11539:11544   */\n      dup2\n        /* \"#utility.yul\":11532:11544   */\n      swap1\n      pop\n        /* \"#utility.yul\":11490:11550   */\n      swap2\n      swap1\n      pop\n      jump\t// out\n        /* \"#utility.yul\":11556:11698   */\n    tag_350:\n        /* \"#utility.yul\":11606:11615   */\n      0x00\n        /* \"#utility.yul\":11639:11692   */\n      tag_542\n        /* \"#utility.yul\":11657:11691   */\n      tag_543\n        /* \"#utility.yul\":11666:11690   */\n      tag_544\n        /* \"#utility.yul\":11684:11689   */\n      dup5\n        /* \"#utility.yul\":11666:11690   */\n      tag_327\n      jump\t// in\n    tag_544:\n        /* \"#utility.yul\":11657:11691   */\n      tag_349\n      jump\t// in\n    tag_543:\n        /* \"#utility.yul\":11639:11692   */\n      tag_327\n      jump\t// in\n    tag_542:\n        /* \"#utility.yul\":11626:11692   */\n      swap1\n      pop\n        /* \"#utility.yul\":11556:11698   */\n      swap2\n      swap1\n      pop\n      jump\t// out\n        /* \"#utility.yul\":11704:11830   */\n    tag_351:\n        /* \"#utility.yul\":11754:11763   */\n      0x00\n        /* \"#utility.yul\":11787:11824   */\n      tag_546\n        /* \"#utility.yul\":11818:11823   */\n      dup3\n        /* \"#utility.yul\":11787:11824   */\n      tag_350\n      jump\t// in\n    tag_546:\n        /* \"#utility.yul\":11774:11824   */\n      swap1\n      pop\n        /* \"#utility.yul\":11704:11830   */\n      swap2\n      swap1\n      pop\n      jump\t// out\n        /* \"#utility.yul\":11836:11976   */\n    tag_352:\n        /* \"#utility.yul\":11900:11909   */\n      0x00\n        /* \"#utility.yul\":11933:11970   */\n      tag_548\n        /* \"#utility.yul\":11964:11969   */\n      dup3\n        /* \"#utility.yul\":11933:11970   */\n      tag_351\n      jump\t// in\n    tag_548:\n        /* \"#utility.yul\":11920:11970   */\n      swap1\n      pop\n        /* \"#utility.yul\":11836:11976   */\n      swap2\n      swap1\n      pop\n      jump\t// out\n        /* \"#utility.yul\":11982:12141   */\n    tag_353:\n        /* \"#utility.yul\":12083:12134   */\n      tag_550\n        /* \"#utility.yul\":12128:12133   */\n      dup2\n        /* \"#utility.yul\":12083:12134   */\n      tag_352\n      jump\t// in\n    tag_550:\n        /* \"#utility.yul\":12078:12081   */\n      dup3\n        /* \"#utility.yul\":12071:12135   */\n      mstore\n        /* \"#utility.yul\":11982:12141   */\n      pop\n      pop\n      jump\t// out\n        /* \"#utility.yul\":12147:12397   */\n    tag_102:\n        /* \"#utility.yul\":12254:12258   */\n      0x00\n        /* \"#utility.yul\":12292:12294   */\n      0x20\n        /* \"#utility.yul\":12281:12290   */\n      dup3\n        /* \"#utility.yul\":12277:12295   */\n      add\n        /* \"#utility.yul\":12269:12295   */\n      swap1\n      pop\n        /* \"#utility.yul\":12305:12390   */\n      tag_552\n        /* \"#utility.yul\":12387:12388   */\n      0x00\n        /* \"#utility.yul\":12376:12385   */\n      dup4\n        /* \"#utility.yul\":12372:12389   */\n      add\n        /* \"#utility.yul\":12363:12369   */\n      dup5\n        /* \"#utility.yul\":12305:12390   */\n      tag_353\n      jump\t// in\n    tag_552:\n        /* \"#utility.yul\":12147:12397   */\n      swap3\n      swap2\n      pop\n      pop\n      jump\t// out\n        /* \"#utility.yul\":12403:12710   */\n    tag_354:\n        /* \"#utility.yul\":12464:12468   */\n      0x00\n        /* \"#utility.yul\":12554:12572   */\n      0xffffffffffffffff\n        /* \"#utility.yul\":12546:12552   */\n      dup3\n        /* \"#utility.yul\":12543:12573   */\n      gt\n        /* \"#utility.yul\":12540:12596   */\n      iszero\n      tag_554\n      jumpi\n        /* \"#utility.yul\":12576:12594   */\n      tag_555\n      tag_341\n      jump\t// in\n    tag_555:\n        /* \"#utility.yul\":12540:12596   */\n    tag_554:\n        /* \"#utility.yul\":12614:12643   */\n      tag_556\n        /* \"#utility.yul\":12636:12642   */\n      dup3\n        /* \"#utility.yul\":12614:12643   */\n      tag_336\n      jump\t// in\n    tag_556:\n        /* \"#utility.yul\":12606:12643   */\n      swap1\n      pop\n        /* \"#utility.yul\":12698:12702   */\n      0x20\n        /* \"#utility.yul\":12692:12696   */\n      dup2\n        /* \"#utility.yul\":12688:12703   */\n      add\n        /* \"#utility.yul\":12680:12703   */\n      swap1\n      pop\n        /* \"#utility.yul\":12403:12710   */\n      swap2\n      swap1\n      pop\n      jump\t// out\n        /* \"#utility.yul\":12716:13139   */\n    tag_355:\n        /* \"#utility.yul\":12793:12798   */\n      0x00\n        /* \"#utility.yul\":12818:12883   */\n      tag_558\n        /* \"#utility.yul\":12834:12882   */\n      tag_559\n        /* \"#utility.yul\":12875:12881   */\n      dup5\n        /* \"#utility.yul\":12834:12882   */\n      tag_354\n      jump\t// in\n    tag_559:\n        /* \"#utility.yul\":12818:12883   */\n      tag_343\n      jump\t// in\n    tag_558:\n        /* \"#utility.yul\":12809:12883   */\n      swap1\n      pop\n        /* \"#utility.yul\":12906:12912   */\n      dup3\n        /* \"#utility.yul\":12899:12904   */\n      dup2\n        /* \"#utility.yul\":12892:12913   */\n      mstore\n        /* \"#utility.yul\":12944:12948   */\n      0x20\n        /* \"#utility.yul\":12937:12942   */\n      dup2\n        /* \"#utility.yul\":12933:12949   */\n      add\n        /* \"#utility.yul\":12982:12985   */\n      dup5\n        /* \"#utility.yul\":12973:12979   */\n      dup5\n        /* \"#utility.yul\":12968:12971   */\n      dup5\n        /* \"#utility.yul\":12964:12980   */\n      add\n        /* \"#utility.yul\":12961:12986   */\n      gt\n        /* \"#utility.yul\":12958:13070   */\n      iszero\n      tag_560\n      jumpi\n        /* \"#utility.yul\":12989:13068   */\n      tag_561\n      tag_340\n      jump\t// in\n    tag_561:\n        /* \"#utility.yul\":12958:13070   */\n    tag_560:\n        /* \"#utility.yul\":13079:13133   */\n      tag_562\n        /* \"#utility.yul\":13126:13132   */\n      dup5\n        /* \"#utility.yul\":13121:13124   */\n      dup3\n        /* \"#utility.yul\":13116:13119   */\n      dup6\n        /* \"#utility.yul\":13079:13133   */\n      tag_345\n      jump\t// in\n    tag_562:\n        /* \"#utility.yul\":12799:13139   */\n      pop\n        /* \"#utility.yul\":12716:13139   */\n      swap4\n      swap3\n      pop\n      pop\n      pop\n      jump\t// out\n        /* \"#utility.yul\":13158:13496   */\n    tag_356:\n        /* \"#utility.yul\":13213:13218   */\n      0x00\n        /* \"#utility.yul\":13262:13265   */\n      dup3\n        /* \"#utility.yul\":13255:13259   */\n      0x1f\n        /* \"#utility.yul\":13247:13253   */\n      dup4\n        /* \"#utility.yul\":13243:13260   */\n      add\n        /* \"#utility.yul\":13239:13266   */\n      slt\n        /* \"#utility.yul\":13229:13351   */\n      tag_564\n      jumpi\n        /* \"#utility.yul\":13270:13349   */\n      tag_565\n      tag_339\n      jump\t// in\n    tag_565:\n        /* \"#utility.yul\":13229:13351   */\n    tag_564:\n        /* \"#utility.yul\":13387:13393   */\n      dup2\n        /* \"#utility.yul\":13374:13394   */\n      calldataload\n        /* \"#utility.yul\":13412:13490   */\n      tag_566\n        /* \"#utility.yul\":13486:13489   */\n      dup5\n        /* \"#utility.yul\":13478:13484   */\n      dup3\n        /* \"#utility.yul\":13471:13475   */\n      0x20\n        /* \"#utility.yul\":13463:13469   */\n      dup7\n        /* \"#utility.yul\":13459:13476   */\n      add\n        /* \"#utility.yul\":13412:13490   */\n      tag_355\n      jump\t// in\n    tag_566:\n        /* \"#utility.yul\":13403:13490   */\n      swap2\n      pop\n        /* \"#utility.yul\":13219:13496   */\n      pop\n        /* \"#utility.yul\":13158:13496   */\n      swap3\n      swap2\n      pop\n      pop\n      jump\t// out\n        /* \"#utility.yul\":13502:13823   */\n    tag_357:\n        /* \"#utility.yul\":13589:13593   */\n      0x00\n        /* \"#utility.yul\":13679:13697   */\n      0xffffffffffffffff\n        /* \"#utility.yul\":13671:13677   */\n      dup3\n        /* \"#utility.yul\":13668:13698   */\n      gt\n        /* \"#utility.yul\":13665:13721   */\n      iszero\n      tag_568\n      jumpi\n        /* \"#utility.yul\":13701:13719   */\n      tag_569\n      tag_341\n      jump\t// in\n    tag_569:\n        /* \"#utility.yul\":13665:13721   */\n    tag_568:\n        /* \"#utility.yul\":13751:13755   */\n      0x20\n        /* \"#utility.yul\":13743:13749   */\n      dup3\n        /* \"#utility.yul\":13739:13756   */\n      mul\n        /* \"#utility.yul\":13731:13756   */\n      swap1\n      pop\n        /* \"#utility.yul\":13811:13815   */\n      0x20\n        /* \"#utility.yul\":13805:13809   */\n      dup2\n        /* \"#utility.yul\":13801:13816   */\n      add\n        /* \"#utility.yul\":13793:13816   */\n      swap1\n      pop\n        /* \"#utility.yul\":13502:13823   */\n      swap2\n      swap1\n      pop\n      jump\t// out\n        /* \"#utility.yul\":13829:13946   */\n    tag_358:\n        /* \"#utility.yul\":13938:13939   */\n      0x00\n        /* \"#utility.yul\":13935:13936   */\n      dup1\n        /* \"#utility.yul\":13928:13940   */\n      revert\n        /* \"#utility.yul\":13968:14913   */\n    tag_359:\n        /* \"#utility.yul\":14074:14079   */\n      0x00\n        /* \"#utility.yul\":14099:14190   */\n      tag_572\n        /* \"#utility.yul\":14115:14189   */\n      tag_573\n        /* \"#utility.yul\":14182:14188   */\n      dup5\n        /* \"#utility.yul\":14115:14189   */\n      tag_357\n      jump\t// in\n    tag_573:\n        /* \"#utility.yul\":14099:14190   */\n      tag_343\n      jump\t// in\n    tag_572:\n        /* \"#utility.yul\":14090:14190   */\n      swap1\n      pop\n        /* \"#utility.yul\":14210:14215   */\n      dup1\n        /* \"#utility.yul\":14239:14245   */\n      dup4\n        /* \"#utility.yul\":14232:14237   */\n      dup3\n        /* \"#utility.yul\":14225:14246   */\n      mstore\n        /* \"#utility.yul\":14273:14277   */\n      0x20\n        /* \"#utility.yul\":14266:14271   */\n      dup3\n        /* \"#utility.yul\":14262:14278   */\n      add\n        /* \"#utility.yul\":14255:14278   */\n      swap1\n      pop\n        /* \"#utility.yul\":14326:14330   */\n      0x20\n        /* \"#utility.yul\":14318:14324   */\n      dup5\n        /* \"#utility.yul\":14314:14331   */\n      mul\n        /* \"#utility.yul\":14306:14312   */\n      dup4\n        /* \"#utility.yul\":14302:14332   */\n      add\n        /* \"#utility.yul\":14355:14358   */\n      dup6\n        /* \"#utility.yul\":14347:14353   */\n      dup2\n        /* \"#utility.yul\":14344:14359   */\n      gt\n        /* \"#utility.yul\":14341:14463   */\n      iszero\n      tag_574\n      jumpi\n        /* \"#utility.yul\":14374:14453   */\n      tag_575\n      tag_358\n      jump\t// in\n    tag_575:\n        /* \"#utility.yul\":14341:14463   */\n    tag_574:\n        /* \"#utility.yul\":14489:14495   */\n      dup4\n        /* \"#utility.yul\":14472:14907   */\n    tag_576:\n        /* \"#utility.yul\":14506:14512   */\n      dup2\n        /* \"#utility.yul\":14501:14504   */\n      dup2\n        /* \"#utility.yul\":14498:14513   */\n      lt\n        /* \"#utility.yul\":14472:14907   */\n      iszero\n      tag_578\n      jumpi\n        /* \"#utility.yul\":14595:14598   */\n      dup1\n        /* \"#utility.yul\":14582:14599   */\n      calldataload\n        /* \"#utility.yul\":14631:14649   */\n      0xffffffffffffffff\n        /* \"#utility.yul\":14618:14629   */\n      dup2\n        /* \"#utility.yul\":14615:14650   */\n      gt\n        /* \"#utility.yul\":14612:14734   */\n      iszero\n      tag_579\n      jumpi\n        /* \"#utility.yul\":14653:14732   */\n      tag_580\n      tag_339\n      jump\t// in\n    tag_580:\n        /* \"#utility.yul\":14612:14734   */\n    tag_579:\n        /* \"#utility.yul\":14777:14788   */\n      dup1\n        /* \"#utility.yul\":14769:14775   */\n      dup7\n        /* \"#utility.yul\":14765:14789   */\n      add\n        /* \"#utility.yul\":14815:14862   */\n      tag_581\n        /* \"#utility.yul\":14858:14861   */\n      dup10\n        /* \"#utility.yul\":14846:14856   */\n      dup3\n        /* \"#utility.yul\":14815:14862   */\n      tag_347\n      jump\t// in\n    tag_581:\n        /* \"#utility.yul\":14810:14813   */\n      dup6\n        /* \"#utility.yul\":14803:14863   */\n      mstore\n        /* \"#utility.yul\":14892:14896   */\n      0x20\n        /* \"#utility.yul\":14887:14890   */\n      dup6\n        /* \"#utility.yul\":14883:14897   */\n      add\n        /* \"#utility.yul\":14876:14897   */\n      swap5\n      pop\n        /* \"#utility.yul\":14548:14907   */\n      pop\n      pop\n        /* \"#utility.yul\":14532:14536   */\n      0x20\n        /* \"#utility.yul\":14527:14530   */\n      dup2\n        /* \"#utility.yul\":14523:14537   */\n      add\n        /* \"#utility.yul\":14516:14537   */\n      swap1\n      pop\n        /* \"#utility.yul\":14472:14907   */\n      jump(tag_576)\n    tag_578:\n        /* \"#utility.yul\":14476:14497   */\n      pop\n        /* \"#utility.yul\":14080:14913   */\n      pop\n      pop\n        /* \"#utility.yul\":13968:14913   */\n      swap4\n      swap3\n      pop\n      pop\n      pop\n      jump\t// out\n        /* \"#utility.yul\":14935:15325   */\n    tag_360:\n        /* \"#utility.yul\":15016:15021   */\n      0x00\n        /* \"#utility.yul\":15065:15068   */\n      dup3\n        /* \"#utility.yul\":15058:15062   */\n      0x1f\n        /* \"#utility.yul\":15050:15056   */\n      dup4\n        /* \"#utility.yul\":15046:15063   */\n      add\n        /* \"#utility.yul\":15042:15069   */\n      slt\n        /* \"#utility.yul\":15032:15154   */\n      tag_583\n      jumpi\n        /* \"#utility.yul\":15073:15152   */\n      tag_584\n      tag_339\n      jump\t// in\n    tag_584:\n        /* \"#utility.yul\":15032:15154   */\n    tag_583:\n        /* \"#utility.yul\":15190:15196   */\n      dup2\n        /* \"#utility.yul\":15177:15197   */\n      calldataload\n        /* \"#utility.yul\":15215:15319   */\n      tag_585\n        /* \"#utility.yul\":15315:15318   */\n      dup5\n        /* \"#utility.yul\":15307:15313   */\n      dup3\n        /* \"#utility.yul\":15300:15304   */\n      0x20\n        /* \"#utility.yul\":15292:15298   */\n      dup7\n        /* \"#utility.yul\":15288:15305   */\n      add\n        /* \"#utility.yul\":15215:15319   */\n      tag_359\n      jump\t// in\n    tag_585:\n        /* \"#utility.yul\":15206:15319   */\n      swap2\n      pop\n        /* \"#utility.yul\":15022:15325   */\n      pop\n        /* \"#utility.yul\":14935:15325   */\n      swap3\n      swap2\n      pop\n      pop\n      jump\t// out\n        /* \"#utility.yul\":15331:17482   */\n    tag_105:\n        /* \"#utility.yul\":15518:15524   */\n      0x00\n        /* \"#utility.yul\":15526:15532   */\n      dup1\n        /* \"#utility.yul\":15534:15540   */\n      0x00\n        /* \"#utility.yul\":15542:15548   */\n      dup1\n        /* \"#utility.yul\":15550:15556   */\n      0x00\n        /* \"#utility.yul\":15558:15564   */\n      dup1\n        /* \"#utility.yul\":15566:15572   */\n      0x00\n        /* \"#utility.yul\":15615:15618   */\n      0xe0\n        /* \"#utility.yul\":15603:15612   */\n      dup9\n        /* \"#utility.yul\":15594:15601   */\n      dup11\n        /* \"#utility.yul\":15590:15613   */\n      sub\n        /* \"#utility.yul\":15586:15619   */\n      slt\n        /* \"#utility.yul\":15583:15703   */\n      iszero\n      tag_587\n      jumpi\n        /* \"#utility.yul\":15622:15701   */\n      tag_588\n      tag_322\n      jump\t// in\n    tag_588:\n        /* \"#utility.yul\":15583:15703   */\n    tag_587:\n        /* \"#utility.yul\":15770:15771   */\n      0x00\n        /* \"#utility.yul\":15759:15768   */\n      dup9\n        /* \"#utility.yul\":15755:15772   */\n      add\n        /* \"#utility.yul\":15742:15773   */\n      calldataload\n        /* \"#utility.yul\":15800:15818   */\n      0xffffffffffffffff\n        /* \"#utility.yul\":15792:15798   */\n      dup2\n        /* \"#utility.yul\":15789:15819   */\n      gt\n        /* \"#utility.yul\":15786:15903   */\n      iszero\n      tag_589\n      jumpi\n        /* \"#utility.yul\":15822:15901   */\n      tag_590\n      tag_323\n      jump\t// in\n    tag_590:\n        /* \"#utility.yul\":15786:15903   */\n    tag_589:\n        /* \"#utility.yul\":15927:15990   */\n      tag_591\n        /* \"#utility.yul\":15982:15989   */\n      dup11\n        /* \"#utility.yul\":15973:15979   */\n      dup3\n        /* \"#utility.yul\":15962:15971   */\n      dup12\n        /* \"#utility.yul\":15958:15980   */\n      add\n        /* \"#utility.yul\":15927:15990   */\n      tag_347\n      jump\t// in\n    tag_591:\n        /* \"#utility.yul\":15917:15990   */\n      swap8\n      pop\n        /* \"#utility.yul\":15713:16000   */\n      pop\n        /* \"#utility.yul\":16067:16069   */\n      0x20\n        /* \"#utility.yul\":16056:16065   */\n      dup9\n        /* \"#utility.yul\":16052:16070   */\n      add\n        /* \"#utility.yul\":16039:16071   */\n      calldataload\n        /* \"#utility.yul\":16098:16116   */\n      0xffffffffffffffff\n        /* \"#utility.yul\":16090:16096   */\n      dup2\n        /* \"#utility.yul\":16087:16117   */\n      gt\n        /* \"#utility.yul\":16084:16201   */\n      iszero\n      tag_592\n      jumpi\n        /* \"#utility.yul\":16120:16199   */\n      tag_593\n      tag_323\n      jump\t// in\n    tag_593:\n        /* \"#utility.yul\":16084:16201   */\n    tag_592:\n        /* \"#utility.yul\":16225:16288   */\n      tag_594\n        /* \"#utility.yul\":16280:16287   */\n      dup11\n        /* \"#utility.yul\":16271:16277   */\n      dup3\n        /* \"#utility.yul\":16260:16269   */\n      dup12\n        /* \"#utility.yul\":16256:16278   */\n      add\n        /* \"#utility.yul\":16225:16288   */\n      tag_347\n      jump\t// in\n    tag_594:\n        /* \"#utility.yul\":16215:16288   */\n      swap7\n      pop\n        /* \"#utility.yul\":16010:16298   */\n      pop\n        /* \"#utility.yul\":16365:16367   */\n      0x40\n        /* \"#utility.yul\":16354:16363   */\n      dup9\n        /* \"#utility.yul\":16350:16368   */\n      add\n        /* \"#utility.yul\":16337:16369   */\n      calldataload\n        /* \"#utility.yul\":16396:16414   */\n      0xffffffffffffffff\n        /* \"#utility.yul\":16388:16394   */\n      dup2\n        /* \"#utility.yul\":16385:16415   */\n      gt\n        /* \"#utility.yul\":16382:16499   */\n      iszero\n      tag_595\n      jumpi\n        /* \"#utility.yul\":16418:16497   */\n      tag_596\n      tag_323\n      jump\t// in\n    tag_596:\n        /* \"#utility.yul\":16382:16499   */\n    tag_595:\n        /* \"#utility.yul\":16523:16585   */\n      tag_597\n        /* \"#utility.yul\":16577:16584   */\n      dup11\n        /* \"#utility.yul\":16568:16574   */\n      dup3\n        /* \"#utility.yul\":16557:16566   */\n      dup12\n        /* \"#utility.yul\":16553:16575   */\n      add\n        /* \"#utility.yul\":16523:16585   */\n      tag_356\n      jump\t// in\n    tag_597:\n        /* \"#utility.yul\":16513:16585   */\n      swap6\n      pop\n        /* \"#utility.yul\":16308:16595   */\n      pop\n        /* \"#utility.yul\":16662:16664   */\n      0x60\n        /* \"#utility.yul\":16651:16660   */\n      dup9\n        /* \"#utility.yul\":16647:16665   */\n      add\n        /* \"#utility.yul\":16634:16666   */\n      calldataload\n        /* \"#utility.yul\":16693:16711   */\n      0xffffffffffffffff\n        /* \"#utility.yul\":16685:16691   */\n      dup2\n        /* \"#utility.yul\":16682:16712   */\n      gt\n        /* \"#utility.yul\":16679:16796   */\n      iszero\n      tag_598\n      jumpi\n        /* \"#utility.yul\":16715:16794   */\n      tag_599\n      tag_323\n      jump\t// in\n    tag_599:\n        /* \"#utility.yul\":16679:16796   */\n    tag_598:\n        /* \"#utility.yul\":16820:16908   */\n      tag_600\n        /* \"#utility.yul\":16900:16907   */\n      dup11\n        /* \"#utility.yul\":16891:16897   */\n      dup3\n        /* \"#utility.yul\":16880:16889   */\n      dup12\n        /* \"#utility.yul\":16876:16898   */\n      add\n        /* \"#utility.yul\":16820:16908   */\n      tag_360\n      jump\t// in\n    tag_600:\n        /* \"#utility.yul\":16810:16908   */\n      swap5\n      pop\n        /* \"#utility.yul\":16605:16918   */\n      pop\n        /* \"#utility.yul\":16985:16988   */\n      0x80\n        /* \"#utility.yul\":16974:16983   */\n      dup9\n        /* \"#utility.yul\":16970:16989   */\n      add\n        /* \"#utility.yul\":16957:16990   */\n      calldataload\n        /* \"#utility.yul\":17017:17035   */\n      0xffffffffffffffff\n        /* \"#utility.yul\":17009:17015   */\n      dup2\n        /* \"#utility.yul\":17006:17036   */\n      gt\n        /* \"#utility.yul\":17003:17120   */\n      iszero\n      tag_601\n      jumpi\n        /* \"#utility.yul\":17039:17118   */\n      tag_602\n      tag_323\n      jump\t// in\n    tag_602:\n        /* \"#utility.yul\":17003:17120   */\n    tag_601:\n        /* \"#utility.yul\":17144:17207   */\n      tag_603\n        /* \"#utility.yul\":17199:17206   */\n      dup11\n        /* \"#utility.yul\":17190:17196   */\n      dup3\n        /* \"#utility.yul\":17179:17188   */\n      dup12\n        /* \"#utility.yul\":17175:17197   */\n      add\n        /* \"#utility.yul\":17144:17207   */\n      tag_347\n      jump\t// in\n    tag_603:\n        /* \"#utility.yul\":17134:17207   */\n      swap4\n      pop\n        /* \"#utility.yul\":16928:17217   */\n      pop\n        /* \"#utility.yul\":17256:17259   */\n      0xa0\n        /* \"#utility.yul\":17283:17336   */\n      tag_604\n        /* \"#utility.yul\":17328:17335   */\n      dup11\n        /* \"#utility.yul\":17319:17325   */\n      dup3\n        /* \"#utility.yul\":17308:17317   */\n      dup12\n        /* \"#utility.yul\":17304:17326   */\n      add\n        /* \"#utility.yul\":17283:17336   */\n      tag_326\n      jump\t// in\n    tag_604:\n        /* \"#utility.yul\":17273:17336   */\n      swap3\n      pop\n        /* \"#utility.yul\":17227:17346   */\n      pop\n        /* \"#utility.yul\":17385:17388   */\n      0xc0\n        /* \"#utility.yul\":17412:17465   */\n      tag_605\n        /* \"#utility.yul\":17457:17464   */\n      dup11\n        /* \"#utility.yul\":17448:17454   */\n      dup3\n        /* \"#utility.yul\":17437:17446   */\n      dup12\n        /* \"#utility.yul\":17433:17455   */\n      add\n        /* \"#utility.yul\":17412:17465   */\n      tag_326\n      jump\t// in\n    tag_605:\n        /* \"#utility.yul\":17402:17465   */\n      swap2\n      pop\n        /* \"#utility.yul\":17356:17475   */\n      pop\n        /* \"#utility.yul\":15331:17482   */\n      swap3\n      swap6\n      swap9\n      swap2\n      swap5\n      swap8\n      pop\n      swap3\n      swap6\n      pop\n      jump\t// out\n        /* \"#utility.yul\":17488:17669   */\n    tag_361:\n        /* \"#utility.yul\":17628:17661   */\n      0x596f7520686176656e2774206c696b6564207468697320766964656f21212100\n        /* \"#utility.yul\":17624:17625   */\n      0x00\n        /* \"#utility.yul\":17616:17622   */\n      dup3\n        /* \"#utility.yul\":17612:17626   */\n      add\n        /* \"#utility.yul\":17605:17662   */\n      mstore\n        /* \"#utility.yul\":17488:17669   */\n      pop\n      jump\t// out\n        /* \"#utility.yul\":17675:18041   */\n    tag_362:\n        /* \"#utility.yul\":17817:17820   */\n      0x00\n        /* \"#utility.yul\":17838:17905   */\n      tag_608\n        /* \"#utility.yul\":17902:17904   */\n      0x1f\n        /* \"#utility.yul\":17897:17900   */\n      dup4\n        /* \"#utility.yul\":17838:17905   */\n      tag_334\n      jump\t// in\n    tag_608:\n        /* \"#utility.yul\":17831:17905   */\n      swap2\n      pop\n        /* \"#utility.yul\":17914:18007   */\n      tag_609\n        /* \"#utility.yul\":18003:18006   */\n      dup3\n        /* \"#utility.yul\":17914:18007   */\n      tag_361\n      jump\t// in\n    tag_609:\n        /* \"#utility.yul\":18032:18034   */\n      0x20\n        /* \"#utility.yul\":18027:18030   */\n      dup3\n        /* \"#utility.yul\":18023:18035   */\n      add\n        /* \"#utility.yul\":18016:18035   */\n      swap1\n      pop\n        /* \"#utility.yul\":17675:18041   */\n      swap2\n      swap1\n      pop\n      jump\t// out\n        /* \"#utility.yul\":18047:18466   */\n    tag_111:\n        /* \"#utility.yul\":18213:18217   */\n      0x00\n        /* \"#utility.yul\":18251:18253   */\n      0x20\n        /* \"#utility.yul\":18240:18249   */\n      dup3\n        /* \"#utility.yul\":18236:18254   */\n      add\n        /* \"#utility.yul\":18228:18254   */\n      swap1\n      pop\n        /* \"#utility.yul\":18300:18309   */\n      dup2\n        /* \"#utility.yul\":18294:18298   */\n      dup2\n        /* \"#utility.yul\":18290:18310   */\n      sub\n        /* \"#utility.yul\":18286:18287   */\n      0x00\n        /* \"#utility.yul\":18275:18284   */\n      dup4\n        /* \"#utility.yul\":18271:18288   */\n      add\n        /* \"#utility.yul\":18264:18311   */\n      mstore\n        /* \"#utility.yul\":18328:18459   */\n      tag_611\n        /* \"#utility.yul\":18454:18458   */\n      dup2\n        /* \"#utility.yul\":18328:18459   */\n      tag_362\n      jump\t// in\n    tag_611:\n        /* \"#utility.yul\":18320:18459   */\n      swap1\n      pop\n        /* \"#utility.yul\":18047:18466   */\n      swap2\n      swap1\n      pop\n      jump\t// out\n        /* \"#utility.yul\":18472:18652   */\n    tag_363:\n        /* \"#utility.yul\":18520:18597   */\n      0x4e487b7100000000000000000000000000000000000000000000000000000000\n        /* \"#utility.yul\":18517:18518   */\n      0x00\n        /* \"#utility.yul\":18510:18598   */\n      mstore\n        /* \"#utility.yul\":18617:18621   */\n      0x11\n        /* \"#utility.yul\":18614:18615   */\n      0x04\n        /* \"#utility.yul\":18607:18622   */\n      mstore\n        /* \"#utility.yul\":18641:18645   */\n      0x24\n        /* \"#utility.yul\":18638:18639   */\n      0x00\n        /* \"#utility.yul\":18631:18646   */\n      revert\n        /* \"#utility.yul\":18658:18829   */\n    tag_113:\n        /* \"#utility.yul\":18697:18700   */\n      0x00\n        /* \"#utility.yul\":18720:18744   */\n      tag_614\n        /* \"#utility.yul\":18738:18743   */\n      dup3\n        /* \"#utility.yul\":18720:18744   */\n      tag_324\n      jump\t// in\n    tag_614:\n        /* \"#utility.yul\":18711:18744   */\n      swap2\n      pop\n        /* \"#utility.yul\":18766:18770   */\n      0x00\n        /* \"#utility.yul\":18759:18764   */\n      dup3\n        /* \"#utility.yul\":18756:18771   */\n      sub\n        /* \"#utility.yul\":18753:18794   */\n      tag_615\n      jumpi\n        /* \"#utility.yul\":18774:18792   */\n      tag_616\n      tag_363\n      jump\t// in\n    tag_616:\n        /* \"#utility.yul\":18753:18794   */\n    tag_615:\n        /* \"#utility.yul\":18821:18822   */\n      0x01\n        /* \"#utility.yul\":18814:18819   */\n      dup3\n        /* \"#utility.yul\":18810:18823   */\n      sub\n        /* \"#utility.yul\":18803:18823   */\n      swap1\n      pop\n        /* \"#utility.yul\":18658:18829   */\n      swap2\n      swap1\n      pop\n      jump\t// out\n        /* \"#utility.yul\":18835:19167   */\n    tag_115:\n        /* \"#utility.yul\":18956:18960   */\n      0x00\n        /* \"#utility.yul\":18994:18996   */\n      0x40\n        /* \"#utility.yul\":18983:18992   */\n      dup3\n        /* \"#utility.yul\":18979:18997   */\n      add\n        /* \"#utility.yul\":18971:18997   */\n      swap1\n      pop\n        /* \"#utility.yul\":19007:19078   */\n      tag_618\n        /* \"#utility.yul\":19075:19076   */\n      0x00\n        /* \"#utility.yul\":19064:19073   */\n      dup4\n        /* \"#utility.yul\":19060:19077   */\n      add\n        /* \"#utility.yul\":19051:19057   */\n      dup6\n        /* \"#utility.yul\":19007:19078   */\n      tag_338\n      jump\t// in\n    tag_618:\n        /* \"#utility.yul\":19088:19160   */\n      tag_619\n        /* \"#utility.yul\":19156:19158   */\n      0x20\n        /* \"#utility.yul\":19145:19154   */\n      dup4\n        /* \"#utility.yul\":19141:19159   */\n      add\n        /* \"#utility.yul\":19132:19138   */\n      dup5\n        /* \"#utility.yul\":19088:19160   */\n      tag_348\n      jump\t// in\n    tag_619:\n        /* \"#utility.yul\":18835:19167   */\n      swap4\n      swap3\n      pop\n      pop\n      pop\n      jump\t// out\n        /* \"#utility.yul\":19173:19398   */\n    tag_364:\n        /* \"#utility.yul\":19313:19347   */\n      0x54697020416d6f756e742068617320746f206265206772656174657220746861\n        /* \"#utility.yul\":19309:19310   */\n      0x00\n        /* \"#utility.yul\":19301:19307   */\n      dup3\n        /* \"#utility.yul\":19297:19311   */\n      add\n        /* \"#utility.yul\":19290:19348   */\n      mstore\n        /* \"#utility.yul\":19382:19390   */\n      0x6e207a65726f0000000000000000000000000000000000000000000000000000\n        /* \"#utility.yul\":19377:19379   */\n      0x20\n        /* \"#utility.yul\":19369:19375   */\n      dup3\n        /* \"#utility.yul\":19365:19380   */\n      add\n        /* \"#utility.yul\":19358:19391   */\n      mstore\n        /* \"#utility.yul\":19173:19398   */\n      pop\n      jump\t// out\n        /* \"#utility.yul\":19404:19770   */\n    tag_365:\n        /* \"#utility.yul\":19546:19549   */\n      0x00\n        /* \"#utility.yul\":19567:19634   */\n      tag_622\n        /* \"#utility.yul\":19631:19633   */\n      0x26\n        /* \"#utility.yul\":19626:19629   */\n      dup4\n        /* \"#utility.yul\":19567:19634   */\n      tag_334\n      jump\t// in\n    tag_622:\n        /* \"#utility.yul\":19560:19634   */\n      swap2\n      pop\n        /* \"#utility.yul\":19643:19736   */\n      tag_623\n        /* \"#utility.yul\":19732:19735   */\n      dup3\n        /* \"#utility.yul\":19643:19736   */\n      tag_364\n      jump\t// in\n    tag_623:\n        /* \"#utility.yul\":19761:19763   */\n      0x40\n        /* \"#utility.yul\":19756:19759   */\n      dup3\n        /* \"#utility.yul\":19752:19764   */\n      add\n        /* \"#utility.yul\":19745:19764   */\n      swap1\n      pop\n        /* \"#utility.yul\":19404:19770   */\n      swap2\n      swap1\n      pop\n      jump\t// out\n        /* \"#utility.yul\":19776:20195   */\n    tag_122:\n        /* \"#utility.yul\":19942:19946   */\n      0x00\n        /* \"#utility.yul\":19980:19982   */\n      0x20\n        /* \"#utility.yul\":19969:19978   */\n      dup3\n        /* \"#utility.yul\":19965:19983   */\n      add\n        /* \"#utility.yul\":19957:19983   */\n      swap1\n      pop\n        /* \"#utility.yul\":20029:20038   */\n      dup2\n        /* \"#utility.yul\":20023:20027   */\n      dup2\n        /* \"#utility.yul\":20019:20039   */\n      sub\n        /* \"#utility.yul\":20015:20016   */\n      0x00\n        /* \"#utility.yul\":20004:20013   */\n      dup4\n        /* \"#utility.yul\":20000:20017   */\n      add\n        /* \"#utility.yul\":19993:20040   */\n      mstore\n        /* \"#utility.yul\":20057:20188   */\n      tag_625\n        /* \"#utility.yul\":20183:20187   */\n      dup2\n        /* \"#utility.yul\":20057:20188   */\n      tag_365\n      jump\t// in\n    tag_625:\n        /* \"#utility.yul\":20049:20188   */\n      swap1\n      pop\n        /* \"#utility.yul\":19776:20195   */\n      swap2\n      swap1\n      pop\n      jump\t// out\n        /* \"#utility.yul\":20201:20611   */\n    tag_124:\n        /* \"#utility.yul\":20241:20248   */\n      0x00\n        /* \"#utility.yul\":20264:20284   */\n      tag_627\n        /* \"#utility.yul\":20282:20283   */\n      dup3\n        /* \"#utility.yul\":20264:20284   */\n      tag_324\n      jump\t// in\n    tag_627:\n        /* \"#utility.yul\":20259:20284   */\n      swap2\n      pop\n        /* \"#utility.yul\":20298:20318   */\n      tag_628\n        /* \"#utility.yul\":20316:20317   */\n      dup4\n        /* \"#utility.yul\":20298:20318   */\n      tag_324\n      jump\t// in\n    tag_628:\n        /* \"#utility.yul\":20293:20318   */\n      swap3\n      pop\n        /* \"#utility.yul\":20353:20354   */\n      dup3\n        /* \"#utility.yul\":20350:20351   */\n      dup3\n        /* \"#utility.yul\":20346:20355   */\n      mul\n        /* \"#utility.yul\":20375:20405   */\n      tag_629\n        /* \"#utility.yul\":20393:20404   */\n      dup2\n        /* \"#utility.yul\":20375:20405   */\n      tag_324\n      jump\t// in\n    tag_629:\n        /* \"#utility.yul\":20364:20405   */\n      swap2\n      pop\n        /* \"#utility.yul\":20554:20555   */\n      dup3\n        /* \"#utility.yul\":20545:20552   */\n      dup3\n        /* \"#utility.yul\":20541:20556   */\n      div\n        /* \"#utility.yul\":20538:20539   */\n      dup5\n        /* \"#utility.yul\":20535:20557   */\n      eq\n        /* \"#utility.yul\":20515:20516   */\n      dup4\n        /* \"#utility.yul\":20508:20517   */\n      iszero\n        /* \"#utility.yul\":20488:20571   */\n      or\n        /* \"#utility.yul\":20465:20604   */\n      tag_630\n      jumpi\n        /* \"#utility.yul\":20584:20602   */\n      tag_631\n      tag_363\n      jump\t// in\n    tag_631:\n        /* \"#utility.yul\":20465:20604   */\n    tag_630:\n        /* \"#utility.yul\":20249:20611   */\n      pop\n        /* \"#utility.yul\":20201:20611   */\n      swap3\n      swap2\n      pop\n      pop\n      jump\t// out\n        /* \"#utility.yul\":20617:20797   */\n    tag_366:\n        /* \"#utility.yul\":20665:20742   */\n      0x4e487b7100000000000000000000000000000000000000000000000000000000\n        /* \"#utility.yul\":20662:20663   */\n      0x00\n        /* \"#utility.yul\":20655:20743   */\n      mstore\n        /* \"#utility.yul\":20762:20766   */\n      0x12\n        /* \"#utility.yul\":20759:20760   */\n      0x04\n        /* \"#utility.yul\":20752:20767   */\n      mstore\n        /* \"#utility.yul\":20786:20790   */\n      0x24\n        /* \"#utility.yul\":20783:20784   */\n      0x00\n        /* \"#utility.yul\":20776:20791   */\n      revert\n        /* \"#utility.yul\":20803:20988   */\n    tag_126:\n        /* \"#utility.yul\":20843:20844   */\n      0x00\n        /* \"#utility.yul\":20860:20880   */\n      tag_634\n        /* \"#utility.yul\":20878:20879   */\n      dup3\n        /* \"#utility.yul\":20860:20880   */\n      tag_324\n      jump\t// in\n    tag_634:\n        /* \"#utility.yul\":20855:20880   */\n      swap2\n      pop\n        /* \"#utility.yul\":20894:20914   */\n      tag_635\n        /* \"#utility.yul\":20912:20913   */\n      dup4\n        /* \"#utility.yul\":20894:20914   */\n      tag_324\n      jump\t// in\n    tag_635:\n        /* \"#utility.yul\":20889:20914   */\n      swap3\n      pop\n        /* \"#utility.yul\":20933:20934   */\n      dup3\n        /* \"#utility.yul\":20923:20958   */\n      tag_636\n      jumpi\n        /* \"#utility.yul\":20938:20956   */\n      tag_637\n      tag_366\n      jump\t// in\n    tag_637:\n        /* \"#utility.yul\":20923:20958   */\n    tag_636:\n        /* \"#utility.yul\":20980:20981   */\n      dup3\n        /* \"#utility.yul\":20977:20978   */\n      dup3\n        /* \"#utility.yul\":20973:20982   */\n      div\n        /* \"#utility.yul\":20968:20982   */\n      swap1\n      pop\n        /* \"#utility.yul\":20803:20988   */\n      swap3\n      swap2\n      pop\n      pop\n      jump\t// out\n        /* \"#utility.yul\":20994:21188   */\n    tag_128:\n        /* \"#utility.yul\":21034:21038   */\n      0x00\n        /* \"#utility.yul\":21054:21074   */\n      tag_639\n        /* \"#utility.yul\":21072:21073   */\n      dup3\n        /* \"#utility.yul\":21054:21074   */\n      tag_324\n      jump\t// in\n    tag_639:\n        /* \"#utility.yul\":21049:21074   */\n      swap2\n      pop\n        /* \"#utility.yul\":21088:21108   */\n      tag_640\n        /* \"#utility.yul\":21106:21107   */\n      dup4\n        /* \"#utility.yul\":21088:21108   */\n      tag_324\n      jump\t// in\n    tag_640:\n        /* \"#utility.yul\":21083:21108   */\n      swap3\n      pop\n        /* \"#utility.yul\":21132:21133   */\n      dup3\n        /* \"#utility.yul\":21129:21130   */\n      dup3\n        /* \"#utility.yul\":21125:21134   */\n      sub\n        /* \"#utility.yul\":21117:21134   */\n      swap1\n      pop\n        /* \"#utility.yul\":21156:21157   */\n      dup2\n        /* \"#utility.yul\":21150:21154   */\n      dup2\n        /* \"#utility.yul\":21147:21158   */\n      gt\n        /* \"#utility.yul\":21144:21181   */\n      iszero\n      tag_641\n      jumpi\n        /* \"#utility.yul\":21161:21179   */\n      tag_642\n      tag_363\n      jump\t// in\n    tag_642:\n        /* \"#utility.yul\":21144:21181   */\n    tag_641:\n        /* \"#utility.yul\":20994:21188   */\n      swap3\n      swap2\n      pop\n      pop\n      jump\t// out\n        /* \"#utility.yul\":21194:21636   */\n    tag_130:\n        /* \"#utility.yul\":21343:21347   */\n      0x00\n        /* \"#utility.yul\":21381:21383   */\n      0x60\n        /* \"#utility.yul\":21370:21379   */\n      dup3\n        /* \"#utility.yul\":21366:21384   */\n      add\n        /* \"#utility.yul\":21358:21384   */\n      swap1\n      pop\n        /* \"#utility.yul\":21394:21465   */\n      tag_644\n        /* \"#utility.yul\":21462:21463   */\n      0x00\n        /* \"#utility.yul\":21451:21460   */\n      dup4\n        /* \"#utility.yul\":21447:21464   */\n      add\n        /* \"#utility.yul\":21438:21444   */\n      dup7\n        /* \"#utility.yul\":21394:21465   */\n      tag_348\n      jump\t// in\n    tag_644:\n        /* \"#utility.yul\":21475:21547   */\n      tag_645\n        /* \"#utility.yul\":21543:21545   */\n      0x20\n        /* \"#utility.yul\":21532:21541   */\n      dup4\n        /* \"#utility.yul\":21528:21546   */\n      add\n        /* \"#utility.yul\":21519:21525   */\n      dup6\n        /* \"#utility.yul\":21475:21547   */\n      tag_348\n      jump\t// in\n    tag_645:\n        /* \"#utility.yul\":21557:21629   */\n      tag_646\n        /* \"#utility.yul\":21625:21627   */\n      0x40\n        /* \"#utility.yul\":21614:21623   */\n      dup4\n        /* \"#utility.yul\":21610:21628   */\n      add\n        /* \"#utility.yul\":21601:21607   */\n      dup5\n        /* \"#utility.yul\":21557:21629   */\n      tag_338\n      jump\t// in\n    tag_646:\n        /* \"#utility.yul\":21194:21636   */\n      swap5\n      swap4\n      pop\n      pop\n      pop\n      pop\n      jump\t// out\n        /* \"#utility.yul\":21642:21758   */\n    tag_367:\n        /* \"#utility.yul\":21712:21733   */\n      tag_648\n        /* \"#utility.yul\":21727:21732   */\n      dup2\n        /* \"#utility.yul\":21712:21733   */\n      tag_331\n      jump\t// in\n    tag_648:\n        /* \"#utility.yul\":21705:21710   */\n      dup2\n        /* \"#utility.yul\":21702:21734   */\n      eq\n        /* \"#utility.yul\":21692:21752   */\n      tag_649\n      jumpi\n        /* \"#utility.yul\":21748:21749   */\n      0x00\n        /* \"#utility.yul\":21745:21746   */\n      dup1\n        /* \"#utility.yul\":21738:21750   */\n      revert\n        /* \"#utility.yul\":21692:21752   */\n    tag_649:\n        /* \"#utility.yul\":21642:21758   */\n      pop\n      jump\t// out\n        /* \"#utility.yul\":21764:21901   */\n    tag_368:\n        /* \"#utility.yul\":21818:21823   */\n      0x00\n        /* \"#utility.yul\":21849:21855   */\n      dup2\n        /* \"#utility.yul\":21843:21856   */\n      mload\n        /* \"#utility.yul\":21834:21856   */\n      swap1\n      pop\n        /* \"#utility.yul\":21865:21895   */\n      tag_651\n        /* \"#utility.yul\":21889:21894   */\n      dup2\n        /* \"#utility.yul\":21865:21895   */\n      tag_367\n      jump\t// in\n    tag_651:\n        /* \"#utility.yul\":21764:21901   */\n      swap3\n      swap2\n      pop\n      pop\n      jump\t// out\n        /* \"#utility.yul\":21907:22252   */\n    tag_134:\n        /* \"#utility.yul\":21974:21980   */\n      0x00\n        /* \"#utility.yul\":22023:22025   */\n      0x20\n        /* \"#utility.yul\":22011:22020   */\n      dup3\n        /* \"#utility.yul\":22002:22009   */\n      dup5\n        /* \"#utility.yul\":21998:22021   */\n      sub\n        /* \"#utility.yul\":21994:22026   */\n      slt\n        /* \"#utility.yul\":21991:22110   */\n      iszero\n      tag_653\n      jumpi\n        /* \"#utility.yul\":22029:22108   */\n      tag_654\n      tag_322\n      jump\t// in\n    tag_654:\n        /* \"#utility.yul\":21991:22110   */\n    tag_653:\n        /* \"#utility.yul\":22149:22150   */\n      0x00\n        /* \"#utility.yul\":22174:22235   */\n      tag_655\n        /* \"#utility.yul\":22227:22234   */\n      dup5\n        /* \"#utility.yul\":22218:22224   */\n      dup3\n        /* \"#utility.yul\":22207:22216   */\n      dup6\n        /* \"#utility.yul\":22203:22225   */\n      add\n        /* \"#utility.yul\":22174:22235   */\n      tag_368\n      jump\t// in\n    tag_655:\n        /* \"#utility.yul\":22164:22235   */\n      swap2\n      pop\n        /* \"#utility.yul\":22120:22245   */\n      pop\n        /* \"#utility.yul\":21907:22252   */\n      swap3\n      swap2\n      pop\n      pop\n      jump\t// out\n        /* \"#utility.yul\":22258:22419   */\n    tag_369:\n        /* \"#utility.yul\":22398:22411   */\n      0x546970206661696c656421000000000000000000000000000000000000000000\n        /* \"#utility.yul\":22394:22395   */\n      0x00\n        /* \"#utility.yul\":22386:22392   */\n      dup3\n        /* \"#utility.yul\":22382:22396   */\n      add\n        /* \"#utility.yul\":22375:22412   */\n      mstore\n        /* \"#utility.yul\":22258:22419   */\n      pop\n      jump\t// out\n        /* \"#utility.yul\":22425:22791   */\n    tag_370:\n        /* \"#utility.yul\":22567:22570   */\n      0x00\n        /* \"#utility.yul\":22588:22655   */\n      tag_658\n        /* \"#utility.yul\":22652:22654   */\n      0x0b\n        /* \"#utility.yul\":22647:22650   */\n      dup4\n        /* \"#utility.yul\":22588:22655   */\n      tag_334\n      jump\t// in\n    tag_658:\n        /* \"#utility.yul\":22581:22655   */\n      swap2\n      pop\n        /* \"#utility.yul\":22664:22757   */\n      tag_659\n        /* \"#utility.yul\":22753:22756   */\n      dup3\n        /* \"#utility.yul\":22664:22757   */\n      tag_369\n      jump\t// in\n    tag_659:\n        /* \"#utility.yul\":22782:22784   */\n      0x20\n        /* \"#utility.yul\":22777:22780   */\n      dup3\n        /* \"#utility.yul\":22773:22785   */\n      add\n        /* \"#utility.yul\":22766:22785   */\n      swap1\n      pop\n        /* \"#utility.yul\":22425:22791   */\n      swap2\n      swap1\n      pop\n      jump\t// out\n        /* \"#utility.yul\":22797:23216   */\n    tag_137:\n        /* \"#utility.yul\":22963:22967   */\n      0x00\n        /* \"#utility.yul\":23001:23003   */\n      0x20\n        /* \"#utility.yul\":22990:22999   */\n      dup3\n        /* \"#utility.yul\":22986:23004   */\n      add\n        /* \"#utility.yul\":22978:23004   */\n      swap1\n      pop\n        /* \"#utility.yul\":23050:23059   */\n      dup2\n        /* \"#utility.yul\":23044:23048   */\n      dup2\n        /* \"#utility.yul\":23040:23060   */\n      sub\n        /* \"#utility.yul\":23036:23037   */\n      0x00\n        /* \"#utility.yul\":23025:23034   */\n      dup4\n        /* \"#utility.yul\":23021:23038   */\n      add\n        /* \"#utility.yul\":23014:23061   */\n      mstore\n        /* \"#utility.yul\":23078:23209   */\n      tag_661\n        /* \"#utility.yul\":23204:23208   */\n      dup2\n        /* \"#utility.yul\":23078:23209   */\n      tag_370\n      jump\t// in\n    tag_661:\n        /* \"#utility.yul\":23070:23209   */\n      swap1\n      pop\n        /* \"#utility.yul\":22797:23216   */\n      swap2\n      swap1\n      pop\n      jump\t// out\n        /* \"#utility.yul\":23222:23392   */\n    tag_371:\n        /* \"#utility.yul\":23362:23384   */\n      0x506c6174666f726d20666565206661696c656421000000000000000000000000\n        /* \"#utility.yul\":23358:23359   */\n      0x00\n        /* \"#utility.yul\":23350:23356   */\n      dup3\n        /* \"#utility.yul\":23346:23360   */\n      add\n        /* \"#utility.yul\":23339:23385   */\n      mstore\n        /* \"#utility.yul\":23222:23392   */\n      pop\n      jump\t// out\n        /* \"#utility.yul\":23398:23764   */\n    tag_372:\n        /* \"#utility.yul\":23540:23543   */\n      0x00\n        /* \"#utility.yul\":23561:23628   */\n      tag_664\n        /* \"#utility.yul\":23625:23627   */\n      0x14\n        /* \"#utility.yul\":23620:23623   */\n      dup4\n        /* \"#utility.yul\":23561:23628   */\n      tag_334\n      jump\t// in\n    tag_664:\n        /* \"#utility.yul\":23554:23628   */\n      swap2\n      pop\n        /* \"#utility.yul\":23637:23730   */\n      tag_665\n        /* \"#utility.yul\":23726:23729   */\n      dup3\n        /* \"#utility.yul\":23637:23730   */\n      tag_371\n      jump\t// in\n    tag_665:\n        /* \"#utility.yul\":23755:23757   */\n      0x20\n        /* \"#utility.yul\":23750:23753   */\n      dup3\n        /* \"#utility.yul\":23746:23758   */\n      add\n        /* \"#utility.yul\":23739:23758   */\n      swap1\n      pop\n        /* \"#utility.yul\":23398:23764   */\n      swap2\n      swap1\n      pop\n      jump\t// out\n        /* \"#utility.yul\":23770:24189   */\n    tag_144:\n        /* \"#utility.yul\":23936:23940   */\n      0x00\n        /* \"#utility.yul\":23974:23976   */\n      0x20\n        /* \"#utility.yul\":23963:23972   */\n      dup3\n        /* \"#utility.yul\":23959:23977   */\n      add\n        /* \"#utility.yul\":23951:23977   */\n      swap1\n      pop\n        /* \"#utility.yul\":24023:24032   */\n      dup2\n        /* \"#utility.yul\":24017:24021   */\n      dup2\n        /* \"#utility.yul\":24013:24033   */\n      sub\n        /* \"#utility.yul\":24009:24010   */\n      0x00\n        /* \"#utility.yul\":23998:24007   */\n      dup4\n        /* \"#utility.yul\":23994:24011   */\n      add\n        /* \"#utility.yul\":23987:24034   */\n      mstore\n        /* \"#utility.yul\":24051:24182   */\n      tag_667\n        /* \"#utility.yul\":24177:24181   */\n      dup2\n        /* \"#utility.yul\":24051:24182   */\n      tag_372\n      jump\t// in\n    tag_667:\n        /* \"#utility.yul\":24043:24182   */\n      swap1\n      pop\n        /* \"#utility.yul\":23770:24189   */\n      swap2\n      swap1\n      pop\n      jump\t// out\n        /* \"#utility.yul\":24195:24386   */\n    tag_146:\n        /* \"#utility.yul\":24235:24238   */\n      0x00\n        /* \"#utility.yul\":24254:24274   */\n      tag_669\n        /* \"#utility.yul\":24272:24273   */\n      dup3\n        /* \"#utility.yul\":24254:24274   */\n      tag_324\n      jump\t// in\n    tag_669:\n        /* \"#utility.yul\":24249:24274   */\n      swap2\n      pop\n        /* \"#utility.yul\":24288:24308   */\n      tag_670\n        /* \"#utility.yul\":24306:24307   */\n      dup4\n        /* \"#utility.yul\":24288:24308   */\n      tag_324\n      jump\t// in\n    tag_670:\n        /* \"#utility.yul\":24283:24308   */\n      swap3\n      pop\n        /* \"#utility.yul\":24331:24332   */\n      dup3\n        /* \"#utility.yul\":24328:24329   */\n      dup3\n        /* \"#utility.yul\":24324:24333   */\n      add\n        /* \"#utility.yul\":24317:24333   */\n      swap1\n      pop\n        /* \"#utility.yul\":24352:24355   */\n      dup1\n        /* \"#utility.yul\":24349:24350   */\n      dup3\n        /* \"#utility.yul\":24346:24356   */\n      gt\n        /* \"#utility.yul\":24343:24379   */\n      iszero\n      tag_671\n      jumpi\n        /* \"#utility.yul\":24359:24377   */\n      tag_672\n      tag_363\n      jump\t// in\n    tag_672:\n        /* \"#utility.yul\":24343:24379   */\n    tag_671:\n        /* \"#utility.yul\":24195:24386   */\n      swap3\n      swap2\n      pop\n      pop\n      jump\t// out\n        /* \"#utility.yul\":24392:24834   */\n    tag_148:\n        /* \"#utility.yul\":24541:24545   */\n      0x00\n        /* \"#utility.yul\":24579:24581   */\n      0x60\n        /* \"#utility.yul\":24568:24577   */\n      dup3\n        /* \"#utility.yul\":24564:24582   */\n      add\n        /* \"#utility.yul\":24556:24582   */\n      swap1\n      pop\n        /* \"#utility.yul\":24592:24663   */\n      tag_674\n        /* \"#utility.yul\":24660:24661   */\n      0x00\n        /* \"#utility.yul\":24649:24658   */\n      dup4\n        /* \"#utility.yul\":24645:24662   */\n      add\n        /* \"#utility.yul\":24636:24642   */\n      dup7\n        /* \"#utility.yul\":24592:24663   */\n      tag_338\n      jump\t// in\n    tag_674:\n        /* \"#utility.yul\":24673:24745   */\n      tag_675\n        /* \"#utility.yul\":24741:24743   */\n      0x20\n        /* \"#utility.yul\":24730:24739   */\n      dup4\n        /* \"#utility.yul\":24726:24744   */\n      add\n        /* \"#utility.yul\":24717:24723   */\n      dup6\n        /* \"#utility.yul\":24673:24745   */\n      tag_348\n      jump\t// in\n    tag_675:\n        /* \"#utility.yul\":24755:24827   */\n      tag_676\n        /* \"#utility.yul\":24823:24825   */\n      0x40\n        /* \"#utility.yul\":24812:24821   */\n      dup4\n        /* \"#utility.yul\":24808:24826   */\n      add\n        /* \"#utility.yul\":24799:24805   */\n      dup5\n        /* \"#utility.yul\":24755:24827   */\n      tag_338\n      jump\t// in\n    tag_676:\n        /* \"#utility.yul\":24392:24834   */\n      swap5\n      swap4\n      pop\n      pop\n      pop\n      pop\n      jump\t// out\n        /* \"#utility.yul\":24840:25003   */\n    tag_373:\n        /* \"#utility.yul\":24980:24995   */\n      0x4163636573732064656e69656400000000000000000000000000000000000000\n        /* \"#utility.yul\":24976:24977   */\n      0x00\n        /* \"#utility.yul\":24968:24974   */\n      dup3\n        /* \"#utility.yul\":24964:24978   */\n      add\n        /* \"#utility.yul\":24957:24996   */\n      mstore\n        /* \"#utility.yul\":24840:25003   */\n      pop\n      jump\t// out\n        /* \"#utility.yul\":25009:25375   */\n    tag_374:\n        /* \"#utility.yul\":25151:25154   */\n      0x00\n        /* \"#utility.yul\":25172:25239   */\n      tag_679\n        /* \"#utility.yul\":25236:25238   */\n      0x0d\n        /* \"#utility.yul\":25231:25234   */\n      dup4\n        /* \"#utility.yul\":25172:25239   */\n      tag_334\n      jump\t// in\n    tag_679:\n        /* \"#utility.yul\":25165:25239   */\n      swap2\n      pop\n        /* \"#utility.yul\":25248:25341   */\n      tag_680\n        /* \"#utility.yul\":25337:25340   */\n      dup3\n        /* \"#utility.yul\":25248:25341   */\n      tag_373\n      jump\t// in\n    tag_680:\n        /* \"#utility.yul\":25366:25368   */\n      0x20\n        /* \"#utility.yul\":25361:25364   */\n      dup3\n        /* \"#utility.yul\":25357:25369   */\n      add\n        /* \"#utility.yul\":25350:25369   */\n      swap1\n      pop\n        /* \"#utility.yul\":25009:25375   */\n      swap2\n      swap1\n      pop\n      jump\t// out\n        /* \"#utility.yul\":25381:25800   */\n    tag_155:\n        /* \"#utility.yul\":25547:25551   */\n      0x00\n        /* \"#utility.yul\":25585:25587   */\n      0x20\n        /* \"#utility.yul\":25574:25583   */\n      dup3\n        /* \"#utility.yul\":25570:25588   */\n      add\n        /* \"#utility.yul\":25562:25588   */\n      swap1\n      pop\n        /* \"#utility.yul\":25634:25643   */\n      dup2\n        /* \"#utility.yul\":25628:25632   */\n      dup2\n        /* \"#utility.yul\":25624:25644   */\n      sub\n        /* \"#utility.yul\":25620:25621   */\n      0x00\n        /* \"#utility.yul\":25609:25618   */\n      dup4\n        /* \"#utility.yul\":25605:25622   */\n      add\n        /* \"#utility.yul\":25598:25645   */\n      mstore\n        /* \"#utility.yul\":25662:25793   */\n      tag_682\n        /* \"#utility.yul\":25788:25792   */\n      dup2\n        /* \"#utility.yul\":25662:25793   */\n      tag_374\n      jump\t// in\n    tag_682:\n        /* \"#utility.yul\":25654:25793   */\n      swap1\n      pop\n        /* \"#utility.yul\":25381:25800   */\n      swap2\n      swap1\n      pop\n      jump\t// out\n        /* \"#utility.yul\":25806:26029   */\n    tag_375:\n        /* \"#utility.yul\":25946:25980   */\n      0x596f75206861766520616c7265616479206c696b656420746869732076696465\n        /* \"#utility.yul\":25942:25943   */\n      0x00\n        /* \"#utility.yul\":25934:25940   */\n      dup3\n        /* \"#utility.yul\":25930:25944   */\n      add\n        /* \"#utility.yul\":25923:25981   */\n      mstore\n        /* \"#utility.yul\":26015:26021   */\n      0x6f21212100000000000000000000000000000000000000000000000000000000\n        /* \"#utility.yul\":26010:26012   */\n      0x20\n        /* \"#utility.yul\":26002:26008   */\n      dup3\n        /* \"#utility.yul\":25998:26013   */\n      add\n        /* \"#utility.yul\":25991:26022   */\n      mstore\n        /* \"#utility.yul\":25806:26029   */\n      pop\n      jump\t// out\n        /* \"#utility.yul\":26035:26401   */\n    tag_376:\n        /* \"#utility.yul\":26177:26180   */\n      0x00\n        /* \"#utility.yul\":26198:26265   */\n      tag_685\n        /* \"#utility.yul\":26262:26264   */\n      0x24\n        /* \"#utility.yul\":26257:26260   */\n      dup4\n        /* \"#utility.yul\":26198:26265   */\n      tag_334\n      jump\t// in\n    tag_685:\n        /* \"#utility.yul\":26191:26265   */\n      swap2\n      pop\n        /* \"#utility.yul\":26274:26367   */\n      tag_686\n        /* \"#utility.yul\":26363:26366   */\n      dup3\n        /* \"#utility.yul\":26274:26367   */\n      tag_375\n      jump\t// in\n    tag_686:\n        /* \"#utility.yul\":26392:26394   */\n      0x40\n        /* \"#utility.yul\":26387:26390   */\n      dup3\n        /* \"#utility.yul\":26383:26395   */\n      add\n        /* \"#utility.yul\":26376:26395   */\n      swap1\n      pop\n        /* \"#utility.yul\":26035:26401   */\n      swap2\n      swap1\n      pop\n      jump\t// out\n        /* \"#utility.yul\":26407:26826   */\n    tag_158:\n        /* \"#utility.yul\":26573:26577   */\n      0x00\n        /* \"#utility.yul\":26611:26613   */\n      0x20\n        /* \"#utility.yul\":26600:26609   */\n      dup3\n        /* \"#utility.yul\":26596:26614   */\n      add\n        /* \"#utility.yul\":26588:26614   */\n      swap1\n      pop\n        /* \"#utility.yul\":26660:26669   */\n      dup2\n        /* \"#utility.yul\":26654:26658   */\n      dup2\n        /* \"#utility.yul\":26650:26670   */\n      sub\n        /* \"#utility.yul\":26646:26647   */\n      0x00\n        /* \"#utility.yul\":26635:26644   */\n      dup4\n        /* \"#utility.yul\":26631:26648   */\n      add\n        /* \"#utility.yul\":26624:26671   */\n      mstore\n        /* \"#utility.yul\":26688:26819   */\n      tag_688\n        /* \"#utility.yul\":26814:26818   */\n      dup2\n        /* \"#utility.yul\":26688:26819   */\n      tag_376\n      jump\t// in\n    tag_688:\n        /* \"#utility.yul\":26680:26819   */\n      swap1\n      pop\n        /* \"#utility.yul\":26407:26826   */\n      swap2\n      swap1\n      pop\n      jump\t// out\n        /* \"#utility.yul\":26832:27065   */\n    tag_160:\n        /* \"#utility.yul\":26871:26874   */\n      0x00\n        /* \"#utility.yul\":26894:26918   */\n      tag_690\n        /* \"#utility.yul\":26912:26917   */\n      dup3\n        /* \"#utility.yul\":26894:26918   */\n      tag_324\n      jump\t// in\n    tag_690:\n        /* \"#utility.yul\":26885:26918   */\n      swap2\n      pop\n        /* \"#utility.yul\":26940:27006   */\n      0xffffffffffffffffffffffffffffffffffffffffffffffffffffffffffffffff\n        /* \"#utility.yul\":26933:26938   */\n      dup3\n        /* \"#utility.yul\":26930:27007   */\n      sub\n        /* \"#utility.yul\":26927:27030   */\n      tag_691\n      jumpi\n        /* \"#utility.yul\":27010:27028   */\n      tag_692\n      tag_363\n      jump\t// in\n    tag_692:\n        /* \"#utility.yul\":26927:27030   */\n    tag_691:\n        /* \"#utility.yul\":27057:27058   */\n      0x01\n        /* \"#utility.yul\":27050:27055   */\n      dup3\n        /* \"#utility.yul\":27046:27059   */\n      add\n        /* \"#utility.yul\":27039:27059   */\n      swap1\n      pop\n        /* \"#utility.yul\":26832:27065   */\n      swap2\n      swap1\n      pop\n      jump\t// out\n        /* \"#utility.yul\":27071:27251   */\n    tag_377:\n        /* \"#utility.yul\":27119:27196   */\n      0x4e487b7100000000000000000000000000000000000000000000000000000000\n        /* \"#utility.yul\":27116:27117   */\n      0x00\n        /* \"#utility.yul\":27109:27197   */\n      mstore\n        /* \"#utility.yul\":27216:27220   */\n      0x22\n        /* \"#utility.yul\":27213:27214   */\n      0x04\n        /* \"#utility.yul\":27206:27221   */\n      mstore\n        /* \"#utility.yul\":27240:27244   */\n      0x24\n        /* \"#utility.yul\":27237:27238   */\n      0x00\n        /* \"#utility.yul\":27230:27245   */\n      revert\n        /* \"#utility.yul\":27257:27577   */\n    tag_167:\n        /* \"#utility.yul\":27301:27307   */\n      0x00\n        /* \"#utility.yul\":27338:27339   */\n      0x02\n        /* \"#utility.yul\":27332:27336   */\n      dup3\n        /* \"#utility.yul\":27328:27340   */\n      div\n        /* \"#utility.yul\":27318:27340   */\n      swap1\n      pop\n        /* \"#utility.yul\":27385:27386   */\n      0x01\n        /* \"#utility.yul\":27379:27383   */\n      dup3\n        /* \"#utility.yul\":27375:27387   */\n      and\n        /* \"#utility.yul\":27406:27424   */\n      dup1\n        /* \"#utility.yul\":27396:27477   */\n      tag_695\n      jumpi\n        /* \"#utility.yul\":27462:27466   */\n      0x7f\n        /* \"#utility.yul\":27454:27460   */\n      dup3\n        /* \"#utility.yul\":27450:27467   */\n      and\n        /* \"#utility.yul\":27440:27467   */\n      swap2\n      pop\n        /* \"#utility.yul\":27396:27477   */\n    tag_695:\n        /* \"#utility.yul\":27524:27526   */\n      0x20\n        /* \"#utility.yul\":27516:27522   */\n      dup3\n        /* \"#utility.yul\":27513:27527   */\n      lt\n        /* \"#utility.yul\":27493:27511   */\n      dup2\n        /* \"#utility.yul\":27490:27528   */\n      sub\n        /* \"#utility.yul\":27487:27571   */\n      tag_696\n      jumpi\n        /* \"#utility.yul\":27543:27561   */\n      tag_697\n      tag_377\n      jump\t// in\n    tag_697:\n        /* \"#utility.yul\":27487:27571   */\n    tag_696:\n        /* \"#utility.yul\":27308:27577   */\n      pop\n        /* \"#utility.yul\":27257:27577   */\n      swap2\n      swap1\n      pop\n      jump\t// out\n        /* \"#utility.yul\":27583:27681   */\n    tag_378:\n        /* \"#utility.yul\":27634:27640   */\n      0x00\n        /* \"#utility.yul\":27668:27673   */\n      dup2\n        /* \"#utility.yul\":27662:27674   */\n      mload\n        /* \"#utility.yul\":27652:27674   */\n      swap1\n      pop\n        /* \"#utility.yul\":27583:27681   */\n      swap2\n      swap1\n      pop\n      jump\t// out\n        /* \"#utility.yul\":27687:27834   */\n    tag_379:\n        /* \"#utility.yul\":27788:27799   */\n      0x00\n        /* \"#utility.yul\":27825:27828   */\n      dup2\n        /* \"#utility.yul\":27810:27828   */\n      swap1\n      pop\n        /* \"#utility.yul\":27687:27834   */\n      swap3\n      swap2\n      pop\n      pop\n      jump\t// out\n        /* \"#utility.yul\":27840:28226   */\n    tag_380:\n        /* \"#utility.yul\":27944:27947   */\n      0x00\n        /* \"#utility.yul\":27972:28010   */\n      tag_701\n        /* \"#utility.yul\":28004:28009   */\n      dup3\n        /* \"#utility.yul\":27972:28010   */\n      tag_378\n      jump\t// in\n    tag_701:\n        /* \"#utility.yul\":28026:28114   */\n      tag_702\n        /* \"#utility.yul\":28107:28113   */\n      dup2\n        /* \"#utility.yul\":28102:28105   */\n      dup6\n        /* \"#utility.yul\":28026:28114   */\n      tag_379\n      jump\t// in\n    tag_702:\n        /* \"#utility.yul\":28019:28114   */\n      swap4\n      pop\n        /* \"#utility.yul\":28123:28188   */\n      tag_703\n        /* \"#utility.yul\":28181:28187   */\n      dup2\n        /* \"#utility.yul\":28176:28179   */\n      dup6\n        /* \"#utility.yul\":28169:28173   */\n      0x20\n        /* \"#utility.yul\":28162:28167   */\n      dup7\n        /* \"#utility.yul\":28158:28174   */\n      add\n        /* \"#utility.yul\":28123:28188   */\n      tag_335\n      jump\t// in\n    tag_703:\n        /* \"#utility.yul\":28213:28219   */\n      dup1\n        /* \"#utility.yul\":28208:28211   */\n      dup5\n        /* \"#utility.yul\":28204:28220   */\n      add\n        /* \"#utility.yul\":28197:28220   */\n      swap2\n      pop\n        /* \"#utility.yul\":27948:28226   */\n      pop\n        /* \"#utility.yul\":27840:28226   */\n      swap3\n      swap2\n      pop\n      pop\n      jump\t// out\n        /* \"#utility.yul\":28232:28503   */\n    tag_174:\n        /* \"#utility.yul\":28362:28365   */\n      0x00\n        /* \"#utility.yul\":28384:28477   */\n      tag_705\n        /* \"#utility.yul\":28473:28476   */\n      dup3\n        /* \"#utility.yul\":28464:28470   */\n      dup5\n        /* \"#utility.yul\":28384:28477   */\n      tag_380\n      jump\t// in\n    tag_705:\n        /* \"#utility.yul\":28377:28477   */\n      swap2\n      pop\n        /* \"#utility.yul\":28494:28497   */\n      dup2\n        /* \"#utility.yul\":28487:28497   */\n      swap1\n      pop\n        /* \"#utility.yul\":28232:28503   */\n      swap3\n      swap2\n      pop\n      pop\n      jump\t// out\n        /* \"#utility.yul\":28509:28678   */\n    tag_381:\n        /* \"#utility.yul\":28649:28670   */\n      0x4572726f72206665746368696e67206461746100000000000000000000000000\n        /* \"#utility.yul\":28645:28646   */\n      0x00\n        /* \"#utility.yul\":28637:28643   */\n      dup3\n        /* \"#utility.yul\":28633:28647   */\n      add\n        /* \"#utility.yul\":28626:28671   */\n      mstore\n        /* \"#utility.yul\":28509:28678   */\n      pop\n      jump\t// out\n        /* \"#utility.yul\":28684:29050   */\n    tag_382:\n        /* \"#utility.yul\":28826:28829   */\n      0x00\n        /* \"#utility.yul\":28847:28914   */\n      tag_708\n        /* \"#utility.yul\":28911:28913   */\n      0x13\n        /* \"#utility.yul\":28906:28909   */\n      dup4\n        /* \"#utility.yul\":28847:28914   */\n      tag_334\n      jump\t// in\n    tag_708:\n        /* \"#utility.yul\":28840:28914   */\n      swap2\n      pop\n        /* \"#utility.yul\":28923:29016   */\n      tag_709\n        /* \"#utility.yul\":29012:29015   */\n      dup3\n        /* \"#utility.yul\":28923:29016   */\n      tag_381\n      jump\t// in\n    tag_709:\n        /* \"#utility.yul\":29041:29043   */\n      0x20\n        /* \"#utility.yul\":29036:29039   */\n      dup3\n        /* \"#utility.yul\":29032:29044   */\n      add\n        /* \"#utility.yul\":29025:29044   */\n      swap1\n      pop\n        /* \"#utility.yul\":28684:29050   */\n      swap2\n      swap1\n      pop\n      jump\t// out\n        /* \"#utility.yul\":29056:29475   */\n    tag_180:\n        /* \"#utility.yul\":29222:29226   */\n      0x00\n        /* \"#utility.yul\":29260:29262   */\n      0x20\n        /* \"#utility.yul\":29249:29258   */\n      dup3\n        /* \"#utility.yul\":29245:29263   */\n      add\n        /* \"#utility.yul\":29237:29263   */\n      swap1\n      pop\n        /* \"#utility.yul\":29309:29318   */\n      dup2\n        /* \"#utility.yul\":29303:29307   */\n      dup2\n        /* \"#utility.yul\":29299:29319   */\n      sub\n        /* \"#utility.yul\":29295:29296   */\n      0x00\n        /* \"#utility.yul\":29284:29293   */\n      dup4\n        /* \"#utility.yul\":29280:29297   */\n      add\n        /* \"#utility.yul\":29273:29320   */\n      mstore\n        /* \"#utility.yul\":29337:29468   */\n      tag_711\n        /* \"#utility.yul\":29463:29467   */\n      dup2\n        /* \"#utility.yul\":29337:29468   */\n      tag_382\n      jump\t// in\n    tag_711:\n        /* \"#utility.yul\":29329:29468   */\n      swap1\n      pop\n        /* \"#utility.yul\":29056:29475   */\n      swap2\n      swap1\n      pop\n      jump\t// out\n        /* \"#utility.yul\":29481:29707   */\n    tag_383:\n        /* \"#utility.yul\":29621:29655   */\n      0x596f7520617265206e6f742074686520617574686f72206f6620746869732063\n        /* \"#utility.yul\":29617:29618   */\n      0x00\n        /* \"#utility.yul\":29609:29615   */\n      dup3\n        /* \"#utility.yul\":29605:29619   */\n      add\n        /* \"#utility.yul\":29598:29656   */\n      mstore\n        /* \"#utility.yul\":29690:29699   */\n      0x6f6d6d656e742100000000000000000000000000000000000000000000000000\n        /* \"#utility.yul\":29685:29687   */\n      0x20\n        /* \"#utility.yul\":29677:29683   */\n      dup3\n        /* \"#utility.yul\":29673:29688   */\n      add\n        /* \"#utility.yul\":29666:29700   */\n      mstore\n        /* \"#utility.yul\":29481:29707   */\n      pop\n      jump\t// out\n        /* \"#utility.yul\":29713:30079   */\n    tag_384:\n        /* \"#utility.yul\":29855:29858   */\n      0x00\n        /* \"#utility.yul\":29876:29943   */\n      tag_714\n        /* \"#utility.yul\":29940:29942   */\n      0x27\n        /* \"#utility.yul\":29935:29938   */\n      dup4\n        /* \"#utility.yul\":29876:29943   */\n      tag_334\n      jump\t// in\n    tag_714:\n        /* \"#utility.yul\":29869:29943   */\n      swap2\n      pop\n        /* \"#utility.yul\":29952:30045   */\n      tag_715\n        /* \"#utility.yul\":30041:30044   */\n      dup3\n        /* \"#utility.yul\":29952:30045   */\n      tag_383\n      jump\t// in\n    tag_715:\n        /* \"#utility.yul\":30070:30072   */\n      0x40\n        /* \"#utility.yul\":30065:30068   */\n      dup3\n        /* \"#utility.yul\":30061:30073   */\n      add\n        /* \"#utility.yul\":30054:30073   */\n      swap1\n      pop\n        /* \"#utility.yul\":29713:30079   */\n      swap2\n      swap1\n      pop\n      jump\t// out\n        /* \"#utility.yul\":30085:30504   */\n    tag_184:\n        /* \"#utility.yul\":30251:30255   */\n      0x00\n        /* \"#utility.yul\":30289:30291   */\n      0x20\n        /* \"#utility.yul\":30278:30287   */\n      dup3\n        /* \"#utility.yul\":30274:30292   */\n      add\n        /* \"#utility.yul\":30266:30292   */\n      swap1\n      pop\n        /* \"#utility.yul\":30338:30347   */\n      dup2\n        /* \"#utility.yul\":30332:30336   */\n      dup2\n        /* \"#utility.yul\":30328:30348   */\n      sub\n        /* \"#utility.yul\":30324:30325   */\n      0x00\n        /* \"#utility.yul\":30313:30322   */\n      dup4\n        /* \"#utility.yul\":30309:30326   */\n      add\n        /* \"#utility.yul\":30302:30349   */\n      mstore\n        /* \"#utility.yul\":30366:30497   */\n      tag_717\n        /* \"#utility.yul\":30492:30496   */\n      dup2\n        /* \"#utility.yul\":30366:30497   */\n      tag_384\n      jump\t// in\n    tag_717:\n        /* \"#utility.yul\":30358:30497   */\n      swap1\n      pop\n        /* \"#utility.yul\":30085:30504   */\n      swap2\n      swap1\n      pop\n      jump\t// out\n        /* \"#utility.yul\":30510:30952   */\n    tag_189:\n        /* \"#utility.yul\":30659:30663   */\n      0x00\n        /* \"#utility.yul\":30697:30699   */\n      0x60\n        /* \"#utility.yul\":30686:30695   */\n      dup3\n        /* \"#utility.yul\":30682:30700   */\n      add\n        /* \"#utility.yul\":30674:30700   */\n      swap1\n      pop\n        /* \"#utility.yul\":30710:30781   */\n      tag_719\n        /* \"#utility.yul\":30778:30779   */\n      0x00\n        /* \"#utility.yul\":30767:30776   */\n      dup4\n        /* \"#utility.yul\":30763:30780   */\n      add\n        /* \"#utility.yul\":30754:30760   */\n      dup7\n        /* \"#utility.yul\":30710:30781   */\n      tag_338\n      jump\t// in\n    tag_719:\n        /* \"#utility.yul\":30791:30863   */\n      tag_720\n        /* \"#utility.yul\":30859:30861   */\n      0x20\n        /* \"#utility.yul\":30848:30857   */\n      dup4\n        /* \"#utility.yul\":30844:30862   */\n      add\n        /* \"#utility.yul\":30835:30841   */\n      dup6\n        /* \"#utility.yul\":30791:30863   */\n      tag_338\n      jump\t// in\n    tag_720:\n        /* \"#utility.yul\":30873:30945   */\n      tag_721\n        /* \"#utility.yul\":30941:30943   */\n      0x40\n        /* \"#utility.yul\":30930:30939   */\n      dup4\n        /* \"#utility.yul\":30926:30944   */\n      add\n        /* \"#utility.yul\":30917:30923   */\n      dup5\n        /* \"#utility.yul\":30873:30945   */\n      tag_348\n      jump\t// in\n    tag_721:\n        /* \"#utility.yul\":30510:30952   */\n      swap5\n      swap4\n      pop\n      pop\n      pop\n      pop\n      jump\t// out\n        /* \"#utility.yul\":30958:31178   */\n    tag_385:\n        /* \"#utility.yul\":31098:31132   */\n      0x4e6f207469707320617661696c61626c6520666f72207769746864726177616c\n        /* \"#utility.yul\":31094:31095   */\n      0x00\n        /* \"#utility.yul\":31086:31092   */\n      dup3\n        /* \"#utility.yul\":31082:31096   */\n      add\n        /* \"#utility.yul\":31075:31133   */\n      mstore\n        /* \"#utility.yul\":31167:31170   */\n      0x2100000000000000000000000000000000000000000000000000000000000000\n        /* \"#utility.yul\":31162:31164   */\n      0x20\n        /* \"#utility.yul\":31154:31160   */\n      dup3\n        /* \"#utility.yul\":31150:31165   */\n      add\n        /* \"#utility.yul\":31143:31171   */\n      mstore\n        /* \"#utility.yul\":30958:31178   */\n      pop\n      jump\t// out\n        /* \"#utility.yul\":31184:31550   */\n    tag_386:\n        /* \"#utility.yul\":31326:31329   */\n      0x00\n        /* \"#utility.yul\":31347:31414   */\n      tag_724\n        /* \"#utility.yul\":31411:31413   */\n      0x21\n        /* \"#utility.yul\":31406:31409   */\n      dup4\n        /* \"#utility.yul\":31347:31414   */\n      tag_334\n      jump\t// in\n    tag_724:\n        /* \"#utility.yul\":31340:31414   */\n      swap2\n      pop\n        /* \"#utility.yul\":31423:31516   */\n      tag_725\n        /* \"#utility.yul\":31512:31515   */\n      dup3\n        /* \"#utility.yul\":31423:31516   */\n      tag_385\n      jump\t// in\n    tag_725:\n        /* \"#utility.yul\":31541:31543   */\n      0x40\n        /* \"#utility.yul\":31536:31539   */\n      dup3\n        /* \"#utility.yul\":31532:31544   */\n      add\n        /* \"#utility.yul\":31525:31544   */\n      swap1\n      pop\n        /* \"#utility.yul\":31184:31550   */\n      swap2\n      swap1\n      pop\n      jump\t// out\n        /* \"#utility.yul\":31556:31975   */\n    tag_201:\n        /* \"#utility.yul\":31722:31726   */\n      0x00\n        /* \"#utility.yul\":31760:31762   */\n      0x20\n        /* \"#utility.yul\":31749:31758   */\n      dup3\n        /* \"#utility.yul\":31745:31763   */\n      add\n        /* \"#utility.yul\":31737:31763   */\n      swap1\n      pop\n        /* \"#utility.yul\":31809:31818   */\n      dup2\n        /* \"#utility.yul\":31803:31807   */\n      dup2\n        /* \"#utility.yul\":31799:31819   */\n      sub\n        /* \"#utility.yul\":31795:31796   */\n      0x00\n        /* \"#utility.yul\":31784:31793   */\n      dup4\n        /* \"#utility.yul\":31780:31797   */\n      add\n        /* \"#utility.yul\":31773:31820   */\n      mstore\n        /* \"#utility.yul\":31837:31968   */\n      tag_727\n        /* \"#utility.yul\":31963:31967   */\n      dup2\n        /* \"#utility.yul\":31837:31968   */\n      tag_386\n      jump\t// in\n    tag_727:\n        /* \"#utility.yul\":31829:31968   */\n      swap1\n      pop\n        /* \"#utility.yul\":31556:31975   */\n      swap2\n      swap1\n      pop\n      jump\t// out\n        /* \"#utility.yul\":31981:32313   */\n    tag_203:\n        /* \"#utility.yul\":32102:32106   */\n      0x00\n        /* \"#utility.yul\":32140:32142   */\n      0x40\n        /* \"#utility.yul\":32129:32138   */\n      dup3\n        /* \"#utility.yul\":32125:32143   */\n      add\n        /* \"#utility.yul\":32117:32143   */\n      swap1\n      pop\n        /* \"#utility.yul\":32153:32224   */\n      tag_729\n        /* \"#utility.yul\":32221:32222   */\n      0x00\n        /* \"#utility.yul\":32210:32219   */\n      dup4\n        /* \"#utility.yul\":32206:32223   */\n      add\n        /* \"#utility.yul\":32197:32203   */\n      dup6\n        /* \"#utility.yul\":32153:32224   */\n      tag_348\n      jump\t// in\n    tag_729:\n        /* \"#utility.yul\":32234:32306   */\n      tag_730\n        /* \"#utility.yul\":32302:32304   */\n      0x20\n        /* \"#utility.yul\":32291:32300   */\n      dup4\n        /* \"#utility.yul\":32287:32305   */\n      add\n        /* \"#utility.yul\":32278:32284   */\n      dup5\n        /* \"#utility.yul\":32234:32306   */\n      tag_338\n      jump\t// in\n    tag_730:\n        /* \"#utility.yul\":31981:32313   */\n      swap4\n      swap3\n      pop\n      pop\n      pop\n      jump\t// out\n        /* \"#utility.yul\":32319:32487   */\n    tag_387:\n        /* \"#utility.yul\":32459:32479   */\n      0x5769746864726177616c206661696c6564210000000000000000000000000000\n        /* \"#utility.yul\":32455:32456   */\n      0x00\n        /* \"#utility.yul\":32447:32453   */\n      dup3\n        /* \"#utility.yul\":32443:32457   */\n      add\n        /* \"#utility.yul\":32436:32480   */\n      mstore\n        /* \"#utility.yul\":32319:32487   */\n      pop\n      jump\t// out\n        /* \"#utility.yul\":32493:32859   */\n    tag_388:\n        /* \"#utility.yul\":32635:32638   */\n      0x00\n        /* \"#utility.yul\":32656:32723   */\n      tag_733\n        /* \"#utility.yul\":32720:32722   */\n      0x12\n        /* \"#utility.yul\":32715:32718   */\n      dup4\n        /* \"#utility.yul\":32656:32723   */\n      tag_334\n      jump\t// in\n    tag_733:\n        /* \"#utility.yul\":32649:32723   */\n      swap2\n      pop\n        /* \"#utility.yul\":32732:32825   */\n      tag_734\n        /* \"#utility.yul\":32821:32824   */\n      dup3\n        /* \"#utility.yul\":32732:32825   */\n      tag_387\n      jump\t// in\n    tag_734:\n        /* \"#utility.yul\":32850:32852   */\n      0x20\n        /* \"#utility.yul\":32845:32848   */\n      dup3\n        /* \"#utility.yul\":32841:32853   */\n      add\n        /* \"#utility.yul\":32834:32853   */\n      swap1\n      pop\n        /* \"#utility.yul\":32493:32859   */\n      swap2\n      swap1\n      pop\n      jump\t// out\n        /* \"#utility.yul\":32865:33284   */\n    tag_209:\n        /* \"#utility.yul\":33031:33035   */\n      0x00\n        /* \"#utility.yul\":33069:33071   */\n      0x20\n        /* \"#utility.yul\":33058:33067   */\n      dup3\n        /* \"#utility.yul\":33054:33072   */\n      add\n        /* \"#utility.yul\":33046:33072   */\n      swap1\n      pop\n        /* \"#utility.yul\":33118:33127   */\n      dup2\n        /* \"#utility.yul\":33112:33116   */\n      dup2\n        /* \"#utility.yul\":33108:33128   */\n      sub\n        /* \"#utility.yul\":33104:33105   */\n      0x00\n        /* \"#utility.yul\":33093:33102   */\n      dup4\n        /* \"#utility.yul\":33089:33106   */\n      add\n        /* \"#utility.yul\":33082:33129   */\n      mstore\n        /* \"#utility.yul\":33146:33277   */\n      tag_736\n        /* \"#utility.yul\":33272:33276   */\n      dup2\n        /* \"#utility.yul\":33146:33277   */\n      tag_388\n      jump\t// in\n    tag_736:\n        /* \"#utility.yul\":33138:33277   */\n      swap1\n      pop\n        /* \"#utility.yul\":32865:33284   */\n      swap2\n      swap1\n      pop\n      jump\t// out\n        /* \"#utility.yul\":33290:33470   */\n    tag_389:\n        /* \"#utility.yul\":33430:33462   */\n      0x55706c6f6164657220686173206e6f2061636365737320666565207365740000\n        /* \"#utility.yul\":33426:33427   */\n      0x00\n        /* \"#utility.yul\":33418:33424   */\n      dup3\n        /* \"#utility.yul\":33414:33428   */\n      add\n        /* \"#utility.yul\":33407:33463   */\n      mstore\n        /* \"#utility.yul\":33290:33470   */\n      pop\n      jump\t// out\n        /* \"#utility.yul\":33476:33842   */\n    tag_390:\n        /* \"#utility.yul\":33618:33621   */\n      0x00\n        /* \"#utility.yul\":33639:33706   */\n      tag_739\n        /* \"#utility.yul\":33703:33705   */\n      0x1e\n        /* \"#utility.yul\":33698:33701   */\n      dup4\n        /* \"#utility.yul\":33639:33706   */\n      tag_334\n      jump\t// in\n    tag_739:\n        /* \"#utility.yul\":33632:33706   */\n      swap2\n      pop\n        /* \"#utility.yul\":33715:33808   */\n      tag_740\n        /* \"#utility.yul\":33804:33807   */\n      dup3\n        /* \"#utility.yul\":33715:33808   */\n      tag_389\n      jump\t// in\n    tag_740:\n        /* \"#utility.yul\":33833:33835   */\n      0x20\n        /* \"#utility.yul\":33828:33831   */\n      dup3\n        /* \"#utility.yul\":33824:33836   */\n      add\n        /* \"#utility.yul\":33817:33836   */\n      swap1\n      pop\n        /* \"#utility.yul\":33476:33842   */\n      swap2\n      swap1\n      pop\n      jump\t// out\n        /* \"#utility.yul\":33848:34267   */\n    tag_217:\n        /* \"#utility.yul\":34014:34018   */\n      0x00\n        /* \"#utility.yul\":34052:34054   */\n      0x20\n        /* \"#utility.yul\":34041:34050   */\n      dup3\n        /* \"#utility.yul\":34037:34055   */\n      add\n        /* \"#utility.yul\":34029:34055   */\n      swap1\n      pop\n        /* \"#utility.yul\":34101:34110   */\n      dup2\n        /* \"#utility.yul\":34095:34099   */\n      dup2\n        /* \"#utility.yul\":34091:34111   */\n      sub\n        /* \"#utility.yul\":34087:34088   */\n      0x00\n        /* \"#utility.yul\":34076:34085   */\n      dup4\n        /* \"#utility.yul\":34072:34089   */\n      add\n        /* \"#utility.yul\":34065:34112   */\n      mstore\n        /* \"#utility.yul\":34129:34260   */\n      tag_742\n        /* \"#utility.yul\":34255:34259   */\n      dup2\n        /* \"#utility.yul\":34129:34260   */\n      tag_390\n      jump\t// in\n    tag_742:\n        /* \"#utility.yul\":34121:34260   */\n      swap1\n      pop\n        /* \"#utility.yul\":33848:34267   */\n      swap2\n      swap1\n      pop\n      jump\t// out\n        /* \"#utility.yul\":34273:34445   */\n    tag_391:\n        /* \"#utility.yul\":34413:34437   */\n      0x41636365737320616c7265616479206772616e74656400000000000000000000\n        /* \"#utility.yul\":34409:34410   */\n      0x00\n        /* \"#utility.yul\":34401:34407   */\n      dup3\n        /* \"#utility.yul\":34397:34411   */\n      add\n        /* \"#utility.yul\":34390:34438   */\n      mstore\n        /* \"#utility.yul\":34273:34445   */\n      pop\n      jump\t// out\n        /* \"#utility.yul\":34451:34817   */\n    tag_392:\n        /* \"#utility.yul\":34593:34596   */\n      0x00\n        /* \"#utility.yul\":34614:34681   */\n      tag_745\n        /* \"#utility.yul\":34678:34680   */\n      0x16\n        /* \"#utility.yul\":34673:34676   */\n      dup4\n        /* \"#utility.yul\":34614:34681   */\n      tag_334\n      jump\t// in\n    tag_745:\n        /* \"#utility.yul\":34607:34681   */\n      swap2\n      pop\n        /* \"#utility.yul\":34690:34783   */\n      tag_746\n        /* \"#utility.yul\":34779:34782   */\n      dup3\n        /* \"#utility.yul\":34690:34783   */\n      tag_391\n      jump\t// in\n    tag_746:\n        /* \"#utility.yul\":34808:34810   */\n      0x20\n        /* \"#utility.yul\":34803:34806   */\n      dup3\n        /* \"#utility.yul\":34799:34811   */\n      add\n        /* \"#utility.yul\":34792:34811   */\n      swap1\n      pop\n        /* \"#utility.yul\":34451:34817   */\n      swap2\n      swap1\n      pop\n      jump\t// out\n        /* \"#utility.yul\":34823:35242   */\n    tag_220:\n        /* \"#utility.yul\":34989:34993   */\n      0x00\n        /* \"#utility.yul\":35027:35029   */\n      0x20\n        /* \"#utility.yul\":35016:35025   */\n      dup3\n        /* \"#utility.yul\":35012:35030   */\n      add\n        /* \"#utility.yul\":35004:35030   */\n      swap1\n      pop\n        /* \"#utility.yul\":35076:35085   */\n      dup2\n        /* \"#utility.yul\":35070:35074   */\n      dup2\n        /* \"#utility.yul\":35066:35086   */\n      sub\n        /* \"#utility.yul\":35062:35063   */\n      0x00\n        /* \"#utility.yul\":35051:35060   */\n      dup4\n        /* \"#utility.yul\":35047:35064   */\n      add\n        /* \"#utility.yul\":35040:35087   */\n      mstore\n        /* \"#utility.yul\":35104:35235   */\n      tag_748\n        /* \"#utility.yul\":35230:35234   */\n      dup2\n        /* \"#utility.yul\":35104:35235   */\n      tag_392\n      jump\t// in\n    tag_748:\n        /* \"#utility.yul\":35096:35235   */\n      swap1\n      pop\n        /* \"#utility.yul\":34823:35242   */\n      swap2\n      swap1\n      pop\n      jump\t// out\n        /* \"#utility.yul\":35248:35420   */\n    tag_393:\n        /* \"#utility.yul\":35388:35412   */\n      0x416363657373207061796d656e74206661696c65642100000000000000000000\n        /* \"#utility.yul\":35384:35385   */\n      0x00\n        /* \"#utility.yul\":35376:35382   */\n      dup3\n        /* \"#utility.yul\":35372:35386   */\n      add\n        /* \"#utility.yul\":35365:35413   */\n      mstore\n        /* \"#utility.yul\":35248:35420   */\n      pop\n      jump\t// out\n        /* \"#utility.yul\":35426:35792   */\n    tag_394:\n        /* \"#utility.yul\":35568:35571   */\n      0x00\n        /* \"#utility.yul\":35589:35656   */\n      tag_751\n        /* \"#utility.yul\":35653:35655   */\n      0x16\n        /* \"#utility.yul\":35648:35651   */\n      dup4\n        /* \"#utility.yul\":35589:35656   */\n      tag_334\n      jump\t// in\n    tag_751:\n        /* \"#utility.yul\":35582:35656   */\n      swap2\n      pop\n        /* \"#utility.yul\":35665:35758   */\n      tag_752\n        /* \"#utility.yul\":35754:35757   */\n      dup3\n        /* \"#utility.yul\":35665:35758   */\n      tag_393\n      jump\t// in\n    tag_752:\n        /* \"#utility.yul\":35783:35785   */\n      0x20\n        /* \"#utility.yul\":35778:35781   */\n      dup3\n        /* \"#utility.yul\":35774:35786   */\n      add\n        /* \"#utility.yul\":35767:35786   */\n      swap1\n      pop\n        /* \"#utility.yul\":35426:35792   */\n      swap2\n      swap1\n      pop\n      jump\t// out\n        /* \"#utility.yul\":35798:36217   */\n    tag_230:\n        /* \"#utility.yul\":35964:35968   */\n      0x00\n        /* \"#utility.yul\":36002:36004   */\n      0x20\n        /* \"#utility.yul\":35991:36000   */\n      dup3\n        /* \"#utility.yul\":35987:36005   */\n      add\n        /* \"#utility.yul\":35979:36005   */\n      swap1\n      pop\n        /* \"#utility.yul\":36051:36060   */\n      dup2\n        /* \"#utility.yul\":36045:36049   */\n      dup2\n        /* \"#utility.yul\":36041:36061   */\n      sub\n        /* \"#utility.yul\":36037:36038   */\n      0x00\n        /* \"#utility.yul\":36026:36035   */\n      dup4\n        /* \"#utility.yul\":36022:36039   */\n      add\n        /* \"#utility.yul\":36015:36062   */\n      mstore\n        /* \"#utility.yul\":36079:36210   */\n      tag_754\n        /* \"#utility.yul\":36205:36209   */\n      dup2\n        /* \"#utility.yul\":36079:36210   */\n      tag_394\n      jump\t// in\n    tag_754:\n        /* \"#utility.yul\":36071:36210   */\n      swap1\n      pop\n        /* \"#utility.yul\":35798:36217   */\n      swap2\n      swap1\n      pop\n      jump\t// out\n        /* \"#utility.yul\":36223:36402   */\n    tag_395:\n        /* \"#utility.yul\":36363:36394   */\n      0x506c6174666f726d20666565207472616e73666572206661696c656421000000\n        /* \"#utility.yul\":36359:36360   */\n      0x00\n        /* \"#utility.yul\":36351:36357   */\n      dup3\n        /* \"#utility.yul\":36347:36361   */\n      add\n        /* \"#utility.yul\":36340:36395   */\n      mstore\n        /* \"#utility.yul\":36223:36402   */\n      pop\n      jump\t// out\n        /* \"#utility.yul\":36408:36774   */\n    tag_396:\n        /* \"#utility.yul\":36550:36553   */\n      0x00\n        /* \"#utility.yul\":36571:36638   */\n      tag_757\n        /* \"#utility.yul\":36635:36637   */\n      0x1d\n        /* \"#utility.yul\":36630:36633   */\n      dup4\n        /* \"#utility.yul\":36571:36638   */\n      tag_334\n      jump\t// in\n    tag_757:\n        /* \"#utility.yul\":36564:36638   */\n      swap2\n      pop\n        /* \"#utility.yul\":36647:36740   */\n      tag_758\n        /* \"#utility.yul\":36736:36739   */\n      dup3\n        /* \"#utility.yul\":36647:36740   */\n      tag_395\n      jump\t// in\n    tag_758:\n        /* \"#utility.yul\":36765:36767   */\n      0x20\n        /* \"#utility.yul\":36760:36763   */\n      dup3\n        /* \"#utility.yul\":36756:36768   */\n      add\n        /* \"#utility.yul\":36749:36768   */\n      swap1\n      pop\n        /* \"#utility.yul\":36408:36774   */\n      swap2\n      swap1\n      pop\n      jump\t// out\n        /* \"#utility.yul\":36780:37199   */\n    tag_237:\n        /* \"#utility.yul\":36946:36950   */\n      0x00\n        /* \"#utility.yul\":36984:36986   */\n      0x20\n        /* \"#utility.yul\":36973:36982   */\n      dup3\n        /* \"#utility.yul\":36969:36987   */\n      add\n        /* \"#utility.yul\":36961:36987   */\n      swap1\n      pop\n        /* \"#utility.yul\":37033:37042   */\n      dup2\n        /* \"#utility.yul\":37027:37031   */\n      dup2\n        /* \"#utility.yul\":37023:37043   */\n      sub\n        /* \"#utility.yul\":37019:37020   */\n      0x00\n        /* \"#utility.yul\":37008:37017   */\n      dup4\n        /* \"#utility.yul\":37004:37021   */\n      add\n        /* \"#utility.yul\":36997:37044   */\n      mstore\n        /* \"#utility.yul\":37061:37192   */\n      tag_760\n        /* \"#utility.yul\":37187:37191   */\n      dup2\n        /* \"#utility.yul\":37061:37192   */\n      tag_396\n      jump\t// in\n    tag_760:\n        /* \"#utility.yul\":37053:37192   */\n      swap1\n      pop\n        /* \"#utility.yul\":36780:37199   */\n      swap2\n      swap1\n      pop\n      jump\t// out\n        /* \"#utility.yul\":37205:37537   */\n    tag_239:\n        /* \"#utility.yul\":37326:37330   */\n      0x00\n        /* \"#utility.yul\":37364:37366   */\n      0x40\n        /* \"#utility.yul\":37353:37362   */\n      dup3\n        /* \"#utility.yul\":37349:37367   */\n      add\n        /* \"#utility.yul\":37341:37367   */\n      swap1\n      pop\n        /* \"#utility.yul\":37377:37448   */\n      tag_762\n        /* \"#utility.yul\":37445:37446   */\n      0x00\n        /* \"#utility.yul\":37434:37443   */\n      dup4\n        /* \"#utility.yul\":37430:37447   */\n      add\n        /* \"#utility.yul\":37421:37427   */\n      dup6\n        /* \"#utility.yul\":37377:37448   */\n      tag_348\n      jump\t// in\n    tag_762:\n        /* \"#utility.yul\":37458:37530   */\n      tag_763\n        /* \"#utility.yul\":37526:37528   */\n      0x20\n        /* \"#utility.yul\":37515:37524   */\n      dup4\n        /* \"#utility.yul\":37511:37529   */\n      add\n        /* \"#utility.yul\":37502:37508   */\n      dup5\n        /* \"#utility.yul\":37458:37530   */\n      tag_348\n      jump\t// in\n    tag_763:\n        /* \"#utility.yul\":37205:37537   */\n      swap4\n      swap3\n      pop\n      pop\n      pop\n      jump\t// out\n        /* \"#utility.yul\":37543:37684   */\n    tag_397:\n        /* \"#utility.yul\":37592:37596   */\n      0x00\n        /* \"#utility.yul\":37615:37618   */\n      dup2\n        /* \"#utility.yul\":37607:37618   */\n      swap1\n      pop\n        /* \"#utility.yul\":37638:37641   */\n      dup2\n        /* \"#utility.yul\":37635:37636   */\n      0x00\n        /* \"#utility.yul\":37628:37642   */\n      mstore\n        /* \"#utility.yul\":37672:37676   */\n      0x20\n        /* \"#utility.yul\":37669:37670   */\n      0x00\n        /* \"#utility.yul\":37659:37677   */\n      keccak256\n        /* \"#utility.yul\":37651:37677   */\n      swap1\n      pop\n        /* \"#utility.yul\":37543:37684   */\n      swap2\n      swap1\n      pop\n      jump\t// out\n        /* \"#utility.yul\":37690:37783   */\n    tag_398:\n        /* \"#utility.yul\":37727:37733   */\n      0x00\n        /* \"#utility.yul\":37774:37776   */\n      0x20\n        /* \"#utility.yul\":37769:37771   */\n      0x1f\n        /* \"#utility.yul\":37762:37767   */\n      dup4\n        /* \"#utility.yul\":37758:37772   */\n      add\n        /* \"#utility.yul\":37754:37777   */\n      div\n        /* \"#utility.yul\":37744:37777   */\n      swap1\n      pop\n        /* \"#utility.yul\":37690:37783   */\n      swap2\n      swap1\n      pop\n      jump\t// out\n        /* \"#utility.yul\":37789:37896   */\n    tag_399:\n        /* \"#utility.yul\":37833:37841   */\n      0x00\n        /* \"#utility.yul\":37883:37888   */\n      dup3\n        /* \"#utility.yul\":37877:37881   */\n      dup3\n        /* \"#utility.yul\":37873:37889   */\n      shl\n        /* \"#utility.yul\":37852:37889   */\n      swap1\n      pop\n        /* \"#utility.yul\":37789:37896   */\n      swap3\n      swap2\n      pop\n      pop\n      jump\t// out\n        /* \"#utility.yul\":37902:38295   */\n    tag_400:\n        /* \"#utility.yul\":37971:37977   */\n      0x00\n        /* \"#utility.yul\":38021:38022   */\n      0x08\n        /* \"#utility.yul\":38009:38019   */\n      dup4\n        /* \"#utility.yul\":38005:38023   */\n      mul\n        /* \"#utility.yul\":38044:38141   */\n      tag_768\n        /* \"#utility.yul\":38074:38140   */\n      0xffffffffffffffffffffffffffffffffffffffffffffffffffffffffffffffff\n        /* \"#utility.yul\":38063:38072   */\n      dup3\n        /* \"#utility.yul\":38044:38141   */\n      tag_399\n      jump\t// in\n    tag_768:\n        /* \"#utility.yul\":38162:38201   */\n      tag_769\n        /* \"#utility.yul\":38192:38200   */\n      dup7\n        /* \"#utility.yul\":38181:38190   */\n      dup4\n        /* \"#utility.yul\":38162:38201   */\n      tag_399\n      jump\t// in\n    tag_769:\n        /* \"#utility.yul\":38150:38201   */\n      swap6\n      pop\n        /* \"#utility.yul\":38234:38238   */\n      dup1\n        /* \"#utility.yul\":38230:38239   */\n      not\n        /* \"#utility.yul\":38223:38228   */\n      dup5\n        /* \"#utility.yul\":38219:38240   */\n      and\n        /* \"#utility.yul\":38210:38240   */\n      swap4\n      pop\n        /* \"#utility.yul\":38283:38287   */\n      dup1\n        /* \"#utility.yul\":38273:38281   */\n      dup7\n        /* \"#utility.yul\":38269:38288   */\n      and\n        /* \"#utility.yul\":38262:38267   */\n      dup5\n        /* \"#utility.yul\":38259:38289   */\n      or\n        /* \"#utility.yul\":38249:38289   */\n      swap3\n      pop\n        /* \"#utility.yul\":37978:38295   */\n      pop\n      pop\n        /* \"#utility.yul\":37902:38295   */\n      swap4\n      swap3\n      pop\n      pop\n      pop\n      jump\t// out\n        /* \"#utility.yul\":38301:38443   */\n    tag_401:\n        /* \"#utility.yul\":38351:38360   */\n      0x00\n        /* \"#utility.yul\":38384:38437   */\n      tag_771\n        /* \"#utility.yul\":38402:38436   */\n      tag_772\n        /* \"#utility.yul\":38411:38435   */\n      tag_773\n        /* \"#utility.yul\":38429:38434   */\n      dup5\n        /* \"#utility.yul\":38411:38435   */\n      tag_324\n      jump\t// in\n    tag_773:\n        /* \"#utility.yul\":38402:38436   */\n      tag_349\n      jump\t// in\n    tag_772:\n        /* \"#utility.yul\":38384:38437   */\n      tag_324\n      jump\t// in\n    tag_771:\n        /* \"#utility.yul\":38371:38437   */\n      swap1\n      pop\n        /* \"#utility.yul\":38301:38443   */\n      swap2\n      swap1\n      pop\n      jump\t// out\n        /* \"#utility.yul\":38449:38524   */\n    tag_402:\n        /* \"#utility.yul\":38492:38495   */\n      0x00\n        /* \"#utility.yul\":38513:38518   */\n      dup2\n        /* \"#utility.yul\":38506:38518   */\n      swap1\n      pop\n        /* \"#utility.yul\":38449:38524   */\n      swap2\n      swap1\n      pop\n      jump\t// out\n        /* \"#utility.yul\":38530:38799   */\n    tag_403:\n        /* \"#utility.yul\":38640:38679   */\n      tag_776\n        /* \"#utility.yul\":38671:38678   */\n      dup4\n        /* \"#utility.yul\":38640:38679   */\n      tag_401\n      jump\t// in\n    tag_776:\n        /* \"#utility.yul\":38701:38792   */\n      tag_777\n        /* \"#utility.yul\":38750:38791   */\n      tag_778\n        /* \"#utility.yul\":38774:38790   */\n      dup3\n        /* \"#utility.yul\":38750:38791   */\n      tag_402\n      jump\t// in\n    tag_778:\n        /* \"#utility.yul\":38742:38748   */\n      dup5\n        /* \"#utility.yul\":38735:38739   */\n      dup5\n        /* \"#utility.yul\":38729:38740   */\n      sload\n        /* \"#utility.yul\":38701:38792   */\n      tag_400\n      jump\t// in\n    tag_777:\n        /* \"#utility.yul\":38695:38699   */\n      dup3\n        /* \"#utility.yul\":38688:38793   */\n      sstore\n        /* \"#utility.yul\":38606:38799   */\n      pop\n        /* \"#utility.yul\":38530:38799   */\n      pop\n      pop\n      pop\n      jump\t// out\n        /* \"#utility.yul\":38805:38878   */\n    tag_404:\n        /* \"#utility.yul\":38850:38853   */\n      0x00\n        /* \"#utility.yul\":38805:38878   */\n      swap1\n      jump\t// out\n        /* \"#utility.yul\":38884:39073   */\n    tag_405:\n        /* \"#utility.yul\":38961:38993   */\n      tag_781\n      tag_404\n      jump\t// in\n    tag_781:\n        /* \"#utility.yul\":39002:39067   */\n      tag_782\n        /* \"#utility.yul\":39060:39066   */\n      dup2\n        /* \"#utility.yul\":39052:39058   */\n      dup5\n        /* \"#utility.yul\":39046:39050   */\n      dup5\n        /* \"#utility.yul\":39002:39067   */\n      tag_403\n      jump\t// in\n    tag_782:\n        /* \"#utility.yul\":38937:39073   */\n      pop\n        /* \"#utility.yul\":38884:39073   */\n      pop\n      pop\n      jump\t// out\n        /* \"#utility.yul\":39079:39265   */\n    tag_406:\n        /* \"#utility.yul\":39139:39259   */\n    tag_784:\n        /* \"#utility.yul\":39156:39159   */\n      dup2\n        /* \"#utility.yul\":39149:39154   */\n      dup2\n        /* \"#utility.yul\":39146:39160   */\n      lt\n        /* \"#utility.yul\":39139:39259   */\n      iszero\n      tag_786\n      jumpi\n        /* \"#utility.yul\":39210:39249   */\n      tag_787\n        /* \"#utility.yul\":39247:39248   */\n      0x00\n        /* \"#utility.yul\":39240:39245   */\n      dup3\n        /* \"#utility.yul\":39210:39249   */\n      tag_405\n      jump\t// in\n    tag_787:\n        /* \"#utility.yul\":39183:39184   */\n      0x01\n        /* \"#utility.yul\":39176:39181   */\n      dup2\n        /* \"#utility.yul\":39172:39185   */\n      add\n        /* \"#utility.yul\":39163:39185   */\n      swap1\n      pop\n        /* \"#utility.yul\":39139:39259   */\n      jump(tag_784)\n    tag_786:\n        /* \"#utility.yul\":39079:39265   */\n      pop\n      pop\n      jump\t// out\n        /* \"#utility.yul\":39271:39814   */\n    tag_407:\n        /* \"#utility.yul\":39372:39374   */\n      0x1f\n        /* \"#utility.yul\":39367:39370   */\n      dup3\n        /* \"#utility.yul\":39364:39375   */\n      gt\n        /* \"#utility.yul\":39361:39807   */\n      iszero\n      tag_789\n      jumpi\n        /* \"#utility.yul\":39406:39444   */\n      tag_790\n        /* \"#utility.yul\":39438:39443   */\n      dup2\n        /* \"#utility.yul\":39406:39444   */\n      tag_397\n      jump\t// in\n    tag_790:\n        /* \"#utility.yul\":39490:39519   */\n      tag_791\n        /* \"#utility.yul\":39508:39518   */\n      dup5\n        /* \"#utility.yul\":39490:39519   */\n      tag_398\n      jump\t// in\n    tag_791:\n        /* \"#utility.yul\":39480:39488   */\n      dup2\n        /* \"#utility.yul\":39476:39520   */\n      add\n        /* \"#utility.yul\":39673:39675   */\n      0x20\n        /* \"#utility.yul\":39661:39671   */\n      dup6\n        /* \"#utility.yul\":39658:39676   */\n      lt\n        /* \"#utility.yul\":39655:39704   */\n      iszero\n      tag_792\n      jumpi\n        /* \"#utility.yul\":39694:39702   */\n      dup2\n        /* \"#utility.yul\":39679:39702   */\n      swap1\n      pop\n        /* \"#utility.yul\":39655:39704   */\n    tag_792:\n        /* \"#utility.yul\":39717:39797   */\n      tag_793\n        /* \"#utility.yul\":39773:39795   */\n      tag_794\n        /* \"#utility.yul\":39791:39794   */\n      dup6\n        /* \"#utility.yul\":39773:39795   */\n      tag_398\n      jump\t// in\n    tag_794:\n        /* \"#utility.yul\":39763:39771   */\n      dup4\n        /* \"#utility.yul\":39759:39796   */\n      add\n        /* \"#utility.yul\":39746:39757   */\n      dup3\n        /* \"#utility.yul\":39717:39797   */\n      tag_406\n      jump\t// in\n    tag_793:\n        /* \"#utility.yul\":39376:39807   */\n      pop\n      pop\n        /* \"#utility.yul\":39361:39807   */\n    tag_789:\n        /* \"#utility.yul\":39271:39814   */\n      pop\n      pop\n      pop\n      jump\t// out\n        /* \"#utility.yul\":39820:39937   */\n    tag_408:\n        /* \"#utility.yul\":39874:39882   */\n      0x00\n        /* \"#utility.yul\":39924:39929   */\n      dup3\n        /* \"#utility.yul\":39918:39922   */\n      dup3\n        /* \"#utility.yul\":39914:39930   */\n      shr\n        /* \"#utility.yul\":39893:39930   */\n      swap1\n      pop\n        /* \"#utility.yul\":39820:39937   */\n      swap3\n      swap2\n      pop\n      pop\n      jump\t// out\n        /* \"#utility.yul\":39943:40112   */\n    tag_409:\n        /* \"#utility.yul\":39987:39993   */\n      0x00\n        /* \"#utility.yul\":40020:40071   */\n      tag_797\n        /* \"#utility.yul\":40068:40069   */\n      0x00\n        /* \"#utility.yul\":40064:40070   */\n      not\n        /* \"#utility.yul\":40056:40061   */\n      dup5\n        /* \"#utility.yul\":40053:40054   */\n      0x08\n        /* \"#utility.yul\":40049:40062   */\n      mul\n        /* \"#utility.yul\":40020:40071   */\n      tag_408\n      jump\t// in\n    tag_797:\n        /* \"#utility.yul\":40016:40072   */\n      not\n        /* \"#utility.yul\":40101:40105   */\n      dup1\n        /* \"#utility.yul\":40095:40099   */\n      dup4\n        /* \"#utility.yul\":40091:40106   */\n      and\n        /* \"#utility.yul\":40081:40106   */\n      swap2\n      pop\n        /* \"#utility.yul\":39994:40112   */\n      pop\n        /* \"#utility.yul\":39943:40112   */\n      swap3\n      swap2\n      pop\n      pop\n      jump\t// out\n        /* \"#utility.yul\":40117:40412   */\n    tag_410:\n        /* \"#utility.yul\":40193:40197   */\n      0x00\n        /* \"#utility.yul\":40339:40368   */\n      tag_799\n        /* \"#utility.yul\":40364:40367   */\n      dup4\n        /* \"#utility.yul\":40358:40362   */\n      dup4\n        /* \"#utility.yul\":40339:40368   */\n      tag_409\n      jump\t// in\n    tag_799:\n        /* \"#utility.yul\":40331:40368   */\n      swap2\n      pop\n        /* \"#utility.yul\":40401:40404   */\n      dup3\n        /* \"#utility.yul\":40398:40399   */\n      0x02\n        /* \"#utility.yul\":40394:40405   */\n      mul\n        /* \"#utility.yul\":40388:40392   */\n      dup3\n        /* \"#utility.yul\":40385:40406   */\n      or\n        /* \"#utility.yul\":40377:40406   */\n      swap1\n      pop\n        /* \"#utility.yul\":40117:40412   */\n      swap3\n      swap2\n      pop\n      pop\n      jump\t// out\n        /* \"#utility.yul\":40417:41812   */\n    tag_247:\n        /* \"#utility.yul\":40534:40571   */\n      tag_801\n        /* \"#utility.yul\":40567:40570   */\n      dup3\n        /* \"#utility.yul\":40534:40571   */\n      tag_333\n      jump\t// in\n    tag_801:\n        /* \"#utility.yul\":40636:40654   */\n      0xffffffffffffffff\n        /* \"#utility.yul\":40628:40634   */\n      dup2\n        /* \"#utility.yul\":40625:40655   */\n      gt\n        /* \"#utility.yul\":40622:40678   */\n      iszero\n      tag_802\n      jumpi\n        /* \"#utility.yul\":40658:40676   */\n      tag_803\n      tag_341\n      jump\t// in\n    tag_803:\n        /* \"#utility.yul\":40622:40678   */\n    tag_802:\n        /* \"#utility.yul\":40702:40740   */\n      tag_804\n        /* \"#utility.yul\":40734:40738   */\n      dup3\n        /* \"#utility.yul\":40728:40739   */\n      sload\n        /* \"#utility.yul\":40702:40740   */\n      tag_167\n      jump\t// in\n    tag_804:\n        /* \"#utility.yul\":40787:40854   */\n      tag_805\n        /* \"#utility.yul\":40847:40853   */\n      dup3\n        /* \"#utility.yul\":40839:40845   */\n      dup3\n        /* \"#utility.yul\":40833:40837   */\n      dup6\n        /* \"#utility.yul\":40787:40854   */\n      tag_407\n      jump\t// in\n    tag_805:\n        /* \"#utility.yul\":40881:40882   */\n      0x00\n        /* \"#utility.yul\":40905:40909   */\n      0x20\n        /* \"#utility.yul\":40892:40909   */\n      swap1\n      pop\n        /* \"#utility.yul\":40937:40939   */\n      0x1f\n        /* \"#utility.yul\":40929:40935   */\n      dup4\n        /* \"#utility.yul\":40926:40940   */\n      gt\n        /* \"#utility.yul\":40954:40955   */\n      0x01\n        /* \"#utility.yul\":40949:41567   */\n      dup2\n      eq\n      tag_807\n      jumpi\n        /* \"#utility.yul\":41611:41612   */\n      0x00\n        /* \"#utility.yul\":41628:41634   */\n      dup5\n        /* \"#utility.yul\":41625:41702   */\n      iszero\n      tag_808\n      jumpi\n        /* \"#utility.yul\":41677:41686   */\n      dup3\n        /* \"#utility.yul\":41672:41675   */\n      dup8\n        /* \"#utility.yul\":41668:41687   */\n      add\n        /* \"#utility.yul\":41662:41688   */\n      mload\n        /* \"#utility.yul\":41653:41688   */\n      swap1\n      pop\n        /* \"#utility.yul\":41625:41702   */\n    tag_808:\n        /* \"#utility.yul\":41728:41795   */\n      tag_809\n        /* \"#utility.yul\":41788:41794   */\n      dup6\n        /* \"#utility.yul\":41781:41786   */\n      dup3\n        /* \"#utility.yul\":41728:41795   */\n      tag_410\n      jump\t// in\n    tag_809:\n        /* \"#utility.yul\":41722:41726   */\n      dup7\n        /* \"#utility.yul\":41715:41796   */\n      sstore\n        /* \"#utility.yul\":41584:41806   */\n      pop\n        /* \"#utility.yul\":40919:41806   */\n      jump(tag_806)\n        /* \"#utility.yul\":40949:41567   */\n    tag_807:\n        /* \"#utility.yul\":41001:41005   */\n      0x1f\n        /* \"#utility.yul\":40997:41006   */\n      not\n        /* \"#utility.yul\":40989:40995   */\n      dup5\n        /* \"#utility.yul\":40985:41007   */\n      and\n        /* \"#utility.yul\":41035:41072   */\n      tag_810\n        /* \"#utility.yul\":41067:41071   */\n      dup7\n        /* \"#utility.yul\":41035:41072   */\n      tag_397\n      jump\t// in\n    tag_810:\n        /* \"#utility.yul\":41094:41095   */\n      0x00\n        /* \"#utility.yul\":41108:41316   */\n    tag_811:\n        /* \"#utility.yul\":41122:41129   */\n      dup3\n        /* \"#utility.yul\":41119:41120   */\n      dup2\n        /* \"#utility.yul\":41116:41130   */\n      lt\n        /* \"#utility.yul\":41108:41316   */\n      iszero\n      tag_813\n      jumpi\n        /* \"#utility.yul\":41201:41210   */\n      dup5\n        /* \"#utility.yul\":41196:41199   */\n      dup10\n        /* \"#utility.yul\":41192:41211   */\n      add\n        /* \"#utility.yul\":41186:41212   */\n      mload\n        /* \"#utility.yul\":41178:41184   */\n      dup3\n        /* \"#utility.yul\":41171:41213   */\n      sstore\n        /* \"#utility.yul\":41252:41253   */\n      0x01\n        /* \"#utility.yul\":41244:41250   */\n      dup3\n        /* \"#utility.yul\":41240:41254   */\n      add\n        /* \"#utility.yul\":41230:41254   */\n      swap2\n      pop\n        /* \"#utility.yul\":41299:41301   */\n      0x20\n        /* \"#utility.yul\":41288:41297   */\n      dup6\n        /* \"#utility.yul\":41284:41302   */\n      add\n        /* \"#utility.yul\":41271:41302   */\n      swap5\n      pop\n        /* \"#utility.yul\":41145:41149   */\n      0x20\n        /* \"#utility.yul\":41142:41143   */\n      dup2\n        /* \"#utility.yul\":41138:41150   */\n      add\n        /* \"#utility.yul\":41133:41150   */\n      swap1\n      pop\n        /* \"#utility.yul\":41108:41316   */\n      jump(tag_811)\n    tag_813:\n        /* \"#utility.yul\":41344:41350   */\n      dup7\n        /* \"#utility.yul\":41335:41342   */\n      dup4\n        /* \"#utility.yul\":41332:41351   */\n      lt\n        /* \"#utility.yul\":41329:41508   */\n      iszero\n      tag_814\n      jumpi\n        /* \"#utility.yul\":41402:41411   */\n      dup5\n        /* \"#utility.yul\":41397:41400   */\n      dup10\n        /* \"#utility.yul\":41393:41412   */\n      add\n        /* \"#utility.yul\":41387:41413   */\n      mload\n        /* \"#utility.yul\":41445:41493   */\n      tag_815\n        /* \"#utility.yul\":41487:41491   */\n      0x1f\n        /* \"#utility.yul\":41479:41485   */\n      dup10\n        /* \"#utility.yul\":41475:41492   */\n      and\n        /* \"#utility.yul\":41464:41473   */\n      dup3\n        /* \"#utility.yul\":41445:41493   */\n      tag_409\n      jump\t// in\n    tag_815:\n        /* \"#utility.yul\":41437:41443   */\n      dup4\n        /* \"#utility.yul\":41430:41494   */\n      sstore\n        /* \"#utility.yul\":41352:41508   */\n      pop\n        /* \"#utility.yul\":41329:41508   */\n    tag_814:\n        /* \"#utility.yul\":41554:41555   */\n      0x01\n        /* \"#utility.yul\":41550:41551   */\n      0x02\n        /* \"#utility.yul\":41542:41548   */\n      dup9\n        /* \"#utility.yul\":41538:41552   */\n      mul\n        /* \"#utility.yul\":41534:41556   */\n      add\n        /* \"#utility.yul\":41528:41532   */\n      dup9\n        /* \"#utility.yul\":41521:41557   */\n      sstore\n        /* \"#utility.yul\":40956:41567   */\n      pop\n      pop\n      pop\n        /* \"#utility.yul\":40919:41806   */\n    tag_806:\n      pop\n        /* \"#utility.yul\":40509:41812   */\n      pop\n      pop\n      pop\n        /* \"#utility.yul\":40417:41812   */\n      pop\n      pop\n      jump\t// out\n        /* \"#utility.yul\":41818:41986   */\n    tag_411:\n        /* \"#utility.yul\":41901:41912   */\n      0x00\n        /* \"#utility.yul\":41935:41941   */\n      dup3\n        /* \"#utility.yul\":41930:41933   */\n      dup3\n        /* \"#utility.yul\":41923:41942   */\n      mstore\n        /* \"#utility.yul\":41975:41979   */\n      0x20\n        /* \"#utility.yul\":41970:41973   */\n      dup3\n        /* \"#utility.yul\":41966:41980   */\n      add\n        /* \"#utility.yul\":41951:41980   */\n      swap1\n      pop\n        /* \"#utility.yul\":41818:41986   */\n      swap3\n      swap2\n      pop\n      pop\n      jump\t// out\n        /* \"#utility.yul\":41992:42365   */\n    tag_412:\n        /* \"#utility.yul\":42078:42081   */\n      0x00\n        /* \"#utility.yul\":42106:42144   */\n      tag_818\n        /* \"#utility.yul\":42138:42143   */\n      dup3\n        /* \"#utility.yul\":42106:42144   */\n      tag_378\n      jump\t// in\n    tag_818:\n        /* \"#utility.yul\":42160:42230   */\n      tag_819\n        /* \"#utility.yul\":42223:42229   */\n      dup2\n        /* \"#utility.yul\":42218:42221   */\n      dup6\n        /* \"#utility.yul\":42160:42230   */\n      tag_411\n      jump\t// in\n    tag_819:\n        /* \"#utility.yul\":42153:42230   */\n      swap4\n      pop\n        /* \"#utility.yul\":42239:42304   */\n      tag_820\n        /* \"#utility.yul\":42297:42303   */\n      dup2\n        /* \"#utility.yul\":42292:42295   */\n      dup6\n        /* \"#utility.yul\":42285:42289   */\n      0x20\n        /* \"#utility.yul\":42278:42283   */\n      dup7\n        /* \"#utility.yul\":42274:42290   */\n      add\n        /* \"#utility.yul\":42239:42304   */\n      tag_335\n      jump\t// in\n    tag_820:\n        /* \"#utility.yul\":42329:42358   */\n      tag_821\n        /* \"#utility.yul\":42351:42357   */\n      dup2\n        /* \"#utility.yul\":42329:42358   */\n      tag_336\n      jump\t// in\n    tag_821:\n        /* \"#utility.yul\":42324:42327   */\n      dup5\n        /* \"#utility.yul\":42320:42359   */\n      add\n        /* \"#utility.yul\":42313:42359   */\n      swap2\n      pop\n        /* \"#utility.yul\":42082:42365   */\n      pop\n        /* \"#utility.yul\":41992:42365   */\n      swap3\n      swap2\n      pop\n      pop\n      jump\t// out\n        /* \"#utility.yul\":42371:42680   */\n    tag_281:\n        /* \"#utility.yul\":42482:42486   */\n      0x00\n        /* \"#utility.yul\":42520:42522   */\n      0x20\n        /* \"#utility.yul\":42509:42518   */\n      dup3\n        /* \"#utility.yul\":42505:42523   */\n      add\n        /* \"#utility.yul\":42497:42523   */\n      swap1\n      pop\n        /* \"#utility.yul\":42569:42578   */\n      dup2\n        /* \"#utility.yul\":42563:42567   */\n      dup2\n        /* \"#utility.yul\":42559:42579   */\n      sub\n        /* \"#utility.yul\":42555:42556   */\n      0x00\n        /* \"#utility.yul\":42544:42553   */\n      dup4\n        /* \"#utility.yul\":42540:42557   */\n      add\n        /* \"#utility.yul\":42533:42580   */\n      mstore\n        /* \"#utility.yul\":42597:42673   */\n      tag_823\n        /* \"#utility.yul\":42668:42672   */\n      dup2\n        /* \"#utility.yul\":42659:42665   */\n      dup5\n        /* \"#utility.yul\":42597:42673   */\n      tag_412\n      jump\t// in\n    tag_823:\n        /* \"#utility.yul\":42589:42673   */\n      swap1\n      pop\n        /* \"#utility.yul\":42371:42680   */\n      swap3\n      swap2\n      pop\n      pop\n      jump\t// out\n        /* \"#utility.yul\":42686:42857   */\n    tag_413:\n        /* \"#utility.yul\":42826:42849   */\n      0x417277656176652055706c6f6164204661696c65640000000000000000000000\n        /* \"#utility.yul\":42822:42823   */\n      0x00\n        /* \"#utility.yul\":42814:42820   */\n      dup3\n        /* \"#utility.yul\":42810:42824   */\n      add\n        /* \"#utility.yul\":42803:42850   */\n      mstore\n        /* \"#utility.yul\":42686:42857   */\n      pop\n      jump\t// out\n        /* \"#utility.yul\":42863:43229   */\n    tag_414:\n        /* \"#utility.yul\":43005:43008   */\n      0x00\n        /* \"#utility.yul\":43026:43093   */\n      tag_826\n        /* \"#utility.yul\":43090:43092   */\n      0x15\n        /* \"#utility.yul\":43085:43088   */\n      dup4\n        /* \"#utility.yul\":43026:43093   */\n      tag_334\n      jump\t// in\n    tag_826:\n        /* \"#utility.yul\":43019:43093   */\n      swap2\n      pop\n        /* \"#utility.yul\":43102:43195   */\n      tag_827\n        /* \"#utility.yul\":43191:43194   */\n      dup3\n        /* \"#utility.yul\":43102:43195   */\n      tag_413\n      jump\t// in\n    tag_827:\n        /* \"#utility.yul\":43220:43222   */\n      0x20\n        /* \"#utility.yul\":43215:43218   */\n      dup3\n        /* \"#utility.yul\":43211:43223   */\n      add\n        /* \"#utility.yul\":43204:43223   */\n      swap1\n      pop\n        /* \"#utility.yul\":42863:43229   */\n      swap2\n      swap1\n      pop\n      jump\t// out\n        /* \"#utility.yul\":43235:43654   */\n    tag_288:\n        /* \"#utility.yul\":43401:43405   */\n      0x00\n        /* \"#utility.yul\":43439:43441   */\n      0x20\n        /* \"#utility.yul\":43428:43437   */\n      dup3\n        /* \"#utility.yul\":43424:43442   */\n      add\n        /* \"#utility.yul\":43416:43442   */\n      swap1\n      pop\n        /* \"#utility.yul\":43488:43497   */\n      dup2\n        /* \"#utility.yul\":43482:43486   */\n      dup2\n        /* \"#utility.yul\":43478:43498   */\n      sub\n        /* \"#utility.yul\":43474:43475   */\n      0x00\n        /* \"#utility.yul\":43463:43472   */\n      dup4\n        /* \"#utility.yul\":43459:43476   */\n      add\n        /* \"#utility.yul\":43452:43499   */\n      mstore\n        /* \"#utility.yul\":43516:43647   */\n      tag_829\n        /* \"#utility.yul\":43642:43646   */\n      dup2\n        /* \"#utility.yul\":43516:43647   */\n      tag_414\n      jump\t// in\n    tag_829:\n        /* \"#utility.yul\":43508:43647   */\n      swap1\n      pop\n        /* \"#utility.yul\":43235:43654   */\n      swap2\n      swap1\n      pop\n      jump\t// out\n        /* \"#utility.yul\":43660:44094   */\n    tag_415:\n        /* \"#utility.yul\":43749:43754   */\n      0x00\n        /* \"#utility.yul\":43774:43840   */\n      tag_831\n        /* \"#utility.yul\":43790:43839   */\n      tag_832\n        /* \"#utility.yul\":43832:43838   */\n      dup5\n        /* \"#utility.yul\":43790:43839   */\n      tag_344\n      jump\t// in\n    tag_832:\n        /* \"#utility.yul\":43774:43840   */\n      tag_343\n      jump\t// in\n    tag_831:\n        /* \"#utility.yul\":43765:43840   */\n      swap1\n      pop\n        /* \"#utility.yul\":43863:43869   */\n      dup3\n        /* \"#utility.yul\":43856:43861   */\n      dup2\n        /* \"#utility.yul\":43849:43870   */\n      mstore\n        /* \"#utility.yul\":43901:43905   */\n      0x20\n        /* \"#utility.yul\":43894:43899   */\n      dup2\n        /* \"#utility.yul\":43890:43906   */\n      add\n        /* \"#utility.yul\":43939:43942   */\n      dup5\n        /* \"#utility.yul\":43930:43936   */\n      dup5\n        /* \"#utility.yul\":43925:43928   */\n      dup5\n        /* \"#utility.yul\":43921:43937   */\n      add\n        /* \"#utility.yul\":43918:43943   */\n      gt\n        /* \"#utility.yul\":43915:44027   */\n      iszero\n      tag_833\n      jumpi\n        /* \"#utility.yul\":43946:44025   */\n      tag_834\n      tag_340\n      jump\t// in\n    tag_834:\n        /* \"#utility.yul\":43915:44027   */\n    tag_833:\n        /* \"#utility.yul\":44036:44088   */\n      tag_835\n        /* \"#utility.yul\":44081:44087   */\n      dup5\n        /* \"#utility.yul\":44076:44079   */\n      dup3\n        /* \"#utility.yul\":44071:44074   */\n      dup6\n        /* \"#utility.yul\":44036:44088   */\n      tag_335\n      jump\t// in\n    tag_835:\n        /* \"#utility.yul\":43755:44094   */\n      pop\n        /* \"#utility.yul\":43660:44094   */\n      swap4\n      swap3\n      pop\n      pop\n      pop\n      jump\t// out\n        /* \"#utility.yul\":44114:44469   */\n    tag_416:\n        /* \"#utility.yul\":44181:44186   */\n      0x00\n        /* \"#utility.yul\":44230:44233   */\n      dup3\n        /* \"#utility.yul\":44223:44227   */\n      0x1f\n        /* \"#utility.yul\":44215:44221   */\n      dup4\n        /* \"#utility.yul\":44211:44228   */\n      add\n        /* \"#utility.yul\":44207:44234   */\n      slt\n        /* \"#utility.yul\":44197:44319   */\n      tag_837\n      jumpi\n        /* \"#utility.yul\":44238:44317   */\n      tag_838\n      tag_339\n      jump\t// in\n    tag_838:\n        /* \"#utility.yul\":44197:44319   */\n    tag_837:\n        /* \"#utility.yul\":44348:44354   */\n      dup2\n        /* \"#utility.yul\":44342:44355   */\n      mload\n        /* \"#utility.yul\":44373:44463   */\n      tag_839\n        /* \"#utility.yul\":44459:44462   */\n      dup5\n        /* \"#utility.yul\":44451:44457   */\n      dup3\n        /* \"#utility.yul\":44444:44448   */\n      0x20\n        /* \"#utility.yul\":44436:44442   */\n      dup7\n        /* \"#utility.yul\":44432:44449   */\n      add\n        /* \"#utility.yul\":44373:44463   */\n      tag_415\n      jump\t// in\n    tag_839:\n        /* \"#utility.yul\":44364:44463   */\n      swap2\n      pop\n        /* \"#utility.yul\":44187:44469   */\n      pop\n        /* \"#utility.yul\":44114:44469   */\n      swap3\n      swap2\n      pop\n      pop\n      jump\t// out\n        /* \"#utility.yul\":44475:44999   */\n    tag_290:\n        /* \"#utility.yul\":44555:44561   */\n      0x00\n        /* \"#utility.yul\":44604:44606   */\n      0x20\n        /* \"#utility.yul\":44592:44601   */\n      dup3\n        /* \"#utility.yul\":44583:44590   */\n      dup5\n        /* \"#utility.yul\":44579:44602   */\n      sub\n        /* \"#utility.yul\":44575:44607   */\n      slt\n        /* \"#utility.yul\":44572:44691   */\n      iszero\n      tag_841\n      jumpi\n        /* \"#utility.yul\":44610:44689   */\n      tag_842\n      tag_322\n      jump\t// in\n    tag_842:\n        /* \"#utility.yul\":44572:44691   */\n    tag_841:\n        /* \"#utility.yul\":44751:44752   */\n      0x00\n        /* \"#utility.yul\":44740:44749   */\n      dup3\n        /* \"#utility.yul\":44736:44753   */\n      add\n        /* \"#utility.yul\":44730:44754   */\n      mload\n        /* \"#utility.yul\":44781:44799   */\n      0xffffffffffffffff\n        /* \"#utility.yul\":44773:44779   */\n      dup2\n        /* \"#utility.yul\":44770:44800   */\n      gt\n        /* \"#utility.yul\":44767:44884   */\n      iszero\n      tag_843\n      jumpi\n        /* \"#utility.yul\":44803:44882   */\n      tag_844\n      tag_323\n      jump\t// in\n    tag_844:\n        /* \"#utility.yul\":44767:44884   */\n    tag_843:\n        /* \"#utility.yul\":44908:44982   */\n      tag_845\n        /* \"#utility.yul\":44974:44981   */\n      dup5\n        /* \"#utility.yul\":44965:44971   */\n      dup3\n        /* \"#utility.yul\":44954:44963   */\n      dup6\n        /* \"#utility.yul\":44950:44972   */\n      add\n        /* \"#utility.yul\":44908:44982   */\n      tag_416\n      jump\t// in\n    tag_845:\n        /* \"#utility.yul\":44898:44982   */\n      swap2\n      pop\n        /* \"#utility.yul\":44701:44992   */\n      pop\n        /* \"#utility.yul\":44475:44999   */\n      swap3\n      swap2\n      pop\n      pop\n      jump\t// out\n        /* \"#utility.yul\":45005:46366   */\n    tag_299:\n        /* \"#utility.yul\":45374:45378   */\n      0x00\n        /* \"#utility.yul\":45412:45415   */\n      0x0100\n        /* \"#utility.yul\":45401:45410   */\n      dup3\n        /* \"#utility.yul\":45397:45416   */\n      add\n        /* \"#utility.yul\":45389:45416   */\n      swap1\n      pop\n        /* \"#utility.yul\":45426:45497   */\n      tag_847\n        /* \"#utility.yul\":45494:45495   */\n      0x00\n        /* \"#utility.yul\":45483:45492   */\n      dup4\n        /* \"#utility.yul\":45479:45496   */\n      add\n        /* \"#utility.yul\":45470:45476   */\n      dup12\n        /* \"#utility.yul\":45426:45497   */\n      tag_338\n      jump\t// in\n    tag_847:\n        /* \"#utility.yul\":45544:45553   */\n      dup2\n        /* \"#utility.yul\":45538:45542   */\n      dup2\n        /* \"#utility.yul\":45534:45554   */\n      sub\n        /* \"#utility.yul\":45529:45531   */\n      0x20\n        /* \"#utility.yul\":45518:45527   */\n      dup4\n        /* \"#utility.yul\":45514:45532   */\n      add\n        /* \"#utility.yul\":45507:45555   */\n      mstore\n        /* \"#utility.yul\":45572:45650   */\n      tag_848\n        /* \"#utility.yul\":45645:45649   */\n      dup2\n        /* \"#utility.yul\":45636:45642   */\n      dup11\n        /* \"#utility.yul\":45572:45650   */\n      tag_337\n      jump\t// in\n    tag_848:\n        /* \"#utility.yul\":45564:45650   */\n      swap1\n      pop\n        /* \"#utility.yul\":45697:45706   */\n      dup2\n        /* \"#utility.yul\":45691:45695   */\n      dup2\n        /* \"#utility.yul\":45687:45707   */\n      sub\n        /* \"#utility.yul\":45682:45684   */\n      0x40\n        /* \"#utility.yul\":45671:45680   */\n      dup4\n        /* \"#utility.yul\":45667:45685   */\n      add\n        /* \"#utility.yul\":45660:45708   */\n      mstore\n        /* \"#utility.yul\":45725:45803   */\n      tag_849\n        /* \"#utility.yul\":45798:45802   */\n      dup2\n        /* \"#utility.yul\":45789:45795   */\n      dup10\n        /* \"#utility.yul\":45725:45803   */\n      tag_337\n      jump\t// in\n    tag_849:\n        /* \"#utility.yul\":45717:45803   */\n      swap1\n      pop\n        /* \"#utility.yul\":45813:45885   */\n      tag_850\n        /* \"#utility.yul\":45881:45883   */\n      0x60\n        /* \"#utility.yul\":45870:45879   */\n      dup4\n        /* \"#utility.yul\":45866:45884   */\n      add\n        /* \"#utility.yul\":45857:45863   */\n      dup9\n        /* \"#utility.yul\":45813:45885   */\n      tag_348\n      jump\t// in\n    tag_850:\n        /* \"#utility.yul\":45895:45968   */\n      tag_851\n        /* \"#utility.yul\":45963:45966   */\n      0x80\n        /* \"#utility.yul\":45952:45961   */\n      dup4\n        /* \"#utility.yul\":45948:45967   */\n      add\n        /* \"#utility.yul\":45939:45945   */\n      dup8\n        /* \"#utility.yul\":45895:45968   */\n      tag_338\n      jump\t// in\n    tag_851:\n        /* \"#utility.yul\":46016:46025   */\n      dup2\n        /* \"#utility.yul\":46010:46014   */\n      dup2\n        /* \"#utility.yul\":46006:46026   */\n      sub\n        /* \"#utility.yul\":46000:46003   */\n      0xa0\n        /* \"#utility.yul\":45989:45998   */\n      dup4\n        /* \"#utility.yul\":45985:46004   */\n      add\n        /* \"#utility.yul\":45978:46027   */\n      mstore\n        /* \"#utility.yul\":46044:46122   */\n      tag_852\n        /* \"#utility.yul\":46117:46121   */\n      dup2\n        /* \"#utility.yul\":46108:46114   */\n      dup7\n        /* \"#utility.yul\":46044:46122   */\n      tag_337\n      jump\t// in\n    tag_852:\n        /* \"#utility.yul\":46036:46122   */\n      swap1\n      pop\n        /* \"#utility.yul\":46170:46179   */\n      dup2\n        /* \"#utility.yul\":46164:46168   */\n      dup2\n        /* \"#utility.yul\":46160:46180   */\n      sub\n        /* \"#utility.yul\":46154:46157   */\n      0xc0\n        /* \"#utility.yul\":46143:46152   */\n      dup4\n        /* \"#utility.yul\":46139:46158   */\n      add\n        /* \"#utility.yul\":46132:46181   */\n      mstore\n        /* \"#utility.yul\":46198:46276   */\n      tag_853\n        /* \"#utility.yul\":46271:46275   */\n      dup2\n        /* \"#utility.yul\":46262:46268   */\n      dup6\n        /* \"#utility.yul\":46198:46276   */\n      tag_337\n      jump\t// in\n    tag_853:\n        /* \"#utility.yul\":46190:46276   */\n      swap1\n      pop\n        /* \"#utility.yul\":46286:46359   */\n      tag_854\n        /* \"#utility.yul\":46354:46357   */\n      0xe0\n        /* \"#utility.yul\":46343:46352   */\n      dup4\n        /* \"#utility.yul\":46339:46358   */\n      add\n        /* \"#utility.yul\":46330:46336   */\n      dup5\n        /* \"#utility.yul\":46286:46359   */\n      tag_338\n      jump\t// in\n    tag_854:\n        /* \"#utility.yul\":45005:46366   */\n      swap10\n      swap9\n      pop\n      pop\n      pop\n      pop\n      pop\n      pop\n      pop\n      pop\n      pop\n      jump\t// out\n        /* \"#utility.yul\":46372:46553   */\n    tag_417:\n        /* \"#utility.yul\":46512:46545   */\n      0x5265656e7472616e637947756172643a207265656e7472616e742063616c6c00\n        /* \"#utility.yul\":46508:46509   */\n      0x00\n        /* \"#utility.yul\":46500:46506   */\n      dup3\n        /* \"#utility.yul\":46496:46510   */\n      add\n        /* \"#utility.yul\":46489:46546   */\n      mstore\n        /* \"#utility.yul\":46372:46553   */\n      pop\n      jump\t// out\n        /* \"#utility.yul\":46559:46925   */\n    tag_418:\n        /* \"#utility.yul\":46701:46704   */\n      0x00\n        /* \"#utility.yul\":46722:46789   */\n      tag_857\n        /* \"#utility.yul\":46786:46788   */\n      0x1f\n        /* \"#utility.yul\":46781:46784   */\n      dup4\n        /* \"#utility.yul\":46722:46789   */\n      tag_334\n      jump\t// in\n    tag_857:\n        /* \"#utility.yul\":46715:46789   */\n      swap2\n      pop\n        /* \"#utility.yul\":46798:46891   */\n      tag_858\n        /* \"#utility.yul\":46887:46890   */\n      dup3\n        /* \"#utility.yul\":46798:46891   */\n      tag_417\n      jump\t// in\n    tag_858:\n        /* \"#utility.yul\":46916:46918   */\n      0x20\n        /* \"#utility.yul\":46911:46914   */\n      dup3\n        /* \"#utility.yul\":46907:46919   */\n      add\n        /* \"#utility.yul\":46900:46919   */\n      swap1\n      pop\n        /* \"#utility.yul\":46559:46925   */\n      swap2\n      swap1\n      pop\n      jump\t// out\n        /* \"#utility.yul\":46931:47350   */\n    tag_303:\n        /* \"#utility.yul\":47097:47101   */\n      0x00\n        /* \"#utility.yul\":47135:47137   */\n      0x20\n        /* \"#utility.yul\":47124:47133   */\n      dup3\n        /* \"#utility.yul\":47120:47138   */\n      add\n        /* \"#utility.yul\":47112:47138   */\n      swap1\n      pop\n        /* \"#utility.yul\":47184:47193   */\n      dup2\n        /* \"#utility.yul\":47178:47182   */\n      dup2\n        /* \"#utility.yul\":47174:47194   */\n      sub\n        /* \"#utility.yul\":47170:47171   */\n      0x00\n        /* \"#utility.yul\":47159:47168   */\n      dup4\n        /* \"#utility.yul\":47155:47172   */\n      add\n        /* \"#utility.yul\":47148:47195   */\n      mstore\n        /* \"#utility.yul\":47212:47343   */\n      tag_860\n        /* \"#utility.yul\":47338:47342   */\n      dup2\n        /* \"#utility.yul\":47212:47343   */\n      tag_418\n      jump\t// in\n    tag_860:\n        /* \"#utility.yul\":47204:47343   */\n      swap1\n      pop\n        /* \"#utility.yul\":46931:47350   */\n      swap2\n      swap1\n      pop\n      jump\t// out\n\n    auxdata: 0xa2646970667358221220f9b2a64a9ee485bf4da65e121aac288bfcc955cf5d85bb7a6c9028a2fbc7e02764736f6c634300081a0033\n}\n",
				"bytecode": {
					"linkReferences": {},
					"object": "608060405234801561000f575f80fd5b50604051613d17380380613d178339818101604052810190610031919061011d565b60015f819055508160015f6101000a81548173ffffffffffffffffffffffffffffffffffffffff021916908373ffffffffffffffffffffffffffffffffffffffff1602179055508060025f6101000a81548173ffffffffffffffffffffffffffffffffffffffff021916908373ffffffffffffffffffffffffffffffffffffffff160217905550505061015b565b5f80fd5b5f73ffffffffffffffffffffffffffffffffffffffff82169050919050565b5f6100ec826100c3565b9050919050565b6100fc816100e2565b8114610106575f80fd5b50565b5f81519050610117816100f3565b92915050565b5f8060408385031215610133576101326100bf565b5b5f61014085828601610109565b925050602061015185828601610109565b9150509250929050565b613baf806101685f395ff3fe608060405234801561000f575f80fd5b506004361061012a575f3560e01c80638c33f3b0116100ab578063dbe55e561161006f578063dbe55e561461033f578063e6821bf51461035d578063fa56115214610396578063fc0c546a146103b2578063fd442dbd146103d05761012a565b80638c33f3b014610284578063aa7e5683146102b4578063c61b5f4c146102d0578063cdd78cfc146102ee578063d4516ab51461030c5761012a565b806331a4bcb5116100f257806331a4bcb5146101e25780633aaa74b2146101fe57806361746a5c1461020857806363370ee7146102385780637ffd8a8c146102545761012a565b806311abd3241461012e578063147331e11461014a5780631709ef071461016657806327260d5c146101965780632893eca2146101b2575b5f80fd5b610148600480360381019061014391906123fe565b6103ec565b005b610164600480360381019061015f9190612429565b61056b565b005b610180600480360381019061017b91906124c1565b610899565b60405161018d9190612519565b60405180910390f35b6101b060048036038101906101ab91906123fe565b6108c3565b005b6101cc60048036038101906101c791906123fe565b610b85565b6040516101d991906125a2565b60405180910390f35b6101fc60048036038101906101f79190612429565b610ec7565b005b610206611044565b005b610222600480360381019061021d91906125c2565b6112e3565b60405161022f9190612519565b60405180910390f35b610252600480360381019061024d9190612600565b61130d565b005b61026e60048036038101906102699190612600565b611778565b60405161027b919061263a565b60405180910390f35b61029e600480360381019061029991906125c2565b61178d565b6040516102ab919061263a565b60405180910390f35b6102ce60048036038101906102c9919061277f565b6117ad565b005b6102d8611a56565b6040516102e5919061263a565b60405180910390f35b6102f6611a5c565b604051610303919061263a565b60405180910390f35b61032660048036038101906103219190612429565b611a61565b60405161033694939291906127e8565b60405180910390f35b610347611b3d565b6040516103549190612832565b60405180910390f35b610377600480360381019061037291906123fe565b611b62565b60405161038d9a9998979695949392919061284b565b60405180910390f35b6103b060048036038101906103ab9190612901565b611de9565b005b6103ba611f0a565b6040516103c791906129c8565b60405180910390f35b6103ea60048036038101906103e59190612b61565b611f2f565b005b60055f8281526020019081526020015f205f3373ffffffffffffffffffffffffffffffffffffffff1673ffffffffffffffffffffffffffffffffffffffff1681526020019081526020015f205f9054906101000a900460ff16801561046457505f60035f8381526020019081526020015f2060090154115b6104a3576040517f08c379a000000000000000000000000000000000000000000000000000000000815260040161049a90612cd4565b60405180910390fd5b5f60055f8381526020019081526020015f205f3373ffffffffffffffffffffffffffffffffffffffff1673ffffffffffffffffffffffffffffffffffffffff1681526020019081526020015f205f6101000a81548160ff02191690831515021790555060035f8281526020019081526020015f206009015f81548092919061052a90612d1f565b91905055507fe1ea13f5a6d14e33425b04b4cd2185c1919991c8b880eecaa279f4906475d6f98133604051610560929190612d46565b60405180910390a150565b610573612292565b5f81116105b5576040517f08c379a00000000000000000000000000000000000000000000000000000000081526004016105ac90612ddd565b60405180910390fd5b5f60646001836105c59190612dfb565b6105cf9190612e69565b90505f81836105de9190612e99565b905060015f9054906101000a900473ffffffffffffffffffffffffffffffffffffffff1673ffffffffffffffffffffffffffffffffffffffff166323b872dd3360035f8881526020019081526020015f206003015f9054906101000a900473ffffffffffffffffffffffffffffffffffffffff16846040518463ffffffff1660e01b815260040161067193929190612ecc565b6020604051808303815f875af115801561068d573d5f803e3d5ffd5b505050506040513d601f19601f820116820180604052508101906106b19190612f2b565b6106f0576040517f08c379a00000000000000000000000000000000000000000000000000000000081526004016106e790612fa0565b60405180910390fd5b60015f9054906101000a900473ffffffffffffffffffffffffffffffffffffffff1673ffffffffffffffffffffffffffffffffffffffff166323b872dd3360025f9054906101000a900473ffffffffffffffffffffffffffffffffffffffff16856040518463ffffffff1660e01b815260040161076f93929190612ecc565b6020604051808303815f875af115801561078b573d5f803e3d5ffd5b505050506040513d601f19601f820116820180604052508101906107af9190612f2b565b6107ee576040517f08c379a00000000000000000000000000000000000000000000000000000000081526004016107e590613008565b60405180910390fd5b8260075f8681526020019081526020015f205f3373ffffffffffffffffffffffffffffffffffffffff1673ffffffffffffffffffffffffffffffffffffffff1681526020019081526020015f205f8282546108499190613026565b925050819055507f9bb057a11c3457c55cb17f11a38392348805c6ccb84a9b7e8d9c42c694a7882b84338560405161088393929190613059565b60405180910390a150506108956122df565b5050565b6006602052815f5260405f20602052805f5260405f205f915091509054906101000a900460ff1681565b60065f60035f8481526020019081526020015f206003015f9054906101000a900473ffffffffffffffffffffffffffffffffffffffff1673ffffffffffffffffffffffffffffffffffffffff1673ffffffffffffffffffffffffffffffffffffffff1681526020019081526020015f205f3373ffffffffffffffffffffffffffffffffffffffff1673ffffffffffffffffffffffffffffffffffffffff1681526020019081526020015f205f9054906101000a900460ff16806109e4575060035f8281526020019081526020015f206003015f9054906101000a900473ffffffffffffffffffffffffffffffffffffffff1673ffffffffffffffffffffffffffffffffffffffff163373ffffffffffffffffffffffffffffffffffffffff16145b610a23576040517f08c379a0000000000000000000000000000000000000000000000000000000008152600401610a1a906130d8565b60405180910390fd5b60055f8281526020019081526020015f205f3373ffffffffffffffffffffffffffffffffffffffff1673ffffffffffffffffffffffffffffffffffffffff1681526020019081526020015f205f9054906101000a900460ff1615610abc576040517f08c379a0000000000000000000000000000000000000000000000000000000008152600401610ab390613166565b60405180910390fd5b600160055f8381526020019081526020015f205f3373ffffffffffffffffffffffffffffffffffffffff1673ffffffffffffffffffffffffffffffffffffffff1681526020019081526020015f205f6101000a81548160ff02191690831515021790555060035f8281526020019081526020015f206009015f815480929190610b4490613184565b91905055507f252555045b2bb75bbf4e656932c7fc2d63e8e7d9acc300a6b55d6575a2c8d4288133604051610b7a929190612d46565b60405180910390a150565b606060065f60035f8581526020019081526020015f206003015f9054906101000a900473ffffffffffffffffffffffffffffffffffffffff1673ffffffffffffffffffffffffffffffffffffffff1673ffffffffffffffffffffffffffffffffffffffff1681526020019081526020015f205f3373ffffffffffffffffffffffffffffffffffffffff1673ffffffffffffffffffffffffffffffffffffffff1681526020019081526020015f205f9054906101000a900460ff1680610ca8575060035f8381526020019081526020015f206003015f9054906101000a900473ffffffffffffffffffffffffffffffffffffffff1673ffffffffffffffffffffffffffffffffffffffff163373ffffffffffffffffffffffffffffffffffffffff16145b610ce7576040517f08c379a0000000000000000000000000000000000000000000000000000000008152600401610cde906130d8565b60405180910390fd5b5f60035f8481526020019081526020015f206005018054610d07906131f8565b80601f0160208091040260200160405190810160405280929190818152602001828054610d33906131f8565b8015610d7e5780601f10610d5557610100808354040283529160200191610d7e565b820191905f5260205f20905b815481529060010190602001808311610d6157829003601f168201915b505050505090505f80601873ffffffffffffffffffffffffffffffffffffffff1683604051602401610db091906125a2565b6040516020818303038152906040527f42aa3bb6000000000000000000000000000000000000000000000000000000007bffffffffffffffffffffffffffffffffffffffffffffffffffffffff19166020820180517bffffffffffffffffffffffffffffffffffffffffffffffffffffffff8381831617835250505050604051610e3a919061326c565b5f60405180830381855afa9150503d805f8114610e72576040519150601f19603f3d011682016040523d82523d5f602084013e610e77565b606091505b509150915081610ebc576040517f08c379a0000000000000000000000000000000000000000000000000000000008152600401610eb3906132cc565b60405180910390fd5b809350505050919050565b3373ffffffffffffffffffffffffffffffffffffffff1660045f8481526020019081526020015f205f8381526020019081526020015f206001015f9054906101000a900473ffffffffffffffffffffffffffffffffffffffff1673ffffffffffffffffffffffffffffffffffffffff1614610f77576040517f08c379a0000000000000000000000000000000000000000000000000000000008152600401610f6e9061335a565b60405180910390fd5b60045f8381526020019081526020015f205f8281526020019081526020015f205f8082015f9055600182015f6101000a81549073ffffffffffffffffffffffffffffffffffffffff0219169055600282015f610fd391906122e8565b600382015f9055505060035f8381526020019081526020015f20600a015f81548092919061100090612d1f565b91905055507f6ee692db105027f6f2626ec7348b1fee62bdd8b6aa9c2999ceed2aebd4dc3ee982823360405161103893929190613378565b60405180910390a15050565b61104c612292565b5f80600190505b6009548111611181573373ffffffffffffffffffffffffffffffffffffffff1660035f8381526020019081526020015f206003015f9054906101000a900473ffffffffffffffffffffffffffffffffffffffff1673ffffffffffffffffffffffffffffffffffffffff160361116e5760075f8281526020019081526020015f205f3373ffffffffffffffffffffffffffffffffffffffff1673ffffffffffffffffffffffffffffffffffffffff1681526020019081526020015f20548261111a9190613026565b91505f60075f8381526020019081526020015f205f3373ffffffffffffffffffffffffffffffffffffffff1673ffffffffffffffffffffffffffffffffffffffff1681526020019081526020015f20819055505b808061117990613184565b915050611053565b505f81116111c4576040517f08c379a00000000000000000000000000000000000000000000000000000000081526004016111bb9061341d565b60405180910390fd5b60015f9054906101000a900473ffffffffffffffffffffffffffffffffffffffff1673ffffffffffffffffffffffffffffffffffffffff1663a9059cbb33836040518363ffffffff1660e01b815260040161122092919061343b565b6020604051808303815f875af115801561123c573d5f803e3d5ffd5b505050506040513d601f19601f820116820180604052508101906112609190612f2b565b61129f576040517f08c379a0000000000000000000000000000000000000000000000000000000008152600401611296906134ac565b60405180910390fd5b7feaff4b37086828766ad3268786972c0cd24259d4c87a80f9d3963a3c3d999b0d33826040516112d092919061343b565b60405180910390a1506112e16122df565b565b6005602052815f5260405f20602052805f5260405f205f915091509054906101000a900460ff1681565b611315612292565b5f60085f8373ffffffffffffffffffffffffffffffffffffffff1673ffffffffffffffffffffffffffffffffffffffff1681526020019081526020015f205411611394576040517f08c379a000000000000000000000000000000000000000000000000000000000815260040161138b90613514565b60405180910390fd5b60065f8273ffffffffffffffffffffffffffffffffffffffff1673ffffffffffffffffffffffffffffffffffffffff1681526020019081526020015f205f3373ffffffffffffffffffffffffffffffffffffffff1673ffffffffffffffffffffffffffffffffffffffff1681526020019081526020015f205f9054906101000a900460ff1615611459576040517f08c379a00000000000000000000000000000000000000000000000000000000081526004016114509061357c565b60405180910390fd5b5f60085f8373ffffffffffffffffffffffffffffffffffffffff1673ffffffffffffffffffffffffffffffffffffffff1681526020019081526020015f205490505f6127106064836114ab9190612dfb565b6114b59190612e69565b90505f81836114c49190612e99565b905060015f9054906101000a900473ffffffffffffffffffffffffffffffffffffffff1673ffffffffffffffffffffffffffffffffffffffff166323b872dd3386846040518463ffffffff1660e01b815260040161152493929190612ecc565b6020604051808303815f875af1158015611540573d5f803e3d5ffd5b505050506040513d601f19601f820116820180604052508101906115649190612f2b565b6115a3576040517f08c379a000000000000000000000000000000000000000000000000000000000815260040161159a906135e4565b60405180910390fd5b60015f9054906101000a900473ffffffffffffffffffffffffffffffffffffffff1673ffffffffffffffffffffffffffffffffffffffff166323b872dd3360025f9054906101000a900473ffffffffffffffffffffffffffffffffffffffff16856040518463ffffffff1660e01b815260040161162293929190612ecc565b6020604051808303815f875af115801561163e573d5f803e3d5ffd5b505050506040513d601f19601f820116820180604052508101906116629190612f2b565b6116a1576040517f08c379a00000000000000000000000000000000000000000000000000000000081526004016116989061364c565b60405180910390fd5b600160065f8673ffffffffffffffffffffffffffffffffffffffff1673ffffffffffffffffffffffffffffffffffffffff1681526020019081526020015f205f3373ffffffffffffffffffffffffffffffffffffffff1673ffffffffffffffffffffffffffffffffffffffff1681526020019081526020015f205f6101000a81548160ff0219169083151502179055507f52bb96d2adcc8610a1694c331ba9f604c8a82db341584be8e78b2ae099fc3d4b843360405161176292919061366a565b60405180910390a15050506117756122df565b50565b6008602052805f5260405f205f915090505481565b6007602052815f5260405f20602052805f5260405f205f91509150505481565b60065f60035f8581526020019081526020015f206003015f9054906101000a900473ffffffffffffffffffffffffffffffffffffffff1673ffffffffffffffffffffffffffffffffffffffff1673ffffffffffffffffffffffffffffffffffffffff1681526020019081526020015f205f3373ffffffffffffffffffffffffffffffffffffffff1673ffffffffffffffffffffffffffffffffffffffff1681526020019081526020015f205f9054906101000a900460ff16806118ce575060035f8381526020019081526020015f206003015f9054906101000a900473ffffffffffffffffffffffffffffffffffffffff1673ffffffffffffffffffffffffffffffffffffffff163373ffffffffffffffffffffffffffffffffffffffff16145b61190d576040517f08c379a0000000000000000000000000000000000000000000000000000000008152600401611904906130d8565b60405180910390fd5b60035f8381526020019081526020015f20600a015f81548092919061193190613184565b91905055505f60035f8481526020019081526020015f20600a0154905060405180608001604052808281526020013373ffffffffffffffffffffffffffffffffffffffff1681526020018381526020014281525060045f8581526020019081526020015f205f8381526020019081526020015f205f820151815f01556020820151816001015f6101000a81548173ffffffffffffffffffffffffffffffffffffffff021916908373ffffffffffffffffffffffffffffffffffffffff1602179055506040820151816002019081611a089190613825565b50606082015181600301559050507fdb54cde47150062529bc4f2e10c2493c8ae39bc079c9c24f9e365c135098d4bb838233604051611a4993929190613378565b60405180910390a1505050565b60095481565b606481565b6004602052815f5260405f20602052805f5260405f205f9150915050805f015490806001015f9054906101000a900473ffffffffffffffffffffffffffffffffffffffff1690806002018054611ab6906131f8565b80601f0160208091040260200160405190810160405280929190818152602001828054611ae2906131f8565b8015611b2d5780601f10611b0457610100808354040283529160200191611b2d565b820191905f5260205f20905b815481529060010190602001808311611b1057829003601f168201915b5050505050908060030154905084565b60025f9054906101000a900473ffffffffffffffffffffffffffffffffffffffff1681565b6003602052805f5260405f205f91509050805f015490806001018054611b87906131f8565b80601f0160208091040260200160405190810160405280929190818152602001828054611bb3906131f8565b8015611bfe5780601f10611bd557610100808354040283529160200191611bfe565b820191905f5260205f20905b815481529060010190602001808311611be157829003601f168201915b505050505090806002018054611c13906131f8565b80601f0160208091040260200160405190810160405280929190818152602001828054611c3f906131f8565b8015611c8a5780601f10611c6157610100808354040283529160200191611c8a565b820191905f5260205f20905b815481529060010190602001808311611c6d57829003601f168201915b505050505090806003015f9054906101000a900473ffffffffffffffffffffffffffffffffffffffff1690806004015490806005018054611cca906131f8565b80601f0160208091040260200160405190810160405280929190818152602001828054611cf6906131f8565b8015611d415780601f10611d1857610100808354040283529160200191611d41565b820191905f5260205f20905b815481529060010190602001808311611d2457829003601f168201915b505050505090806006018054611d56906131f8565b80601f0160208091040260200160405190810160405280929190818152602001828054611d82906131f8565b8015611dcd5780601f10611da457610100808354040283529160200191611dcd565b820191905f5260205f20905b815481529060010190602001808311611db057829003601f168201915b50505050509080600701549080600901549080600a015490508a565b3373ffffffffffffffffffffffffffffffffffffffff1660045f8581526020019081526020015f205f8481526020019081526020015f206001015f9054906101000a900473ffffffffffffffffffffffffffffffffffffffff1673ffffffffffffffffffffffffffffffffffffffff1614611e99576040517f08c379a0000000000000000000000000000000000000000000000000000000008152600401611e909061335a565b60405180910390fd5b8060045f8581526020019081526020015f205f8481526020019081526020015f206002019081611ec99190613825565b507f8658b2b2c8cee37393cd41aa4afeae2f01e93df91e03364820e71e4efae12627838333604051611efd93929190613378565b60405180910390a1505050565b60015f9054906101000a900473ffffffffffffffffffffffffffffffffffffffff1681565b5f80601773ffffffffffffffffffffffffffffffffffffffff1687604051602401611f5a919061393c565b6040516020818303038152906040527fac5c8535000000000000000000000000000000000000000000000000000000007bffffffffffffffffffffffffffffffffffffffffffffffffffffffff19166020820180517bffffffffffffffffffffffffffffffffffffffffffffffffffffffff8381831617835250505050604051611fe4919061326c565b5f604051808303815f865af19150503d805f811461201d576040519150601f19603f3d011682016040523d82523d5f602084013e612022565b606091505b509150915081612067576040517f08c379a000000000000000000000000000000000000000000000000000000000815260040161205e906139a6565b60405180910390fd5b5f8180602001905181019061207c9190613a32565b905060095f81548092919061209090613184565b919050555060405180610160016040528060095481526020018b81526020018a81526020013373ffffffffffffffffffffffffffffffffffffffff1681526020014281526020018281526020018781526020018681526020018881526020015f81526020015f81525060035f60095481526020019081526020015f205f820151815f015560208201518160010190816121299190613825565b50604082015181600201908161213f9190613825565b506060820151816003015f6101000a81548173ffffffffffffffffffffffffffffffffffffffff021916908373ffffffffffffffffffffffffffffffffffffffff1602179055506080820151816004015560a08201518160050190816121a59190613825565b5060c08201518160060190816121bb9190613825565b5060e082015181600701556101008201518160080190805190602001906121e3929190612325565b50610120820151816009015561014082015181600a01559050508360085f3373ffffffffffffffffffffffffffffffffffffffff1673ffffffffffffffffffffffffffffffffffffffff1681526020019081526020015f20819055507fb09585dcfa67e6ae8b1880d8be4dedd6b176990f3317afb12d0432b72ffc32da6009548b8b3342868c8c60405161227e989796959493929190613a79565b60405180910390a150505050505050505050565b60025f54036122d6576040517f08c379a00000000000000000000000000000000000000000000000000000000081526004016122cd90613b5b565b60405180910390fd5b60025f81905550565b60015f81905550565b5080546122f4906131f8565b5f825580601f106123055750612322565b601f0160209004905f5260205f2090810190612321919061237c565b5b50565b828054828255905f5260205f2090810192821561236b579160200282015b8281111561236a57825182908161235a9190613825565b5091602001919060010190612343565b5b5090506123789190612397565b5090565b5b80821115612393575f815f90555060010161237d565b5090565b5b808211156123b6575f81816123ad91906122e8565b50600101612398565b5090565b5f604051905090565b5f80fd5b5f80fd5b5f819050919050565b6123dd816123cb565b81146123e7575f80fd5b50565b5f813590506123f8816123d4565b92915050565b5f60208284031215612413576124126123c3565b5b5f612420848285016123ea565b91505092915050565b5f806040838503121561243f5761243e6123c3565b5b5f61244c858286016123ea565b925050602061245d858286016123ea565b9150509250929050565b5f73ffffffffffffffffffffffffffffffffffffffff82169050919050565b5f61249082612467565b9050919050565b6124a081612486565b81146124aa575f80fd5b50565b5f813590506124bb81612497565b92915050565b5f80604083850312156124d7576124d66123c3565b5b5f6124e4858286016124ad565b92505060206124f5858286016124ad565b9150509250929050565b5f8115159050919050565b612513816124ff565b82525050565b5f60208201905061252c5f83018461250a565b92915050565b5f81519050919050565b5f82825260208201905092915050565b8281835e5f83830152505050565b5f601f19601f8301169050919050565b5f61257482612532565b61257e818561253c565b935061258e81856020860161254c565b6125978161255a565b840191505092915050565b5f6020820190508181035f8301526125ba818461256a565b905092915050565b5f80604083850312156125d8576125d76123c3565b5b5f6125e5858286016123ea565b92505060206125f6858286016124ad565b9150509250929050565b5f60208284031215612615576126146123c3565b5b5f612622848285016124ad565b91505092915050565b612634816123cb565b82525050565b5f60208201905061264d5f83018461262b565b92915050565b5f80fd5b5f80fd5b7f4e487b71000000000000000000000000000000000000000000000000000000005f52604160045260245ffd5b6126918261255a565b810181811067ffffffffffffffff821117156126b0576126af61265b565b5b80604052505050565b5f6126c26123ba565b90506126ce8282612688565b919050565b5f67ffffffffffffffff8211156126ed576126ec61265b565b5b6126f68261255a565b9050602081019050919050565b828183375f83830152505050565b5f61272361271e846126d3565b6126b9565b90508281526020810184848401111561273f5761273e612657565b5b61274a848285612703565b509392505050565b5f82601f83011261276657612765612653565b5b8135612776848260208601612711565b91505092915050565b5f8060408385031215612795576127946123c3565b5b5f6127a2858286016123ea565b925050602083013567ffffffffffffffff8111156127c3576127c26123c7565b5b6127cf85828601612752565b9150509250929050565b6127e281612486565b82525050565b5f6080820190506127fb5f83018761262b565b61280860208301866127d9565b818103604083015261281a818561256a565b9050612829606083018461262b565b95945050505050565b5f6020820190506128455f8301846127d9565b92915050565b5f6101408201905061285f5f83018d61262b565b8181036020830152612871818c61256a565b90508181036040830152612885818b61256a565b9050612894606083018a6127d9565b6128a1608083018961262b565b81810360a08301526128b3818861256a565b905081810360c08301526128c7818761256a565b90506128d660e083018661262b565b6128e461010083018561262b565b6128f261012083018461262b565b9b9a5050505050505050505050565b5f805f60608486031215612918576129176123c3565b5b5f612925868287016123ea565b9350506020612936868287016123ea565b925050604084013567ffffffffffffffff811115612957576129566123c7565b5b61296386828701612752565b9150509250925092565b5f819050919050565b5f61299061298b61298684612467565b61296d565b612467565b9050919050565b5f6129a182612976565b9050919050565b5f6129b282612997565b9050919050565b6129c2816129a8565b82525050565b5f6020820190506129db5f8301846129b9565b92915050565b5f67ffffffffffffffff8211156129fb576129fa61265b565b5b612a048261255a565b9050602081019050919050565b5f612a23612a1e846129e1565b6126b9565b905082815260208101848484011115612a3f57612a3e612657565b5b612a4a848285612703565b509392505050565b5f82601f830112612a6657612a65612653565b5b8135612a76848260208601612a11565b91505092915050565b5f67ffffffffffffffff821115612a9957612a9861265b565b5b602082029050602081019050919050565b5f80fd5b5f612ac0612abb84612a7f565b6126b9565b90508083825260208201905060208402830185811115612ae357612ae2612aaa565b5b835b81811015612b2a57803567ffffffffffffffff811115612b0857612b07612653565b5b808601612b158982612752565b85526020850194505050602081019050612ae5565b5050509392505050565b5f82601f830112612b4857612b47612653565b5b8135612b58848260208601612aae565b91505092915050565b5f805f805f805f60e0888a031215612b7c57612b7b6123c3565b5b5f88013567ffffffffffffffff811115612b9957612b986123c7565b5b612ba58a828b01612752565b975050602088013567ffffffffffffffff811115612bc657612bc56123c7565b5b612bd28a828b01612752565b965050604088013567ffffffffffffffff811115612bf357612bf26123c7565b5b612bff8a828b01612a52565b955050606088013567ffffffffffffffff811115612c2057612c1f6123c7565b5b612c2c8a828b01612b34565b945050608088013567ffffffffffffffff811115612c4d57612c4c6123c7565b5b612c598a828b01612752565b93505060a0612c6a8a828b016123ea565b92505060c0612c7b8a828b016123ea565b91505092959891949750929550565b7f596f7520686176656e2774206c696b6564207468697320766964656f212121005f82015250565b5f612cbe601f8361253c565b9150612cc982612c8a565b602082019050919050565b5f6020820190508181035f830152612ceb81612cb2565b9050919050565b7f4e487b71000000000000000000000000000000000000000000000000000000005f52601160045260245ffd5b5f612d29826123cb565b91505f8203612d3b57612d3a612cf2565b5b600182039050919050565b5f604082019050612d595f83018561262b565b612d6660208301846127d9565b9392505050565b7f54697020416d6f756e742068617320746f2062652067726561746572207468615f8201527f6e207a65726f0000000000000000000000000000000000000000000000000000602082015250565b5f612dc760268361253c565b9150612dd282612d6d565b604082019050919050565b5f6020820190508181035f830152612df481612dbb565b9050919050565b5f612e05826123cb565b9150612e10836123cb565b9250828202612e1e816123cb565b91508282048414831517612e3557612e34612cf2565b5b5092915050565b7f4e487b71000000000000000000000000000000000000000000000000000000005f52601260045260245ffd5b5f612e73826123cb565b9150612e7e836123cb565b925082612e8e57612e8d612e3c565b5b828204905092915050565b5f612ea3826123cb565b9150612eae836123cb565b9250828203905081811115612ec657612ec5612cf2565b5b92915050565b5f606082019050612edf5f8301866127d9565b612eec60208301856127d9565b612ef9604083018461262b565b949350505050565b612f0a816124ff565b8114612f14575f80fd5b50565b5f81519050612f2581612f01565b92915050565b5f60208284031215612f4057612f3f6123c3565b5b5f612f4d84828501612f17565b91505092915050565b7f546970206661696c6564210000000000000000000000000000000000000000005f82015250565b5f612f8a600b8361253c565b9150612f9582612f56565b602082019050919050565b5f6020820190508181035f830152612fb781612f7e565b9050919050565b7f506c6174666f726d20666565206661696c6564210000000000000000000000005f82015250565b5f612ff260148361253c565b9150612ffd82612fbe565b602082019050919050565b5f6020820190508181035f83015261301f81612fe6565b9050919050565b5f613030826123cb565b915061303b836123cb565b925082820190508082111561305357613052612cf2565b5b92915050565b5f60608201905061306c5f83018661262b565b61307960208301856127d9565b613086604083018461262b565b949350505050565b7f4163636573732064656e696564000000000000000000000000000000000000005f82015250565b5f6130c2600d8361253c565b91506130cd8261308e565b602082019050919050565b5f6020820190508181035f8301526130ef816130b6565b9050919050565b7f596f75206861766520616c7265616479206c696b6564207468697320766964655f8201527f6f21212100000000000000000000000000000000000000000000000000000000602082015250565b5f61315060248361253c565b915061315b826130f6565b604082019050919050565b5f6020820190508181035f83015261317d81613144565b9050919050565b5f61318e826123cb565b91507fffffffffffffffffffffffffffffffffffffffffffffffffffffffffffffffff82036131c0576131bf612cf2565b5b600182019050919050565b7f4e487b71000000000000000000000000000000000000000000000000000000005f52602260045260245ffd5b5f600282049050600182168061320f57607f821691505b602082108103613222576132216131cb565b5b50919050565b5f81519050919050565b5f81905092915050565b5f61324682613228565b6132508185613232565b935061326081856020860161254c565b80840191505092915050565b5f613277828461323c565b915081905092915050565b7f4572726f72206665746368696e672064617461000000000000000000000000005f82015250565b5f6132b660138361253c565b91506132c182613282565b602082019050919050565b5f6020820190508181035f8301526132e3816132aa565b9050919050565b7f596f7520617265206e6f742074686520617574686f72206f66207468697320635f8201527f6f6d6d656e742100000000000000000000000000000000000000000000000000602082015250565b5f61334460278361253c565b915061334f826132ea565b604082019050919050565b5f6020820190508181035f83015261337181613338565b9050919050565b5f60608201905061338b5f83018661262b565b613398602083018561262b565b6133a560408301846127d9565b949350505050565b7f4e6f207469707320617661696c61626c6520666f72207769746864726177616c5f8201527f2100000000000000000000000000000000000000000000000000000000000000602082015250565b5f61340760218361253c565b9150613412826133ad565b604082019050919050565b5f6020820190508181035f830152613434816133fb565b9050919050565b5f60408201905061344e5f8301856127d9565b61345b602083018461262b565b9392505050565b7f5769746864726177616c206661696c65642100000000000000000000000000005f82015250565b5f61349660128361253c565b91506134a182613462565b602082019050919050565b5f6020820190508181035f8301526134c38161348a565b9050919050565b7f55706c6f6164657220686173206e6f20616363657373206665652073657400005f82015250565b5f6134fe601e8361253c565b9150613509826134ca565b602082019050919050565b5f6020820190508181035f83015261352b816134f2565b9050919050565b7f41636365737320616c7265616479206772616e746564000000000000000000005f82015250565b5f61356660168361253c565b915061357182613532565b602082019050919050565b5f6020820190508181035f8301526135938161355a565b9050919050565b7f416363657373207061796d656e74206661696c656421000000000000000000005f82015250565b5f6135ce60168361253c565b91506135d98261359a565b602082019050919050565b5f6020820190508181035f8301526135fb816135c2565b9050919050565b7f506c6174666f726d20666565207472616e73666572206661696c6564210000005f82015250565b5f613636601d8361253c565b915061364182613602565b602082019050919050565b5f6020820190508181035f8301526136638161362a565b9050919050565b5f60408201905061367d5f8301856127d9565b61368a60208301846127d9565b9392505050565b5f819050815f5260205f209050919050565b5f6020601f8301049050919050565b5f82821b905092915050565b5f600883026136ed7fffffffffffffffffffffffffffffffffffffffffffffffffffffffffffffffff826136b2565b6136f786836136b2565b95508019841693508086168417925050509392505050565b5f61372961372461371f846123cb565b61296d565b6123cb565b9050919050565b5f819050919050565b6137428361370f565b61375661374e82613730565b8484546136be565b825550505050565b5f90565b61376a61375e565b613775818484613739565b505050565b5b818110156137985761378d5f82613762565b60018101905061377b565b5050565b601f8211156137dd576137ae81613691565b6137b7846136a3565b810160208510156137c6578190505b6137da6137d2856136a3565b83018261377a565b50505b505050565b5f82821c905092915050565b5f6137fd5f19846008026137e2565b1980831691505092915050565b5f61381583836137ee565b9150826002028217905092915050565b61382e82612532565b67ffffffffffffffff8111156138475761384661265b565b5b61385182546131f8565b61385c82828561379c565b5f60209050601f83116001811461388d575f841561387b578287015190505b613885858261380a565b8655506138ec565b601f19841661389b86613691565b5f5b828110156138c25784890151825560018201915060208501945060208101905061389d565b868310156138df57848901516138db601f8916826137ee565b8355505b6001600288020188555050505b505050505050565b5f82825260208201905092915050565b5f61390e82613228565b61391881856138f4565b935061392881856020860161254c565b6139318161255a565b840191505092915050565b5f6020820190508181035f8301526139548184613904565b905092915050565b7f417277656176652055706c6f6164204661696c656400000000000000000000005f82015250565b5f61399060158361253c565b915061399b8261395c565b602082019050919050565b5f6020820190508181035f8301526139bd81613984565b9050919050565b5f6139d66139d1846126d3565b6126b9565b9050828152602081018484840111156139f2576139f1612657565b5b6139fd84828561254c565b509392505050565b5f82601f830112613a1957613a18612653565b5b8151613a298482602086016139c4565b91505092915050565b5f60208284031215613a4757613a466123c3565b5b5f82015167ffffffffffffffff811115613a6457613a636123c7565b5b613a7084828501613a05565b91505092915050565b5f61010082019050613a8d5f83018b61262b565b8181036020830152613a9f818a61256a565b90508181036040830152613ab3818961256a565b9050613ac260608301886127d9565b613acf608083018761262b565b81810360a0830152613ae1818661256a565b905081810360c0830152613af5818561256a565b9050613b0460e083018461262b565b9998505050505050505050565b7f5265656e7472616e637947756172643a207265656e7472616e742063616c6c005f82015250565b5f613b45601f8361253c565b9150613b5082613b11565b602082019050919050565b5f6020820190508181035f830152613b7281613b39565b905091905056fea2646970667358221220f9b2a64a9ee485bf4da65e121aac288bfcc955cf5d85bb7a6c9028a2fbc7e02764736f6c634300081a0033",
					"opcodes": "PUSH1 0x80 PUSH1 0x40 MSTORE CALLVALUE DUP1 ISZERO PUSH2 0xF JUMPI PUSH0 DUP1 REVERT JUMPDEST POP PUSH1 0x40 MLOAD PUSH2 0x3D17 CODESIZE SUB DUP1 PUSH2 0x3D17 DUP4 CODECOPY DUP2 DUP2 ADD PUSH1 0x40 MSTORE DUP2 ADD SWAP1 PUSH2 0x31 SWAP2 SWAP1 PUSH2 0x11D JUMP JUMPDEST PUSH1 0x1 PUSH0 DUP2 SWAP1 SSTORE POP DUP2 PUSH1 0x1 PUSH0 PUSH2 0x100 EXP DUP2 SLOAD DUP2 PUSH20 0xFFFFFFFFFFFFFFFFFFFFFFFFFFFFFFFFFFFFFFFF MUL NOT AND SWAP1 DUP4 PUSH20 0xFFFFFFFFFFFFFFFFFFFFFFFFFFFFFFFFFFFFFFFF AND MUL OR SWAP1 SSTORE POP DUP1 PUSH1 0x2 PUSH0 PUSH2 0x100 EXP DUP2 SLOAD DUP2 PUSH20 0xFFFFFFFFFFFFFFFFFFFFFFFFFFFFFFFFFFFFFFFF MUL NOT AND SWAP1 DUP4 PUSH20 0xFFFFFFFFFFFFFFFFFFFFFFFFFFFFFFFFFFFFFFFF AND MUL OR SWAP1 SSTORE POP POP POP PUSH2 0x15B JUMP JUMPDEST PUSH0 DUP1 REVERT JUMPDEST PUSH0 PUSH20 0xFFFFFFFFFFFFFFFFFFFFFFFFFFFFFFFFFFFFFFFF DUP3 AND SWAP1 POP SWAP2 SWAP1 POP JUMP JUMPDEST PUSH0 PUSH2 0xEC DUP3 PUSH2 0xC3 JUMP JUMPDEST SWAP1 POP SWAP2 SWAP1 POP JUMP JUMPDEST PUSH2 0xFC DUP2 PUSH2 0xE2 JUMP JUMPDEST DUP2 EQ PUSH2 0x106 JUMPI PUSH0 DUP1 REVERT JUMPDEST POP JUMP JUMPDEST PUSH0 DUP2 MLOAD SWAP1 POP PUSH2 0x117 DUP2 PUSH2 0xF3 JUMP JUMPDEST SWAP3 SWAP2 POP POP JUMP JUMPDEST PUSH0 DUP1 PUSH1 0x40 DUP4 DUP6 SUB SLT ISZERO PUSH2 0x133 JUMPI PUSH2 0x132 PUSH2 0xBF JUMP JUMPDEST JUMPDEST PUSH0 PUSH2 0x140 DUP6 DUP3 DUP7 ADD PUSH2 0x109 JUMP JUMPDEST SWAP3 POP POP PUSH1 0x20 PUSH2 0x151 DUP6 DUP3 DUP7 ADD PUSH2 0x109 JUMP JUMPDEST SWAP2 POP POP SWAP3 POP SWAP3 SWAP1 POP JUMP JUMPDEST PUSH2 0x3BAF DUP1 PUSH2 0x168 PUSH0 CODECOPY PUSH0 RETURN INVALID PUSH1 0x80 PUSH1 0x40 MSTORE CALLVALUE DUP1 ISZERO PUSH2 0xF JUMPI PUSH0 DUP1 REVERT JUMPDEST POP PUSH1 0x4 CALLDATASIZE LT PUSH2 0x12A JUMPI PUSH0 CALLDATALOAD PUSH1 0xE0 SHR DUP1 PUSH4 0x8C33F3B0 GT PUSH2 0xAB JUMPI DUP1 PUSH4 0xDBE55E56 GT PUSH2 0x6F JUMPI DUP1 PUSH4 0xDBE55E56 EQ PUSH2 0x33F JUMPI DUP1 PUSH4 0xE6821BF5 EQ PUSH2 0x35D JUMPI DUP1 PUSH4 0xFA561152 EQ PUSH2 0x396 JUMPI DUP1 PUSH4 0xFC0C546A EQ PUSH2 0x3B2 JUMPI DUP1 PUSH4 0xFD442DBD EQ PUSH2 0x3D0 JUMPI PUSH2 0x12A JUMP JUMPDEST DUP1 PUSH4 0x8C33F3B0 EQ PUSH2 0x284 JUMPI DUP1 PUSH4 0xAA7E5683 EQ PUSH2 0x2B4 JUMPI DUP1 PUSH4 0xC61B5F4C EQ PUSH2 0x2D0 JUMPI DUP1 PUSH4 0xCDD78CFC EQ PUSH2 0x2EE JUMPI DUP1 PUSH4 0xD4516AB5 EQ PUSH2 0x30C JUMPI PUSH2 0x12A JUMP JUMPDEST DUP1 PUSH4 0x31A4BCB5 GT PUSH2 0xF2 JUMPI DUP1 PUSH4 0x31A4BCB5 EQ PUSH2 0x1E2 JUMPI DUP1 PUSH4 0x3AAA74B2 EQ PUSH2 0x1FE JUMPI DUP1 PUSH4 0x61746A5C EQ PUSH2 0x208 JUMPI DUP1 PUSH4 0x63370EE7 EQ PUSH2 0x238 JUMPI DUP1 PUSH4 0x7FFD8A8C EQ PUSH2 0x254 JUMPI PUSH2 0x12A JUMP JUMPDEST DUP1 PUSH4 0x11ABD324 EQ PUSH2 0x12E JUMPI DUP1 PUSH4 0x147331E1 EQ PUSH2 0x14A JUMPI DUP1 PUSH4 0x1709EF07 EQ PUSH2 0x166 JUMPI DUP1 PUSH4 0x27260D5C EQ PUSH2 0x196 JUMPI DUP1 PUSH4 0x2893ECA2 EQ PUSH2 0x1B2 JUMPI JUMPDEST PUSH0 DUP1 REVERT JUMPDEST PUSH2 0x148 PUSH1 0x4 DUP1 CALLDATASIZE SUB DUP2 ADD SWAP1 PUSH2 0x143 SWAP2 SWAP1 PUSH2 0x23FE JUMP JUMPDEST PUSH2 0x3EC JUMP JUMPDEST STOP JUMPDEST PUSH2 0x164 PUSH1 0x4 DUP1 CALLDATASIZE SUB DUP2 ADD SWAP1 PUSH2 0x15F SWAP2 SWAP1 PUSH2 0x2429 JUMP JUMPDEST PUSH2 0x56B JUMP JUMPDEST STOP JUMPDEST PUSH2 0x180 PUSH1 0x4 DUP1 CALLDATASIZE SUB DUP2 ADD SWAP1 PUSH2 0x17B SWAP2 SWAP1 PUSH2 0x24C1 JUMP JUMPDEST PUSH2 0x899 JUMP JUMPDEST PUSH1 0x40 MLOAD PUSH2 0x18D SWAP2 SWAP1 PUSH2 0x2519 JUMP JUMPDEST PUSH1 0x40 MLOAD DUP1 SWAP2 SUB SWAP1 RETURN JUMPDEST PUSH2 0x1B0 PUSH1 0x4 DUP1 CALLDATASIZE SUB DUP2 ADD SWAP1 PUSH2 0x1AB SWAP2 SWAP1 PUSH2 0x23FE JUMP JUMPDEST PUSH2 0x8C3 JUMP JUMPDEST STOP JUMPDEST PUSH2 0x1CC PUSH1 0x4 DUP1 CALLDATASIZE SUB DUP2 ADD SWAP1 PUSH2 0x1C7 SWAP2 SWAP1 PUSH2 0x23FE JUMP JUMPDEST PUSH2 0xB85 JUMP JUMPDEST PUSH1 0x40 MLOAD PUSH2 0x1D9 SWAP2 SWAP1 PUSH2 0x25A2 JUMP JUMPDEST PUSH1 0x40 MLOAD DUP1 SWAP2 SUB SWAP1 RETURN JUMPDEST PUSH2 0x1FC PUSH1 0x4 DUP1 CALLDATASIZE SUB DUP2 ADD SWAP1 PUSH2 0x1F7 SWAP2 SWAP1 PUSH2 0x2429 JUMP JUMPDEST PUSH2 0xEC7 JUMP JUMPDEST STOP JUMPDEST PUSH2 0x206 PUSH2 0x1044 JUMP JUMPDEST STOP JUMPDEST PUSH2 0x222 PUSH1 0x4 DUP1 CALLDATASIZE SUB DUP2 ADD SWAP1 PUSH2 0x21D SWAP2 SWAP1 PUSH2 0x25C2 JUMP JUMPDEST PUSH2 0x12E3 JUMP JUMPDEST PUSH1 0x40 MLOAD PUSH2 0x22F SWAP2 SWAP1 PUSH2 0x2519 JUMP JUMPDEST PUSH1 0x40 MLOAD DUP1 SWAP2 SUB SWAP1 RETURN JUMPDEST PUSH2 0x252 PUSH1 0x4 DUP1 CALLDATASIZE SUB DUP2 ADD SWAP1 PUSH2 0x24D SWAP2 SWAP1 PUSH2 0x2600 JUMP JUMPDEST PUSH2 0x130D JUMP JUMPDEST STOP JUMPDEST PUSH2 0x26E PUSH1 0x4 DUP1 CALLDATASIZE SUB DUP2 ADD SWAP1 PUSH2 0x269 SWAP2 SWAP1 PUSH2 0x2600 JUMP JUMPDEST PUSH2 0x1778 JUMP JUMPDEST PUSH1 0x40 MLOAD PUSH2 0x27B SWAP2 SWAP1 PUSH2 0x263A JUMP JUMPDEST PUSH1 0x40 MLOAD DUP1 SWAP2 SUB SWAP1 RETURN JUMPDEST PUSH2 0x29E PUSH1 0x4 DUP1 CALLDATASIZE SUB DUP2 ADD SWAP1 PUSH2 0x299 SWAP2 SWAP1 PUSH2 0x25C2 JUMP JUMPDEST PUSH2 0x178D JUMP JUMPDEST PUSH1 0x40 MLOAD PUSH2 0x2AB SWAP2 SWAP1 PUSH2 0x263A JUMP JUMPDEST PUSH1 0x40 MLOAD DUP1 SWAP2 SUB SWAP1 RETURN JUMPDEST PUSH2 0x2CE PUSH1 0x4 DUP1 CALLDATASIZE SUB DUP2 ADD SWAP1 PUSH2 0x2C9 SWAP2 SWAP1 PUSH2 0x277F JUMP JUMPDEST PUSH2 0x17AD JUMP JUMPDEST STOP JUMPDEST PUSH2 0x2D8 PUSH2 0x1A56 JUMP JUMPDEST PUSH1 0x40 MLOAD PUSH2 0x2E5 SWAP2 SWAP1 PUSH2 0x263A JUMP JUMPDEST PUSH1 0x40 MLOAD DUP1 SWAP2 SUB SWAP1 RETURN JUMPDEST PUSH2 0x2F6 PUSH2 0x1A5C JUMP JUMPDEST PUSH1 0x40 MLOAD PUSH2 0x303 SWAP2 SWAP1 PUSH2 0x263A JUMP JUMPDEST PUSH1 0x40 MLOAD DUP1 SWAP2 SUB SWAP1 RETURN JUMPDEST PUSH2 0x326 PUSH1 0x4 DUP1 CALLDATASIZE SUB DUP2 ADD SWAP1 PUSH2 0x321 SWAP2 SWAP1 PUSH2 0x2429 JUMP JUMPDEST PUSH2 0x1A61 JUMP JUMPDEST PUSH1 0x40 MLOAD PUSH2 0x336 SWAP5 SWAP4 SWAP3 SWAP2 SWAP1 PUSH2 0x27E8 JUMP JUMPDEST PUSH1 0x40 MLOAD DUP1 SWAP2 SUB SWAP1 RETURN JUMPDEST PUSH2 0x347 PUSH2 0x1B3D JUMP JUMPDEST PUSH1 0x40 MLOAD PUSH2 0x354 SWAP2 SWAP1 PUSH2 0x2832 JUMP JUMPDEST PUSH1 0x40 MLOAD DUP1 SWAP2 SUB SWAP1 RETURN JUMPDEST PUSH2 0x377 PUSH1 0x4 DUP1 CALLDATASIZE SUB DUP2 ADD SWAP1 PUSH2 0x372 SWAP2 SWAP1 PUSH2 0x23FE JUMP JUMPDEST PUSH2 0x1B62 JUMP JUMPDEST PUSH1 0x40 MLOAD PUSH2 0x38D SWAP11 SWAP10 SWAP9 SWAP8 SWAP7 SWAP6 SWAP5 SWAP4 SWAP3 SWAP2 SWAP1 PUSH2 0x284B JUMP JUMPDEST PUSH1 0x40 MLOAD DUP1 SWAP2 SUB SWAP1 RETURN JUMPDEST PUSH2 0x3B0 PUSH1 0x4 DUP1 CALLDATASIZE SUB DUP2 ADD SWAP1 PUSH2 0x3AB SWAP2 SWAP1 PUSH2 0x2901 JUMP JUMPDEST PUSH2 0x1DE9 JUMP JUMPDEST STOP JUMPDEST PUSH2 0x3BA PUSH2 0x1F0A JUMP JUMPDEST PUSH1 0x40 MLOAD PUSH2 0x3C7 SWAP2 SWAP1 PUSH2 0x29C8 JUMP JUMPDEST PUSH1 0x40 MLOAD DUP1 SWAP2 SUB SWAP1 RETURN JUMPDEST PUSH2 0x3EA PUSH1 0x4 DUP1 CALLDATASIZE SUB DUP2 ADD SWAP1 PUSH2 0x3E5 SWAP2 SWAP1 PUSH2 0x2B61 JUMP JUMPDEST PUSH2 0x1F2F JUMP JUMPDEST STOP JUMPDEST PUSH1 0x5 PUSH0 DUP3 DUP2 MSTORE PUSH1 0x20 ADD SWAP1 DUP2 MSTORE PUSH1 0x20 ADD PUSH0 KECCAK256 PUSH0 CALLER PUSH20 0xFFFFFFFFFFFFFFFFFFFFFFFFFFFFFFFFFFFFFFFF AND PUSH20 0xFFFFFFFFFFFFFFFFFFFFFFFFFFFFFFFFFFFFFFFF AND DUP2 MSTORE PUSH1 0x20 ADD SWAP1 DUP2 MSTORE PUSH1 0x20 ADD PUSH0 KECCAK256 PUSH0 SWAP1 SLOAD SWAP1 PUSH2 0x100 EXP SWAP1 DIV PUSH1 0xFF AND DUP1 ISZERO PUSH2 0x464 JUMPI POP PUSH0 PUSH1 0x3 PUSH0 DUP4 DUP2 MSTORE PUSH1 0x20 ADD SWAP1 DUP2 MSTORE PUSH1 0x20 ADD PUSH0 KECCAK256 PUSH1 0x9 ADD SLOAD GT JUMPDEST PUSH2 0x4A3 JUMPI PUSH1 0x40 MLOAD PUSH32 0x8C379A000000000000000000000000000000000000000000000000000000000 DUP2 MSTORE PUSH1 0x4 ADD PUSH2 0x49A SWAP1 PUSH2 0x2CD4 JUMP JUMPDEST PUSH1 0x40 MLOAD DUP1 SWAP2 SUB SWAP1 REVERT JUMPDEST PUSH0 PUSH1 0x5 PUSH0 DUP4 DUP2 MSTORE PUSH1 0x20 ADD SWAP1 DUP2 MSTORE PUSH1 0x20 ADD PUSH0 KECCAK256 PUSH0 CALLER PUSH20 0xFFFFFFFFFFFFFFFFFFFFFFFFFFFFFFFFFFFFFFFF AND PUSH20 0xFFFFFFFFFFFFFFFFFFFFFFFFFFFFFFFFFFFFFFFF AND DUP2 MSTORE PUSH1 0x20 ADD SWAP1 DUP2 MSTORE PUSH1 0x20 ADD PUSH0 KECCAK256 PUSH0 PUSH2 0x100 EXP DUP2 SLOAD DUP2 PUSH1 0xFF MUL NOT AND SWAP1 DUP4 ISZERO ISZERO MUL OR SWAP1 SSTORE POP PUSH1 0x3 PUSH0 DUP3 DUP2 MSTORE PUSH1 0x20 ADD SWAP1 DUP2 MSTORE PUSH1 0x20 ADD PUSH0 KECCAK256 PUSH1 0x9 ADD PUSH0 DUP2 SLOAD DUP1 SWAP3 SWAP2 SWAP1 PUSH2 0x52A SWAP1 PUSH2 0x2D1F JUMP JUMPDEST SWAP2 SWAP1 POP SSTORE POP PUSH32 0xE1EA13F5A6D14E33425B04B4CD2185C1919991C8B880EECAA279F4906475D6F9 DUP2 CALLER PUSH1 0x40 MLOAD PUSH2 0x560 SWAP3 SWAP2 SWAP1 PUSH2 0x2D46 JUMP JUMPDEST PUSH1 0x40 MLOAD DUP1 SWAP2 SUB SWAP1 LOG1 POP JUMP JUMPDEST PUSH2 0x573 PUSH2 0x2292 JUMP JUMPDEST PUSH0 DUP2 GT PUSH2 0x5B5 JUMPI PUSH1 0x40 MLOAD PUSH32 0x8C379A000000000000000000000000000000000000000000000000000000000 DUP2 MSTORE PUSH1 0x4 ADD PUSH2 0x5AC SWAP1 PUSH2 0x2DDD JUMP JUMPDEST PUSH1 0x40 MLOAD DUP1 SWAP2 SUB SWAP1 REVERT JUMPDEST PUSH0 PUSH1 0x64 PUSH1 0x1 DUP4 PUSH2 0x5C5 SWAP2 SWAP1 PUSH2 0x2DFB JUMP JUMPDEST PUSH2 0x5CF SWAP2 SWAP1 PUSH2 0x2E69 JUMP JUMPDEST SWAP1 POP PUSH0 DUP2 DUP4 PUSH2 0x5DE SWAP2 SWAP1 PUSH2 0x2E99 JUMP JUMPDEST SWAP1 POP PUSH1 0x1 PUSH0 SWAP1 SLOAD SWAP1 PUSH2 0x100 EXP SWAP1 DIV PUSH20 0xFFFFFFFFFFFFFFFFFFFFFFFFFFFFFFFFFFFFFFFF AND PUSH20 0xFFFFFFFFFFFFFFFFFFFFFFFFFFFFFFFFFFFFFFFF AND PUSH4 0x23B872DD CALLER PUSH1 0x3 PUSH0 DUP9 DUP2 MSTORE PUSH1 0x20 ADD SWAP1 DUP2 MSTORE PUSH1 0x20 ADD PUSH0 KECCAK256 PUSH1 0x3 ADD PUSH0 SWAP1 SLOAD SWAP1 PUSH2 0x100 EXP SWAP1 DIV PUSH20 0xFFFFFFFFFFFFFFFFFFFFFFFFFFFFFFFFFFFFFFFF AND DUP5 PUSH1 0x40 MLOAD DUP5 PUSH4 0xFFFFFFFF AND PUSH1 0xE0 SHL DUP2 MSTORE PUSH1 0x4 ADD PUSH2 0x671 SWAP4 SWAP3 SWAP2 SWAP1 PUSH2 0x2ECC JUMP JUMPDEST PUSH1 0x20 PUSH1 0x40 MLOAD DUP1 DUP4 SUB DUP2 PUSH0 DUP8 GAS CALL ISZERO DUP1 ISZERO PUSH2 0x68D JUMPI RETURNDATASIZE PUSH0 DUP1 RETURNDATACOPY RETURNDATASIZE PUSH0 REVERT JUMPDEST POP POP POP POP PUSH1 0x40 MLOAD RETURNDATASIZE PUSH1 0x1F NOT PUSH1 0x1F DUP3 ADD AND DUP3 ADD DUP1 PUSH1 0x40 MSTORE POP DUP2 ADD SWAP1 PUSH2 0x6B1 SWAP2 SWAP1 PUSH2 0x2F2B JUMP JUMPDEST PUSH2 0x6F0 JUMPI PUSH1 0x40 MLOAD PUSH32 0x8C379A000000000000000000000000000000000000000000000000000000000 DUP2 MSTORE PUSH1 0x4 ADD PUSH2 0x6E7 SWAP1 PUSH2 0x2FA0 JUMP JUMPDEST PUSH1 0x40 MLOAD DUP1 SWAP2 SUB SWAP1 REVERT JUMPDEST PUSH1 0x1 PUSH0 SWAP1 SLOAD SWAP1 PUSH2 0x100 EXP SWAP1 DIV PUSH20 0xFFFFFFFFFFFFFFFFFFFFFFFFFFFFFFFFFFFFFFFF AND PUSH20 0xFFFFFFFFFFFFFFFFFFFFFFFFFFFFFFFFFFFFFFFF AND PUSH4 0x23B872DD CALLER PUSH1 0x2 PUSH0 SWAP1 SLOAD SWAP1 PUSH2 0x100 EXP SWAP1 DIV PUSH20 0xFFFFFFFFFFFFFFFFFFFFFFFFFFFFFFFFFFFFFFFF AND DUP6 PUSH1 0x40 MLOAD DUP5 PUSH4 0xFFFFFFFF AND PUSH1 0xE0 SHL DUP2 MSTORE PUSH1 0x4 ADD PUSH2 0x76F SWAP4 SWAP3 SWAP2 SWAP1 PUSH2 0x2ECC JUMP JUMPDEST PUSH1 0x20 PUSH1 0x40 MLOAD DUP1 DUP4 SUB DUP2 PUSH0 DUP8 GAS CALL ISZERO DUP1 ISZERO PUSH2 0x78B JUMPI RETURNDATASIZE PUSH0 DUP1 RETURNDATACOPY RETURNDATASIZE PUSH0 REVERT JUMPDEST POP POP POP POP PUSH1 0x40 MLOAD RETURNDATASIZE PUSH1 0x1F NOT PUSH1 0x1F DUP3 ADD AND DUP3 ADD DUP1 PUSH1 0x40 MSTORE POP DUP2 ADD SWAP1 PUSH2 0x7AF SWAP2 SWAP1 PUSH2 0x2F2B JUMP JUMPDEST PUSH2 0x7EE JUMPI PUSH1 0x40 MLOAD PUSH32 0x8C379A000000000000000000000000000000000000000000000000000000000 DUP2 MSTORE PUSH1 0x4 ADD PUSH2 0x7E5 SWAP1 PUSH2 0x3008 JUMP JUMPDEST PUSH1 0x40 MLOAD DUP1 SWAP2 SUB SWAP1 REVERT JUMPDEST DUP3 PUSH1 0x7 PUSH0 DUP7 DUP2 MSTORE PUSH1 0x20 ADD SWAP1 DUP2 MSTORE PUSH1 0x20 ADD PUSH0 KECCAK256 PUSH0 CALLER PUSH20 0xFFFFFFFFFFFFFFFFFFFFFFFFFFFFFFFFFFFFFFFF AND PUSH20 0xFFFFFFFFFFFFFFFFFFFFFFFFFFFFFFFFFFFFFFFF AND DUP2 MSTORE PUSH1 0x20 ADD SWAP1 DUP2 MSTORE PUSH1 0x20 ADD PUSH0 KECCAK256 PUSH0 DUP3 DUP3 SLOAD PUSH2 0x849 SWAP2 SWAP1 PUSH2 0x3026 JUMP JUMPDEST SWAP3 POP POP DUP2 SWAP1 SSTORE POP PUSH32 0x9BB057A11C3457C55CB17F11A38392348805C6CCB84A9B7E8D9C42C694A7882B DUP5 CALLER DUP6 PUSH1 0x40 MLOAD PUSH2 0x883 SWAP4 SWAP3 SWAP2 SWAP1 PUSH2 0x3059 JUMP JUMPDEST PUSH1 0x40 MLOAD DUP1 SWAP2 SUB SWAP1 LOG1 POP POP PUSH2 0x895 PUSH2 0x22DF JUMP JUMPDEST POP POP JUMP JUMPDEST PUSH1 0x6 PUSH1 0x20 MSTORE DUP2 PUSH0 MSTORE PUSH1 0x40 PUSH0 KECCAK256 PUSH1 0x20 MSTORE DUP1 PUSH0 MSTORE PUSH1 0x40 PUSH0 KECCAK256 PUSH0 SWAP2 POP SWAP2 POP SWAP1 SLOAD SWAP1 PUSH2 0x100 EXP SWAP1 DIV PUSH1 0xFF AND DUP2 JUMP JUMPDEST PUSH1 0x6 PUSH0 PUSH1 0x3 PUSH0 DUP5 DUP2 MSTORE PUSH1 0x20 ADD SWAP1 DUP2 MSTORE PUSH1 0x20 ADD PUSH0 KECCAK256 PUSH1 0x3 ADD PUSH0 SWAP1 SLOAD SWAP1 PUSH2 0x100 EXP SWAP1 DIV PUSH20 0xFFFFFFFFFFFFFFFFFFFFFFFFFFFFFFFFFFFFFFFF AND PUSH20 0xFFFFFFFFFFFFFFFFFFFFFFFFFFFFFFFFFFFFFFFF AND PUSH20 0xFFFFFFFFFFFFFFFFFFFFFFFFFFFFFFFFFFFFFFFF AND DUP2 MSTORE PUSH1 0x20 ADD SWAP1 DUP2 MSTORE PUSH1 0x20 ADD PUSH0 KECCAK256 PUSH0 CALLER PUSH20 0xFFFFFFFFFFFFFFFFFFFFFFFFFFFFFFFFFFFFFFFF AND PUSH20 0xFFFFFFFFFFFFFFFFFFFFFFFFFFFFFFFFFFFFFFFF AND DUP2 MSTORE PUSH1 0x20 ADD SWAP1 DUP2 MSTORE PUSH1 0x20 ADD PUSH0 KECCAK256 PUSH0 SWAP1 SLOAD SWAP1 PUSH2 0x100 EXP SWAP1 DIV PUSH1 0xFF AND DUP1 PUSH2 0x9E4 JUMPI POP PUSH1 0x3 PUSH0 DUP3 DUP2 MSTORE PUSH1 0x20 ADD SWAP1 DUP2 MSTORE PUSH1 0x20 ADD PUSH0 KECCAK256 PUSH1 0x3 ADD PUSH0 SWAP1 SLOAD SWAP1 PUSH2 0x100 EXP SWAP1 DIV PUSH20 0xFFFFFFFFFFFFFFFFFFFFFFFFFFFFFFFFFFFFFFFF AND PUSH20 0xFFFFFFFFFFFFFFFFFFFFFFFFFFFFFFFFFFFFFFFF AND CALLER PUSH20 0xFFFFFFFFFFFFFFFFFFFFFFFFFFFFFFFFFFFFFFFF AND EQ JUMPDEST PUSH2 0xA23 JUMPI PUSH1 0x40 MLOAD PUSH32 0x8C379A000000000000000000000000000000000000000000000000000000000 DUP2 MSTORE PUSH1 0x4 ADD PUSH2 0xA1A SWAP1 PUSH2 0x30D8 JUMP JUMPDEST PUSH1 0x40 MLOAD DUP1 SWAP2 SUB SWAP1 REVERT JUMPDEST PUSH1 0x5 PUSH0 DUP3 DUP2 MSTORE PUSH1 0x20 ADD SWAP1 DUP2 MSTORE PUSH1 0x20 ADD PUSH0 KECCAK256 PUSH0 CALLER PUSH20 0xFFFFFFFFFFFFFFFFFFFFFFFFFFFFFFFFFFFFFFFF AND PUSH20 0xFFFFFFFFFFFFFFFFFFFFFFFFFFFFFFFFFFFFFFFF AND DUP2 MSTORE PUSH1 0x20 ADD SWAP1 DUP2 MSTORE PUSH1 0x20 ADD PUSH0 KECCAK256 PUSH0 SWAP1 SLOAD SWAP1 PUSH2 0x100 EXP SWAP1 DIV PUSH1 0xFF AND ISZERO PUSH2 0xABC JUMPI PUSH1 0x40 MLOAD PUSH32 0x8C379A000000000000000000000000000000000000000000000000000000000 DUP2 MSTORE PUSH1 0x4 ADD PUSH2 0xAB3 SWAP1 PUSH2 0x3166 JUMP JUMPDEST PUSH1 0x40 MLOAD DUP1 SWAP2 SUB SWAP1 REVERT JUMPDEST PUSH1 0x1 PUSH1 0x5 PUSH0 DUP4 DUP2 MSTORE PUSH1 0x20 ADD SWAP1 DUP2 MSTORE PUSH1 0x20 ADD PUSH0 KECCAK256 PUSH0 CALLER PUSH20 0xFFFFFFFFFFFFFFFFFFFFFFFFFFFFFFFFFFFFFFFF AND PUSH20 0xFFFFFFFFFFFFFFFFFFFFFFFFFFFFFFFFFFFFFFFF AND DUP2 MSTORE PUSH1 0x20 ADD SWAP1 DUP2 MSTORE PUSH1 0x20 ADD PUSH0 KECCAK256 PUSH0 PUSH2 0x100 EXP DUP2 SLOAD DUP2 PUSH1 0xFF MUL NOT AND SWAP1 DUP4 ISZERO ISZERO MUL OR SWAP1 SSTORE POP PUSH1 0x3 PUSH0 DUP3 DUP2 MSTORE PUSH1 0x20 ADD SWAP1 DUP2 MSTORE PUSH1 0x20 ADD PUSH0 KECCAK256 PUSH1 0x9 ADD PUSH0 DUP2 SLOAD DUP1 SWAP3 SWAP2 SWAP1 PUSH2 0xB44 SWAP1 PUSH2 0x3184 JUMP JUMPDEST SWAP2 SWAP1 POP SSTORE POP PUSH32 0x252555045B2BB75BBF4E656932C7FC2D63E8E7D9ACC300A6B55D6575A2C8D428 DUP2 CALLER PUSH1 0x40 MLOAD PUSH2 0xB7A SWAP3 SWAP2 SWAP1 PUSH2 0x2D46 JUMP JUMPDEST PUSH1 0x40 MLOAD DUP1 SWAP2 SUB SWAP1 LOG1 POP JUMP JUMPDEST PUSH1 0x60 PUSH1 0x6 PUSH0 PUSH1 0x3 PUSH0 DUP6 DUP2 MSTORE PUSH1 0x20 ADD SWAP1 DUP2 MSTORE PUSH1 0x20 ADD PUSH0 KECCAK256 PUSH1 0x3 ADD PUSH0 SWAP1 SLOAD SWAP1 PUSH2 0x100 EXP SWAP1 DIV PUSH20 0xFFFFFFFFFFFFFFFFFFFFFFFFFFFFFFFFFFFFFFFF AND PUSH20 0xFFFFFFFFFFFFFFFFFFFFFFFFFFFFFFFFFFFFFFFF AND PUSH20 0xFFFFFFFFFFFFFFFFFFFFFFFFFFFFFFFFFFFFFFFF AND DUP2 MSTORE PUSH1 0x20 ADD SWAP1 DUP2 MSTORE PUSH1 0x20 ADD PUSH0 KECCAK256 PUSH0 CALLER PUSH20 0xFFFFFFFFFFFFFFFFFFFFFFFFFFFFFFFFFFFFFFFF AND PUSH20 0xFFFFFFFFFFFFFFFFFFFFFFFFFFFFFFFFFFFFFFFF AND DUP2 MSTORE PUSH1 0x20 ADD SWAP1 DUP2 MSTORE PUSH1 0x20 ADD PUSH0 KECCAK256 PUSH0 SWAP1 SLOAD SWAP1 PUSH2 0x100 EXP SWAP1 DIV PUSH1 0xFF AND DUP1 PUSH2 0xCA8 JUMPI POP PUSH1 0x3 PUSH0 DUP4 DUP2 MSTORE PUSH1 0x20 ADD SWAP1 DUP2 MSTORE PUSH1 0x20 ADD PUSH0 KECCAK256 PUSH1 0x3 ADD PUSH0 SWAP1 SLOAD SWAP1 PUSH2 0x100 EXP SWAP1 DIV PUSH20 0xFFFFFFFFFFFFFFFFFFFFFFFFFFFFFFFFFFFFFFFF AND PUSH20 0xFFFFFFFFFFFFFFFFFFFFFFFFFFFFFFFFFFFFFFFF AND CALLER PUSH20 0xFFFFFFFFFFFFFFFFFFFFFFFFFFFFFFFFFFFFFFFF AND EQ JUMPDEST PUSH2 0xCE7 JUMPI PUSH1 0x40 MLOAD PUSH32 0x8C379A000000000000000000000000000000000000000000000000000000000 DUP2 MSTORE PUSH1 0x4 ADD PUSH2 0xCDE SWAP1 PUSH2 0x30D8 JUMP JUMPDEST PUSH1 0x40 MLOAD DUP1 SWAP2 SUB SWAP1 REVERT JUMPDEST PUSH0 PUSH1 0x3 PUSH0 DUP5 DUP2 MSTORE PUSH1 0x20 ADD SWAP1 DUP2 MSTORE PUSH1 0x20 ADD PUSH0 KECCAK256 PUSH1 0x5 ADD DUP1 SLOAD PUSH2 0xD07 SWAP1 PUSH2 0x31F8 JUMP JUMPDEST DUP1 PUSH1 0x1F ADD PUSH1 0x20 DUP1 SWAP2 DIV MUL PUSH1 0x20 ADD PUSH1 0x40 MLOAD SWAP1 DUP2 ADD PUSH1 0x40 MSTORE DUP1 SWAP3 SWAP2 SWAP1 DUP2 DUP2 MSTORE PUSH1 0x20 ADD DUP3 DUP1 SLOAD PUSH2 0xD33 SWAP1 PUSH2 0x31F8 JUMP JUMPDEST DUP1 ISZERO PUSH2 0xD7E JUMPI DUP1 PUSH1 0x1F LT PUSH2 0xD55 JUMPI PUSH2 0x100 DUP1 DUP4 SLOAD DIV MUL DUP4 MSTORE SWAP2 PUSH1 0x20 ADD SWAP2 PUSH2 0xD7E JUMP JUMPDEST DUP3 ADD SWAP2 SWAP1 PUSH0 MSTORE PUSH1 0x20 PUSH0 KECCAK256 SWAP1 JUMPDEST DUP2 SLOAD DUP2 MSTORE SWAP1 PUSH1 0x1 ADD SWAP1 PUSH1 0x20 ADD DUP1 DUP4 GT PUSH2 0xD61 JUMPI DUP3 SWAP1 SUB PUSH1 0x1F AND DUP3 ADD SWAP2 JUMPDEST POP POP POP POP POP SWAP1 POP PUSH0 DUP1 PUSH1 0x18 PUSH20 0xFFFFFFFFFFFFFFFFFFFFFFFFFFFFFFFFFFFFFFFF AND DUP4 PUSH1 0x40 MLOAD PUSH1 0x24 ADD PUSH2 0xDB0 SWAP2 SWAP1 PUSH2 0x25A2 JUMP JUMPDEST PUSH1 0x40 MLOAD PUSH1 0x20 DUP2 DUP4 SUB SUB DUP2 MSTORE SWAP1 PUSH1 0x40 MSTORE PUSH32 0x42AA3BB600000000000000000000000000000000000000000000000000000000 PUSH28 0xFFFFFFFFFFFFFFFFFFFFFFFFFFFFFFFFFFFFFFFFFFFFFFFFFFFFFFFF NOT AND PUSH1 0x20 DUP3 ADD DUP1 MLOAD PUSH28 0xFFFFFFFFFFFFFFFFFFFFFFFFFFFFFFFFFFFFFFFFFFFFFFFFFFFFFFFF DUP4 DUP2 DUP4 AND OR DUP4 MSTORE POP POP POP POP PUSH1 0x40 MLOAD PUSH2 0xE3A SWAP2 SWAP1 PUSH2 0x326C JUMP JUMPDEST PUSH0 PUSH1 0x40 MLOAD DUP1 DUP4 SUB DUP2 DUP6 GAS STATICCALL SWAP2 POP POP RETURNDATASIZE DUP1 PUSH0 DUP2 EQ PUSH2 0xE72 JUMPI PUSH1 0x40 MLOAD SWAP2 POP PUSH1 0x1F NOT PUSH1 0x3F RETURNDATASIZE ADD AND DUP3 ADD PUSH1 0x40 MSTORE RETURNDATASIZE DUP3 MSTORE RETURNDATASIZE PUSH0 PUSH1 0x20 DUP5 ADD RETURNDATACOPY PUSH2 0xE77 JUMP JUMPDEST PUSH1 0x60 SWAP2 POP JUMPDEST POP SWAP2 POP SWAP2 POP DUP2 PUSH2 0xEBC JUMPI PUSH1 0x40 MLOAD PUSH32 0x8C379A000000000000000000000000000000000000000000000000000000000 DUP2 MSTORE PUSH1 0x4 ADD PUSH2 0xEB3 SWAP1 PUSH2 0x32CC JUMP JUMPDEST PUSH1 0x40 MLOAD DUP1 SWAP2 SUB SWAP1 REVERT JUMPDEST DUP1 SWAP4 POP POP POP POP SWAP2 SWAP1 POP JUMP JUMPDEST CALLER PUSH20 0xFFFFFFFFFFFFFFFFFFFFFFFFFFFFFFFFFFFFFFFF AND PUSH1 0x4 PUSH0 DUP5 DUP2 MSTORE PUSH1 0x20 ADD SWAP1 DUP2 MSTORE PUSH1 0x20 ADD PUSH0 KECCAK256 PUSH0 DUP4 DUP2 MSTORE PUSH1 0x20 ADD SWAP1 DUP2 MSTORE PUSH1 0x20 ADD PUSH0 KECCAK256 PUSH1 0x1 ADD PUSH0 SWAP1 SLOAD SWAP1 PUSH2 0x100 EXP SWAP1 DIV PUSH20 0xFFFFFFFFFFFFFFFFFFFFFFFFFFFFFFFFFFFFFFFF AND PUSH20 0xFFFFFFFFFFFFFFFFFFFFFFFFFFFFFFFFFFFFFFFF AND EQ PUSH2 0xF77 JUMPI PUSH1 0x40 MLOAD PUSH32 0x8C379A000000000000000000000000000000000000000000000000000000000 DUP2 MSTORE PUSH1 0x4 ADD PUSH2 0xF6E SWAP1 PUSH2 0x335A JUMP JUMPDEST PUSH1 0x40 MLOAD DUP1 SWAP2 SUB SWAP1 REVERT JUMPDEST PUSH1 0x4 PUSH0 DUP4 DUP2 MSTORE PUSH1 0x20 ADD SWAP1 DUP2 MSTORE PUSH1 0x20 ADD PUSH0 KECCAK256 PUSH0 DUP3 DUP2 MSTORE PUSH1 0x20 ADD SWAP1 DUP2 MSTORE PUSH1 0x20 ADD PUSH0 KECCAK256 PUSH0 DUP1 DUP3 ADD PUSH0 SWAP1 SSTORE PUSH1 0x1 DUP3 ADD PUSH0 PUSH2 0x100 EXP DUP2 SLOAD SWAP1 PUSH20 0xFFFFFFFFFFFFFFFFFFFFFFFFFFFFFFFFFFFFFFFF MUL NOT AND SWAP1 SSTORE PUSH1 0x2 DUP3 ADD PUSH0 PUSH2 0xFD3 SWAP2 SWAP1 PUSH2 0x22E8 JUMP JUMPDEST PUSH1 0x3 DUP3 ADD PUSH0 SWAP1 SSTORE POP POP PUSH1 0x3 PUSH0 DUP4 DUP2 MSTORE PUSH1 0x20 ADD SWAP1 DUP2 MSTORE PUSH1 0x20 ADD PUSH0 KECCAK256 PUSH1 0xA ADD PUSH0 DUP2 SLOAD DUP1 SWAP3 SWAP2 SWAP1 PUSH2 0x1000 SWAP1 PUSH2 0x2D1F JUMP JUMPDEST SWAP2 SWAP1 POP SSTORE POP PUSH32 0x6EE692DB105027F6F2626EC7348B1FEE62BDD8B6AA9C2999CEED2AEBD4DC3EE9 DUP3 DUP3 CALLER PUSH1 0x40 MLOAD PUSH2 0x1038 SWAP4 SWAP3 SWAP2 SWAP1 PUSH2 0x3378 JUMP JUMPDEST PUSH1 0x40 MLOAD DUP1 SWAP2 SUB SWAP1 LOG1 POP POP JUMP JUMPDEST PUSH2 0x104C PUSH2 0x2292 JUMP JUMPDEST PUSH0 DUP1 PUSH1 0x1 SWAP1 POP JUMPDEST PUSH1 0x9 SLOAD DUP2 GT PUSH2 0x1181 JUMPI CALLER PUSH20 0xFFFFFFFFFFFFFFFFFFFFFFFFFFFFFFFFFFFFFFFF AND PUSH1 0x3 PUSH0 DUP4 DUP2 MSTORE PUSH1 0x20 ADD SWAP1 DUP2 MSTORE PUSH1 0x20 ADD PUSH0 KECCAK256 PUSH1 0x3 ADD PUSH0 SWAP1 SLOAD SWAP1 PUSH2 0x100 EXP SWAP1 DIV PUSH20 0xFFFFFFFFFFFFFFFFFFFFFFFFFFFFFFFFFFFFFFFF AND PUSH20 0xFFFFFFFFFFFFFFFFFFFFFFFFFFFFFFFFFFFFFFFF AND SUB PUSH2 0x116E JUMPI PUSH1 0x7 PUSH0 DUP3 DUP2 MSTORE PUSH1 0x20 ADD SWAP1 DUP2 MSTORE PUSH1 0x20 ADD PUSH0 KECCAK256 PUSH0 CALLER PUSH20 0xFFFFFFFFFFFFFFFFFFFFFFFFFFFFFFFFFFFFFFFF AND PUSH20 0xFFFFFFFFFFFFFFFFFFFFFFFFFFFFFFFFFFFFFFFF AND DUP2 MSTORE PUSH1 0x20 ADD SWAP1 DUP2 MSTORE PUSH1 0x20 ADD PUSH0 KECCAK256 SLOAD DUP3 PUSH2 0x111A SWAP2 SWAP1 PUSH2 0x3026 JUMP JUMPDEST SWAP2 POP PUSH0 PUSH1 0x7 PUSH0 DUP4 DUP2 MSTORE PUSH1 0x20 ADD SWAP1 DUP2 MSTORE PUSH1 0x20 ADD PUSH0 KECCAK256 PUSH0 CALLER PUSH20 0xFFFFFFFFFFFFFFFFFFFFFFFFFFFFFFFFFFFFFFFF AND PUSH20 0xFFFFFFFFFFFFFFFFFFFFFFFFFFFFFFFFFFFFFFFF AND DUP2 MSTORE PUSH1 0x20 ADD SWAP1 DUP2 MSTORE PUSH1 0x20 ADD PUSH0 KECCAK256 DUP2 SWAP1 SSTORE POP JUMPDEST DUP1 DUP1 PUSH2 0x1179 SWAP1 PUSH2 0x3184 JUMP JUMPDEST SWAP2 POP POP PUSH2 0x1053 JUMP JUMPDEST POP PUSH0 DUP2 GT PUSH2 0x11C4 JUMPI PUSH1 0x40 MLOAD PUSH32 0x8C379A000000000000000000000000000000000000000000000000000000000 DUP2 MSTORE PUSH1 0x4 ADD PUSH2 0x11BB SWAP1 PUSH2 0x341D JUMP JUMPDEST PUSH1 0x40 MLOAD DUP1 SWAP2 SUB SWAP1 REVERT JUMPDEST PUSH1 0x1 PUSH0 SWAP1 SLOAD SWAP1 PUSH2 0x100 EXP SWAP1 DIV PUSH20 0xFFFFFFFFFFFFFFFFFFFFFFFFFFFFFFFFFFFFFFFF AND PUSH20 0xFFFFFFFFFFFFFFFFFFFFFFFFFFFFFFFFFFFFFFFF AND PUSH4 0xA9059CBB CALLER DUP4 PUSH1 0x40 MLOAD DUP4 PUSH4 0xFFFFFFFF AND PUSH1 0xE0 SHL DUP2 MSTORE PUSH1 0x4 ADD PUSH2 0x1220 SWAP3 SWAP2 SWAP1 PUSH2 0x343B JUMP JUMPDEST PUSH1 0x20 PUSH1 0x40 MLOAD DUP1 DUP4 SUB DUP2 PUSH0 DUP8 GAS CALL ISZERO DUP1 ISZERO PUSH2 0x123C JUMPI RETURNDATASIZE PUSH0 DUP1 RETURNDATACOPY RETURNDATASIZE PUSH0 REVERT JUMPDEST POP POP POP POP PUSH1 0x40 MLOAD RETURNDATASIZE PUSH1 0x1F NOT PUSH1 0x1F DUP3 ADD AND DUP3 ADD DUP1 PUSH1 0x40 MSTORE POP DUP2 ADD SWAP1 PUSH2 0x1260 SWAP2 SWAP1 PUSH2 0x2F2B JUMP JUMPDEST PUSH2 0x129F JUMPI PUSH1 0x40 MLOAD PUSH32 0x8C379A000000000000000000000000000000000000000000000000000000000 DUP2 MSTORE PUSH1 0x4 ADD PUSH2 0x1296 SWAP1 PUSH2 0x34AC JUMP JUMPDEST PUSH1 0x40 MLOAD DUP1 SWAP2 SUB SWAP1 REVERT JUMPDEST PUSH32 0xEAFF4B37086828766AD3268786972C0CD24259D4C87A80F9D3963A3C3D999B0D CALLER DUP3 PUSH1 0x40 MLOAD PUSH2 0x12D0 SWAP3 SWAP2 SWAP1 PUSH2 0x343B JUMP JUMPDEST PUSH1 0x40 MLOAD DUP1 SWAP2 SUB SWAP1 LOG1 POP PUSH2 0x12E1 PUSH2 0x22DF JUMP JUMPDEST JUMP JUMPDEST PUSH1 0x5 PUSH1 0x20 MSTORE DUP2 PUSH0 MSTORE PUSH1 0x40 PUSH0 KECCAK256 PUSH1 0x20 MSTORE DUP1 PUSH0 MSTORE PUSH1 0x40 PUSH0 KECCAK256 PUSH0 SWAP2 POP SWAP2 POP SWAP1 SLOAD SWAP1 PUSH2 0x100 EXP SWAP1 DIV PUSH1 0xFF AND DUP2 JUMP JUMPDEST PUSH2 0x1315 PUSH2 0x2292 JUMP JUMPDEST PUSH0 PUSH1 0x8 PUSH0 DUP4 PUSH20 0xFFFFFFFFFFFFFFFFFFFFFFFFFFFFFFFFFFFFFFFF AND PUSH20 0xFFFFFFFFFFFFFFFFFFFFFFFFFFFFFFFFFFFFFFFF AND DUP2 MSTORE PUSH1 0x20 ADD SWAP1 DUP2 MSTORE PUSH1 0x20 ADD PUSH0 KECCAK256 SLOAD GT PUSH2 0x1394 JUMPI PUSH1 0x40 MLOAD PUSH32 0x8C379A000000000000000000000000000000000000000000000000000000000 DUP2 MSTORE PUSH1 0x4 ADD PUSH2 0x138B SWAP1 PUSH2 0x3514 JUMP JUMPDEST PUSH1 0x40 MLOAD DUP1 SWAP2 SUB SWAP1 REVERT JUMPDEST PUSH1 0x6 PUSH0 DUP3 PUSH20 0xFFFFFFFFFFFFFFFFFFFFFFFFFFFFFFFFFFFFFFFF AND PUSH20 0xFFFFFFFFFFFFFFFFFFFFFFFFFFFFFFFFFFFFFFFF AND DUP2 MSTORE PUSH1 0x20 ADD SWAP1 DUP2 MSTORE PUSH1 0x20 ADD PUSH0 KECCAK256 PUSH0 CALLER PUSH20 0xFFFFFFFFFFFFFFFFFFFFFFFFFFFFFFFFFFFFFFFF AND PUSH20 0xFFFFFFFFFFFFFFFFFFFFFFFFFFFFFFFFFFFFFFFF AND DUP2 MSTORE PUSH1 0x20 ADD SWAP1 DUP2 MSTORE PUSH1 0x20 ADD PUSH0 KECCAK256 PUSH0 SWAP1 SLOAD SWAP1 PUSH2 0x100 EXP SWAP1 DIV PUSH1 0xFF AND ISZERO PUSH2 0x1459 JUMPI PUSH1 0x40 MLOAD PUSH32 0x8C379A000000000000000000000000000000000000000000000000000000000 DUP2 MSTORE PUSH1 0x4 ADD PUSH2 0x1450 SWAP1 PUSH2 0x357C JUMP JUMPDEST PUSH1 0x40 MLOAD DUP1 SWAP2 SUB SWAP1 REVERT JUMPDEST PUSH0 PUSH1 0x8 PUSH0 DUP4 PUSH20 0xFFFFFFFFFFFFFFFFFFFFFFFFFFFFFFFFFFFFFFFF AND PUSH20 0xFFFFFFFFFFFFFFFFFFFFFFFFFFFFFFFFFFFFFFFF AND DUP2 MSTORE PUSH1 0x20 ADD SWAP1 DUP2 MSTORE PUSH1 0x20 ADD PUSH0 KECCAK256 SLOAD SWAP1 POP PUSH0 PUSH2 0x2710 PUSH1 0x64 DUP4 PUSH2 0x14AB SWAP2 SWAP1 PUSH2 0x2DFB JUMP JUMPDEST PUSH2 0x14B5 SWAP2 SWAP1 PUSH2 0x2E69 JUMP JUMPDEST SWAP1 POP PUSH0 DUP2 DUP4 PUSH2 0x14C4 SWAP2 SWAP1 PUSH2 0x2E99 JUMP JUMPDEST SWAP1 POP PUSH1 0x1 PUSH0 SWAP1 SLOAD SWAP1 PUSH2 0x100 EXP SWAP1 DIV PUSH20 0xFFFFFFFFFFFFFFFFFFFFFFFFFFFFFFFFFFFFFFFF AND PUSH20 0xFFFFFFFFFFFFFFFFFFFFFFFFFFFFFFFFFFFFFFFF AND PUSH4 0x23B872DD CALLER DUP7 DUP5 PUSH1 0x40 MLOAD DUP5 PUSH4 0xFFFFFFFF AND PUSH1 0xE0 SHL DUP2 MSTORE PUSH1 0x4 ADD PUSH2 0x1524 SWAP4 SWAP3 SWAP2 SWAP1 PUSH2 0x2ECC JUMP JUMPDEST PUSH1 0x20 PUSH1 0x40 MLOAD DUP1 DUP4 SUB DUP2 PUSH0 DUP8 GAS CALL ISZERO DUP1 ISZERO PUSH2 0x1540 JUMPI RETURNDATASIZE PUSH0 DUP1 RETURNDATACOPY RETURNDATASIZE PUSH0 REVERT JUMPDEST POP POP POP POP PUSH1 0x40 MLOAD RETURNDATASIZE PUSH1 0x1F NOT PUSH1 0x1F DUP3 ADD AND DUP3 ADD DUP1 PUSH1 0x40 MSTORE POP DUP2 ADD SWAP1 PUSH2 0x1564 SWAP2 SWAP1 PUSH2 0x2F2B JUMP JUMPDEST PUSH2 0x15A3 JUMPI PUSH1 0x40 MLOAD PUSH32 0x8C379A000000000000000000000000000000000000000000000000000000000 DUP2 MSTORE PUSH1 0x4 ADD PUSH2 0x159A SWAP1 PUSH2 0x35E4 JUMP JUMPDEST PUSH1 0x40 MLOAD DUP1 SWAP2 SUB SWAP1 REVERT JUMPDEST PUSH1 0x1 PUSH0 SWAP1 SLOAD SWAP1 PUSH2 0x100 EXP SWAP1 DIV PUSH20 0xFFFFFFFFFFFFFFFFFFFFFFFFFFFFFFFFFFFFFFFF AND PUSH20 0xFFFFFFFFFFFFFFFFFFFFFFFFFFFFFFFFFFFFFFFF AND PUSH4 0x23B872DD CALLER PUSH1 0x2 PUSH0 SWAP1 SLOAD SWAP1 PUSH2 0x100 EXP SWAP1 DIV PUSH20 0xFFFFFFFFFFFFFFFFFFFFFFFFFFFFFFFFFFFFFFFF AND DUP6 PUSH1 0x40 MLOAD DUP5 PUSH4 0xFFFFFFFF AND PUSH1 0xE0 SHL DUP2 MSTORE PUSH1 0x4 ADD PUSH2 0x1622 SWAP4 SWAP3 SWAP2 SWAP1 PUSH2 0x2ECC JUMP JUMPDEST PUSH1 0x20 PUSH1 0x40 MLOAD DUP1 DUP4 SUB DUP2 PUSH0 DUP8 GAS CALL ISZERO DUP1 ISZERO PUSH2 0x163E JUMPI RETURNDATASIZE PUSH0 DUP1 RETURNDATACOPY RETURNDATASIZE PUSH0 REVERT JUMPDEST POP POP POP POP PUSH1 0x40 MLOAD RETURNDATASIZE PUSH1 0x1F NOT PUSH1 0x1F DUP3 ADD AND DUP3 ADD DUP1 PUSH1 0x40 MSTORE POP DUP2 ADD SWAP1 PUSH2 0x1662 SWAP2 SWAP1 PUSH2 0x2F2B JUMP JUMPDEST PUSH2 0x16A1 JUMPI PUSH1 0x40 MLOAD PUSH32 0x8C379A000000000000000000000000000000000000000000000000000000000 DUP2 MSTORE PUSH1 0x4 ADD PUSH2 0x1698 SWAP1 PUSH2 0x364C JUMP JUMPDEST PUSH1 0x40 MLOAD DUP1 SWAP2 SUB SWAP1 REVERT JUMPDEST PUSH1 0x1 PUSH1 0x6 PUSH0 DUP7 PUSH20 0xFFFFFFFFFFFFFFFFFFFFFFFFFFFFFFFFFFFFFFFF AND PUSH20 0xFFFFFFFFFFFFFFFFFFFFFFFFFFFFFFFFFFFFFFFF AND DUP2 MSTORE PUSH1 0x20 ADD SWAP1 DUP2 MSTORE PUSH1 0x20 ADD PUSH0 KECCAK256 PUSH0 CALLER PUSH20 0xFFFFFFFFFFFFFFFFFFFFFFFFFFFFFFFFFFFFFFFF AND PUSH20 0xFFFFFFFFFFFFFFFFFFFFFFFFFFFFFFFFFFFFFFFF AND DUP2 MSTORE PUSH1 0x20 ADD SWAP1 DUP2 MSTORE PUSH1 0x20 ADD PUSH0 KECCAK256 PUSH0 PUSH2 0x100 EXP DUP2 SLOAD DUP2 PUSH1 0xFF MUL NOT AND SWAP1 DUP4 ISZERO ISZERO MUL OR SWAP1 SSTORE POP PUSH32 0x52BB96D2ADCC8610A1694C331BA9F604C8A82DB341584BE8E78B2AE099FC3D4B DUP5 CALLER PUSH1 0x40 MLOAD PUSH2 0x1762 SWAP3 SWAP2 SWAP1 PUSH2 0x366A JUMP JUMPDEST PUSH1 0x40 MLOAD DUP1 SWAP2 SUB SWAP1 LOG1 POP POP POP PUSH2 0x1775 PUSH2 0x22DF JUMP JUMPDEST POP JUMP JUMPDEST PUSH1 0x8 PUSH1 0x20 MSTORE DUP1 PUSH0 MSTORE PUSH1 0x40 PUSH0 KECCAK256 PUSH0 SWAP2 POP SWAP1 POP SLOAD DUP2 JUMP JUMPDEST PUSH1 0x7 PUSH1 0x20 MSTORE DUP2 PUSH0 MSTORE PUSH1 0x40 PUSH0 KECCAK256 PUSH1 0x20 MSTORE DUP1 PUSH0 MSTORE PUSH1 0x40 PUSH0 KECCAK256 PUSH0 SWAP2 POP SWAP2 POP POP SLOAD DUP2 JUMP JUMPDEST PUSH1 0x6 PUSH0 PUSH1 0x3 PUSH0 DUP6 DUP2 MSTORE PUSH1 0x20 ADD SWAP1 DUP2 MSTORE PUSH1 0x20 ADD PUSH0 KECCAK256 PUSH1 0x3 ADD PUSH0 SWAP1 SLOAD SWAP1 PUSH2 0x100 EXP SWAP1 DIV PUSH20 0xFFFFFFFFFFFFFFFFFFFFFFFFFFFFFFFFFFFFFFFF AND PUSH20 0xFFFFFFFFFFFFFFFFFFFFFFFFFFFFFFFFFFFFFFFF AND PUSH20 0xFFFFFFFFFFFFFFFFFFFFFFFFFFFFFFFFFFFFFFFF AND DUP2 MSTORE PUSH1 0x20 ADD SWAP1 DUP2 MSTORE PUSH1 0x20 ADD PUSH0 KECCAK256 PUSH0 CALLER PUSH20 0xFFFFFFFFFFFFFFFFFFFFFFFFFFFFFFFFFFFFFFFF AND PUSH20 0xFFFFFFFFFFFFFFFFFFFFFFFFFFFFFFFFFFFFFFFF AND DUP2 MSTORE PUSH1 0x20 ADD SWAP1 DUP2 MSTORE PUSH1 0x20 ADD PUSH0 KECCAK256 PUSH0 SWAP1 SLOAD SWAP1 PUSH2 0x100 EXP SWAP1 DIV PUSH1 0xFF AND DUP1 PUSH2 0x18CE JUMPI POP PUSH1 0x3 PUSH0 DUP4 DUP2 MSTORE PUSH1 0x20 ADD SWAP1 DUP2 MSTORE PUSH1 0x20 ADD PUSH0 KECCAK256 PUSH1 0x3 ADD PUSH0 SWAP1 SLOAD SWAP1 PUSH2 0x100 EXP SWAP1 DIV PUSH20 0xFFFFFFFFFFFFFFFFFFFFFFFFFFFFFFFFFFFFFFFF AND PUSH20 0xFFFFFFFFFFFFFFFFFFFFFFFFFFFFFFFFFFFFFFFF AND CALLER PUSH20 0xFFFFFFFFFFFFFFFFFFFFFFFFFFFFFFFFFFFFFFFF AND EQ JUMPDEST PUSH2 0x190D JUMPI PUSH1 0x40 MLOAD PUSH32 0x8C379A000000000000000000000000000000000000000000000000000000000 DUP2 MSTORE PUSH1 0x4 ADD PUSH2 0x1904 SWAP1 PUSH2 0x30D8 JUMP JUMPDEST PUSH1 0x40 MLOAD DUP1 SWAP2 SUB SWAP1 REVERT JUMPDEST PUSH1 0x3 PUSH0 DUP4 DUP2 MSTORE PUSH1 0x20 ADD SWAP1 DUP2 MSTORE PUSH1 0x20 ADD PUSH0 KECCAK256 PUSH1 0xA ADD PUSH0 DUP2 SLOAD DUP1 SWAP3 SWAP2 SWAP1 PUSH2 0x1931 SWAP1 PUSH2 0x3184 JUMP JUMPDEST SWAP2 SWAP1 POP SSTORE POP PUSH0 PUSH1 0x3 PUSH0 DUP5 DUP2 MSTORE PUSH1 0x20 ADD SWAP1 DUP2 MSTORE PUSH1 0x20 ADD PUSH0 KECCAK256 PUSH1 0xA ADD SLOAD SWAP1 POP PUSH1 0x40 MLOAD DUP1 PUSH1 0x80 ADD PUSH1 0x40 MSTORE DUP1 DUP3 DUP2 MSTORE PUSH1 0x20 ADD CALLER PUSH20 0xFFFFFFFFFFFFFFFFFFFFFFFFFFFFFFFFFFFFFFFF AND DUP2 MSTORE PUSH1 0x20 ADD DUP4 DUP2 MSTORE PUSH1 0x20 ADD TIMESTAMP DUP2 MSTORE POP PUSH1 0x4 PUSH0 DUP6 DUP2 MSTORE PUSH1 0x20 ADD SWAP1 DUP2 MSTORE PUSH1 0x20 ADD PUSH0 KECCAK256 PUSH0 DUP4 DUP2 MSTORE PUSH1 0x20 ADD SWAP1 DUP2 MSTORE PUSH1 0x20 ADD PUSH0 KECCAK256 PUSH0 DUP3 ADD MLOAD DUP2 PUSH0 ADD SSTORE PUSH1 0x20 DUP3 ADD MLOAD DUP2 PUSH1 0x1 ADD PUSH0 PUSH2 0x100 EXP DUP2 SLOAD DUP2 PUSH20 0xFFFFFFFFFFFFFFFFFFFFFFFFFFFFFFFFFFFFFFFF MUL NOT AND SWAP1 DUP4 PUSH20 0xFFFFFFFFFFFFFFFFFFFFFFFFFFFFFFFFFFFFFFFF AND MUL OR SWAP1 SSTORE POP PUSH1 0x40 DUP3 ADD MLOAD DUP2 PUSH1 0x2 ADD SWAP1 DUP2 PUSH2 0x1A08 SWAP2 SWAP1 PUSH2 0x3825 JUMP JUMPDEST POP PUSH1 0x60 DUP3 ADD MLOAD DUP2 PUSH1 0x3 ADD SSTORE SWAP1 POP POP PUSH32 0xDB54CDE47150062529BC4F2E10C2493C8AE39BC079C9C24F9E365C135098D4BB DUP4 DUP3 CALLER PUSH1 0x40 MLOAD PUSH2 0x1A49 SWAP4 SWAP3 SWAP2 SWAP1 PUSH2 0x3378 JUMP JUMPDEST PUSH1 0x40 MLOAD DUP1 SWAP2 SUB SWAP1 LOG1 POP POP POP JUMP JUMPDEST PUSH1 0x9 SLOAD DUP2 JUMP JUMPDEST PUSH1 0x64 DUP2 JUMP JUMPDEST PUSH1 0x4 PUSH1 0x20 MSTORE DUP2 PUSH0 MSTORE PUSH1 0x40 PUSH0 KECCAK256 PUSH1 0x20 MSTORE DUP1 PUSH0 MSTORE PUSH1 0x40 PUSH0 KECCAK256 PUSH0 SWAP2 POP SWAP2 POP POP DUP1 PUSH0 ADD SLOAD SWAP1 DUP1 PUSH1 0x1 ADD PUSH0 SWAP1 SLOAD SWAP1 PUSH2 0x100 EXP SWAP1 DIV PUSH20 0xFFFFFFFFFFFFFFFFFFFFFFFFFFFFFFFFFFFFFFFF AND SWAP1 DUP1 PUSH1 0x2 ADD DUP1 SLOAD PUSH2 0x1AB6 SWAP1 PUSH2 0x31F8 JUMP JUMPDEST DUP1 PUSH1 0x1F ADD PUSH1 0x20 DUP1 SWAP2 DIV MUL PUSH1 0x20 ADD PUSH1 0x40 MLOAD SWAP1 DUP2 ADD PUSH1 0x40 MSTORE DUP1 SWAP3 SWAP2 SWAP1 DUP2 DUP2 MSTORE PUSH1 0x20 ADD DUP3 DUP1 SLOAD PUSH2 0x1AE2 SWAP1 PUSH2 0x31F8 JUMP JUMPDEST DUP1 ISZERO PUSH2 0x1B2D JUMPI DUP1 PUSH1 0x1F LT PUSH2 0x1B04 JUMPI PUSH2 0x100 DUP1 DUP4 SLOAD DIV MUL DUP4 MSTORE SWAP2 PUSH1 0x20 ADD SWAP2 PUSH2 0x1B2D JUMP JUMPDEST DUP3 ADD SWAP2 SWAP1 PUSH0 MSTORE PUSH1 0x20 PUSH0 KECCAK256 SWAP1 JUMPDEST DUP2 SLOAD DUP2 MSTORE SWAP1 PUSH1 0x1 ADD SWAP1 PUSH1 0x20 ADD DUP1 DUP4 GT PUSH2 0x1B10 JUMPI DUP3 SWAP1 SUB PUSH1 0x1F AND DUP3 ADD SWAP2 JUMPDEST POP POP POP POP POP SWAP1 DUP1 PUSH1 0x3 ADD SLOAD SWAP1 POP DUP5 JUMP JUMPDEST PUSH1 0x2 PUSH0 SWAP1 SLOAD SWAP1 PUSH2 0x100 EXP SWAP1 DIV PUSH20 0xFFFFFFFFFFFFFFFFFFFFFFFFFFFFFFFFFFFFFFFF AND DUP2 JUMP JUMPDEST PUSH1 0x3 PUSH1 0x20 MSTORE DUP1 PUSH0 MSTORE PUSH1 0x40 PUSH0 KECCAK256 PUSH0 SWAP2 POP SWAP1 POP DUP1 PUSH0 ADD SLOAD SWAP1 DUP1 PUSH1 0x1 ADD DUP1 SLOAD PUSH2 0x1B87 SWAP1 PUSH2 0x31F8 JUMP JUMPDEST DUP1 PUSH1 0x1F ADD PUSH1 0x20 DUP1 SWAP2 DIV MUL PUSH1 0x20 ADD PUSH1 0x40 MLOAD SWAP1 DUP2 ADD PUSH1 0x40 MSTORE DUP1 SWAP3 SWAP2 SWAP1 DUP2 DUP2 MSTORE PUSH1 0x20 ADD DUP3 DUP1 SLOAD PUSH2 0x1BB3 SWAP1 PUSH2 0x31F8 JUMP JUMPDEST DUP1 ISZERO PUSH2 0x1BFE JUMPI DUP1 PUSH1 0x1F LT PUSH2 0x1BD5 JUMPI PUSH2 0x100 DUP1 DUP4 SLOAD DIV MUL DUP4 MSTORE SWAP2 PUSH1 0x20 ADD SWAP2 PUSH2 0x1BFE JUMP JUMPDEST DUP3 ADD SWAP2 SWAP1 PUSH0 MSTORE PUSH1 0x20 PUSH0 KECCAK256 SWAP1 JUMPDEST DUP2 SLOAD DUP2 MSTORE SWAP1 PUSH1 0x1 ADD SWAP1 PUSH1 0x20 ADD DUP1 DUP4 GT PUSH2 0x1BE1 JUMPI DUP3 SWAP1 SUB PUSH1 0x1F AND DUP3 ADD SWAP2 JUMPDEST POP POP POP POP POP SWAP1 DUP1 PUSH1 0x2 ADD DUP1 SLOAD PUSH2 0x1C13 SWAP1 PUSH2 0x31F8 JUMP JUMPDEST DUP1 PUSH1 0x1F ADD PUSH1 0x20 DUP1 SWAP2 DIV MUL PUSH1 0x20 ADD PUSH1 0x40 MLOAD SWAP1 DUP2 ADD PUSH1 0x40 MSTORE DUP1 SWAP3 SWAP2 SWAP1 DUP2 DUP2 MSTORE PUSH1 0x20 ADD DUP3 DUP1 SLOAD PUSH2 0x1C3F SWAP1 PUSH2 0x31F8 JUMP JUMPDEST DUP1 ISZERO PUSH2 0x1C8A JUMPI DUP1 PUSH1 0x1F LT PUSH2 0x1C61 JUMPI PUSH2 0x100 DUP1 DUP4 SLOAD DIV MUL DUP4 MSTORE SWAP2 PUSH1 0x20 ADD SWAP2 PUSH2 0x1C8A JUMP JUMPDEST DUP3 ADD SWAP2 SWAP1 PUSH0 MSTORE PUSH1 0x20 PUSH0 KECCAK256 SWAP1 JUMPDEST DUP2 SLOAD DUP2 MSTORE SWAP1 PUSH1 0x1 ADD SWAP1 PUSH1 0x20 ADD DUP1 DUP4 GT PUSH2 0x1C6D JUMPI DUP3 SWAP1 SUB PUSH1 0x1F AND DUP3 ADD SWAP2 JUMPDEST POP POP POP POP POP SWAP1 DUP1 PUSH1 0x3 ADD PUSH0 SWAP1 SLOAD SWAP1 PUSH2 0x100 EXP SWAP1 DIV PUSH20 0xFFFFFFFFFFFFFFFFFFFFFFFFFFFFFFFFFFFFFFFF AND SWAP1 DUP1 PUSH1 0x4 ADD SLOAD SWAP1 DUP1 PUSH1 0x5 ADD DUP1 SLOAD PUSH2 0x1CCA SWAP1 PUSH2 0x31F8 JUMP JUMPDEST DUP1 PUSH1 0x1F ADD PUSH1 0x20 DUP1 SWAP2 DIV MUL PUSH1 0x20 ADD PUSH1 0x40 MLOAD SWAP1 DUP2 ADD PUSH1 0x40 MSTORE DUP1 SWAP3 SWAP2 SWAP1 DUP2 DUP2 MSTORE PUSH1 0x20 ADD DUP3 DUP1 SLOAD PUSH2 0x1CF6 SWAP1 PUSH2 0x31F8 JUMP JUMPDEST DUP1 ISZERO PUSH2 0x1D41 JUMPI DUP1 PUSH1 0x1F LT PUSH2 0x1D18 JUMPI PUSH2 0x100 DUP1 DUP4 SLOAD DIV MUL DUP4 MSTORE SWAP2 PUSH1 0x20 ADD SWAP2 PUSH2 0x1D41 JUMP JUMPDEST DUP3 ADD SWAP2 SWAP1 PUSH0 MSTORE PUSH1 0x20 PUSH0 KECCAK256 SWAP1 JUMPDEST DUP2 SLOAD DUP2 MSTORE SWAP1 PUSH1 0x1 ADD SWAP1 PUSH1 0x20 ADD DUP1 DUP4 GT PUSH2 0x1D24 JUMPI DUP3 SWAP1 SUB PUSH1 0x1F AND DUP3 ADD SWAP2 JUMPDEST POP POP POP POP POP SWAP1 DUP1 PUSH1 0x6 ADD DUP1 SLOAD PUSH2 0x1D56 SWAP1 PUSH2 0x31F8 JUMP JUMPDEST DUP1 PUSH1 0x1F ADD PUSH1 0x20 DUP1 SWAP2 DIV MUL PUSH1 0x20 ADD PUSH1 0x40 MLOAD SWAP1 DUP2 ADD PUSH1 0x40 MSTORE DUP1 SWAP3 SWAP2 SWAP1 DUP2 DUP2 MSTORE PUSH1 0x20 ADD DUP3 DUP1 SLOAD PUSH2 0x1D82 SWAP1 PUSH2 0x31F8 JUMP JUMPDEST DUP1 ISZERO PUSH2 0x1DCD JUMPI DUP1 PUSH1 0x1F LT PUSH2 0x1DA4 JUMPI PUSH2 0x100 DUP1 DUP4 SLOAD DIV MUL DUP4 MSTORE SWAP2 PUSH1 0x20 ADD SWAP2 PUSH2 0x1DCD JUMP JUMPDEST DUP3 ADD SWAP2 SWAP1 PUSH0 MSTORE PUSH1 0x20 PUSH0 KECCAK256 SWAP1 JUMPDEST DUP2 SLOAD DUP2 MSTORE SWAP1 PUSH1 0x1 ADD SWAP1 PUSH1 0x20 ADD DUP1 DUP4 GT PUSH2 0x1DB0 JUMPI DUP3 SWAP1 SUB PUSH1 0x1F AND DUP3 ADD SWAP2 JUMPDEST POP POP POP POP POP SWAP1 DUP1 PUSH1 0x7 ADD SLOAD SWAP1 DUP1 PUSH1 0x9 ADD SLOAD SWAP1 DUP1 PUSH1 0xA ADD SLOAD SWAP1 POP DUP11 JUMP JUMPDEST CALLER PUSH20 0xFFFFFFFFFFFFFFFFFFFFFFFFFFFFFFFFFFFFFFFF AND PUSH1 0x4 PUSH0 DUP6 DUP2 MSTORE PUSH1 0x20 ADD SWAP1 DUP2 MSTORE PUSH1 0x20 ADD PUSH0 KECCAK256 PUSH0 DUP5 DUP2 MSTORE PUSH1 0x20 ADD SWAP1 DUP2 MSTORE PUSH1 0x20 ADD PUSH0 KECCAK256 PUSH1 0x1 ADD PUSH0 SWAP1 SLOAD SWAP1 PUSH2 0x100 EXP SWAP1 DIV PUSH20 0xFFFFFFFFFFFFFFFFFFFFFFFFFFFFFFFFFFFFFFFF AND PUSH20 0xFFFFFFFFFFFFFFFFFFFFFFFFFFFFFFFFFFFFFFFF AND EQ PUSH2 0x1E99 JUMPI PUSH1 0x40 MLOAD PUSH32 0x8C379A000000000000000000000000000000000000000000000000000000000 DUP2 MSTORE PUSH1 0x4 ADD PUSH2 0x1E90 SWAP1 PUSH2 0x335A JUMP JUMPDEST PUSH1 0x40 MLOAD DUP1 SWAP2 SUB SWAP1 REVERT JUMPDEST DUP1 PUSH1 0x4 PUSH0 DUP6 DUP2 MSTORE PUSH1 0x20 ADD SWAP1 DUP2 MSTORE PUSH1 0x20 ADD PUSH0 KECCAK256 PUSH0 DUP5 DUP2 MSTORE PUSH1 0x20 ADD SWAP1 DUP2 MSTORE PUSH1 0x20 ADD PUSH0 KECCAK256 PUSH1 0x2 ADD SWAP1 DUP2 PUSH2 0x1EC9 SWAP2 SWAP1 PUSH2 0x3825 JUMP JUMPDEST POP PUSH32 0x8658B2B2C8CEE37393CD41AA4AFEAE2F01E93DF91E03364820E71E4EFAE12627 DUP4 DUP4 CALLER PUSH1 0x40 MLOAD PUSH2 0x1EFD SWAP4 SWAP3 SWAP2 SWAP1 PUSH2 0x3378 JUMP JUMPDEST PUSH1 0x40 MLOAD DUP1 SWAP2 SUB SWAP1 LOG1 POP POP POP JUMP JUMPDEST PUSH1 0x1 PUSH0 SWAP1 SLOAD SWAP1 PUSH2 0x100 EXP SWAP1 DIV PUSH20 0xFFFFFFFFFFFFFFFFFFFFFFFFFFFFFFFFFFFFFFFF AND DUP2 JUMP JUMPDEST PUSH0 DUP1 PUSH1 0x17 PUSH20 0xFFFFFFFFFFFFFFFFFFFFFFFFFFFFFFFFFFFFFFFF AND DUP8 PUSH1 0x40 MLOAD PUSH1 0x24 ADD PUSH2 0x1F5A SWAP2 SWAP1 PUSH2 0x393C JUMP JUMPDEST PUSH1 0x40 MLOAD PUSH1 0x20 DUP2 DUP4 SUB SUB DUP2 MSTORE SWAP1 PUSH1 0x40 MSTORE PUSH32 0xAC5C853500000000000000000000000000000000000000000000000000000000 PUSH28 0xFFFFFFFFFFFFFFFFFFFFFFFFFFFFFFFFFFFFFFFFFFFFFFFFFFFFFFFF NOT AND PUSH1 0x20 DUP3 ADD DUP1 MLOAD PUSH28 0xFFFFFFFFFFFFFFFFFFFFFFFFFFFFFFFFFFFFFFFFFFFFFFFFFFFFFFFF DUP4 DUP2 DUP4 AND OR DUP4 MSTORE POP POP POP POP PUSH1 0x40 MLOAD PUSH2 0x1FE4 SWAP2 SWAP1 PUSH2 0x326C JUMP JUMPDEST PUSH0 PUSH1 0x40 MLOAD DUP1 DUP4 SUB DUP2 PUSH0 DUP7 GAS CALL SWAP2 POP POP RETURNDATASIZE DUP1 PUSH0 DUP2 EQ PUSH2 0x201D JUMPI PUSH1 0x40 MLOAD SWAP2 POP PUSH1 0x1F NOT PUSH1 0x3F RETURNDATASIZE ADD AND DUP3 ADD PUSH1 0x40 MSTORE RETURNDATASIZE DUP3 MSTORE RETURNDATASIZE PUSH0 PUSH1 0x20 DUP5 ADD RETURNDATACOPY PUSH2 0x2022 JUMP JUMPDEST PUSH1 0x60 SWAP2 POP JUMPDEST POP SWAP2 POP SWAP2 POP DUP2 PUSH2 0x2067 JUMPI PUSH1 0x40 MLOAD PUSH32 0x8C379A000000000000000000000000000000000000000000000000000000000 DUP2 MSTORE PUSH1 0x4 ADD PUSH2 0x205E SWAP1 PUSH2 0x39A6 JUMP JUMPDEST PUSH1 0x40 MLOAD DUP1 SWAP2 SUB SWAP1 REVERT JUMPDEST PUSH0 DUP2 DUP1 PUSH1 0x20 ADD SWAP1 MLOAD DUP2 ADD SWAP1 PUSH2 0x207C SWAP2 SWAP1 PUSH2 0x3A32 JUMP JUMPDEST SWAP1 POP PUSH1 0x9 PUSH0 DUP2 SLOAD DUP1 SWAP3 SWAP2 SWAP1 PUSH2 0x2090 SWAP1 PUSH2 0x3184 JUMP JUMPDEST SWAP2 SWAP1 POP SSTORE POP PUSH1 0x40 MLOAD DUP1 PUSH2 0x160 ADD PUSH1 0x40 MSTORE DUP1 PUSH1 0x9 SLOAD DUP2 MSTORE PUSH1 0x20 ADD DUP12 DUP2 MSTORE PUSH1 0x20 ADD DUP11 DUP2 MSTORE PUSH1 0x20 ADD CALLER PUSH20 0xFFFFFFFFFFFFFFFFFFFFFFFFFFFFFFFFFFFFFFFF AND DUP2 MSTORE PUSH1 0x20 ADD TIMESTAMP DUP2 MSTORE PUSH1 0x20 ADD DUP3 DUP2 MSTORE PUSH1 0x20 ADD DUP8 DUP2 MSTORE PUSH1 0x20 ADD DUP7 DUP2 MSTORE PUSH1 0x20 ADD DUP9 DUP2 MSTORE PUSH1 0x20 ADD PUSH0 DUP2 MSTORE PUSH1 0x20 ADD PUSH0 DUP2 MSTORE POP PUSH1 0x3 PUSH0 PUSH1 0x9 SLOAD DUP2 MSTORE PUSH1 0x20 ADD SWAP1 DUP2 MSTORE PUSH1 0x20 ADD PUSH0 KECCAK256 PUSH0 DUP3 ADD MLOAD DUP2 PUSH0 ADD SSTORE PUSH1 0x20 DUP3 ADD MLOAD DUP2 PUSH1 0x1 ADD SWAP1 DUP2 PUSH2 0x2129 SWAP2 SWAP1 PUSH2 0x3825 JUMP JUMPDEST POP PUSH1 0x40 DUP3 ADD MLOAD DUP2 PUSH1 0x2 ADD SWAP1 DUP2 PUSH2 0x213F SWAP2 SWAP1 PUSH2 0x3825 JUMP JUMPDEST POP PUSH1 0x60 DUP3 ADD MLOAD DUP2 PUSH1 0x3 ADD PUSH0 PUSH2 0x100 EXP DUP2 SLOAD DUP2 PUSH20 0xFFFFFFFFFFFFFFFFFFFFFFFFFFFFFFFFFFFFFFFF MUL NOT AND SWAP1 DUP4 PUSH20 0xFFFFFFFFFFFFFFFFFFFFFFFFFFFFFFFFFFFFFFFF AND MUL OR SWAP1 SSTORE POP PUSH1 0x80 DUP3 ADD MLOAD DUP2 PUSH1 0x4 ADD SSTORE PUSH1 0xA0 DUP3 ADD MLOAD DUP2 PUSH1 0x5 ADD SWAP1 DUP2 PUSH2 0x21A5 SWAP2 SWAP1 PUSH2 0x3825 JUMP JUMPDEST POP PUSH1 0xC0 DUP3 ADD MLOAD DUP2 PUSH1 0x6 ADD SWAP1 DUP2 PUSH2 0x21BB SWAP2 SWAP1 PUSH2 0x3825 JUMP JUMPDEST POP PUSH1 0xE0 DUP3 ADD MLOAD DUP2 PUSH1 0x7 ADD SSTORE PUSH2 0x100 DUP3 ADD MLOAD DUP2 PUSH1 0x8 ADD SWAP1 DUP1 MLOAD SWAP1 PUSH1 0x20 ADD SWAP1 PUSH2 0x21E3 SWAP3 SWAP2 SWAP1 PUSH2 0x2325 JUMP JUMPDEST POP PUSH2 0x120 DUP3 ADD MLOAD DUP2 PUSH1 0x9 ADD SSTORE PUSH2 0x140 DUP3 ADD MLOAD DUP2 PUSH1 0xA ADD SSTORE SWAP1 POP POP DUP4 PUSH1 0x8 PUSH0 CALLER PUSH20 0xFFFFFFFFFFFFFFFFFFFFFFFFFFFFFFFFFFFFFFFF AND PUSH20 0xFFFFFFFFFFFFFFFFFFFFFFFFFFFFFFFFFFFFFFFF AND DUP2 MSTORE PUSH1 0x20 ADD SWAP1 DUP2 MSTORE PUSH1 0x20 ADD PUSH0 KECCAK256 DUP2 SWAP1 SSTORE POP PUSH32 0xB09585DCFA67E6AE8B1880D8BE4DEDD6B176990F3317AFB12D0432B72FFC32DA PUSH1 0x9 SLOAD DUP12 DUP12 CALLER TIMESTAMP DUP7 DUP13 DUP13 PUSH1 0x40 MLOAD PUSH2 0x227E SWAP9 SWAP8 SWAP7 SWAP6 SWAP5 SWAP4 SWAP3 SWAP2 SWAP1 PUSH2 0x3A79 JUMP JUMPDEST PUSH1 0x40 MLOAD DUP1 SWAP2 SUB SWAP1 LOG1 POP POP POP POP POP POP POP POP POP POP JUMP JUMPDEST PUSH1 0x2 PUSH0 SLOAD SUB PUSH2 0x22D6 JUMPI PUSH1 0x40 MLOAD PUSH32 0x8C379A000000000000000000000000000000000000000000000000000000000 DUP2 MSTORE PUSH1 0x4 ADD PUSH2 0x22CD SWAP1 PUSH2 0x3B5B JUMP JUMPDEST PUSH1 0x40 MLOAD DUP1 SWAP2 SUB SWAP1 REVERT JUMPDEST PUSH1 0x2 PUSH0 DUP2 SWAP1 SSTORE POP JUMP JUMPDEST PUSH1 0x1 PUSH0 DUP2 SWAP1 SSTORE POP JUMP JUMPDEST POP DUP1 SLOAD PUSH2 0x22F4 SWAP1 PUSH2 0x31F8 JUMP JUMPDEST PUSH0 DUP3 SSTORE DUP1 PUSH1 0x1F LT PUSH2 0x2305 JUMPI POP PUSH2 0x2322 JUMP JUMPDEST PUSH1 0x1F ADD PUSH1 0x20 SWAP1 DIV SWAP1 PUSH0 MSTORE PUSH1 0x20 PUSH0 KECCAK256 SWAP1 DUP2 ADD SWAP1 PUSH2 0x2321 SWAP2 SWAP1 PUSH2 0x237C JUMP JUMPDEST JUMPDEST POP JUMP JUMPDEST DUP3 DUP1 SLOAD DUP3 DUP3 SSTORE SWAP1 PUSH0 MSTORE PUSH1 0x20 PUSH0 KECCAK256 SWAP1 DUP2 ADD SWAP3 DUP3 ISZERO PUSH2 0x236B JUMPI SWAP2 PUSH1 0x20 MUL DUP3 ADD JUMPDEST DUP3 DUP2 GT ISZERO PUSH2 0x236A JUMPI DUP3 MLOAD DUP3 SWAP1 DUP2 PUSH2 0x235A SWAP2 SWAP1 PUSH2 0x3825 JUMP JUMPDEST POP SWAP2 PUSH1 0x20 ADD SWAP2 SWAP1 PUSH1 0x1 ADD SWAP1 PUSH2 0x2343 JUMP JUMPDEST JUMPDEST POP SWAP1 POP PUSH2 0x2378 SWAP2 SWAP1 PUSH2 0x2397 JUMP JUMPDEST POP SWAP1 JUMP JUMPDEST JUMPDEST DUP1 DUP3 GT ISZERO PUSH2 0x2393 JUMPI PUSH0 DUP2 PUSH0 SWAP1 SSTORE POP PUSH1 0x1 ADD PUSH2 0x237D JUMP JUMPDEST POP SWAP1 JUMP JUMPDEST JUMPDEST DUP1 DUP3 GT ISZERO PUSH2 0x23B6 JUMPI PUSH0 DUP2 DUP2 PUSH2 0x23AD SWAP2 SWAP1 PUSH2 0x22E8 JUMP JUMPDEST POP PUSH1 0x1 ADD PUSH2 0x2398 JUMP JUMPDEST POP SWAP1 JUMP JUMPDEST PUSH0 PUSH1 0x40 MLOAD SWAP1 POP SWAP1 JUMP JUMPDEST PUSH0 DUP1 REVERT JUMPDEST PUSH0 DUP1 REVERT JUMPDEST PUSH0 DUP2 SWAP1 POP SWAP2 SWAP1 POP JUMP JUMPDEST PUSH2 0x23DD DUP2 PUSH2 0x23CB JUMP JUMPDEST DUP2 EQ PUSH2 0x23E7 JUMPI PUSH0 DUP1 REVERT JUMPDEST POP JUMP JUMPDEST PUSH0 DUP2 CALLDATALOAD SWAP1 POP PUSH2 0x23F8 DUP2 PUSH2 0x23D4 JUMP JUMPDEST SWAP3 SWAP2 POP POP JUMP JUMPDEST PUSH0 PUSH1 0x20 DUP3 DUP5 SUB SLT ISZERO PUSH2 0x2413 JUMPI PUSH2 0x2412 PUSH2 0x23C3 JUMP JUMPDEST JUMPDEST PUSH0 PUSH2 0x2420 DUP5 DUP3 DUP6 ADD PUSH2 0x23EA JUMP JUMPDEST SWAP2 POP POP SWAP3 SWAP2 POP POP JUMP JUMPDEST PUSH0 DUP1 PUSH1 0x40 DUP4 DUP6 SUB SLT ISZERO PUSH2 0x243F JUMPI PUSH2 0x243E PUSH2 0x23C3 JUMP JUMPDEST JUMPDEST PUSH0 PUSH2 0x244C DUP6 DUP3 DUP7 ADD PUSH2 0x23EA JUMP JUMPDEST SWAP3 POP POP PUSH1 0x20 PUSH2 0x245D DUP6 DUP3 DUP7 ADD PUSH2 0x23EA JUMP JUMPDEST SWAP2 POP POP SWAP3 POP SWAP3 SWAP1 POP JUMP JUMPDEST PUSH0 PUSH20 0xFFFFFFFFFFFFFFFFFFFFFFFFFFFFFFFFFFFFFFFF DUP3 AND SWAP1 POP SWAP2 SWAP1 POP JUMP JUMPDEST PUSH0 PUSH2 0x2490 DUP3 PUSH2 0x2467 JUMP JUMPDEST SWAP1 POP SWAP2 SWAP1 POP JUMP JUMPDEST PUSH2 0x24A0 DUP2 PUSH2 0x2486 JUMP JUMPDEST DUP2 EQ PUSH2 0x24AA JUMPI PUSH0 DUP1 REVERT JUMPDEST POP JUMP JUMPDEST PUSH0 DUP2 CALLDATALOAD SWAP1 POP PUSH2 0x24BB DUP2 PUSH2 0x2497 JUMP JUMPDEST SWAP3 SWAP2 POP POP JUMP JUMPDEST PUSH0 DUP1 PUSH1 0x40 DUP4 DUP6 SUB SLT ISZERO PUSH2 0x24D7 JUMPI PUSH2 0x24D6 PUSH2 0x23C3 JUMP JUMPDEST JUMPDEST PUSH0 PUSH2 0x24E4 DUP6 DUP3 DUP7 ADD PUSH2 0x24AD JUMP JUMPDEST SWAP3 POP POP PUSH1 0x20 PUSH2 0x24F5 DUP6 DUP3 DUP7 ADD PUSH2 0x24AD JUMP JUMPDEST SWAP2 POP POP SWAP3 POP SWAP3 SWAP1 POP JUMP JUMPDEST PUSH0 DUP2 ISZERO ISZERO SWAP1 POP SWAP2 SWAP1 POP JUMP JUMPDEST PUSH2 0x2513 DUP2 PUSH2 0x24FF JUMP JUMPDEST DUP3 MSTORE POP POP JUMP JUMPDEST PUSH0 PUSH1 0x20 DUP3 ADD SWAP1 POP PUSH2 0x252C PUSH0 DUP4 ADD DUP5 PUSH2 0x250A JUMP JUMPDEST SWAP3 SWAP2 POP POP JUMP JUMPDEST PUSH0 DUP2 MLOAD SWAP1 POP SWAP2 SWAP1 POP JUMP JUMPDEST PUSH0 DUP3 DUP3 MSTORE PUSH1 0x20 DUP3 ADD SWAP1 POP SWAP3 SWAP2 POP POP JUMP JUMPDEST DUP3 DUP2 DUP4 MCOPY PUSH0 DUP4 DUP4 ADD MSTORE POP POP POP JUMP JUMPDEST PUSH0 PUSH1 0x1F NOT PUSH1 0x1F DUP4 ADD AND SWAP1 POP SWAP2 SWAP1 POP JUMP JUMPDEST PUSH0 PUSH2 0x2574 DUP3 PUSH2 0x2532 JUMP JUMPDEST PUSH2 0x257E DUP2 DUP6 PUSH2 0x253C JUMP JUMPDEST SWAP4 POP PUSH2 0x258E DUP2 DUP6 PUSH1 0x20 DUP7 ADD PUSH2 0x254C JUMP JUMPDEST PUSH2 0x2597 DUP2 PUSH2 0x255A JUMP JUMPDEST DUP5 ADD SWAP2 POP POP SWAP3 SWAP2 POP POP JUMP JUMPDEST PUSH0 PUSH1 0x20 DUP3 ADD SWAP1 POP DUP2 DUP2 SUB PUSH0 DUP4 ADD MSTORE PUSH2 0x25BA DUP2 DUP5 PUSH2 0x256A JUMP JUMPDEST SWAP1 POP SWAP3 SWAP2 POP POP JUMP JUMPDEST PUSH0 DUP1 PUSH1 0x40 DUP4 DUP6 SUB SLT ISZERO PUSH2 0x25D8 JUMPI PUSH2 0x25D7 PUSH2 0x23C3 JUMP JUMPDEST JUMPDEST PUSH0 PUSH2 0x25E5 DUP6 DUP3 DUP7 ADD PUSH2 0x23EA JUMP JUMPDEST SWAP3 POP POP PUSH1 0x20 PUSH2 0x25F6 DUP6 DUP3 DUP7 ADD PUSH2 0x24AD JUMP JUMPDEST SWAP2 POP POP SWAP3 POP SWAP3 SWAP1 POP JUMP JUMPDEST PUSH0 PUSH1 0x20 DUP3 DUP5 SUB SLT ISZERO PUSH2 0x2615 JUMPI PUSH2 0x2614 PUSH2 0x23C3 JUMP JUMPDEST JUMPDEST PUSH0 PUSH2 0x2622 DUP5 DUP3 DUP6 ADD PUSH2 0x24AD JUMP JUMPDEST SWAP2 POP POP SWAP3 SWAP2 POP POP JUMP JUMPDEST PUSH2 0x2634 DUP2 PUSH2 0x23CB JUMP JUMPDEST DUP3 MSTORE POP POP JUMP JUMPDEST PUSH0 PUSH1 0x20 DUP3 ADD SWAP1 POP PUSH2 0x264D PUSH0 DUP4 ADD DUP5 PUSH2 0x262B JUMP JUMPDEST SWAP3 SWAP2 POP POP JUMP JUMPDEST PUSH0 DUP1 REVERT JUMPDEST PUSH0 DUP1 REVERT JUMPDEST PUSH32 0x4E487B7100000000000000000000000000000000000000000000000000000000 PUSH0 MSTORE PUSH1 0x41 PUSH1 0x4 MSTORE PUSH1 0x24 PUSH0 REVERT JUMPDEST PUSH2 0x2691 DUP3 PUSH2 0x255A JUMP JUMPDEST DUP2 ADD DUP2 DUP2 LT PUSH8 0xFFFFFFFFFFFFFFFF DUP3 GT OR ISZERO PUSH2 0x26B0 JUMPI PUSH2 0x26AF PUSH2 0x265B JUMP JUMPDEST JUMPDEST DUP1 PUSH1 0x40 MSTORE POP POP POP JUMP JUMPDEST PUSH0 PUSH2 0x26C2 PUSH2 0x23BA JUMP JUMPDEST SWAP1 POP PUSH2 0x26CE DUP3 DUP3 PUSH2 0x2688 JUMP JUMPDEST SWAP2 SWAP1 POP JUMP JUMPDEST PUSH0 PUSH8 0xFFFFFFFFFFFFFFFF DUP3 GT ISZERO PUSH2 0x26ED JUMPI PUSH2 0x26EC PUSH2 0x265B JUMP JUMPDEST JUMPDEST PUSH2 0x26F6 DUP3 PUSH2 0x255A JUMP JUMPDEST SWAP1 POP PUSH1 0x20 DUP2 ADD SWAP1 POP SWAP2 SWAP1 POP JUMP JUMPDEST DUP3 DUP2 DUP4 CALLDATACOPY PUSH0 DUP4 DUP4 ADD MSTORE POP POP POP JUMP JUMPDEST PUSH0 PUSH2 0x2723 PUSH2 0x271E DUP5 PUSH2 0x26D3 JUMP JUMPDEST PUSH2 0x26B9 JUMP JUMPDEST SWAP1 POP DUP3 DUP2 MSTORE PUSH1 0x20 DUP2 ADD DUP5 DUP5 DUP5 ADD GT ISZERO PUSH2 0x273F JUMPI PUSH2 0x273E PUSH2 0x2657 JUMP JUMPDEST JUMPDEST PUSH2 0x274A DUP5 DUP3 DUP6 PUSH2 0x2703 JUMP JUMPDEST POP SWAP4 SWAP3 POP POP POP JUMP JUMPDEST PUSH0 DUP3 PUSH1 0x1F DUP4 ADD SLT PUSH2 0x2766 JUMPI PUSH2 0x2765 PUSH2 0x2653 JUMP JUMPDEST JUMPDEST DUP2 CALLDATALOAD PUSH2 0x2776 DUP5 DUP3 PUSH1 0x20 DUP7 ADD PUSH2 0x2711 JUMP JUMPDEST SWAP2 POP POP SWAP3 SWAP2 POP POP JUMP JUMPDEST PUSH0 DUP1 PUSH1 0x40 DUP4 DUP6 SUB SLT ISZERO PUSH2 0x2795 JUMPI PUSH2 0x2794 PUSH2 0x23C3 JUMP JUMPDEST JUMPDEST PUSH0 PUSH2 0x27A2 DUP6 DUP3 DUP7 ADD PUSH2 0x23EA JUMP JUMPDEST SWAP3 POP POP PUSH1 0x20 DUP4 ADD CALLDATALOAD PUSH8 0xFFFFFFFFFFFFFFFF DUP2 GT ISZERO PUSH2 0x27C3 JUMPI PUSH2 0x27C2 PUSH2 0x23C7 JUMP JUMPDEST JUMPDEST PUSH2 0x27CF DUP6 DUP3 DUP7 ADD PUSH2 0x2752 JUMP JUMPDEST SWAP2 POP POP SWAP3 POP SWAP3 SWAP1 POP JUMP JUMPDEST PUSH2 0x27E2 DUP2 PUSH2 0x2486 JUMP JUMPDEST DUP3 MSTORE POP POP JUMP JUMPDEST PUSH0 PUSH1 0x80 DUP3 ADD SWAP1 POP PUSH2 0x27FB PUSH0 DUP4 ADD DUP8 PUSH2 0x262B JUMP JUMPDEST PUSH2 0x2808 PUSH1 0x20 DUP4 ADD DUP7 PUSH2 0x27D9 JUMP JUMPDEST DUP2 DUP2 SUB PUSH1 0x40 DUP4 ADD MSTORE PUSH2 0x281A DUP2 DUP6 PUSH2 0x256A JUMP JUMPDEST SWAP1 POP PUSH2 0x2829 PUSH1 0x60 DUP4 ADD DUP5 PUSH2 0x262B JUMP JUMPDEST SWAP6 SWAP5 POP POP POP POP POP JUMP JUMPDEST PUSH0 PUSH1 0x20 DUP3 ADD SWAP1 POP PUSH2 0x2845 PUSH0 DUP4 ADD DUP5 PUSH2 0x27D9 JUMP JUMPDEST SWAP3 SWAP2 POP POP JUMP JUMPDEST PUSH0 PUSH2 0x140 DUP3 ADD SWAP1 POP PUSH2 0x285F PUSH0 DUP4 ADD DUP14 PUSH2 0x262B JUMP JUMPDEST DUP2 DUP2 SUB PUSH1 0x20 DUP4 ADD MSTORE PUSH2 0x2871 DUP2 DUP13 PUSH2 0x256A JUMP JUMPDEST SWAP1 POP DUP2 DUP2 SUB PUSH1 0x40 DUP4 ADD MSTORE PUSH2 0x2885 DUP2 DUP12 PUSH2 0x256A JUMP JUMPDEST SWAP1 POP PUSH2 0x2894 PUSH1 0x60 DUP4 ADD DUP11 PUSH2 0x27D9 JUMP JUMPDEST PUSH2 0x28A1 PUSH1 0x80 DUP4 ADD DUP10 PUSH2 0x262B JUMP JUMPDEST DUP2 DUP2 SUB PUSH1 0xA0 DUP4 ADD MSTORE PUSH2 0x28B3 DUP2 DUP9 PUSH2 0x256A JUMP JUMPDEST SWAP1 POP DUP2 DUP2 SUB PUSH1 0xC0 DUP4 ADD MSTORE PUSH2 0x28C7 DUP2 DUP8 PUSH2 0x256A JUMP JUMPDEST SWAP1 POP PUSH2 0x28D6 PUSH1 0xE0 DUP4 ADD DUP7 PUSH2 0x262B JUMP JUMPDEST PUSH2 0x28E4 PUSH2 0x100 DUP4 ADD DUP6 PUSH2 0x262B JUMP JUMPDEST PUSH2 0x28F2 PUSH2 0x120 DUP4 ADD DUP5 PUSH2 0x262B JUMP JUMPDEST SWAP12 SWAP11 POP POP POP POP POP POP POP POP POP POP POP JUMP JUMPDEST PUSH0 DUP1 PUSH0 PUSH1 0x60 DUP5 DUP7 SUB SLT ISZERO PUSH2 0x2918 JUMPI PUSH2 0x2917 PUSH2 0x23C3 JUMP JUMPDEST JUMPDEST PUSH0 PUSH2 0x2925 DUP7 DUP3 DUP8 ADD PUSH2 0x23EA JUMP JUMPDEST SWAP4 POP POP PUSH1 0x20 PUSH2 0x2936 DUP7 DUP3 DUP8 ADD PUSH2 0x23EA JUMP JUMPDEST SWAP3 POP POP PUSH1 0x40 DUP5 ADD CALLDATALOAD PUSH8 0xFFFFFFFFFFFFFFFF DUP2 GT ISZERO PUSH2 0x2957 JUMPI PUSH2 0x2956 PUSH2 0x23C7 JUMP JUMPDEST JUMPDEST PUSH2 0x2963 DUP7 DUP3 DUP8 ADD PUSH2 0x2752 JUMP JUMPDEST SWAP2 POP POP SWAP3 POP SWAP3 POP SWAP3 JUMP JUMPDEST PUSH0 DUP2 SWAP1 POP SWAP2 SWAP1 POP JUMP JUMPDEST PUSH0 PUSH2 0x2990 PUSH2 0x298B PUSH2 0x2986 DUP5 PUSH2 0x2467 JUMP JUMPDEST PUSH2 0x296D JUMP JUMPDEST PUSH2 0x2467 JUMP JUMPDEST SWAP1 POP SWAP2 SWAP1 POP JUMP JUMPDEST PUSH0 PUSH2 0x29A1 DUP3 PUSH2 0x2976 JUMP JUMPDEST SWAP1 POP SWAP2 SWAP1 POP JUMP JUMPDEST PUSH0 PUSH2 0x29B2 DUP3 PUSH2 0x2997 JUMP JUMPDEST SWAP1 POP SWAP2 SWAP1 POP JUMP JUMPDEST PUSH2 0x29C2 DUP2 PUSH2 0x29A8 JUMP JUMPDEST DUP3 MSTORE POP POP JUMP JUMPDEST PUSH0 PUSH1 0x20 DUP3 ADD SWAP1 POP PUSH2 0x29DB PUSH0 DUP4 ADD DUP5 PUSH2 0x29B9 JUMP JUMPDEST SWAP3 SWAP2 POP POP JUMP JUMPDEST PUSH0 PUSH8 0xFFFFFFFFFFFFFFFF DUP3 GT ISZERO PUSH2 0x29FB JUMPI PUSH2 0x29FA PUSH2 0x265B JUMP JUMPDEST JUMPDEST PUSH2 0x2A04 DUP3 PUSH2 0x255A JUMP JUMPDEST SWAP1 POP PUSH1 0x20 DUP2 ADD SWAP1 POP SWAP2 SWAP1 POP JUMP JUMPDEST PUSH0 PUSH2 0x2A23 PUSH2 0x2A1E DUP5 PUSH2 0x29E1 JUMP JUMPDEST PUSH2 0x26B9 JUMP JUMPDEST SWAP1 POP DUP3 DUP2 MSTORE PUSH1 0x20 DUP2 ADD DUP5 DUP5 DUP5 ADD GT ISZERO PUSH2 0x2A3F JUMPI PUSH2 0x2A3E PUSH2 0x2657 JUMP JUMPDEST JUMPDEST PUSH2 0x2A4A DUP5 DUP3 DUP6 PUSH2 0x2703 JUMP JUMPDEST POP SWAP4 SWAP3 POP POP POP JUMP JUMPDEST PUSH0 DUP3 PUSH1 0x1F DUP4 ADD SLT PUSH2 0x2A66 JUMPI PUSH2 0x2A65 PUSH2 0x2653 JUMP JUMPDEST JUMPDEST DUP2 CALLDATALOAD PUSH2 0x2A76 DUP5 DUP3 PUSH1 0x20 DUP7 ADD PUSH2 0x2A11 JUMP JUMPDEST SWAP2 POP POP SWAP3 SWAP2 POP POP JUMP JUMPDEST PUSH0 PUSH8 0xFFFFFFFFFFFFFFFF DUP3 GT ISZERO PUSH2 0x2A99 JUMPI PUSH2 0x2A98 PUSH2 0x265B JUMP JUMPDEST JUMPDEST PUSH1 0x20 DUP3 MUL SWAP1 POP PUSH1 0x20 DUP2 ADD SWAP1 POP SWAP2 SWAP1 POP JUMP JUMPDEST PUSH0 DUP1 REVERT JUMPDEST PUSH0 PUSH2 0x2AC0 PUSH2 0x2ABB DUP5 PUSH2 0x2A7F JUMP JUMPDEST PUSH2 0x26B9 JUMP JUMPDEST SWAP1 POP DUP1 DUP4 DUP3 MSTORE PUSH1 0x20 DUP3 ADD SWAP1 POP PUSH1 0x20 DUP5 MUL DUP4 ADD DUP6 DUP2 GT ISZERO PUSH2 0x2AE3 JUMPI PUSH2 0x2AE2 PUSH2 0x2AAA JUMP JUMPDEST JUMPDEST DUP4 JUMPDEST DUP2 DUP2 LT ISZERO PUSH2 0x2B2A JUMPI DUP1 CALLDATALOAD PUSH8 0xFFFFFFFFFFFFFFFF DUP2 GT ISZERO PUSH2 0x2B08 JUMPI PUSH2 0x2B07 PUSH2 0x2653 JUMP JUMPDEST JUMPDEST DUP1 DUP7 ADD PUSH2 0x2B15 DUP10 DUP3 PUSH2 0x2752 JUMP JUMPDEST DUP6 MSTORE PUSH1 0x20 DUP6 ADD SWAP5 POP POP POP PUSH1 0x20 DUP2 ADD SWAP1 POP PUSH2 0x2AE5 JUMP JUMPDEST POP POP POP SWAP4 SWAP3 POP POP POP JUMP JUMPDEST PUSH0 DUP3 PUSH1 0x1F DUP4 ADD SLT PUSH2 0x2B48 JUMPI PUSH2 0x2B47 PUSH2 0x2653 JUMP JUMPDEST JUMPDEST DUP2 CALLDATALOAD PUSH2 0x2B58 DUP5 DUP3 PUSH1 0x20 DUP7 ADD PUSH2 0x2AAE JUMP JUMPDEST SWAP2 POP POP SWAP3 SWAP2 POP POP JUMP JUMPDEST PUSH0 DUP1 PUSH0 DUP1 PUSH0 DUP1 PUSH0 PUSH1 0xE0 DUP9 DUP11 SUB SLT ISZERO PUSH2 0x2B7C JUMPI PUSH2 0x2B7B PUSH2 0x23C3 JUMP JUMPDEST JUMPDEST PUSH0 DUP9 ADD CALLDATALOAD PUSH8 0xFFFFFFFFFFFFFFFF DUP2 GT ISZERO PUSH2 0x2B99 JUMPI PUSH2 0x2B98 PUSH2 0x23C7 JUMP JUMPDEST JUMPDEST PUSH2 0x2BA5 DUP11 DUP3 DUP12 ADD PUSH2 0x2752 JUMP JUMPDEST SWAP8 POP POP PUSH1 0x20 DUP9 ADD CALLDATALOAD PUSH8 0xFFFFFFFFFFFFFFFF DUP2 GT ISZERO PUSH2 0x2BC6 JUMPI PUSH2 0x2BC5 PUSH2 0x23C7 JUMP JUMPDEST JUMPDEST PUSH2 0x2BD2 DUP11 DUP3 DUP12 ADD PUSH2 0x2752 JUMP JUMPDEST SWAP7 POP POP PUSH1 0x40 DUP9 ADD CALLDATALOAD PUSH8 0xFFFFFFFFFFFFFFFF DUP2 GT ISZERO PUSH2 0x2BF3 JUMPI PUSH2 0x2BF2 PUSH2 0x23C7 JUMP JUMPDEST JUMPDEST PUSH2 0x2BFF DUP11 DUP3 DUP12 ADD PUSH2 0x2A52 JUMP JUMPDEST SWAP6 POP POP PUSH1 0x60 DUP9 ADD CALLDATALOAD PUSH8 0xFFFFFFFFFFFFFFFF DUP2 GT ISZERO PUSH2 0x2C20 JUMPI PUSH2 0x2C1F PUSH2 0x23C7 JUMP JUMPDEST JUMPDEST PUSH2 0x2C2C DUP11 DUP3 DUP12 ADD PUSH2 0x2B34 JUMP JUMPDEST SWAP5 POP POP PUSH1 0x80 DUP9 ADD CALLDATALOAD PUSH8 0xFFFFFFFFFFFFFFFF DUP2 GT ISZERO PUSH2 0x2C4D JUMPI PUSH2 0x2C4C PUSH2 0x23C7 JUMP JUMPDEST JUMPDEST PUSH2 0x2C59 DUP11 DUP3 DUP12 ADD PUSH2 0x2752 JUMP JUMPDEST SWAP4 POP POP PUSH1 0xA0 PUSH2 0x2C6A DUP11 DUP3 DUP12 ADD PUSH2 0x23EA JUMP JUMPDEST SWAP3 POP POP PUSH1 0xC0 PUSH2 0x2C7B DUP11 DUP3 DUP12 ADD PUSH2 0x23EA JUMP JUMPDEST SWAP2 POP POP SWAP3 SWAP6 SWAP9 SWAP2 SWAP5 SWAP8 POP SWAP3 SWAP6 POP JUMP JUMPDEST PUSH32 0x596F7520686176656E2774206C696B6564207468697320766964656F21212100 PUSH0 DUP3 ADD MSTORE POP JUMP JUMPDEST PUSH0 PUSH2 0x2CBE PUSH1 0x1F DUP4 PUSH2 0x253C JUMP JUMPDEST SWAP2 POP PUSH2 0x2CC9 DUP3 PUSH2 0x2C8A JUMP JUMPDEST PUSH1 0x20 DUP3 ADD SWAP1 POP SWAP2 SWAP1 POP JUMP JUMPDEST PUSH0 PUSH1 0x20 DUP3 ADD SWAP1 POP DUP2 DUP2 SUB PUSH0 DUP4 ADD MSTORE PUSH2 0x2CEB DUP2 PUSH2 0x2CB2 JUMP JUMPDEST SWAP1 POP SWAP2 SWAP1 POP JUMP JUMPDEST PUSH32 0x4E487B7100000000000000000000000000000000000000000000000000000000 PUSH0 MSTORE PUSH1 0x11 PUSH1 0x4 MSTORE PUSH1 0x24 PUSH0 REVERT JUMPDEST PUSH0 PUSH2 0x2D29 DUP3 PUSH2 0x23CB JUMP JUMPDEST SWAP2 POP PUSH0 DUP3 SUB PUSH2 0x2D3B JUMPI PUSH2 0x2D3A PUSH2 0x2CF2 JUMP JUMPDEST JUMPDEST PUSH1 0x1 DUP3 SUB SWAP1 POP SWAP2 SWAP1 POP JUMP JUMPDEST PUSH0 PUSH1 0x40 DUP3 ADD SWAP1 POP PUSH2 0x2D59 PUSH0 DUP4 ADD DUP6 PUSH2 0x262B JUMP JUMPDEST PUSH2 0x2D66 PUSH1 0x20 DUP4 ADD DUP5 PUSH2 0x27D9 JUMP JUMPDEST SWAP4 SWAP3 POP POP POP JUMP JUMPDEST PUSH32 0x54697020416D6F756E742068617320746F206265206772656174657220746861 PUSH0 DUP3 ADD MSTORE PUSH32 0x6E207A65726F0000000000000000000000000000000000000000000000000000 PUSH1 0x20 DUP3 ADD MSTORE POP JUMP JUMPDEST PUSH0 PUSH2 0x2DC7 PUSH1 0x26 DUP4 PUSH2 0x253C JUMP JUMPDEST SWAP2 POP PUSH2 0x2DD2 DUP3 PUSH2 0x2D6D JUMP JUMPDEST PUSH1 0x40 DUP3 ADD SWAP1 POP SWAP2 SWAP1 POP JUMP JUMPDEST PUSH0 PUSH1 0x20 DUP3 ADD SWAP1 POP DUP2 DUP2 SUB PUSH0 DUP4 ADD MSTORE PUSH2 0x2DF4 DUP2 PUSH2 0x2DBB JUMP JUMPDEST SWAP1 POP SWAP2 SWAP1 POP JUMP JUMPDEST PUSH0 PUSH2 0x2E05 DUP3 PUSH2 0x23CB JUMP JUMPDEST SWAP2 POP PUSH2 0x2E10 DUP4 PUSH2 0x23CB JUMP JUMPDEST SWAP3 POP DUP3 DUP3 MUL PUSH2 0x2E1E DUP2 PUSH2 0x23CB JUMP JUMPDEST SWAP2 POP DUP3 DUP3 DIV DUP5 EQ DUP4 ISZERO OR PUSH2 0x2E35 JUMPI PUSH2 0x2E34 PUSH2 0x2CF2 JUMP JUMPDEST JUMPDEST POP SWAP3 SWAP2 POP POP JUMP JUMPDEST PUSH32 0x4E487B7100000000000000000000000000000000000000000000000000000000 PUSH0 MSTORE PUSH1 0x12 PUSH1 0x4 MSTORE PUSH1 0x24 PUSH0 REVERT JUMPDEST PUSH0 PUSH2 0x2E73 DUP3 PUSH2 0x23CB JUMP JUMPDEST SWAP2 POP PUSH2 0x2E7E DUP4 PUSH2 0x23CB JUMP JUMPDEST SWAP3 POP DUP3 PUSH2 0x2E8E JUMPI PUSH2 0x2E8D PUSH2 0x2E3C JUMP JUMPDEST JUMPDEST DUP3 DUP3 DIV SWAP1 POP SWAP3 SWAP2 POP POP JUMP JUMPDEST PUSH0 PUSH2 0x2EA3 DUP3 PUSH2 0x23CB JUMP JUMPDEST SWAP2 POP PUSH2 0x2EAE DUP4 PUSH2 0x23CB JUMP JUMPDEST SWAP3 POP DUP3 DUP3 SUB SWAP1 POP DUP2 DUP2 GT ISZERO PUSH2 0x2EC6 JUMPI PUSH2 0x2EC5 PUSH2 0x2CF2 JUMP JUMPDEST JUMPDEST SWAP3 SWAP2 POP POP JUMP JUMPDEST PUSH0 PUSH1 0x60 DUP3 ADD SWAP1 POP PUSH2 0x2EDF PUSH0 DUP4 ADD DUP7 PUSH2 0x27D9 JUMP JUMPDEST PUSH2 0x2EEC PUSH1 0x20 DUP4 ADD DUP6 PUSH2 0x27D9 JUMP JUMPDEST PUSH2 0x2EF9 PUSH1 0x40 DUP4 ADD DUP5 PUSH2 0x262B JUMP JUMPDEST SWAP5 SWAP4 POP POP POP POP JUMP JUMPDEST PUSH2 0x2F0A DUP2 PUSH2 0x24FF JUMP JUMPDEST DUP2 EQ PUSH2 0x2F14 JUMPI PUSH0 DUP1 REVERT JUMPDEST POP JUMP JUMPDEST PUSH0 DUP2 MLOAD SWAP1 POP PUSH2 0x2F25 DUP2 PUSH2 0x2F01 JUMP JUMPDEST SWAP3 SWAP2 POP POP JUMP JUMPDEST PUSH0 PUSH1 0x20 DUP3 DUP5 SUB SLT ISZERO PUSH2 0x2F40 JUMPI PUSH2 0x2F3F PUSH2 0x23C3 JUMP JUMPDEST JUMPDEST PUSH0 PUSH2 0x2F4D DUP5 DUP3 DUP6 ADD PUSH2 0x2F17 JUMP JUMPDEST SWAP2 POP POP SWAP3 SWAP2 POP POP JUMP JUMPDEST PUSH32 0x546970206661696C656421000000000000000000000000000000000000000000 PUSH0 DUP3 ADD MSTORE POP JUMP JUMPDEST PUSH0 PUSH2 0x2F8A PUSH1 0xB DUP4 PUSH2 0x253C JUMP JUMPDEST SWAP2 POP PUSH2 0x2F95 DUP3 PUSH2 0x2F56 JUMP JUMPDEST PUSH1 0x20 DUP3 ADD SWAP1 POP SWAP2 SWAP1 POP JUMP JUMPDEST PUSH0 PUSH1 0x20 DUP3 ADD SWAP1 POP DUP2 DUP2 SUB PUSH0 DUP4 ADD MSTORE PUSH2 0x2FB7 DUP2 PUSH2 0x2F7E JUMP JUMPDEST SWAP1 POP SWAP2 SWAP1 POP JUMP JUMPDEST PUSH32 0x506C6174666F726D20666565206661696C656421000000000000000000000000 PUSH0 DUP3 ADD MSTORE POP JUMP JUMPDEST PUSH0 PUSH2 0x2FF2 PUSH1 0x14 DUP4 PUSH2 0x253C JUMP JUMPDEST SWAP2 POP PUSH2 0x2FFD DUP3 PUSH2 0x2FBE JUMP JUMPDEST PUSH1 0x20 DUP3 ADD SWAP1 POP SWAP2 SWAP1 POP JUMP JUMPDEST PUSH0 PUSH1 0x20 DUP3 ADD SWAP1 POP DUP2 DUP2 SUB PUSH0 DUP4 ADD MSTORE PUSH2 0x301F DUP2 PUSH2 0x2FE6 JUMP JUMPDEST SWAP1 POP SWAP2 SWAP1 POP JUMP JUMPDEST PUSH0 PUSH2 0x3030 DUP3 PUSH2 0x23CB JUMP JUMPDEST SWAP2 POP PUSH2 0x303B DUP4 PUSH2 0x23CB JUMP JUMPDEST SWAP3 POP DUP3 DUP3 ADD SWAP1 POP DUP1 DUP3 GT ISZERO PUSH2 0x3053 JUMPI PUSH2 0x3052 PUSH2 0x2CF2 JUMP JUMPDEST JUMPDEST SWAP3 SWAP2 POP POP JUMP JUMPDEST PUSH0 PUSH1 0x60 DUP3 ADD SWAP1 POP PUSH2 0x306C PUSH0 DUP4 ADD DUP7 PUSH2 0x262B JUMP JUMPDEST PUSH2 0x3079 PUSH1 0x20 DUP4 ADD DUP6 PUSH2 0x27D9 JUMP JUMPDEST PUSH2 0x3086 PUSH1 0x40 DUP4 ADD DUP5 PUSH2 0x262B JUMP JUMPDEST SWAP5 SWAP4 POP POP POP POP JUMP JUMPDEST PUSH32 0x4163636573732064656E69656400000000000000000000000000000000000000 PUSH0 DUP3 ADD MSTORE POP JUMP JUMPDEST PUSH0 PUSH2 0x30C2 PUSH1 0xD DUP4 PUSH2 0x253C JUMP JUMPDEST SWAP2 POP PUSH2 0x30CD DUP3 PUSH2 0x308E JUMP JUMPDEST PUSH1 0x20 DUP3 ADD SWAP1 POP SWAP2 SWAP1 POP JUMP JUMPDEST PUSH0 PUSH1 0x20 DUP3 ADD SWAP1 POP DUP2 DUP2 SUB PUSH0 DUP4 ADD MSTORE PUSH2 0x30EF DUP2 PUSH2 0x30B6 JUMP JUMPDEST SWAP1 POP SWAP2 SWAP1 POP JUMP JUMPDEST PUSH32 0x596F75206861766520616C7265616479206C696B656420746869732076696465 PUSH0 DUP3 ADD MSTORE PUSH32 0x6F21212100000000000000000000000000000000000000000000000000000000 PUSH1 0x20 DUP3 ADD MSTORE POP JUMP JUMPDEST PUSH0 PUSH2 0x3150 PUSH1 0x24 DUP4 PUSH2 0x253C JUMP JUMPDEST SWAP2 POP PUSH2 0x315B DUP3 PUSH2 0x30F6 JUMP JUMPDEST PUSH1 0x40 DUP3 ADD SWAP1 POP SWAP2 SWAP1 POP JUMP JUMPDEST PUSH0 PUSH1 0x20 DUP3 ADD SWAP1 POP DUP2 DUP2 SUB PUSH0 DUP4 ADD MSTORE PUSH2 0x317D DUP2 PUSH2 0x3144 JUMP JUMPDEST SWAP1 POP SWAP2 SWAP1 POP JUMP JUMPDEST PUSH0 PUSH2 0x318E DUP3 PUSH2 0x23CB JUMP JUMPDEST SWAP2 POP PUSH32 0xFFFFFFFFFFFFFFFFFFFFFFFFFFFFFFFFFFFFFFFFFFFFFFFFFFFFFFFFFFFFFFFF DUP3 SUB PUSH2 0x31C0 JUMPI PUSH2 0x31BF PUSH2 0x2CF2 JUMP JUMPDEST JUMPDEST PUSH1 0x1 DUP3 ADD SWAP1 POP SWAP2 SWAP1 POP JUMP JUMPDEST PUSH32 0x4E487B7100000000000000000000000000000000000000000000000000000000 PUSH0 MSTORE PUSH1 0x22 PUSH1 0x4 MSTORE PUSH1 0x24 PUSH0 REVERT JUMPDEST PUSH0 PUSH1 0x2 DUP3 DIV SWAP1 POP PUSH1 0x1 DUP3 AND DUP1 PUSH2 0x320F JUMPI PUSH1 0x7F DUP3 AND SWAP2 POP JUMPDEST PUSH1 0x20 DUP3 LT DUP2 SUB PUSH2 0x3222 JUMPI PUSH2 0x3221 PUSH2 0x31CB JUMP JUMPDEST JUMPDEST POP SWAP2 SWAP1 POP JUMP JUMPDEST PUSH0 DUP2 MLOAD SWAP1 POP SWAP2 SWAP1 POP JUMP JUMPDEST PUSH0 DUP2 SWAP1 POP SWAP3 SWAP2 POP POP JUMP JUMPDEST PUSH0 PUSH2 0x3246 DUP3 PUSH2 0x3228 JUMP JUMPDEST PUSH2 0x3250 DUP2 DUP6 PUSH2 0x3232 JUMP JUMPDEST SWAP4 POP PUSH2 0x3260 DUP2 DUP6 PUSH1 0x20 DUP7 ADD PUSH2 0x254C JUMP JUMPDEST DUP1 DUP5 ADD SWAP2 POP POP SWAP3 SWAP2 POP POP JUMP JUMPDEST PUSH0 PUSH2 0x3277 DUP3 DUP5 PUSH2 0x323C JUMP JUMPDEST SWAP2 POP DUP2 SWAP1 POP SWAP3 SWAP2 POP POP JUMP JUMPDEST PUSH32 0x4572726F72206665746368696E67206461746100000000000000000000000000 PUSH0 DUP3 ADD MSTORE POP JUMP JUMPDEST PUSH0 PUSH2 0x32B6 PUSH1 0x13 DUP4 PUSH2 0x253C JUMP JUMPDEST SWAP2 POP PUSH2 0x32C1 DUP3 PUSH2 0x3282 JUMP JUMPDEST PUSH1 0x20 DUP3 ADD SWAP1 POP SWAP2 SWAP1 POP JUMP JUMPDEST PUSH0 PUSH1 0x20 DUP3 ADD SWAP1 POP DUP2 DUP2 SUB PUSH0 DUP4 ADD MSTORE PUSH2 0x32E3 DUP2 PUSH2 0x32AA JUMP JUMPDEST SWAP1 POP SWAP2 SWAP1 POP JUMP JUMPDEST PUSH32 0x596F7520617265206E6F742074686520617574686F72206F6620746869732063 PUSH0 DUP3 ADD MSTORE PUSH32 0x6F6D6D656E742100000000000000000000000000000000000000000000000000 PUSH1 0x20 DUP3 ADD MSTORE POP JUMP JUMPDEST PUSH0 PUSH2 0x3344 PUSH1 0x27 DUP4 PUSH2 0x253C JUMP JUMPDEST SWAP2 POP PUSH2 0x334F DUP3 PUSH2 0x32EA JUMP JUMPDEST PUSH1 0x40 DUP3 ADD SWAP1 POP SWAP2 SWAP1 POP JUMP JUMPDEST PUSH0 PUSH1 0x20 DUP3 ADD SWAP1 POP DUP2 DUP2 SUB PUSH0 DUP4 ADD MSTORE PUSH2 0x3371 DUP2 PUSH2 0x3338 JUMP JUMPDEST SWAP1 POP SWAP2 SWAP1 POP JUMP JUMPDEST PUSH0 PUSH1 0x60 DUP3 ADD SWAP1 POP PUSH2 0x338B PUSH0 DUP4 ADD DUP7 PUSH2 0x262B JUMP JUMPDEST PUSH2 0x3398 PUSH1 0x20 DUP4 ADD DUP6 PUSH2 0x262B JUMP JUMPDEST PUSH2 0x33A5 PUSH1 0x40 DUP4 ADD DUP5 PUSH2 0x27D9 JUMP JUMPDEST SWAP5 SWAP4 POP POP POP POP JUMP JUMPDEST PUSH32 0x4E6F207469707320617661696C61626C6520666F72207769746864726177616C PUSH0 DUP3 ADD MSTORE PUSH32 0x2100000000000000000000000000000000000000000000000000000000000000 PUSH1 0x20 DUP3 ADD MSTORE POP JUMP JUMPDEST PUSH0 PUSH2 0x3407 PUSH1 0x21 DUP4 PUSH2 0x253C JUMP JUMPDEST SWAP2 POP PUSH2 0x3412 DUP3 PUSH2 0x33AD JUMP JUMPDEST PUSH1 0x40 DUP3 ADD SWAP1 POP SWAP2 SWAP1 POP JUMP JUMPDEST PUSH0 PUSH1 0x20 DUP3 ADD SWAP1 POP DUP2 DUP2 SUB PUSH0 DUP4 ADD MSTORE PUSH2 0x3434 DUP2 PUSH2 0x33FB JUMP JUMPDEST SWAP1 POP SWAP2 SWAP1 POP JUMP JUMPDEST PUSH0 PUSH1 0x40 DUP3 ADD SWAP1 POP PUSH2 0x344E PUSH0 DUP4 ADD DUP6 PUSH2 0x27D9 JUMP JUMPDEST PUSH2 0x345B PUSH1 0x20 DUP4 ADD DUP5 PUSH2 0x262B JUMP JUMPDEST SWAP4 SWAP3 POP POP POP JUMP JUMPDEST PUSH32 0x5769746864726177616C206661696C6564210000000000000000000000000000 PUSH0 DUP3 ADD MSTORE POP JUMP JUMPDEST PUSH0 PUSH2 0x3496 PUSH1 0x12 DUP4 PUSH2 0x253C JUMP JUMPDEST SWAP2 POP PUSH2 0x34A1 DUP3 PUSH2 0x3462 JUMP JUMPDEST PUSH1 0x20 DUP3 ADD SWAP1 POP SWAP2 SWAP1 POP JUMP JUMPDEST PUSH0 PUSH1 0x20 DUP3 ADD SWAP1 POP DUP2 DUP2 SUB PUSH0 DUP4 ADD MSTORE PUSH2 0x34C3 DUP2 PUSH2 0x348A JUMP JUMPDEST SWAP1 POP SWAP2 SWAP1 POP JUMP JUMPDEST PUSH32 0x55706C6F6164657220686173206E6F2061636365737320666565207365740000 PUSH0 DUP3 ADD MSTORE POP JUMP JUMPDEST PUSH0 PUSH2 0x34FE PUSH1 0x1E DUP4 PUSH2 0x253C JUMP JUMPDEST SWAP2 POP PUSH2 0x3509 DUP3 PUSH2 0x34CA JUMP JUMPDEST PUSH1 0x20 DUP3 ADD SWAP1 POP SWAP2 SWAP1 POP JUMP JUMPDEST PUSH0 PUSH1 0x20 DUP3 ADD SWAP1 POP DUP2 DUP2 SUB PUSH0 DUP4 ADD MSTORE PUSH2 0x352B DUP2 PUSH2 0x34F2 JUMP JUMPDEST SWAP1 POP SWAP2 SWAP1 POP JUMP JUMPDEST PUSH32 0x41636365737320616C7265616479206772616E74656400000000000000000000 PUSH0 DUP3 ADD MSTORE POP JUMP JUMPDEST PUSH0 PUSH2 0x3566 PUSH1 0x16 DUP4 PUSH2 0x253C JUMP JUMPDEST SWAP2 POP PUSH2 0x3571 DUP3 PUSH2 0x3532 JUMP JUMPDEST PUSH1 0x20 DUP3 ADD SWAP1 POP SWAP2 SWAP1 POP JUMP JUMPDEST PUSH0 PUSH1 0x20 DUP3 ADD SWAP1 POP DUP2 DUP2 SUB PUSH0 DUP4 ADD MSTORE PUSH2 0x3593 DUP2 PUSH2 0x355A JUMP JUMPDEST SWAP1 POP SWAP2 SWAP1 POP JUMP JUMPDEST PUSH32 0x416363657373207061796D656E74206661696C65642100000000000000000000 PUSH0 DUP3 ADD MSTORE POP JUMP JUMPDEST PUSH0 PUSH2 0x35CE PUSH1 0x16 DUP4 PUSH2 0x253C JUMP JUMPDEST SWAP2 POP PUSH2 0x35D9 DUP3 PUSH2 0x359A JUMP JUMPDEST PUSH1 0x20 DUP3 ADD SWAP1 POP SWAP2 SWAP1 POP JUMP JUMPDEST PUSH0 PUSH1 0x20 DUP3 ADD SWAP1 POP DUP2 DUP2 SUB PUSH0 DUP4 ADD MSTORE PUSH2 0x35FB DUP2 PUSH2 0x35C2 JUMP JUMPDEST SWAP1 POP SWAP2 SWAP1 POP JUMP JUMPDEST PUSH32 0x506C6174666F726D20666565207472616E73666572206661696C656421000000 PUSH0 DUP3 ADD MSTORE POP JUMP JUMPDEST PUSH0 PUSH2 0x3636 PUSH1 0x1D DUP4 PUSH2 0x253C JUMP JUMPDEST SWAP2 POP PUSH2 0x3641 DUP3 PUSH2 0x3602 JUMP JUMPDEST PUSH1 0x20 DUP3 ADD SWAP1 POP SWAP2 SWAP1 POP JUMP JUMPDEST PUSH0 PUSH1 0x20 DUP3 ADD SWAP1 POP DUP2 DUP2 SUB PUSH0 DUP4 ADD MSTORE PUSH2 0x3663 DUP2 PUSH2 0x362A JUMP JUMPDEST SWAP1 POP SWAP2 SWAP1 POP JUMP JUMPDEST PUSH0 PUSH1 0x40 DUP3 ADD SWAP1 POP PUSH2 0x367D PUSH0 DUP4 ADD DUP6 PUSH2 0x27D9 JUMP JUMPDEST PUSH2 0x368A PUSH1 0x20 DUP4 ADD DUP5 PUSH2 0x27D9 JUMP JUMPDEST SWAP4 SWAP3 POP POP POP JUMP JUMPDEST PUSH0 DUP2 SWAP1 POP DUP2 PUSH0 MSTORE PUSH1 0x20 PUSH0 KECCAK256 SWAP1 POP SWAP2 SWAP1 POP JUMP JUMPDEST PUSH0 PUSH1 0x20 PUSH1 0x1F DUP4 ADD DIV SWAP1 POP SWAP2 SWAP1 POP JUMP JUMPDEST PUSH0 DUP3 DUP3 SHL SWAP1 POP SWAP3 SWAP2 POP POP JUMP JUMPDEST PUSH0 PUSH1 0x8 DUP4 MUL PUSH2 0x36ED PUSH32 0xFFFFFFFFFFFFFFFFFFFFFFFFFFFFFFFFFFFFFFFFFFFFFFFFFFFFFFFFFFFFFFFF DUP3 PUSH2 0x36B2 JUMP JUMPDEST PUSH2 0x36F7 DUP7 DUP4 PUSH2 0x36B2 JUMP JUMPDEST SWAP6 POP DUP1 NOT DUP5 AND SWAP4 POP DUP1 DUP7 AND DUP5 OR SWAP3 POP POP POP SWAP4 SWAP3 POP POP POP JUMP JUMPDEST PUSH0 PUSH2 0x3729 PUSH2 0x3724 PUSH2 0x371F DUP5 PUSH2 0x23CB JUMP JUMPDEST PUSH2 0x296D JUMP JUMPDEST PUSH2 0x23CB JUMP JUMPDEST SWAP1 POP SWAP2 SWAP1 POP JUMP JUMPDEST PUSH0 DUP2 SWAP1 POP SWAP2 SWAP1 POP JUMP JUMPDEST PUSH2 0x3742 DUP4 PUSH2 0x370F JUMP JUMPDEST PUSH2 0x3756 PUSH2 0x374E DUP3 PUSH2 0x3730 JUMP JUMPDEST DUP5 DUP5 SLOAD PUSH2 0x36BE JUMP JUMPDEST DUP3 SSTORE POP POP POP POP JUMP JUMPDEST PUSH0 SWAP1 JUMP JUMPDEST PUSH2 0x376A PUSH2 0x375E JUMP JUMPDEST PUSH2 0x3775 DUP2 DUP5 DUP5 PUSH2 0x3739 JUMP JUMPDEST POP POP POP JUMP JUMPDEST JUMPDEST DUP2 DUP2 LT ISZERO PUSH2 0x3798 JUMPI PUSH2 0x378D PUSH0 DUP3 PUSH2 0x3762 JUMP JUMPDEST PUSH1 0x1 DUP2 ADD SWAP1 POP PUSH2 0x377B JUMP JUMPDEST POP POP JUMP JUMPDEST PUSH1 0x1F DUP3 GT ISZERO PUSH2 0x37DD JUMPI PUSH2 0x37AE DUP2 PUSH2 0x3691 JUMP JUMPDEST PUSH2 0x37B7 DUP5 PUSH2 0x36A3 JUMP JUMPDEST DUP2 ADD PUSH1 0x20 DUP6 LT ISZERO PUSH2 0x37C6 JUMPI DUP2 SWAP1 POP JUMPDEST PUSH2 0x37DA PUSH2 0x37D2 DUP6 PUSH2 0x36A3 JUMP JUMPDEST DUP4 ADD DUP3 PUSH2 0x377A JUMP JUMPDEST POP POP JUMPDEST POP POP POP JUMP JUMPDEST PUSH0 DUP3 DUP3 SHR SWAP1 POP SWAP3 SWAP2 POP POP JUMP JUMPDEST PUSH0 PUSH2 0x37FD PUSH0 NOT DUP5 PUSH1 0x8 MUL PUSH2 0x37E2 JUMP JUMPDEST NOT DUP1 DUP4 AND SWAP2 POP POP SWAP3 SWAP2 POP POP JUMP JUMPDEST PUSH0 PUSH2 0x3815 DUP4 DUP4 PUSH2 0x37EE JUMP JUMPDEST SWAP2 POP DUP3 PUSH1 0x2 MUL DUP3 OR SWAP1 POP SWAP3 SWAP2 POP POP JUMP JUMPDEST PUSH2 0x382E DUP3 PUSH2 0x2532 JUMP JUMPDEST PUSH8 0xFFFFFFFFFFFFFFFF DUP2 GT ISZERO PUSH2 0x3847 JUMPI PUSH2 0x3846 PUSH2 0x265B JUMP JUMPDEST JUMPDEST PUSH2 0x3851 DUP3 SLOAD PUSH2 0x31F8 JUMP JUMPDEST PUSH2 0x385C DUP3 DUP3 DUP6 PUSH2 0x379C JUMP JUMPDEST PUSH0 PUSH1 0x20 SWAP1 POP PUSH1 0x1F DUP4 GT PUSH1 0x1 DUP2 EQ PUSH2 0x388D JUMPI PUSH0 DUP5 ISZERO PUSH2 0x387B JUMPI DUP3 DUP8 ADD MLOAD SWAP1 POP JUMPDEST PUSH2 0x3885 DUP6 DUP3 PUSH2 0x380A JUMP JUMPDEST DUP7 SSTORE POP PUSH2 0x38EC JUMP JUMPDEST PUSH1 0x1F NOT DUP5 AND PUSH2 0x389B DUP7 PUSH2 0x3691 JUMP JUMPDEST PUSH0 JUMPDEST DUP3 DUP2 LT ISZERO PUSH2 0x38C2 JUMPI DUP5 DUP10 ADD MLOAD DUP3 SSTORE PUSH1 0x1 DUP3 ADD SWAP2 POP PUSH1 0x20 DUP6 ADD SWAP5 POP PUSH1 0x20 DUP2 ADD SWAP1 POP PUSH2 0x389D JUMP JUMPDEST DUP7 DUP4 LT ISZERO PUSH2 0x38DF JUMPI DUP5 DUP10 ADD MLOAD PUSH2 0x38DB PUSH1 0x1F DUP10 AND DUP3 PUSH2 0x37EE JUMP JUMPDEST DUP4 SSTORE POP JUMPDEST PUSH1 0x1 PUSH1 0x2 DUP9 MUL ADD DUP9 SSTORE POP POP POP JUMPDEST POP POP POP POP POP POP JUMP JUMPDEST PUSH0 DUP3 DUP3 MSTORE PUSH1 0x20 DUP3 ADD SWAP1 POP SWAP3 SWAP2 POP POP JUMP JUMPDEST PUSH0 PUSH2 0x390E DUP3 PUSH2 0x3228 JUMP JUMPDEST PUSH2 0x3918 DUP2 DUP6 PUSH2 0x38F4 JUMP JUMPDEST SWAP4 POP PUSH2 0x3928 DUP2 DUP6 PUSH1 0x20 DUP7 ADD PUSH2 0x254C JUMP JUMPDEST PUSH2 0x3931 DUP2 PUSH2 0x255A JUMP JUMPDEST DUP5 ADD SWAP2 POP POP SWAP3 SWAP2 POP POP JUMP JUMPDEST PUSH0 PUSH1 0x20 DUP3 ADD SWAP1 POP DUP2 DUP2 SUB PUSH0 DUP4 ADD MSTORE PUSH2 0x3954 DUP2 DUP5 PUSH2 0x3904 JUMP JUMPDEST SWAP1 POP SWAP3 SWAP2 POP POP JUMP JUMPDEST PUSH32 0x417277656176652055706C6F6164204661696C65640000000000000000000000 PUSH0 DUP3 ADD MSTORE POP JUMP JUMPDEST PUSH0 PUSH2 0x3990 PUSH1 0x15 DUP4 PUSH2 0x253C JUMP JUMPDEST SWAP2 POP PUSH2 0x399B DUP3 PUSH2 0x395C JUMP JUMPDEST PUSH1 0x20 DUP3 ADD SWAP1 POP SWAP2 SWAP1 POP JUMP JUMPDEST PUSH0 PUSH1 0x20 DUP3 ADD SWAP1 POP DUP2 DUP2 SUB PUSH0 DUP4 ADD MSTORE PUSH2 0x39BD DUP2 PUSH2 0x3984 JUMP JUMPDEST SWAP1 POP SWAP2 SWAP1 POP JUMP JUMPDEST PUSH0 PUSH2 0x39D6 PUSH2 0x39D1 DUP5 PUSH2 0x26D3 JUMP JUMPDEST PUSH2 0x26B9 JUMP JUMPDEST SWAP1 POP DUP3 DUP2 MSTORE PUSH1 0x20 DUP2 ADD DUP5 DUP5 DUP5 ADD GT ISZERO PUSH2 0x39F2 JUMPI PUSH2 0x39F1 PUSH2 0x2657 JUMP JUMPDEST JUMPDEST PUSH2 0x39FD DUP5 DUP3 DUP6 PUSH2 0x254C JUMP JUMPDEST POP SWAP4 SWAP3 POP POP POP JUMP JUMPDEST PUSH0 DUP3 PUSH1 0x1F DUP4 ADD SLT PUSH2 0x3A19 JUMPI PUSH2 0x3A18 PUSH2 0x2653 JUMP JUMPDEST JUMPDEST DUP2 MLOAD PUSH2 0x3A29 DUP5 DUP3 PUSH1 0x20 DUP7 ADD PUSH2 0x39C4 JUMP JUMPDEST SWAP2 POP POP SWAP3 SWAP2 POP POP JUMP JUMPDEST PUSH0 PUSH1 0x20 DUP3 DUP5 SUB SLT ISZERO PUSH2 0x3A47 JUMPI PUSH2 0x3A46 PUSH2 0x23C3 JUMP JUMPDEST JUMPDEST PUSH0 DUP3 ADD MLOAD PUSH8 0xFFFFFFFFFFFFFFFF DUP2 GT ISZERO PUSH2 0x3A64 JUMPI PUSH2 0x3A63 PUSH2 0x23C7 JUMP JUMPDEST JUMPDEST PUSH2 0x3A70 DUP5 DUP3 DUP6 ADD PUSH2 0x3A05 JUMP JUMPDEST SWAP2 POP POP SWAP3 SWAP2 POP POP JUMP JUMPDEST PUSH0 PUSH2 0x100 DUP3 ADD SWAP1 POP PUSH2 0x3A8D PUSH0 DUP4 ADD DUP12 PUSH2 0x262B JUMP JUMPDEST DUP2 DUP2 SUB PUSH1 0x20 DUP4 ADD MSTORE PUSH2 0x3A9F DUP2 DUP11 PUSH2 0x256A JUMP JUMPDEST SWAP1 POP DUP2 DUP2 SUB PUSH1 0x40 DUP4 ADD MSTORE PUSH2 0x3AB3 DUP2 DUP10 PUSH2 0x256A JUMP JUMPDEST SWAP1 POP PUSH2 0x3AC2 PUSH1 0x60 DUP4 ADD DUP9 PUSH2 0x27D9 JUMP JUMPDEST PUSH2 0x3ACF PUSH1 0x80 DUP4 ADD DUP8 PUSH2 0x262B JUMP JUMPDEST DUP2 DUP2 SUB PUSH1 0xA0 DUP4 ADD MSTORE PUSH2 0x3AE1 DUP2 DUP7 PUSH2 0x256A JUMP JUMPDEST SWAP1 POP DUP2 DUP2 SUB PUSH1 0xC0 DUP4 ADD MSTORE PUSH2 0x3AF5 DUP2 DUP6 PUSH2 0x256A JUMP JUMPDEST SWAP1 POP PUSH2 0x3B04 PUSH1 0xE0 DUP4 ADD DUP5 PUSH2 0x262B JUMP JUMPDEST SWAP10 SWAP9 POP POP POP POP POP POP POP POP POP JUMP JUMPDEST PUSH32 0x5265656E7472616E637947756172643A207265656E7472616E742063616C6C00 PUSH0 DUP3 ADD MSTORE POP JUMP JUMPDEST PUSH0 PUSH2 0x3B45 PUSH1 0x1F DUP4 PUSH2 0x253C JUMP JUMPDEST SWAP2 POP PUSH2 0x3B50 DUP3 PUSH2 0x3B11 JUMP JUMPDEST PUSH1 0x20 DUP3 ADD SWAP1 POP SWAP2 SWAP1 POP JUMP JUMPDEST PUSH0 PUSH1 0x20 DUP3 ADD SWAP1 POP DUP2 DUP2 SUB PUSH0 DUP4 ADD MSTORE PUSH2 0x3B72 DUP2 PUSH2 0x3B39 JUMP JUMPDEST SWAP1 POP SWAP2 SWAP1 POP JUMP INVALID LOG2 PUSH5 0x6970667358 0x22 SLT KECCAK256 0xF9 0xB2 0xA6 BLOBBASEFEE SWAP15 0xE4 DUP6 0xBF 0x4D 0xA6 MCOPY SLT BYTE 0xAC 0x28 DUP12 0xFC 0xC9 SSTORE 0xCF TSTORE DUP6 0xBB PUSH27 0x6C9028A2FBC7E02764736F6C634300081A00330000000000000000 "
				},
				"gasEstimates": {
					"creation": {
						"codeDepositCost": "3055800",
						"executionCost": "infinite",
						"totalCost": "infinite"
					},
					"external": {
						"addComment(uint256,string)": "infinite",
						"channelAccessFee(address)": "2913",
						"deleteComment(uint256,uint256)": "infinite",
						"editComment(uint256,uint256,string)": "infinite",
						"getVideo(uint256)": "infinite",
						"hasAccess(address,address)": "infinite",
						"likeVideo(uint256)": "infinite",
						"payForAccess(address)": "infinite",
						"platformAddress()": "2530",
						"platformFeePercentage()": "414",
						"tipUploader(uint256,uint256)": "infinite",
						"token()": "infinite",
						"unlikeVideo(uint256)": "infinite",
						"uploadVideo(string,string,bytes,string[],string,uint256,uint256)": "infinite",
						"videoComments(uint256,uint256)": "infinite",
						"videoCount()": "2492",
						"videoLikes(uint256,address)": "3138",
						"videoTips(uint256,address)": "infinite",
						"videos(uint256)": "infinite",
						"withdrawTips()": "infinite"
					}
				},
				"methodIdentifiers": {
					"addComment(uint256,string)": "aa7e5683",
					"channelAccessFee(address)": "7ffd8a8c",
					"deleteComment(uint256,uint256)": "31a4bcb5",
					"editComment(uint256,uint256,string)": "fa561152",
					"getVideo(uint256)": "2893eca2",
					"hasAccess(address,address)": "1709ef07",
					"likeVideo(uint256)": "27260d5c",
					"payForAccess(address)": "63370ee7",
					"platformAddress()": "dbe55e56",
					"platformFeePercentage()": "cdd78cfc",
					"tipUploader(uint256,uint256)": "147331e1",
					"token()": "fc0c546a",
					"unlikeVideo(uint256)": "11abd324",
					"uploadVideo(string,string,bytes,string[],string,uint256,uint256)": "fd442dbd",
					"videoComments(uint256,uint256)": "d4516ab5",
					"videoCount()": "c61b5f4c",
					"videoLikes(uint256,address)": "61746a5c",
					"videoTips(uint256,address)": "8c33f3b0",
					"videos(uint256)": "e6821bf5",
					"withdrawTips()": "3aaa74b2"
				}
			},
			"storageLayout": {
				"storage": [
					{
						"astId": 10,
						"contract": "contracts/Video.sol:VideoSharing",
						"label": "_status",
						"offset": 0,
						"slot": "0",
						"type": "t_uint256"
					},
					{
						"astId": 163,
						"contract": "contracts/Video.sol:VideoSharing",
						"label": "token",
						"offset": 0,
						"slot": "1",
						"type": "t_contract(IERC20)142"
					},
					{
						"astId": 165,
						"contract": "contracts/Video.sol:VideoSharing",
						"label": "platformAddress",
						"offset": 0,
						"slot": "2",
						"type": "t_address"
					},
					{
						"astId": 203,
						"contract": "contracts/Video.sol:VideoSharing",
						"label": "videos",
						"offset": 0,
						"slot": "3",
						"type": "t_mapping(t_uint256,t_struct(Video)189_storage)"
					},
					{
						"astId": 210,
						"contract": "contracts/Video.sol:VideoSharing",
						"label": "videoComments",
						"offset": 0,
						"slot": "4",
						"type": "t_mapping(t_uint256,t_mapping(t_uint256,t_struct(Comment)198_storage))"
					},
					{
						"astId": 216,
						"contract": "contracts/Video.sol:VideoSharing",
						"label": "videoLikes",
						"offset": 0,
						"slot": "5",
						"type": "t_mapping(t_uint256,t_mapping(t_address,t_bool))"
					},
					{
						"astId": 222,
						"contract": "contracts/Video.sol:VideoSharing",
						"label": "hasAccess",
						"offset": 0,
						"slot": "6",
						"type": "t_mapping(t_address,t_mapping(t_address,t_bool))"
					},
					{
						"astId": 228,
						"contract": "contracts/Video.sol:VideoSharing",
						"label": "videoTips",
						"offset": 0,
						"slot": "7",
						"type": "t_mapping(t_uint256,t_mapping(t_address,t_uint256))"
					},
					{
						"astId": 232,
						"contract": "contracts/Video.sol:VideoSharing",
						"label": "channelAccessFee",
						"offset": 0,
						"slot": "8",
						"type": "t_mapping(t_address,t_uint256)"
					},
					{
						"astId": 234,
						"contract": "contracts/Video.sol:VideoSharing",
						"label": "videoCount",
						"offset": 0,
						"slot": "9",
						"type": "t_uint256"
					}
				],
				"types": {
					"t_address": {
						"encoding": "inplace",
						"label": "address",
						"numberOfBytes": "20"
					},
					"t_array(t_string_storage)dyn_storage": {
						"base": "t_string_storage",
						"encoding": "dynamic_array",
						"label": "string[]",
						"numberOfBytes": "32"
					},
					"t_bool": {
						"encoding": "inplace",
						"label": "bool",
						"numberOfBytes": "1"
					},
					"t_contract(IERC20)142": {
						"encoding": "inplace",
						"label": "contract IERC20",
						"numberOfBytes": "20"
					},
					"t_mapping(t_address,t_bool)": {
						"encoding": "mapping",
						"key": "t_address",
						"label": "mapping(address => bool)",
						"numberOfBytes": "32",
						"value": "t_bool"
					},
					"t_mapping(t_address,t_mapping(t_address,t_bool))": {
						"encoding": "mapping",
						"key": "t_address",
						"label": "mapping(address => mapping(address => bool))",
						"numberOfBytes": "32",
						"value": "t_mapping(t_address,t_bool)"
					},
					"t_mapping(t_address,t_uint256)": {
						"encoding": "mapping",
						"key": "t_address",
						"label": "mapping(address => uint256)",
						"numberOfBytes": "32",
						"value": "t_uint256"
					},
					"t_mapping(t_uint256,t_mapping(t_address,t_bool))": {
						"encoding": "mapping",
						"key": "t_uint256",
						"label": "mapping(uint256 => mapping(address => bool))",
						"numberOfBytes": "32",
						"value": "t_mapping(t_address,t_bool)"
					},
					"t_mapping(t_uint256,t_mapping(t_address,t_uint256))": {
						"encoding": "mapping",
						"key": "t_uint256",
						"label": "mapping(uint256 => mapping(address => uint256))",
						"numberOfBytes": "32",
						"value": "t_mapping(t_address,t_uint256)"
					},
					"t_mapping(t_uint256,t_mapping(t_uint256,t_struct(Comment)198_storage))": {
						"encoding": "mapping",
						"key": "t_uint256",
						"label": "mapping(uint256 => mapping(uint256 => struct VideoSharing.Comment))",
						"numberOfBytes": "32",
						"value": "t_mapping(t_uint256,t_struct(Comment)198_storage)"
					},
					"t_mapping(t_uint256,t_struct(Comment)198_storage)": {
						"encoding": "mapping",
						"key": "t_uint256",
						"label": "mapping(uint256 => struct VideoSharing.Comment)",
						"numberOfBytes": "32",
						"value": "t_struct(Comment)198_storage"
					},
					"t_mapping(t_uint256,t_struct(Video)189_storage)": {
						"encoding": "mapping",
						"key": "t_uint256",
						"label": "mapping(uint256 => struct VideoSharing.Video)",
						"numberOfBytes": "32",
						"value": "t_struct(Video)189_storage"
					},
					"t_string_storage": {
						"encoding": "bytes",
						"label": "string",
						"numberOfBytes": "32"
					},
					"t_struct(Comment)198_storage": {
						"encoding": "inplace",
						"label": "struct VideoSharing.Comment",
						"members": [
							{
								"astId": 191,
								"contract": "contracts/Video.sol:VideoSharing",
								"label": "id",
								"offset": 0,
								"slot": "0",
								"type": "t_uint256"
							},
							{
								"astId": 193,
								"contract": "contracts/Video.sol:VideoSharing",
								"label": "commenter",
								"offset": 0,
								"slot": "1",
								"type": "t_address"
							},
							{
								"astId": 195,
								"contract": "contracts/Video.sol:VideoSharing",
								"label": "content",
								"offset": 0,
								"slot": "2",
								"type": "t_string_storage"
							},
							{
								"astId": 197,
								"contract": "contracts/Video.sol:VideoSharing",
								"label": "timestamp",
								"offset": 0,
								"slot": "3",
								"type": "t_uint256"
							}
						],
						"numberOfBytes": "128"
					},
					"t_struct(Video)189_storage": {
						"encoding": "inplace",
						"label": "struct VideoSharing.Video",
						"members": [
							{
								"astId": 167,
								"contract": "contracts/Video.sol:VideoSharing",
								"label": "id",
								"offset": 0,
								"slot": "0",
								"type": "t_uint256"
							},
							{
								"astId": 169,
								"contract": "contracts/Video.sol:VideoSharing",
								"label": "title",
								"offset": 0,
								"slot": "1",
								"type": "t_string_storage"
							},
							{
								"astId": 171,
								"contract": "contracts/Video.sol:VideoSharing",
								"label": "description",
								"offset": 0,
								"slot": "2",
								"type": "t_string_storage"
							},
							{
								"astId": 173,
								"contract": "contracts/Video.sol:VideoSharing",
								"label": "uploader",
								"offset": 0,
								"slot": "3",
								"type": "t_address"
							},
							{
								"astId": 175,
								"contract": "contracts/Video.sol:VideoSharing",
								"label": "uploadDate",
								"offset": 0,
								"slot": "4",
								"type": "t_uint256"
							},
							{
								"astId": 177,
								"contract": "contracts/Video.sol:VideoSharing",
								"label": "arweaveTxId",
								"offset": 0,
								"slot": "5",
								"type": "t_string_storage"
							},
							{
								"astId": 179,
								"contract": "contracts/Video.sol:VideoSharing",
								"label": "thumbnailUrl",
								"offset": 0,
								"slot": "6",
								"type": "t_string_storage"
							},
							{
								"astId": 181,
								"contract": "contracts/Video.sol:VideoSharing",
								"label": "duration",
								"offset": 0,
								"slot": "7",
								"type": "t_uint256"
							},
							{
								"astId": 184,
								"contract": "contracts/Video.sol:VideoSharing",
								"label": "categoryList",
								"offset": 0,
								"slot": "8",
								"type": "t_array(t_string_storage)dyn_storage"
							},
							{
								"astId": 186,
								"contract": "contracts/Video.sol:VideoSharing",
								"label": "likesCount",
								"offset": 0,
								"slot": "9",
								"type": "t_uint256"
							},
							{
								"astId": 188,
								"contract": "contracts/Video.sol:VideoSharing",
								"label": "commentsCount",
								"offset": 0,
								"slot": "10",
								"type": "t_uint256"
							}
						],
						"numberOfBytes": "352"
					},
					"t_uint256": {
						"encoding": "inplace",
						"label": "uint256",
						"numberOfBytes": "32"
					}
				}
			},
			"userdoc": {
				"kind": "user",
				"methods": {},
				"version": 1
			}
		}
	}
}